:020000040800F2
:10000000E8BD00209D0100083D4C00084D28000877
:1000100055400008D5120008B56000080000000037
:100020000000000000000000000000006150000817
:10003000D516000800000000594E0008E1510008E4
:10004000B7010008B7010008B7010008B7010008B0
:10005000B7010008B7010008B7010008B7010008A0
:10006000B7010008B7010008B7010008B701000890
:10007000B7010008B7010008B7010008B701000880
:100080002D130008B7010008B7010008B7010008E8
:10009000B7010008B7010008B7010008B701000860
:1000A000B7010008B7010008B7010008B701000850
:1000B000B7010008B7010008B7010008B701000840
:1000C000B7010008B7010008B7010008B701000830
:1000D000B7010008B7010008B7010008B701000820
:1000E000B7010008B7010008B7010008B701000810
:1000F000B7010008B7010008B7010008B701000800
:10010000B7010008B701000869550008B7010008E9
:10011000B7010008B701000875560008B7010008CC
:10012000B7010008B7010008B7010008B7010008CF
:10013000B7010008B7010008B7010008B7010008BF
:10014000B7010008B7010008B7010008B7010008AF
:10015000B7010008B7010008B70100084D5D0008AD
:10016000B7010008B7010008B7010008B70100088F
:10017000B7010008B7010008B7010008B70100087F
:10018000B7010008B7010008DFF80CD000F0B4FC9C
:1001900000480047D56D0008E8BD002006488047AC
:1001A00006480047FEE7FEE7FEE7FEE7FEE7FEE75C
:1001B000FEE7FEE7FEE7FEE7E551000889010008DB
:1001C0009FED1A1AF5EE000A40EE010ABDEEE00AB4
:1001D000F5EEC00A10EE100AF1EE10FA38BF401E1C
:1001E00000EE100A1349F7EE001AB8EEC00A30EE1E
:1001F000C00ADFED0F0A20EE200AFCEEC00A10EE66
:10020000900AC0F3080000EE900A01EB8000F8EEBF
:10021000600A90ED011A70EE600A90ED000A71EE2E
:10022000E01A21EE800A00EE810A704783F9223E2F
:1002300000000044F4800008B5EEC00AF1EE10FAA8
:1002400007D2DFED1E0AB4EEE00AF1EE10FAA8BF05
:100250007047DFED1B0AB5EEC00A60EE200ABDEE66
:10026000E01A11EE100AF1EE10FA38BF401E00EE4F
:10027000100A1549F7EE001AB8EEC00A30EEC00AAF
:10028000DFED100A60EE200ABCEEE00A10EE100A64
:10029000C0F3080000EE100A01EB8000B8EE400A3F
:1002A00090ED011A70EEC00A90ED000A71EEE01AAE
:1002B00021EE800A00EE810A70470000CD024CB4A6
:1002C00083F9223E00000044F480000810B5431A70
:1002D000934209D28318881803E010F8011D03F82F
:1002E000011D521EF9D210BD40EA01039B0703D045
:1002F00009E008C9121F08C0042AFAD203E011F865
:10030000013B00F8013B521EF9D210BDD2B201E010
:1003100000F8012B491EFBD270470022F6E710B50A
:1003200013460A4604461946FFF7F0FF204610BD63
:10033000CAB2401E10F8011F8A4202D00029F9D12A
:1003400000207047421C10F8011B0029FBD1801AC5
:10035000704710B5002200E0521C835C8C5CA34205
:1003600001D1002BF8D1D8B2E1B2401A10BD30B59E
:1003700005460020034600E05B1C934205D2EC5C7E
:10038000C85C201A01D1002CF6D130BD2DE9F04710
:1003900091460F4680460446002614F8015B2DB1B5
:1003A00000F038FA0068405DC007F6D12B2D02D06E
:1003B0002D2D18D0641E4A463946204600F02EFAEC
:1003C00027B13968A14201D1C7F8008071054FF00B
:1003D00002040BD54042002803DD05F091FE0460C5
:1003E000A007BDE8F08746F48066E4E70028F8DA65
:1003F00005F086FE04606FF00040F2E72DE9FE4F45
:10040000804681EA0300C00F0C46009021F00041B5
:1004100023F00045B8EB0200A94105D24046214631
:1004200090461C460B46024623F00040104347D03E
:10043000270DC7F30A00C3F30A510290401A019036
:1004400040286BDAC3F3130040F4801B00989246F7
:1004500020B10023D2EB030A63EB0B0B0198594642
:10046000C0F14002504600F0A4F906460D46504641
:100470005946019A00F0BCF910EB080061410024D4
:1004800087EA115284EAE7731A4340D0009A62B3B4
:10049000019A012A4FEA075215DC001B61EB0201A9
:1004A0004FF0004202EA0752CDE90042001C41F53C
:1004B000801132462B4600F046FA03B0BDE8F08FBB
:1004C00040462146F9E7001B61EB0201001C41F5A3
:1004D000801300185B412018A2F5001747EB0301B9
:1004E00040EAD570B6196D4111E06D084FEA360645
:1004F00045EAC0754FEA0752001B61EB0201001C80
:1005000041F5801149084FEA300000195141324647
:100510002B4603B0BDE8F04F00F006BA0098012268
:1005200040000023D0EB020263EBE0730098214609
:100530004FEAE074B8EB000061EB0401E9E783F0F7
:1005400000435BE781F0004158E72DE9F04D81EA77
:10055000030404F0004B21F0004514464FF0000A5C
:1005600023F0004150EA050220D054EA01021DD0D8
:10057000C5F30A570246C5F31303C1F31300C1F3D1
:100580000A5640F4801543F48013A7EB0608101BAD
:10059000D64608F2FD3873EB050002D308F10108D6
:1005A00001E092185B41B8F1000F03DA0020014628
:1005B000BDE8F08D00204FF48011064684460EE021
:1005C000171B73EB050705D3121B63EB05030643EB
:1005D0004CEA010C49084FEA300092185B4150EA9E
:1005E0000107EDD152EA030012D082EA040083EA47
:1005F0000501084305D0101BAB4106D201220023A0
:1006000006E000224FF0004302E06FF001025310B9
:100610001AEB06004CEB085110EB0A0041EB0B0102
:10062000BDE8F04D00F080B970B5C1F30A5201F099
:1006300000450024C1F3130140F2FF3341F480115F
:100640009A4201DA002070BD40F233439A42A2F28E
:10065000334203DC524200F0BBF800E090402C43F0
:10066000F1D0404270BD00F0004230F000400AD0AE
:10067000C10D01F56071C0F3160042EA0151C208D4
:1006800040071143704700200146704730B5041EF3
:1006900071F1000404DB4FF00044404264EB0101BF
:1006A000141E73F1000405DB1C464FF00043524258
:1006B00063EB04038B4208BF824230BD30B5041E99
:1006C00071F1000404DB4FF00044404264EB01018F
:1006D000141E73F1000405DB1C464FF00043524228
:1006E00063EB0403994208BF904230BD01F0004320
:1006F00030B421F0004150EA010206D00A0DA2F503
:100700006072C1F31301002A02DC30BC0020704784
:10071000440F44EAC104C100E01830BC00EBC250F1
:1007200000F0CBB830B50B46014600202022012452
:1007300009E021FA02F59D4205D303FA02F5491BAF
:1007400004FA02F52844151EA2F10102F1DC30BDC5
:100750002DE9F05F0546002092469B4688460646F6
:10076000814640241BE0284641464746224600F089
:100770002FF853465A46C01A914110D311461846D5
:10078000224600F016F82D1A67EB01084F46224664
:100790000120002100F00DF817EB00094E41201E4A
:1007A000A4F10104DFDC484631462A464346BDE851
:1007B000F09F202A04DB203A00FA02F10020704763
:1007C0009140C2F1200320FA03F31943904070478F
:1007D000202A04DB203A21FA02F00021704721FA96
:1007E00002F3D040C2F120029140084319467047FD
:1007F000202A06DBCB17203A41FA02F043EAE073E5
:1008000006E041FA02F3D040C2F1200291400843D1
:1008100019467047004870477C8900082DE9F05F51
:1008200082460078002715468B460AF10104B94636
:10083000302801D09DB113E014F8010B012778286E
:1008400003D0582801D045B10AE00DB1102D07D1D1
:100850000027102514F8010B02E0082500E00A2506
:100860000026B0460EE005FB080005FB06F1012757
:1008700001EB10461FFA80F8B6F5803F00D3B94669
:1008800014F8010B294600F049F90028EBDABBF116
:10089000000F05D00FB1641E00E05446CBF80040B5
:1008A000B9F1000F06D005F02BFC02210160C81E33
:1008B000BDE8F09F48EA0640FAE70029A8BF704764
:1008C000401C490008BF20F00100704710B4B0FA86
:1008D00080FC00FA0CF050EA010404BF10BC704721
:1008E00049B1CCF1200421FA04F411FA0CF118BF3B
:1008F000012121430843A3EB0C01CB1D4FEA00610A
:100900004FEA102042BF002010BC704700EBC350DC
:1009100010440029A4BF10BC7047401C490008BF08
:1009200020F0010010BC704710B5141E73F10004D4
:1009300008DA401C41F1000192185B411A4301D1D1
:1009400020F0010010BD2DE9F04D92469B4611B1FB
:10095000B1FA81F202E0B0FA80F220329046FFF75D
:1009600028FF04460F4640EA0A0041EA0B015346BD
:100970005A46084313D0114653EA010019D0C8F172
:1009800040025046FFF724FF05460E4650465946A2
:100990004246FFF70EFF084305D0012004E0204641
:1009A0003946BDE8F08D0020054346EAE0762C4349
:1009B00037430A986305E40AA0EB08000022FD0A09
:1009C00044EA47540A3002D500200146E9E7010510
:1009D00010196941DDE9084500196941BDE8F04D8C
:1009E000A2E72DE9FE4F81EA030404F0004421F060
:1009F000004100944FF0000B23F0004350EA010443
:100A00005ED052EA03045BD0C3F30A54C1F30A5523
:100A10002C44A4F2F3340194A0FB0254C1F313015B
:100A200041F48011C3F3130343F4801301FB024428
:100A300000FB034E840A970A44EA815447EA83572D
:100A4000A4FB076802958D0A05FB07854FEA932CE6
:100A500004FB0C542705029D4FEA065847EA163757
:100A6000B5EB08056EEB070C870E920E47EA81176F
:100A700042EA8312A7FB0201B6EB0B0164EB000410
:100A80002B0D43EA0C335E1844EB1C50DA465146FA
:100A9000E7FB0201C5F313044FEA0B3343EA145397
:100AA0004FEA0432019C43EA0603A4F10C040294C9
:100AB000009CCDE900B4FFF746FF03B0BDE8F08F1E
:100AC00000200146F9E7C1F30A52C1F3130140F2D5
:100AD000FF3341F480119A4202DA00200146704748
:100AE00040F233439A42A2F2334202DC5242FFF711
:100AF0006FBEFFF75EBE0000064C074D06E0E068E3
:100B000040F0010394E8070098471034AC42F6D354
:100B1000FFF73EFBA08B0008C08B00083A2800D2EC
:100B2000303820F02002412A01D3A2F13700884258
:100B300001D34FF0FF30704770B58C1810F8015B8F
:100B400015F0070301D110F8013B2A1106D110F866
:100B5000012B03E010F8016B01F8016B5B1EF9D16A
:100B60002B0705D40023521E0DD401F8013BFAE7F0
:100B700010F8013BCB1A921C03E013F8015B01F85B
:100B8000015B521EF9D5A142D8D3002070BD0000F0
:100B900010B500BFEFF31082114672B600201BE0C3
:100BA000114A92F90020904214D000EB40120F4BF2
:100BB00003EBC20292F8032162B1002200EB401362
:100BC0000A4C04EBC30383F80321094A1268521C40
:100BD000074B1A60421CD0B20628E1DB00BF81F34C
:100BE000108800BF10BD0000CC000020D4220020DF
:100BF000D40000200020002110E001EB4112094B3D
:100C000003EBC20292F8032132B9074A92F900209D
:100C10008A4201D0421CD0B24A1CD1B20629ECDB78
:100C200070470000D4220020CC000020002110E0FA
:100C300001EB4110094A02EBC00090F8030130B902
:100C4000074890F90000884201D001207047481CF5
:100C5000C1B20429ECDB0020F8E70000D422002018
:100C6000CC0000202DE9F04107460D461646022E25
:100C700001D1062000E00420804600F003FB01F0D3
:100C800069FD10B90020BDE8F08115B1B5F5807F90
:100C900006DD28480068401C264908600020F2E76D
:100CA00000243DE004EB4410234901EBC00090F820
:100CB000030190BB214890F90000A0422ED004EB24
:100CC00044111D4A02EBC1002A463946FFF7FEFADD
:100CD00004EB4410184901EBC000A0F8005104EBEC
:100CE000441001EBC00080F802611548006804EB75
:100CF0004411114A02EBC101C1F804011048006817
:100D0000401C0F490860BFF35F8F012004EB4411C2
:100D100002EBC10181F80301B5E7FFE7601CC4B233
:100D20004445BFDB03480068401C024908600020BE
:100D3000A9E70000D4000020D4220020CC0000202D
:100D4000D0000020F0B5B3B004F02CFF424800788A
:100D500008B933B0F0BD00BFEFF31080054672B69E
:100D60003E4806783C480078022801D1012000E086
:100D70000020074632463A4901A8FFF7A7FA00F0DB
:100D8000ABFA00BF85F3108800BF2FB100203549B2
:100D90000870012034490870002458E001A8005D63
:100DA0000A2826D130480078D0B92E48007858B1AA
:100DB0002C480078401E2D49085C0D2804D1294894
:100DC0000078401E2749087000202849254A1278DB
:100DD00088542448007830B1084604F0B1FD02E0A0
:100DE00023A001F019FA00201E4908701E4908705E
:100DF0002BE01D48007840BB01A8005D20280ADADE
:100E000001A8005D0D2806D00120174908700020B8
:100E10001449087019E013480078C7280AD201A8BD
:100E2000015D104802780078401C0E4B18700F4886
:100E300081540AE001200C4908700020094908701B
:100E40000F480068401C0E490860601CC4B2B442E0
:100E5000A4DB00BF7DE700003F0000204000002031
:100E6000C4160020DA000020DB0000200429002046
:100E7000455252206F766572666C6F770D0A0000DE
:100E80006800002030B52DED028B91B0B0EE408AA5
:100E9000F0EE608A0446244D24480078012803D0EF
:100EA00011B0BDEC028B30BD8DED008A0A2C00DB49
:100EB0000095CDED018A1E4890ED000A8DED020AE5
:100EC00090ED040A8DED030A00EE104AB8EE400AD8
:100ED0008DED040A174890ED000A8DED050A1648BD
:100EE00090ED000A8DED060A1448008800EE100A05
:100EF000B8EE400A8DED070A2022694608A8FFF7E0
:100F0000E5F900208DF840008DF8410080208DF833
:100F100042007F208DF843000022242108A8FFF71B
:100F2000A1FE00BFBCE700000000C07F440000201D
:100F30003CAD00208C01002090010020DE0000204C
:100F400010B5204890F90000002806DA002240F28F
:100F500027711D4805F00EF810BD1C480488601C60
:100F60001A4A1080174890F9000000EB4010184A08
:100F700002EBC000015D144805F08CF8114890F9AF
:100F8000000000EB4010124901EBC000B0F8000176
:100F90000E490988884213DC00200A4991F90010A3
:100FA00001EB41110A4A02EBC10181F80301FF2064
:100FB00004490870002240F22771034804F0DAFF68
:100FC00000BFC9E7CC00002000140140CE00002083
:100FD000D422002070B54FF0FF3500F053F901F036
:100FE000B9FB58B93848007820B1FFF7D1FD00208F
:100FF0003649086000203449087070BD012032492C
:101000000870334890F90000002800DBF5E7002461
:1010100039E004EB44102F4901EBC00090F80301C4
:1010200078B3002D2CDB04EB441001EBC00090F8EA
:10103000020105EB4511274A02EBC10191F80211AB
:1010400088421DDC04EB4410114601EBC00090F80F
:10105000020105EB451102EBC10191F80211884232
:101060000FD104EB4410114601EBC000D0F804018D
:1010700005EB451102EBC101D1F80411401A00D56E
:1010800065B2601CC4B2062CC3DB002D00DAB4E7E5
:1010900005EB45120F4B03EBC202B2F8001105EB52
:1010A000451203EBC20000F0BFFD00200A49088092
:1010B00007480570BFF35F8F012240F22771074890
:1010C00004F058FF00BF98E7D80000204C00002033
:1010D000CC000020D4220020CE00002000140140CB
:1010E00070B5044644B12046FFF72CF985B20222C0
:1010F00029462046FFF7B6FD70BD000010B588B048
:1011000004460121042003F0A9FE0121042003F07C
:10111000A5FE082206213B4801F0E2FA0822072139
:10112000384801F0DDFA06A801F00AFB40200690DD
:1011300002208DF81C0003208DF81D0000208DF882
:101140001E0001208DF81F0006A92E4801F080FA2C
:1011500006A801F0F5FA8020069002208DF81C0008
:1011600003208DF81D0000208DF81E0001208DF851
:101170001F0006A9234801F06BFA0121202003F08B
:101180009DFE214804F054FE02A804F087FF02945B
:101190000020ADF80C00ADF80E00ADF810000C20EA
:1011A000ADF812000020ADF8140002A9164804F0B2
:1011B00007FF012240F22551134804F0DBFE012213
:1011C00040F22441104804F0D5FE20210E4804F0DE
:1011D00011FE40F224410C4804F00CFE01210A48A3
:1011E00004F011FE47208DF8040001208DF8050061
:1011F0008DF806008DF8070001A803F021FD08B066
:1012000010BD0000000802400014014010B54FF46A
:10121000E130FFF773FF00F013F802A004F04CFF79
:1012200010BD0000426C7565746F6F74685F496E25
:1012300069742073756363656564210D0A0000009D
:101240001CB50121042003F009FE684601F078FA7C
:101250000420009000208DF8040003208DF8050084
:1012600000208DF8060001208DF80700694604482B
:1012700001F0EEF90421024801F05EFA1CBD000005
:101280000008024010B504210F4801F04CFA50B993
:1012900000200E4908700E480078012802D1002075
:1012A0000B49087010BD0421074801F03CFA0128E1
:1012B00007D1064908700648007810B90120044992
:1012C000087000BFEEE70000000802403E0000206A
:1012D0004100002000BFFEE70020024908700249DB
:1012E00008707047400000203F0000201CB501211D
:1012F000022003F0B3FD01208DF8040000208DF8DA
:1013000006004FF40040009002208DF805000020F8
:101310008DF807006946044801F09AF94FF400413E
:10132000014801F00BFA1CBD0004024010B515493C
:10133000154800F011F918B30021134800F04AF8DD
:101340001248007820B112480068401C104908601B
:1013500000F01CFD40F206720E490F48FEF7B6FF82
:1013600001200A4908700D49074800F019F840F2B9
:101370000671054800F0ACF90121034800F02AF895
:1013800010BD000000080020886002403C000020E2
:101390005C000020B8080020BE0F0020400F002095
:1013A0000246094B9A4201D2084801E0064810382B
:1013B00001F000531BB1064B0B40C36002E0044B2D
:1013C0000B408360704700001064024000600240E0
:1013D0007D0F7D0F21B1026842F00102026003E03F
:1013E000026822F00102026070470000016821F0EB
:1013F000010101600021016041608160C160016103
:10140000212141614A49884204D13D21484A103A8C
:1014100091608CE046491831884205D14FF47461DF
:10142000434A103A916082E041493031884205D107
:101430004FF474113E4A103A916078E03C494831CB
:10144000884205D14FF07461394A103A91606EE0DC
:1014500037496031884204D13649354A103AD16063
:1014600065E033497831884204D13349304A103A33
:10147000D1605CE02E499031884204D12F492C4A3A
:10148000103AD16053E02A49A831884205D14FF083
:101490003D51274A103AD16049E02949884204D198
:1014A0003D21274A083A116041E025491831884218
:1014B00005D14FF47461224A083A116037E020499F
:1014C0003031884205D14FF474111D4A083A116039
:1014D0002DE01B494831884205D14FF07461184A0C
:1014E000083A116023E016496031884204D111495D
:1014F000134A121F11601AE011497831884204D151
:101500000D490F4A121F116011E00D4990318842B8
:1015100004D10A490A4A121F116008E00849A8319B
:10152000884204D14FF03D51054A121F11607047A7
:10153000106002403D000020400F002000003D20D0
:1015400010640240014600200A6802F001020AB15C
:10155000012000E00020704730B503460A46002015
:1015600000240B4DAB4201D20A4901E00849103971
:1015700002F000550DB14C6800E00C68064D2C409F
:1015800004EA02050DB1012000E0002030BD00009A
:1015900010640240006002407D0F7D0F10B501F025
:1015A00080034BB122B1436943F08003436103E000
:1015B000436923F08003436180290BD02AB103687B
:1015C00001F01E042343036004E0036801F01E04DD
:1015D000A343036010BD000010B500220268134B46
:1015E0001A40CC680B6823434C6923438C6923431E
:1015F000CC6923430C6A23434C6A23438C6A2343FC
:101600004C6B23438C6B23431A430260426922F0E4
:101610000702D1E90B3423431A4342610B6943604B
:101620004B6883608B68C36010BD00003F801CF076
:1016300000B591B00121480503F010FC2148FFF7E7
:10164000D5FE00BF1F48FFF77DFF0028FAD14FF0FD
:10165000006002901C4803901C48049000200590F4
:1016600040F206700690002007904FF480600890CA
:10167000002009900A900B904FF480300C900020CD
:101680000D900E900F90109002A90E48FFF7A4FF46
:10169000012210210B48FFF781FF10208DF8040074
:1016A00000208DF805008DF8060001208DF8070058
:1016B00001A803F0C5FA01210248FFF78BFE11B023
:1016C00000BD00008860024004440040B8080020CB
:1016D000416070477047000070B504460D46002019
:1016E0000B4908600B49086068210B48FEF715FE9E
:1016F0000A48046000F099FF094908606021094820
:10170000FEF70BFE40210848FEF707FE70BD000003
:1017100094000020900000208C1700208C000020F6
:1017200088000020341900209419002030B50246AA
:101730000B464FF6FF7017E012F8015B80EA0520B8
:1017400000210FE000F400442CB141F2210484EAAE
:101750004004A4B203E04FF6FF7404EA40042046BC
:101760004C1CE1B20829EDDB1C1EA3F10105ABB254
:10177000E2D130BD10B5B0B0044656A12046FEF708
:10178000E8FD78B90020012154A35AA2CDE9001048
:101790005D4902A804F0A0FC02A803F063FC01204C
:1017A00030B010BD59A12046FEF7D3FD78B9594895
:1017B0000078032804D058A000F02EFD0120EFE7A8
:1017C00000F0FEF857A003F04DFC0120E8E70822E6
:1017D00057A12046FEF7CBFD20BB2FA904F108003E
:1017E00006F024FA08B12F9820B954A000F014FD97
:1017F0000120D5E7FFF7CCF954492F98086006F08F
:1018000003FA002052490860524908705249087092
:1018100052A102A82F9A04F05FFC02A803F022FC58
:101820000120BDE7052252A12046FEF7A0FD10BB16
:101830002FA9601D06F0FAF910B12F98032804D9DA
:101840004DA000F0E9FC0120AAE7FFF7A1F931491A
:101850002F98087006F0D8F900203F4908703D49DC
:10186000087048A102A82F9A04F036FC02A803F0E1
:10187000F9FB012094E7052246A12046FEF777FDFB
:1018800030BB2FA9601D06F0D1F938B12F9828B1CF
:101890002F980A2802D82F48007820B13FA000F0E6
:1018A000BBFC01207CE740492F98087000202A49A2
:1018B00008703E480068401C3C4908603CA102A8F2
:1018C0002F9A04F009FC02A803F0CCFB012067E783
:1018D000002065E7696E666F000000007368613282
:1018E00035362D3630656639323563383434303329
:1018F00035323000726332362D6D61736B33312DAA
:1019000076322E310000000080890008676574631C
:101910006667000044000020455252206D6F6465E8
:101920000D0A00004F4B206765746366670D0A005F
:1019300073657373696F6E2000000000455252207A
:1019400073657373696F6E0D0A0000004C00002010
:1019500070000020A00000209F0000204F4B20734B
:10196000657373696F6E20256C750D0A00000000A9
:1019700074656C65200000004552522074656C65EA
:101980000D0A00004F4B2074656C6520256C750DA9
:101990000A00000072617465200000004552522068
:1019A000726174650D0A00004500002048000020A7
:1019B0004F4B207261746520256C750D0A00000084
:1019C00038B5002408E00B4800EB84026946204645
:1019D00004F0D4F8601CC4B2102CF4DB01200649DA
:1019E000087000200549087005480068401C04493B
:1019F000086038BDF4170020A0000020A1000020DE
:101A0000A400002070B52DED088B0446B0EE408A8E
:101A10000E4615469FED640AF0EE408A00203070B5
:101A200028701A2C0DDA9FED610AB4EEC08AF1EE2F
:101A300010FA06D89FED5E0AB4EEC08AF1EE10FAF5
:101A400003DA0020BDEC088B70BD022C16D1B5EE78
:101A5000C08AF1EE10FA0FD3B2EE020AB4EEC08AD9
:101A6000F1EE10FA08DCBDEEC80AB8EEC00AB4EE1A
:101A7000408AF1EE10FA01D00020E3E7142C0DD1DA
:101A8000B5EEC08AF1EE10FA08D0B7EE000AB4EE57
:101A9000408AF1EE10FA01D00020D3E71CB99FED87
:101AA000450AF0EE408A032C05D0052C03D0072C04
:101AB00001D0082C03D1B3EE0E0AF0EE408A042CBC
:101AC00001D0062C03D19FED3C0AF0EE408AF5EEE2
:101AD000C08AF1EE10FA08D1122C06D0B5EEC08AF9
:101AE000F1EE10FA01D20020ACE701203070F5EEE3
:101AF000C08AF1EE10FA14D0B4EEE88AF1EE10FAD2
:101B000002DDB0EE688A2870B1EE680AB4EEC08AD1
:101B1000F1EE10FA05D2B1EE680AB0EE408A01206B
:101B20002870264830F8140000EE100AB8EE400A7B
:101B300020EE089A9FED220AB4EEC09AF1EE10FA58
:101B400004DD0120287047F6FF707BE79FED1D0A3A
:101B5000B4EEC09AF1EE10FA03D2012028701A48B0
:101B600070E719EE100AFEF77EFD41EC1B0BB5EE97
:101B7000C09AF1EE10FA02DB9FED141B01E09FED1D
:101B8000151BB0EE410AF0EE610A53EC102B51EC3C
:101B90001B0BFEF733FC41EC1A0B51EC1A0BFEF752
:101BA00043FD00B24EE7000000000000FFFF7F7F12
:101BB000FFFF7FFF000016440060EA46A07F000898
:101BC00000FEFF46000000C70080FFFF000000008D
:101BD0000000E03F000000000000E0BF1A281BDA10
:101BE0000E4A02EB800282ED000A012282400C4B79
:101BF0001B681A430A4B1A6039B101228240094B13
:101C00001B681A43074B1A6006E001228240054B0D
:101C10001B689343034A1360704700008C17002031
:101C2000940000209000002070B504460D46102D51
:101C30001CDB2078AA2819D16078552816D1A07805
:101C4000022813D10A4801680068401C084B18603C
:101C5000A01D06F02BF8281F81B2A01CFFF766FD1F
:101C600006466119881E314606F01CF870BD00005A
:101C70007000002070B505460E462C461E48854271
:101C80000FD1D4ED000AB0EE600A31460320FFF711
:101C9000A5FFD4ED010AB0EE600A31460420FFF73B
:101CA0009DFF164885420FD1D4ED000AB0EE600AC0
:101CB00031460520FFF792FFD4ED010AB0EE600A2D
:101CC00031460620FFF78AFF0D48854207D1D4ED43
:101CD000000AB0EE600A31460720FFF77FFF09488F
:101CE000854207D1D4ED000AB0EE600A31460820E3
:101CF000FFF774FF70BD00001C01002034010020BC
:101D00003C0100204401002030B50446F0EE400ABA
:101D10000D462946B0EE600A2046FFF75FFF01201E
:101D2000A0400349096881430148016030BD0000BB
:101D30009400002008B50121102003F09FF8002036
:101D4000104908805320088540F2E730C86201201E
:101D50008882002008820C49086001200949888196
:101D600036208DF8000000208DF8010001208DF84C
:101D700002008DF80300684602F062FF012001496D
:101D8000088008BD001000406C00002010B500F075
:101D90004CFC0649086000F041FC05490860054814
:101DA0000068401C0349086010BD00005800002076
:101DB00054000020500000202DE9F04105460E4659
:101DC000174637480068401C35490860804635484A
:101DD0000078032802D13448006808B9BDE8F081D2
:101DE0003248006832490968401A402805D3314812
:101DF0000068401C2F490860F0E72C48006800F09C
:101E00003F0000EBC0002C4901EB8004C4F80080C7
:101E10002A480068606000F008FCA060A5814FF0CF
:101E20008040406BE081264890ED000A84ED040A72
:101E3000244890ED000A84ED050A234890ED000A3D
:101E400084ED060A214890ED000A84ED070A0EB1E0
:101E5000012000E000200FB1022100E00021084332
:101E60001B49097809B1042100E000210843194900
:101E7000097809B1082100E00021084316490988C2
:101E800009B1102100E0002108432062BFF35F8FF9
:101E900006480068401C0549086000BF9EE7000036
:101EA000B8000020440000204C000020B0000020BA
:101EB000B4000020BC000020D419002048000020FD
:101EC0008C01002090010020A8000020AC00002020
:101ED0007E0100207F0100208801002070B52DEDDB
:101EE000028B05460C46B0EE408A1448007818B9BB
:101EF000FEF780FE022803DA0020BDEC028B70BDE5
:101F00000F480078032808D1D4ED000AB0EE600A2B
:101F1000F0EE480A284604F0F3FE04F0F5F8064611
:101F200072B684ED008A07480068401C05490860C5
:101F3000304604F005F90120DFE70000A000002092
:101F400044000020480000202DE9F043A1B000F03B
:101F500065FB06468024FFF73DF800F0FBFB10B957
:101F600021B0BDE8F08304F06DFD05F065FD5D482E
:101F7000007803282CD1FEF73DFE032828DB5A48C1
:101F800000785A49097888420ED05848027858A1FA
:101F900001A804F0A1F801A9032005F0C7FE5348E9
:101FA00000785149087013E057480068574909689C
:101FB00088420DD05548026855A101A804F08CF85C
:101FC00001A9042005F0B2FE504800684E4908609F
:101FD0004448007803280BD152480068301A43491E
:101FE000097809B1C82101E04FF47A71884200D222
:101FF000B6E74C48066004F087F8814672B64A4856
:10200000D0F8008049480768484604F099F83748F6
:10201000007808B144F001044548007810B1454803
:10202000007808B944F002043848006808B144F068
:1020300004044148007808B144F008040FB144F0AA
:1020400020043B48007808B144F04004119617B1D1
:10205000A6EB080000E0002012903548007818B187
:1020600036480068301A00E0002013901497344876
:102070000068159033480068169033480068179040
:1020800032480068189000201990314800681A9072
:102090001E4800681B902F4800681C9000201D906F
:1020A0002D4800681E901F944FF48B5020905021B3
:1020B000022004F06FFE002509E011AA52F8251055
:1020C000264A02EB850005F0F1FD681CC5B2102D13
:1020D000F3DB0122502121480E38FEF7C3FD00BF7B
:1020E0003EE7000044000020C40000207F010020E3
:1020F0006D6F746F725F73746F705F6C617463681F
:1021000065643D2575000000C8000020D400002053
:1021100074785F64726F705F746F74616C3D256C6E
:10212000750000009800002054000020500000209E
:102130009D0000209E000020A000002080000020C4
:10214000740000206000002064000020680000206F
:102150005C0000208400002048000020421800207D
:10216000F0B50146002208794F7940EA072491F83A
:102170002A0091F82B7040EA07252648006B401C86
:10218000244F3863002312E0C85C424000260AE076
:1021900002F0800008B14D2000E0002080EA4200FB
:1021A000C2B2701CC6B2082EF2DB581C83B22E2BB2
:1021B000EADB91F82E00904204D01648406B401C98
:1021C000144F786348782C2804D01248806B401C48
:1021D000104FB86348F6A040844201DA854204DB20
:1021E0000C48C06B401C0B4FF863087854280ED184
:1021F00048782C280BD148F6A040844207DA854263
:1022000005DA91F82E00904201D10120F0BD0020A6
:10221000FCE700003419002010B504460748007898
:10222000032807D1FEF7E6FC022803DB2146022043
:1022300005F07CFD204602F015FF10BD4400002093
:102240002DE9FF4F89B006468B46994600F0EDF91F
:10225000074600F0E3F9824600200890D14805685F
:10226000D148D0F8008000200690D0480068401C7B
:10227000CE490860CE4880F80090CE48007870B112
:10228000CD480068AAEB0000CC49884207D2CC4870
:102290000068381A069045F0804548F08048C848E4
:1022A0000760C548C0F800A00120C2490870B9F114
:1022B000000F05D0C348C0F800A00120C249087033
:1022C000C2480068381AC2490968884204D9BF4820
:1022D0000068381ABE490860092E01DC01200FE0B1
:1022E0000B2E01D105200BE00C2E08D1B948006857
:1022F000B0F5D76F01D1032002E0042000E00220F6
:102300000390B448006800EE900AF8EE600AB0EE60
:10231000600A01210846FFF761FC092E10DCAE4877
:10232000D0ED0B0AB0EE600A01210020FFF756FC49
:10233000012100EE106AB8EE400A0220FFF74EFCC1
:1023400003F0E2FE079072B60121A44890ED000A66
:102350001220FFF743FC0121A14890ED000A132051
:10236000FFF73CFC9F48007808B1032005E09E4839
:10237000007808B1022000E001200290079803F0E5
:10238000DFFE9A4890ED000A994880ED030A9748CD
:1023900090ED010A964880ED040A964890ED000AF7
:1023A000934880ED050A934890ED010A904880ED2E
:1023B000060A914890ED000A8D4880ED070A8F4883
:1023C00090ED000A8A4880ED080A764800680543C7
:1023D0007548006848EA000845F0405548F0405804
:1023E000BBF1000F03D045F0406548F0406803980A
:1023F000022803D182480068401C00E00020804988
:10240000086080480078401CC0B27E4908707E4950
:102410000978884202DA0DB0BDE8F08F00207949D2
:1024200008707A480078022800DAF4E76C2101206D
:1024300004F0B0FC00242FE06D4800EB8400D0EDE8
:10244000000AB0EE600A04AA05A92046FFF7DAFAEE
:1024500001909DF8140010B90120A04085439DF81B
:10246000100040B10120A040284020B10120A04030
:102470000899084308900122A2402A4012B1019A0B
:1024800092B200E000221146614A022303FB0420BD
:1024900005F008FC601CC4B21A2CCDDB5B48007848
:1024A000022827D10020009034225949A1F10A00C6
:1024B000FDF70CFF012056490E3988703B48007823
:1024C000C870042408E052480E38015D00980844A2
:1024D000C0B20090601CC4B2382CF4DB4C490E39F9
:1024E000009881F838000022392149480E38FEF75B
:1024F000B9FB90E72D4801684548343005F0D6FB1C
:10250000444801684248383005F0D0FB5146404805
:102510003C3005F0CBFB3E484030069905F0C6FB49
:1025200029463B48443005F0C1FB41463848483015
:1025300005F0BCFB36484C30089905F0B7FB344930
:102540000E39039881F85E00029881F85F0001203F
:1025500081F86000022081F861002F4801682C4852
:10256000543005F0A3FB59462948583005F09AFB32
:10257000BBF1000F01D00B9800E000200146244879
:102580005A3005F08FFB00226C2121480E38FEF7EF
:1025900069FB0E490968781A4A46039904F04CFB16
:1025A00000BF38E790000020940000207400002055
:1025B0009E0000209C0000207C0000203789410004
:1025C00078000020800000209D000020880000206E
:1025D00084000020340400403CAD00208C01002029
:1025E000900100207F0100207E0100201C010020BE
:1025F0008C170020340100203C0100204401002001
:10260000C00000209F000020450000204400002062
:10261000421800208C000020480000201CB56946AC
:1026200001A804F0EFF901981CBD1CB5694601A88A
:1026300004F0E8F9019800EB4001C1EBC010BDF8CF
:10264000001001EBC0001CBD10B502F031FF10BD41
:10265000F0B50A4600210023002400BF3DE001251B
:1026600005FA01F3156805EA03049C4234D10568B4
:102670004F000326BE40B543056015794E00B540B6
:102680000668354305601579012D02D01579022DB4
:1026900016D185684F000326BE40B5438560557945
:1026A0004E00B540866835438560456801268E40FA
:1026B000B5434560456896798E40B6B2354345606E
:1026C000C5684F000326BE40B543C560D5794E00AE
:1026D000B540C6683543C560491C1029BFD3F0BD5D
:1026E000F0B5002300244D07ED0E02FA05F3CE10DD
:1026F00000F1200555F826504E07F70E0F26BE4074
:10270000B543CF1000F1200646F82750CE1000F157
:10271000200555F8265045EA0304CE1000F12005A7
:1027200045F82640F0BD0246002013690B400BB16E
:10273000012000E00020704741837047018370470B
:102740004FF6FF7101600021017141718171C1710A
:102750007047000001480078704700003E000020EC
:1027600070B52DED048B304802F0D2FF86B22F48B1
:102770000088301A2E4908802C48068008460088B8
:10278000B0F5004F02DA0846008803E028480088C8
:10279000A0F5803005B200EE105AB8EEC00A254808
:1027A00080ED000A002415E02349601C31F8100078
:1027B00021F81400084630F9140000EE100AB8EEB3
:1027C000C00A1C48D0ED000A30EE200A80ED000A55
:1027D000601C84B2042CE7DB174820F8145015481D
:1027E00090ED000AF1EE040A80EE201A80ED001A46
:1027F00090ED000ADFED110A20EE200A10EE101A0B
:102800000846FDF730FF41EC190B9FED0D0B53EC23
:10281000102BFDF79AFE41EC180BFDF767FF0A49F4
:102820000860BDEC048B70BD000800409C010020D6
:102830009801002094010020D8AD00200000C8427B
:1028400000000000003071408C01002000BFFEE756
:102850002DE9F0472DED048B80468A4691460024F1
:1028600096480068401C95490860002094490880FB
:102870009448006940F0400092490861601E486435
:102880004FF4C8514046FDF748FDB9F1000F09D19A
:102890008D480068401C8C4908600020BDEC048B0A
:1028A000BDE8F0870025F8E08848008820B91AF8CC
:1028B0000500542800D0EEE01AF80510834802887D
:1028C0000088401C814B188081488154184600883C
:1028D0002F2800DADFE07E48FFF742FC002873D0A3
:1028E0007848406C401C38B92E2D02DBA5F12E0033
:1028F00000E0002073494864754880787449C978BD
:1029000040EA01207349088071480079704949798B
:1029100040EA012000EE100AB8EEC00ADFED6E0AB0
:10292000C0EE208A6A4890F82A00694991F82B1075
:1029300040EA012000EE100AB8EEC00ADFED660A98
:1029400080EE201AB0EE419AB4EEE89AF1EE10FA59
:1029500005D29FED620A39EE000AB0EE409A0026D9
:102960006DE006EB4600801D5949095C06EB460008
:10297000C01D574A105C41EA002000EE100AB8EE74
:10298000C00A08EBC40080ED010A79EE680A00EE87
:10299000106AB8EE400A60EE800AB2EE061A80EEC7
:1029A000810A30EE280AB0EE408A9FED4C0A30EEE4
:1029B000480ADFED4B0A30EE200ADFED4A0A30EE1E
:1029C000200AB0EE408A06E042E09FED440A38EE6D
:1029D000400AB0EE408A9FED410AB4EEC08AF1EEA3
:1029E00010FAF2DA05E09FED3D0A38EE000AB0EE8B
:1029F000408AB5EEC08AF1EE10FAF4D308EBC400B9
:102A000080ED008A08EBC40090ED010AB5EEC00A23
:102A1000F1EE10FA0FDDB3EE0E0AC8EE000ABCEEBE
:102A2000E00A10EE100A012101FA00F02549896C34
:102A3000084324498864701C86B2601C84B20C2E42
:102A400002DAB4F5487F8CDB00202049088021E0C1
:102A500025480068401C244908601A48006C401C46
:102A600018490864012701E0781C87B22F2F03DA88
:102A70001748C05D5428F7D1C7F12F0013490880CB
:102A80000846008830B11248C11910480288104821
:102A9000FDF71CFC00BF681C85B24D45FFF604AF76
:102AA0003CB9B9F12F0F04DB10480068401C0F49F6
:102AB0000860034804802046F0E60000E0000020A3
:102AC000F000002034190020E8000020F20000206F
:102AD000CC5B0020DE0000200000C8420000B443B0
:102AE0000000B44200000000EC000020E4000020E0
:102AF0002DE9F0412DED0C8B05460E4600279FED8C
:102B0000770AB0EE409A9FED760AF0EE409A9FED7C
:102B1000750AB0EE40AA002438E005EBC40090ED41
:102B2000000ADFED6E0AB4EEE00AF1EE10FA20D8EA
:102B300005EBC40090ED000ADFED690AB4EEE00A8F
:102B4000F1EE10FA15DB05EBC40090ED010ADFEDA4
:102B5000630AB4EEE00AF1EE10FA0AD805EBC400FD
:102B600090ED010ADFED5E0AB4EEE00AF1EE10FA34
:102B700000DA09E03846791C8FB205EBC00005EB9E
:102B8000C40206CA06C000BF601C84B2B442C4DBE3
:102B90003E46032E04DA3046BDEC0C8BBDE8F081D6
:102BA00000241FE005EBC40090ED000AB4EEC90A52
:102BB000F1EE10FA05D205EBC40090ED000AB0EE7C
:102BC000409A05EBC40090ED000AB4EEE90AF1EE7C
:102BD00010FA05DD05EBC40090ED000AF0EE409A16
:102BE000601C84B2B442DDDB39EEC90AF1EE040A9E
:102BF00060EE200A00EE106AB8EE400A80EE808A8D
:102C0000B3EE040AB4EEC08AF1EE10FA03D2B3EECA
:102C1000040AB0EE408A002400275BE005EBC40004
:102C2000D0ED008AECB3601CB04246D018EE100A1A
:102C3000FDF719FD41EC1B0B38EECA0A10EE101A15
:102C40000846FDF710FD41EC1D0BB0EE4D0AF0EE0D
:102C50006D0A03F05CFAB0EE40CAF0EE60CA53ECC5
:102C60001B2B51EC1C0BFDF711FD26D918EE100A99
:102C7000FDF7F9FC41EC1B0B601C05EBC00090ED6F
:102C8000000A38EEC00A10EE101A0846FDF7EBFCF9
:102C900041EC1D0BB0EE4D0AF0EE6D0A03F037FA71
:102CA00000E00AE0B0EE40CAF0EE60CA53EC1B2B25
:102CB00051EC1C0BFDF7EAFC08D83846791C8FB2A2
:102CC00005EBC00005EBC40206CA06C0B0EE68AA58
:102CD000601C84B2B442A1DB38465DE7FFFF7F7F12
:102CE000FFFF7FFF0000000030B503469FED2E0A76
:102CF000B0EE402A9FED2D0AB0EE401A9FED2C0A4F
:102D0000F0EE401A00242B4D2C708A4205DD541A37
:102D1000022C02DBB2F5C87F02DD9FED250A30BD33
:102D2000084628E003EBC004D4ED000A9FED1E0A1C
:102D3000F4EEC00AF1EE10FA06D89FED1C0AF4EE8C
:102D4000C00AF1EE10FA02DA9FED190AE7E7F4EE95
:102D5000C20AF1EE10FA01D2B0EE602AF4EEC10A16
:102D6000F1EE10FA01DDB0EE601A31EEA00AF0EEDD
:102D7000401A441CA0B29042D4DB31EE420AF2EE7B
:102D8000042AB4EEE20AF1EE10FA0AD20124094D47
:102D90002C70541A00EE104AF8EEC02A81EEA20AF6
:102DA000BDE79FED030ABAE7FFFF7F7FFFFF7FFFCD
:102DB00000000000180100202DE9F0412DED028BEC
:102DC00006460D461746002438E005EBC40090ED9A
:102DD000000ADFED1D0A20EE200ADFED1C0A80EE5E
:102DE000201AB0EE418AB0EE480AFDF7E9F905EB8A
:102DF000C400D0ED010A20EE200A06EBC40080EDED
:102E0000000A05EBC40090ED000ADFED0F0A20EE8A
:102E1000200ADFED0E0A80EE201AB0EE418AB0EEF5
:102E2000480AFDF709FA05EBC400D0ED010A20EECF
:102E3000200A06EBC40080ED010A641CBC42C4DB1E
:102E4000BDEC028BBDE8F081DB0F4940000034434C
:102E500030B504460B461546002200211CE003EB6A
:102E6000C10090ED010ADFED0E0AB4EEE00AF1EECA
:102E700010FA10DB03EBC10090ED000A04EBC20076
:102E800080ED000A03EBC10090ED010A04EBC200E3
:102E900080ED010A521C491CA942E0DB90B230BD12
:102EA0000000C8422DE9F0472DED0C8B81460C4601
:102EB000924600269FEDC40AC44880ED000A9FEDAB
:102EC000C20AB0EE409A9FEDC20AF0EE409A4BE182
:102ED0004FF0FF30804607469FEDBE0AB0EE40DA65
:102EE000F0EE40AA0025A7E004EBC50090ED010A32
:102EF000DFEDB90AB4EEE00AF1EE10FA0AD304EB02
:102F0000C50090ED010ADFEDB50AB4EEE00AF1EE7E
:102F100010FA00DD8EE004EBC50090ED000A30EE03
:102F2000490A10EE101A0846FDF79DFB41EC1C0BF8
:102F3000B0EE4C0AF0EE6C0A03F0E9F8B0EE40BADD
:102F4000F0EE60BA51EC1B0BFDF7D0FB08EE100A57
:102F50009FED9F0AB4EEC08AF1EE10FA05DD9FEDF9
:102F6000A00A30EE480AB0EE408A18EE100AFDF7CB
:102F70007AFB41EC1B0B9FED9B0B53EC102BFDF7E9
:102F800085FB0FD804EBC50090ED010AB4EEEA0A08
:102F9000F1EE10FA06D22F4604EBC50090ED010ABF
:102FA000F0EE40AA04EBC50090ED000A30EE690A8D
:102FB00010EE101A0846FDF756FB41EC1C0BB0EE64
:102FC0004C0AF0EE6C0A03F0A2F8B0EE40BAF0EE54
:102FD00060BA51EC1B0BFDF789FB08EE100A9FED60
:102FE0007C0AB4EEC08AF1EE10FA05DD9FED7C0A92
:102FF00030EE480AB0EE408A18EE100AFDF733FBB7
:1030000041EC1B0B9FED770B53EC102BFDF73EFBB8
:103010000FD804EBC50090ED010AB4EECD0AF1EE35
:1030200010FA06D2A84604EBC50090ED010AB0EEF6
:1030300040DA00BF681C85B25545FFF655AF002F3A
:1030400002DBB8F1000F00DA82E004EBC70090ED7C
:10305000000ADFED660A20EE200ADFED5D0A80EE51
:10306000201AB0EE41BAB0EE4B0AFDF7A9F804EB16
:10307000C700D0ED010A60EE20BA04EBC80090ED65
:10308000000ADFED5A0A20EE200ADFED510A80EE39
:10309000201AB0EE41BAB0EE4B0AFDF791F804EBFE
:1030A000C800D0ED010A40EE80BAB0EE000A8BEE07
:1030B00080AA04EBC70090ED000ADFED4C0A20EE79
:1030C000200ADFED430A80EE201AB0EE41BAB0EEDE
:1030D0004B0AFDF7B1F804EBC700D0ED010A60EE32
:1030E00020BA04EBC80090ED000ADFED400A20EEA4
:1030F000200ADFED370A80EE201AB0EE41BAB0EEBA
:103100004B0AFDF799F804EBC800D0ED010A40EE38
:1031100080BAB0EE000ACBEE808AF5EEC08AF1EEFE
:1031200010FA14DB9FED320AF4EEC08AF1EE10FAC9
:103130000DD8B6F5C87F0ADA09EBC60080ED00AA03
:103140003046711C8EB209EBC000C0ED018A00BF91
:103150009FED280A39EE000AB0EE409A9FED250A4D
:1031600039EEC00AF0EE409A9FED230AB4EEC09A01
:10317000F1EE10FA7FF6ACAE31464846FFF7B8FCE8
:10318000064600250CE009EBC50090ED000A0F484B
:10319000D0ED000A30EE200A80ED000A681C85B2EE
:1031A000B542F0DB56B10948D0ED000A00EE106AD6
:1031B000B8EE400A80EE801A80ED001A3046BDEC71
:1031C0000C8BBDE8F087000000000000000100202B
:1031D000000034430020FA440000C8420000FA44D2
:1031E0000000B443000000000000E03FDB0F494056
:1031F000000048449A99193F000096422DE9F04F8B
:103200002DED0E8B83B005460E4691460027BB463A
:103210009FEDFE0AB0EE408ABA469FEDFD0AF0EE41
:10322000408A9FEDFB0AF0EE40AA9FEDF90AB0EE4E
:10323000409A9FEDF80AF0EE409A9FEDF60AB0EE44
:1032400040DA9FEDF40AB0EE40AA9FEDF30AF0EEEB
:1032500040DA002446E006EBC40090ED000ADFED02
:10326000EF0A30EE600A10EE101A0846FDF7FBF97F
:1032700041EC1C0BB0EE4C0AF0EE6C0A02F047FF7A
:10328000B0EE40BAF0EE60BA9FEDE50B53EC102BB8
:1032900051EC1B0BFDF7FAF919D806EBC40090EDC1
:1032A000010ADFEDE10AB4EEE00AF1EE10FA0EDDFC
:1032B00006EBC40090ED010ADFEDD60AB4EEE00A99
:1032C000F1EE10FA03D80AF101001FFA80FABAF100
:1032D000050F05DB002003B0BDEC0E8BBDE8F08FC1
:1032E000601C84B2A9F10100A042B4DC9FEDCF0ABA
:1032F000B0EE408A94E0002486E006EBC40090ED36
:10330000000A30EE480A10EE101A0846FDF7ABF935
:1033100041EC1C0BB0EE4C0AF0EE6C0A02F0F7FE2A
:10332000B0EE40BAF0EE60BA9FEDC10B53EC102B3B
:1033300051EC1B0BFDF7AAF964D806EBC40090ED25
:10334000000ADFEDBD0A20EE200ADFEDBC0A80EEA8
:10335000201AB0EE41BAB0EE4B0AFCF76DFF06EB57
:10336000C400D0ED010A20EE200ADFEDB50AB4EE6C
:10337000E00AF1EE10FA45D806EBC40090ED010A20
:10338000DFEDB00AB4EEE00AF1EE10FA3ADB06EB3C
:10339000C40090ED000ADFEDA80A20EE200ADFED60
:1033A000A70A80EE201AB0EE41BAB0EE4B0AFCF745
:1033B00007FF06EBC400D0ED010A20EE200A05EB62
:1033C000C70080ED000A06EBC40090ED000ADFEDB7
:1033D0009A0A20EE200ADFED990A80EE201AB0EE5C
:1033E00041BAB0EE4B0AFCF727FF06EBC400D0ED64
:1033F000010A20EE200A05EBC70080ED010A781CC7
:1034000087B206E0601C84B2A9F10100A0423FF738
:1034100074AF00BFB7EE000A38EE000AB0EE408A83
:103420009FED890AB4EEC08AF1EE10FA7FF663AF21
:10343000062F01DA38464EE77A1E01AB01212846F5
:1034400001F0F8FA9DED010AB5EEC00AF1EE10FAAE
:1034500003DD3946284604F035FC00241FE005EB67
:10346000C40090ED010AB4EEE80AF1EE10FA05DDB1
:1034700005EBC40090ED010AF0EE408A05EBC400B4
:1034800090ED010AB4EEE90AF1EE10FA05D205EB6F
:10349000C40090ED010AF0EE409A601C84B2BC4278
:1034A000DDDB002431E005EBC40090ED010AB4EE51
:1034B000EA0AF1EE10FA0EDD05EBC40090ED010A08
:1034C000B4EE680AF1EE10FA05D005EBC40090EDF9
:1034D000010AF0EE40AA05EBC40090ED010AB4EE3B
:1034E000CD0AF1EE10FA0ED205EBC40090ED010A00
:1034F000B4EE690AF1EE10FA05D005EBC40090EDC8
:10350000010AB0EE40DA601C84B2BC42CBDB00247E
:1035100043E005EBC40090ED010AB4EEC90AF1EEF8
:1035200010FA17DD05EBC40090ED010AB4EE680A4D
:10353000F1EE10FA0ED005EBC40090ED010AB4EEE6
:103540006A0AF1EE10FA05D005EBC40090ED010A0D
:10355000B0EE409A05EBC40090ED010AB4EECA0A41
:10356000F1EE10FA17D205EBC40090ED010AB4EEAB
:10357000690AF1EE10FA0ED005EBC40090ED010AD5
:10358000B4EE4D0AF1EE10FA05D005EBC40090ED53
:10359000010AB0EE40AA601C84B2BC42B9DBB4EEB2
:1035A000CA9AF1EE10FA01D8384694E679EE4A0A42
:1035B000381F00EE100AB8EEC00A80EE801AF0EE56
:1035C00041DA0024A04664E0B1EE040A2DEE800A40
:1035D00010EE101A0846FDF746F841EC1B0B05EB00
:1035E000C40090ED010A601C05EBC000D0ED010A9B
:1035F00030EE600A10EE101A0846FDF734F841EC80
:103600001E0BB0EE4E0AF0EE6E0A1FE00000704294
:1036100000007AC500007A45000000000000B442B6
:1036200000000000000010400080BB4400008C42FD
:10363000000000000000F03FDB0F49400000344371
:103640000000FA44000048430000DC4202F05FFD45
:10365000B0EE40CAF0EE60CA53EC1B2B51EC1C0BD1
:10366000FDF714F813D805EBC40090ED000A05EB44
:10367000C80080ED000A05EBC40090ED010A05EBDF
:10368000C80080ED010A08F101001FFA80F8601CF3
:1036900084B2781EA04297DC40461CE62DE9F04734
:1036A0002DED0E8B07460D469046B0EE408AF0EEAB
:1036B000608A0026B146B2469FED5E0AB0EE40BA7F
:1036C0009FED5C0AF0EE40BA9FED5A0AB0EE40CA98
:1036D0009FED590AF0EE40CA9FED570AB0EE40DA6E
:1036E0009FED550AF0EE40DA9FED540AB0EE40EA45
:1036F00094E0002486E005EBC40090ED000A30EE73
:10370000480A10EE101A0846FCF7ADFF41EC1A0B00
:10371000B0EE4A0AF0EE6A0A02F0F9FCB0EE409A06
:10372000F0EE609A9FED460B53EC102B51EC190B09
:10373000FCF7ACFF64D805EBC40090ED000ADFEDA8
:10374000420A20EE200ADFED410A80EE201AB0EE98
:10375000419AB0EE490AFCF76FFD05EBC400D0EDCD
:10376000010A20EE200ADFED3A0AB4EEE00AF1EE9B
:1037700010FA45D805EBC40090ED010ADFED350ADB
:10378000B4EEE00AF1EE10FA3ADB05EBC40090ED7E
:10379000000ADFED2D0A20EE200ADFED2C0A80EE74
:1037A000201AB0EE419AB0EE490AFCF709FD05EB8C
:1037B000C400D0ED010A20EE200A07EBC60080ED20
:1037C000000A05EBC40090ED000ADFED1F0A20EEB1
:1037D000200ADFED1E0A80EE201AB0EE419AB0EE0C
:1037E000490AFCF729FD05EBC400D0ED010A20EEE3
:1037F000200A07EBC60080ED010A701C86B206E0C5
:10380000601C84B2A8F10100A0423FF774AF00BF72
:10381000B7EE000A38EE000AB0EE408AB4EEE88A4D
:10382000F1EE10FA7FF665AF3046BDEC0E8BBDE8C9
:10383000F087000000007AC500007A450000000013
:10384000000000000000F03FDB0F4940000034435F
:103850000000FA44000048432DE9F0472DED068BA7
:1038600007460C469146002500264FF0FF38AA4631
:103870009FED360AB0EE408A57E0002533E004EBB6
:10388000C50090ED000A30EE480A10EE101A084606
:10389000FCF7E9FE41EC1A0BB0EE4A0AF0EE6A0AB8
:1038A00002F035FCB0EE409AF0EE609A9FED280BE6
:1038B00053EC102B51EC190BFCF7E8FE0BD804EB82
:1038C000C50090ED010ADFED240AB4EEE00AF1EE46
:1038D00010FA00D8A84608F1010018B1761C4FF084
:1038E000010A02E06D1C4D45C9DB00BFBAF1010FB2
:1038F00015D104EBC80090ED000A701E07EBC00064
:1039000080ED000A04EBC80090ED010A701E07EB81
:10391000C00080ED010A4FF0FF384FF0000AB7EE0B
:10392000000A38EE400AB0EE408A0C4890ED000ADA
:10393000DFED060A30EEC00AB4EEC80AF1EE10FA66
:103940009BD9B0B2BDEC068BBDE8F08700003443D4
:10395000000000000000E03F00007A450401002064
:103960002DE9F0472DED068B07460C4691460025C4
:1039700000264FF0FF38AA469FED3D0AB0EE408A80
:1039800065E0B5EEC08AF1EE10FA06D89FED390A6F
:1039900038EE000AF0EE408A01E0F0EE488A002599
:1039A00033E004EBC50090ED000A30EE680A10EE3B
:1039B000101A0846FCF757FE41EC1A0BB0EE4A0A03
:1039C000F0EE6A0A02F0A3FBB0EE409AF0EE609AC5
:1039D0009FED290B53EC102B51EC190BFCF756FE05
:1039E0000BD804EBC50090ED010ADFED250AB4EE1B
:1039F000E00AF1EE10FA00D8A84608F1010018B16B
:103A0000761C4FF0010A02E06D1C4D45C9DB00BF7A
:103A1000BAF1010F15D104EBC80090ED000A701E39
:103A200007EBC00080ED000A04EBC80090ED010A2E
:103A3000701E07EBC00080ED010A4FF0FF384FF019
:103A4000000AB7EE000A38EE000AB0EE408A0D48D0
:103A500090ED000ADFED060A30EE200AB4EEC80A47
:103A6000F1EE10FA8DDAB0B2BDEC068BBDE8F0874E
:103A7000000000000000B443000000000000E03F30
:103A800000007A450401002070B52DED068B054637
:103A90000E4600249FED700AB0EE408A0324D5E064
:103AA00005EBC40090ED000ADFED6C0AB4EEE00A0D
:103AB000F1EE10FA7EDB05EBC40090ED010A601C0C
:103AC00005EBC000D0ED010A30EE600A10EE101ACE
:103AD0000846FCF7C8FD41EC1A0BB0EE4A0AF0EEBE
:103AE0006A0A02F014FBB0EE409AF0EE609A9FED85
:103AF0005C0B53EC102B51EC190BFCF7DFFD59D884
:103B0000601E05EBC00090ED010AA01C05EBC00093
:103B1000D0ED010A30EE600A10EE101A0846FCF7EC
:103B2000A2FD41EC1A0BB0EE4A0AF0EE6A0A02F06E
:103B3000EEFAB0EE409AF0EE609A9FED490B53EC2E
:103B4000102B51EC190BFCF7B9FD7DD8A01E05EB2D
:103B5000C00090ED010AE01C05EBC000D0ED010AA9
:103B600030EE600A10EE101A0846FCF77CFD41ECBE
:103B70001A0BB0EE4A0AF0EE6A0A02F0C8FAB0EE8A
:103B8000409AF0EE609A9FED360B53EC102B51ECFF
:103B9000190BFCF793FD57D805EBC40090ED010A13
:103BA000A01C05EBC000D0ED010AB4EEE00AF1EE76
:103BB00010FA00E048E01CDDA01C05EBC00090ED11
:103BC000000ADFED290A20EE200ADFED280A80EE48
:103BD000201AF0EE418AB0EE680AFCF72DFBA01C1B
:103BE00005EBC000D0ED010A20EE200AB0EE408ABD
:103BF0001BE0601E05EBC00090ED000ADFED1A0A25
:103C000020EE200ADFED190A80EE201AF0EE418A3C
:103C1000B0EE680AFCF710FB601E05EBC000D0EDAB
:103C2000010A20EE200AB0EE408A9FED110AB4EEA0
:103C3000C08AF1EE10FA07D2BCEEC80A10EE100AE4
:103C400080B2BDEC068B70BD601C84B2301FA042F8
:103C50003FF726AF0020F4E7000000000000C84254
:103C60000000000000007940DB0F494000003443B1
:103C700000007A4470B52DED068B05460E460024F3
:103C80009FED710AB0EE408A0324D6E005EBC40034
:103C900090ED000ADFED6D0AB4EEE00AF1EE10FAE5
:103CA0007DD805EBC40090ED010A601C05EBC00057
:103CB000D0ED010A30EE600A10EE101A0846FCF74B
:103CC000D2FC41EC1A0BB0EE4A0AF0EE6A0A02F09E
:103CD0001EFAB0EE409AF0EE609A9FED5D0B53EC49
:103CE000102B51EC190BFCF7E9FC58D8601E05EBC2
:103CF000C00090ED010AA01C05EBC000D0ED010A48
:103D000030EE600A10EE101A0846FCF7ACFC41ECED
:103D10001A0BB0EE4A0AF0EE6A0A02F0F8F9B0EEB9
:103D2000409AF0EE609A9FED4A0B53EC102B51EC49
:103D3000190BFCF7C3FC7ED8A01E05EBC00090ED6C
:103D4000010AE01C05EBC000D0ED010A30EE600A6C
:103D500010EE101A0846FCF786FC41EC1A0BB0EE88
:103D60004A0AF0EE6A0A02F0D2F9B0EE409AF0EE9A
:103D7000609A9FED370B53EC102B51EC190BFCF7AD
:103D80009DFC58D8601E05EBC00090ED010AA01CF8
:103D900005EBC000D0ED010AB4EEE00A00E04AE015
:103DA000F1EE10FA1CDDA01C05EBC00090ED000A3E
:103DB000DFED290A20EE200ADFED280A80EE201A26
:103DC000F0EE418AB0EE680AFCF736FAA01C05EB6B
:103DD000C000D0ED010A20EE200AB0EE408A1BE0C0
:103DE000601E05EBC00090ED000ADFED1B0A20EE1F
:103DF000200ADFED1A0A80EE201AF0EE418AB0EEBA
:103E0000680AFCF719FA601E05EBC000D0ED010A44
:103E100020EE200AB0EE408A9FED110AB4EEC08A6F
:103E2000F1EE10FA07D2BCEEC80A10EE100A80B20A
:103E3000BDEC068B70BD601C84B2301FA0423FF702
:103E400025AF0020F4E70000000000000000A042C1
:103E50000000000000007940DB0F494000003443BF
:103E600000007A442DE9F0412DED0E8B04460F46FB
:103E70009FED700AB0EE40EA9FED6E0AF0EE40AAA8
:103E80009FED6C0AF0EE409A9FED6A0AB0EE409A00
:103E90009FED680AF0EE408A9FED660AF0EE40EA78
:103EA0000025BEE004EBC50090ED000ADFED620ADC
:103EB000B4EEE00AF1EE10FA70DB04EBC50090ED11
:103EC000000ADFED5E0AB4EEE00AF1EE10FA65D802
:103ED00004EBC500D0ED00DA9FED590A3DEE800AF3
:103EE000B0EE40AA9FED570AB4EEC0AAF1EE10FA68
:103EF00005DB9FED540A3AEE400AB0EE40AA0026D8
:103F00008AE004EBC60090ED000A30EE4A0A10EE9B
:103F1000101A0846FCF7A7FB41EC1C0BB0EE4C0A4C
:103F2000F0EE6C0A02F0F3F8B0EE40BAF0EE60BAD0
:103F300051EC1B0BFCF7DAFB0DEE100A9FED400A6B
:103F4000B4EEC0DAF1EE10FA05DD9FED3E0A30EE78
:103F50004D0AB0EE40DAB7EE000AB4EEC0DAF1EE88
:103F600010FA57D804EBC50090ED010A04EBC60027
:103F7000D0ED010A30EE208AB4EECE8AF1EE10FACE
:103F80000DD8F0EE68EAF0EE498AB0EE699AF0EEEC
:103F90006A9AF0EE4EAAB0EE48EA3BE03FE0B4EE9B
:103FA000EA8AF1EE10FA0AD8F0EE68EAF0EE498AF1
:103FB000B0EE699AF0EE6A9AF0EE48AA2AE0B4EE02
:103FC000E98AF1EE10FA08D8F0EE68EAF0EE498AD4
:103FD000B0EE699AF0EE489A1CE0B4EEC98AF1EEB0
:103FE00010FA06D8F0EE68EAF0EE498AB0EE489A88
:103FF00010E0B4EEE88AF1EE10FA04D8F0EE68EAC8
:10400000F0EE488A06E0B4EEEE8AF1EE10FA01D83E
:10401000F0EE48EA701C86B2BE42FFF672AF681C32
:1040200085B2BD42FFF63EAFB0EE6E0ABDEC0E8B20
:10403000BDE8F08100409C4500001643000052435B
:10404000000034430000B443002001490880704759
:10405000F200002000BFFEE72DE9F04F2DED108BA0
:1040600087B082460D461746B0EE40AA9946DDE974
:104070002084FEF7DAFA0590FE4905980968401A8F
:1040800004909FEDFD0AF0EE408A9FEDFB0AF0EEF2
:1040900040AA9FEDFA0AB0EE40EA9FEDF70AB0EEB3
:1040A00040FA0020F6490870F6480088F649886111
:1040B0000846C0F81C90C0F82080C84502DDA8EB77
:1040C000090000E00020F049486295ED0A0AEF4837
:1040D00080ED0D0A97ED000A80ED0B0A97ED010ABD
:1040E00080ED0C0A092C04DCC84502DDB8F5C87F58
:1040F00010DD012C01D0022C05D1E348006940F00D
:104100000800E149086103F0B7FD07B0BDEC108B72
:10411000BDE8F08F002C7DD197ED000A10EE101A4B
:104120000846FCF7A0FA41EC1C0BB0EE4C0AF0EE8E
:104130006C0A01F0ECFF8DED020B9FEDD50B53ECFB
:10414000102B9DED020B51EC100BFCF7B7FA37D298
:1041500097ED000A10EE101A0846FCF784FA41ECBD
:104160001C0BB0EE4C0AF0EE6C0A01F0D0FF8DEDA6
:10417000020B9FEDC90B53EC102B9DED020B51EC84
:10418000100BFCF783FA1BD897ED010A10EE101AFA
:104190000846FCF768FA41EC1C0BB0EE4C0AF0EE56
:1041A0006C0A01F0B4FF8DED020B9FEDBB0B53ECDD
:1041B000102B9DED020B51EC100BFCF767FA02D9A6
:1041C00003F05AFDA1E7B64890ED000AF7EE000AA9
:1041D000B4EE600AF1EE10FA03D1B24890ED000A95
:1041E00005E0A8F101000AEBC00090ED010AF0EE35
:1041F00040EA97ED010A3EEEC00AD7ED000A80EED4
:10420000201A9FEDA90A31EE400AB1EE400AF0EE05
:10421000408A00E020E0A24890ED000AF7EE000A94
:10422000B4EE600AF1EE10FA15D09FEDA00AF4EE9C
:10423000C08AF1EE10FA03DD9FED9C0AF0EE408A91
:104240009FED9B0AF4EEC08AF1EE10FA03D29FEDC7
:10425000980AF0EE408AB2E1012C01D0022C76D10E
:10426000012C03D1934890ED000A02E0924890EDB2
:10427000000AF0EE40EA4E4659E00AEBC60090ED27
:10428000010A30EE6E0A10EE101A0846FCF7EBF940
:1042900041EC1C0BB0EE4C0AF0EE6C0A01F037FF5B
:1042A0008DED020B9DED020B51EC100BFCF71EFA8D
:1042B0000FEE900AF4EECEFAF1EE10FA35D20AEBD8
:1042C000C60090ED000A10EE101A0846FCF7CBF974
:1042D000CDE902019DED020B01F019FFB0EE40CADD
:1042E000F0EE60CA9FED6C0B53EC102B51EC1C0BE5
:1042F000FCF7CCF919D8B0EE6FEA0AEBC60090EDE6
:10430000000AF0EE40AA6048006940F002005E49F1
:1043100008615E48C0ED08AA0AEBC60090ED010AEC
:104320005A4880ED090AC0ED0AFA701C86B246456B
:10433000A3DB5548007C00F0020048B952480069F0
:1043400040F008005049086103F096FCDDE625E0E6
:10435000012C10D1594890ED000A5948D0ED000ABF
:1043600060EE200A9FED571A80EE810A30EE2A0A8D
:10437000B1EE400A0FE0514890ED000A5248D0EDEE
:10438000000A60EE200A9FED4F1A80EE810A3AEE95
:10439000C00AB1EE400AF0EE408A10E1032C05D0CD
:1043A000042C03D0082C01D0092C61D197ED000A10
:1043B00010EE101A0846FCF756F9CDE902019DED02
:1043C000020B01F0A4FEB0EE40CAF0EE60CA9FED11
:1043D000320B53EC102B51EC1C0BFCF757F902D9A4
:1043E00003F04AFC91E697ED000A10EE101A084619
:1043F000FCF739F941EC1C0BB0EE4C0AF0EE6C0AFC
:1044000001F085FE8DED000B9FED300B53EC102B72
:104410009DED000B51EC100BFCF738F902D29FED2B
:104420002D0B1CE097ED000A10EE101A0846FCF761
:104430001AF941EC1C0BB0EE4C0AF0EE6C0A01F0DC
:1044400066FE8DED000B9DED000B53EC102B9FEDE8
:10445000230B51EC100BFCF778F841EC100B8DEDB1
:10446000020B9DED020B51EC100BFCF73FF939E00C
:1044700046E000006C01002000000000FFFF7F7F8D
:10448000680100206A0100203419002094190020DE
:10449000000000A09999B93F000000E0FFFFEF473E
:1044A00064010020600100200000484200004843F1
:1044B000000048C3580100205C01002004000020D7
:1044C000500100200000C84254010020000000609C
:1044D0006666D63F0000000000407F4000000000FC
:1044E00000E065400DEE100A032C01D0082C02D12B
:1044F000B1EE4D0A01E0B0EE4D0AF0EE408A5EE00A
:10450000052C0FD1FE48007810B903F0B5FBFCE58F
:10451000FC4890ED000A5FED1C0A30EEC00AF0EE98
:10452000408A4CE0A8EB0900022802DA03F0A4FB61
:10453000EBE54E4628E00AEBC60090ED000A10EECF
:10454000101A0846FCF78FF8CDE902019DED020B29
:1045500001F0DDFDB0EE40CAF0EE60CA1FED320B97
:1045600053EC102B51EC1C0BFCF790F802D903F024
:1045700083FBCAE50AEBC60090ED000A30EE2A0A7A
:10458000F0EE40AA701C86B24645D4DBA8EB0900C9
:1045900000EE100AB8EEC00ACAEE800AF0EE60AA79
:1045A0001FED3F0A30EE6A0AF0EE408AD648C0EDB1
:1045B0000EAAD648006940F48070D449086118EE0C
:1045C000900AFCF750F8CDE902019DED020B01F0D5
:1045D0009EFDB0EE40CAF0EE60CA1FED510B53ECE9
:1045E000102B51EC1C0BFCF751F802D903F044FBE3
:1045F0008BE59FEDC70AF4EEC08AF1EE10FA03DDF9
:104600009FEDC30AF0EE408A9FEDC20AF4EEC08A25
:10461000F1EE10FA03D29FEDBF0AF0EE408A012CB2
:1046200001D0022C02D195ED020A09E01CB1052C43
:1046300004DB072C02DC95ED000A01E095ED010A90
:10464000F0EE40DA012C01D0022C02D195ED060AE1
:1046500009E01CB1052C04DB072C02DC95ED040AF3
:1046600001E095ED050AF0EE40BAAB48007848B19C
:10467000049838B1A9490498884203D8A84800880A
:10468000844208D0C5ED0A8AA048006940F00400C1
:104690009E4908610BE09DED040AF8EE400A9FED8B
:1046A000A11A81EE200A20EE2B0AF0EE40BAB2EEFB
:1046B000040A2DEE800A20EE288AB2EE040A2BEEC0
:1046C000800AD5ED0A0A78EEE00A60EE209AB0EE94
:1046D00069BA9FED950AF4EEC09AF1EE10FA03DD87
:1046E0009FED910AF0EE409A9FED900AF4EEC09A89
:1046F000F1EE10FA03D29FED8D0AF0EE409AB5EE7E
:10470000C08AF1EE10FA06DB38EE290AB5EEC00ACF
:10471000F1EE10FA0BD3B5EEC08AF1EE10FA0AD81A
:1047200038EE290AB5EEC00AF1EE10FA03DDB1EE5B
:10473000480AF0EE409AF4EE4B9AF1EE10FA05D0EA
:104740007248006940F4006070490861204603F037
:1047500029FBE0B3204603F025FB83467048008820
:1047600003F020FB834509D1204603F02EFB83464E
:104770006B48008803F029FB83454EDD204603F09B
:1047800011FB012804D1B5EEC08AF1EE10FA09D36D
:10479000204603F007FB02283FD1B5EEC08AF1EEB8
:1047A00010FA3ADD18EE100AFBF75DFFCDE90001C3
:1047B0009DED000B01F0ABFCB0EE40CAF0EE60CA1C
:1047C0009FED5B0B53EC102B51EC1C0B00E024E035
:1047D000FBF75CFF0CD218EE100AFBF744FF41EC2C
:1047E0001C0BB0EE4C0AF0EE6C0A01F090FC01E0FC
:1047F0009FED4F0B8DED020B9DED020B51EC100B5D
:10480000FBF774FF0FEE100AB5EEC08AF1EE10FA56
:1048100003D2B1EE4F0AB0EE40FAF2EE040AB0EE67
:10482000480A00EE8A0A30EE290A30EE0F9A012C6F
:1048300003D0032C01D0082C14D1B2EE040A2AEEC6
:10484000000AB4EEC90AF1EE10FA0BD2B2EE040A75
:104850002AEE000AB0EE409A2C48006940F48060CD
:104860002A490861022C03D0042C01D0092C14D150
:10487000B2EE040A2AEE000AB4EEC90AF1EE10FA0A
:104880000BDDB2EE040A2AEE000AB0EE409A1F4891
:10489000006940F480601D49086119EE100AFBF7B9
:1048A000E2FE41EC1C0BB0EE4C0AF0EE6C0A01F09B
:1048B0002EFC8DED020B9FED200B53EC102B9DED8C
:1048C000020B51EC100BFBF7E1FE02D903F0D4F917
:1048D0001BE40E48006940F001000C49086195EDA9
:1048E0000A0A094880ED000AC0ED018A80ED028ABB
:1048F000C0ED039AC0ED04DAC0ED05BA20E0000077
:1049000018010020140100209419002034190020FF
:104910000000FA430000FAC36901002090D00300B0
:104920006A010020009CE04700001643000016C307
:104930000000000000C05240000000E0FFFFEF4711
:1049400080ED069AB2EE040A2AEE000A80ED070A0C
:104950009FED1E0AB4EEC09AF1EE10FA06D39FED59
:104960001C0AB4EEC09AF1EE10FA05DD1948006990
:1049700040F01000174908619FED140AB4EEC09A88
:10498000F1EE10FA03D29FED110AB0EE409A9FEDBE
:10499000100AB4EEC09AF1EE10FA03DD9FED0C0A96
:1049A000B0EE409AC5ED0A8AC5ED0B8A0A49059812
:1049B00008600A4804800120094908700949087004
:1049C000BCEEC90A10EE100A80B2BFE40040924467
:1049D0000000D744341900206C0100206A01002037
:1049E000690100206801002000B5024600F018F8B7
:1049F0009FED0A3A82ED0B3A9FED083A82ED0A3AB2
:104A000082ED000AC2ED010A82ED021AC2ED041A1B
:104A100082ED052AC2ED062A00BD0000000000005C
:104A2000002002490870024908707047690100209F
:104A3000680100202DE9F0472DED068B06460F4654
:104A400090461C46A8EB07099FED6E0AB0EE409A0F
:104A50009FED6C0AF0EE408A9FED6A0AB0EE40AA24
:104A60009FED680AF0EE40AA9FED660A84ED010A08
:104A700084ED000A002F05DBB9F1020F02DBB8F567
:104A8000C87F08DD00212046FDF7F4F80020BDECCA
:104A9000068BBDE8F0873D4632E006EBC50090EDA1
:104AA000008A06EBC500D0ED019A9FED570AB4EEDF
:104AB000C08AF1EE10FA14D89FED540AB4EEC08A01
:104AC000F1EE10FA0DDB9FED500AF4EEC09AF1EE14
:104AD00010FA06D89FED4D0AF4EEC09AF1EE10FAE6
:104AE00005DA00212046FDF7C5F80020CFE739EEB2
:104AF000080AB0EE409A38EEA90AF0EE408A6D1C22
:104B00004545CADB00EE109AB8EEC00AC9EE000AAD
:104B1000B0EE609A00EE109AB8EEC00AC8EE800AB5
:104B2000F0EE608A3D461AE006EBC50090ED000A03
:104B300030EE490AB0EE408AB0EE4A0A08EE080AA2
:104B4000B0EE40AA06EBC50090ED010A70EE680ACF
:104B5000B0EE6A0A08EE200AF0EE40AA6D1C454548
:104B6000E2DB9FED2B0AB4EEC0AAF1EE10FA07D8F3
:104B7000C4ED018A00212046FDF77CF8002086E77D
:104B80008AEE8A0A84ED000AD4ED000AB0EE680AC3
:104B900000EEC90A84ED010A94ED000ADFED1A0A5D
:104BA000B4EEE00AF1EE10FA1AD894ED000ADFED47
:104BB000170AB4EEE00AF1EE10FA11DB94ED010AE7
:104BC000DFED110AB4EEE00AF1EE10FA08D894ED28
:104BD000010ADFED0E0AB4EEE00AF1EE10FA0BDA8C
:104BE0009FED080A84ED010A84ED000A00212046A9
:104BF000FDF740F800204AE701212046FDF73AF88A
:104C0000012044E700000000FFFF7F7FFFFF7FFFE0
:104C1000BD37863570B504460D461646FCF766FB73
:104C2000691E601E324600F0A3FB70BD10B504463D
:104C300021464FF0804000F010FE10BD704700008C
:104C400070B5002100230F22C4781CB3174C2468D0
:104C500004F4E064C4F5E064C4F30721C1F1040482
:104C6000E3B20A4144789C40E1B284781440214385
:104C70000C07210E0E4C05786155047804F01F05D1
:104C80000124AC4005786D11AD0005F1E025C5F8B3
:104C9000004109E0047804F01F050124AC40054DF3
:104CA0000678761145F8264070BD00000CED00E056
:104CB00000E400E080E100E002490143024A1160A3
:104CC000704700000000FA050CED00E0B0EE401A5D
:104CD000DFED2E1AB0EE610A70EEC11AC0ED0B1AAC
:104CE000D0ED0B1A2A4991ED002A71EE821AC1ED1E
:104CF000001AD1ED001A9FED272AF4EEC21AF1EE48
:104D000010FA03DBDFED231AC1ED001A2049D1EDC3
:104D1000001A9FED212AF4EEC21AF1EE10FA03D820
:104D2000DFED1D1AC1ED001AD0ED001A90ED0B2A2F
:104D300061EE821A90ED032A1549D1ED002A42EE68
:104D4000221A90ED0B2AD0ED0A2A32EE622AD0ED1B
:104D5000042A42EE821AB0EE610AD0ED0B1AC0EDC1
:104D60000A1ADFED0E1AB4EEE10AF1EE10FA03DBD7
:104D7000DFED0A1AB0EE610AB5EEC00AF1EE10FAE4
:104D800003D8DFED021AB0EE610A704700000000A0
:104D90007801002000004843000048C30000C842DA
:104DA00000B58BB00121080400F088F80121084605
:104DB00000F054F8032202212048FDF791FC042062
:104DC000099002208DF8280003208DF8290000208A
:104DD0008DF82A0001208DF82B0009A91748FDF74E
:104DE00037FC40F28F60ADF818000020ADF81A00D3
:104DF000632007900020ADF8200006A9104800F0BD
:104E00005DFD6020ADF804000120ADF80600002033
:104E1000ADF81000039001A9094800F0D7FC082163
:104E2000074800F011FD0121054800F035FC012183
:104E3000034800F040FC0BB000BD00000000024041
:104E40000040014010B504462146024800F005FD2F
:104E500010BD0000004001407047000029B1064A23
:104E600012680243044B1A6004E0034A126882434A
:104E7000014B1A60704700003038024029B1064AE1
:104E800012680243044B1A6004E0034A126882432A
:104E9000014B1A60704700004038024029B1064AB1
:104EA00012680243044B1A6004E0034A126882430A
:104EB000014B1A60704700002038024029B1064AB1
:104EC00012680243044B1A6004E0034A12688243EA
:104ED000014B1A60704700004438024029B1064A6D
:104EE00012680243044B1A6004E0034A12688243CA
:104EF000014B1A607047000024380240F0B50021D1
:104F000000220024022500260223324F3F6807F0CA
:104F10000C0121B1042905D0082937D105E02E4F15
:104F2000076036E02D4F076033E02A4F3F1F3F6890
:104F3000C7F38056274F3F1F3F6807F03F036EB10E
:104F4000264FB7FBF3F7DFF88CC0ACF1040CDCF8AC
:104F500000C0CCF3881C07FB0CF40CE01E4FB7FB21
:104F6000F3F7DFF870C0ACF1040CDCF800C0CCF350
:104F7000881C07FB0CF4174F3F1F3F68C7F301471E
:104F80007F1C7D00B4FBF5F7076002E0124F07605D
:104F900000BF00BF0F4F3F6807F0F0010909104F35
:104FA0007A5C0768D74047600A4F3F6807F4E051D2
:104FB000890A0B4F7A5C4768D7408760054F3F6886
:104FC00007F46041490B064F7A5C4768D740C760D9
:104FD000F0BD0000083802400024F40000127A00FE
:104FE0002400002000BFEFF31081084672B6074985
:104FF000097829B90021064A11800121054A11705A
:1050000000BF80F3108800BF704700007F010020C0
:105010007C0100207E0100200D480078B8B10D48C9
:105020000078A0B90C480088322804D20A480088C9
:10503000401C0949088008480088322807D301200D
:105040000449087005480068401C0449086070471E
:105050007E0100207F0100207C01002080010020D3
:105060007047000010B50446FCF70CF903480078BF
:10507000012802D12046FCF733F810BD3E00002085
:1050800010B504462146024800F0E7FB10BD0000C1
:105090000004004070B504460D461646691E601EA9
:1050A000324600F0B5F970BD0CB5002001900090BB
:1050B0003448006840F480303249086000BF31480D
:1050C000006800F4003000900198401C01900098A6
:1050D00018B90198B0F5A04FF1D12A48006800F442
:1050E000003010B10120009001E0002000900098F5
:1050F000012846D123484030006840F080502149C3
:10510000403108602048006840F440401E49086073
:105110001C48083000681B490831086008460068D0
:1051200040F4004008600846006840F4A050086061
:105130001648091F0860081F006840F08070091FAA
:10514000086000BF0F48006800F000700028F9D028
:1051500040F205700E4908600A480830006820F0E7
:1051600003000849083108600846006840F0020062
:10517000086000BF03480830006800F00C000828F1
:10518000F8D10CBD003802400070004008544007C0
:10519000003C0240DFED071AC0ED0B1ADFED051AE7
:1051A000C0ED0A1A80ED000AC0ED030A80ED041A72
:1051B0007047000000000000042808D14FF0E021F3
:1051C000096941F004014FF0E022116107E04FF05E
:1051D000E021096921F004014FF0E02211617047DC
:1051E0007047000010B51548006840F4700013497E
:1051F00008601348006840F0010011490860002071
:105200000F49083108600E4800680E4908400C49F3
:1052100008600D48091D0860081F006820F4802000
:10522000091F0860002006490C310860FFF73CFFA9
:105230004FF0006001498039086010BD88ED00E042
:1052400000380240FFFFF6FE10300024F0B50C4697
:10525000154600210022068C4FF6FE773E4006845C
:10526000018B028C4FF60C7631407E1C06EA031649
:105270002E4331434FF6F576324044F00106324377
:1052800001830284F0BDF0B50C46154600210022D2
:105290000026078C4FF6EF7C07EA0C070784018B8A
:1052A000028C4FF6FF7707EA041640F6FF473940B5
:1052B0004FF6FF7707EA033739434FF6FF7707EAE0
:1052C000052739434FF65F773A4046F010073A43D7
:1052D00001830284F0BDF0B50C4615460021002282
:1052E0000026078C4FF6FF6C07EA0C070784818BBA
:1052F000028C4FF6FF7707EA04264FF60C77394009
:105300004FF6FF7707EA03172F4339434FF2FF5752
:105310003A4046F480773A4381830284F0BDF0B589
:105320000C461546002100220026078C4EF6FF7C15
:1053300007EA0C070784818B028C4FF6FF7707EA98
:10534000043640F6FF4739404FF6FF7707EA052756
:1053500039434FF6FF7707EA0337394345F6FF77BE
:105360003A4046F480573A4381830284F0BD0000FE
:1053700070B58AB006460C46154601210846FFF76F
:105380007DFD01210846FFF769FD012205211F4827
:10539000FDF7A6F92020089002208DF824000320B4
:1053A0008DF8250000208DF826008DF8270008A92B
:1053B0001648FDF74DF9B0B2ADF814000020ADF875
:1053C00016000694ADF81C0005A94FF0804000F0CF
:1053D00075FA6020ADF800000120ADF80200002051
:1053E000ADF80C00029569464FF0804000F0EEF9F0
:1053F0000821C80600F028FA0121880700F04CF9BE
:105400000121880700F057F90AB070BD0000024082
:1054100070B58AB006460C46154601210220FFF7FA
:105420002DFD01210846FFF719FD022206211E4825
:10543000FDF756F94020089002208DF82400032043
:105440008DF8250000208DF826008DF8270008A98A
:105450001548FDF7FDF8B0B2ADF814000020ADF826
:1054600016000694ADF81C00029505A90F4800F03F
:1054700025FA6020ADF800000120ADF80200002000
:10548000ADF80C006946094800F0A0F9082107486A
:1054900000F0DAF90121054800F0FEF80121034887
:1054A00000F009F90AB070BD00000240000400409D
:1054B00000B589B001210420FFF7E0FC012108209C
:1054C000FFF7CCFC02208DF8080001208DF80A00BF
:1054D00003208DF8090000208DF80B004FF4405098
:1054E000019001A91E48FDF7B3F802220C211C48C7
:1054F000FDF7F6F802220D211948FDF7F1F800201A
:10550000ADF81800ADF81A004FF6FF7007900020B4
:10551000ADF8200006A9134800F0D0F903A800F068
:1055200042F90F20ADF8140003A90E4800F004F969
:105530000420ADF80C0003A90A4800F0FDF8002390
:105540001A460321074800F0C2F80021054800F080
:1055500086F90121034800F0AEF809B000BD000053
:10556000000C02400008004070B50121214800F005
:10557000D2F801283DD101211E4800F099F80024FD
:105580000025FFF749FD1C48007810B11B48007842
:1055900040B1FDF7E5F80124002019490880FFF724
:1055A00045FB1FE017480088012804D132218007FD
:1055B00000F053F916E0FDF7D3F80124124813491F
:1055C000D1ED000A124991ED000AFFF77FFBBCEE16
:1055D000C00A10EE100A0A49088001250846008812
:1055E000FFF724FB2A4621460A480088FCF7E4FB23
:1055F00000BF70BD000C00407E0100207F01002034
:105600009A0100208801002080AD00209001002038
:105610008C010020980100207FB505460C46012131
:105620000820FFF72BFC0295ADF804400020ADF8F0
:105630000600ADF80C0001A90D4800F03FF9012269
:1056400011460B4800F0B8F80121094800F033F882
:1056500032208DF8000001208DF8010003208DF824
:10566000020001208DF803006846FFF7E9FA7FBDCC
:10567000000C00400648008A00F0010038B100200C
:105680000349088203480068401C024908607047CB
:10569000001000406C00002021B1028842F080021E
:1056A000028004E002884FF67F731A400280704740
:1056B000CA430282704721B1028842F0010202808F
:1056C00004E002884FF6FE731A4002807047F0B57E
:1056D0000C4615461E460021002200230189028B3C
:1056E000038C4FF6F877394021434FF6FC473A4098
:1056F00040F201173A434FF6DD773B404FF6FF7714
:1057000007EA06172F433B43018102830384F0BD60
:105710000146486A704730B5024600200023002445
:10572000158A05EA0103958905EA010413B10CB154
:10573000012000E0002030BD70B505460C462088F1
:1057400050B92389A28861882846FFF77FFDE18848
:10575000284600F086F825E0208804280AD123890D
:10576000A28861882846FFF78EFDE188284600F070
:1057700081F817E0208808280AD12389A288618847
:105780002846FFF7A8FDE188284600F080F809E0E8
:105790002389A28861882846FFF7C1FDE188284651
:1057A00000F07EF870BD00210180418001218180E0
:1057B0000021C180018170471AB183890B43838125
:1057C00002E083898B4383817047000070B5002419
:1057D00000220023058C4FF6FE7635400584028CAE
:1057E0008388048B4FF68F752C40B51E2C400D8896
:1057F0002C43751E2A408D892A434D882A43104D1B
:10580000A84202D00F4DA84213D14FF6F7752A4097
:10581000CD892A434FF6FB752A408D882A434FF6DF
:10582000FF652B404FF6FF552B400D8A2B434D8AC9
:105830002B43838004838D684563028470BD000020
:1058400000000140000401400A460021018B4FF690
:10585000F7731940114301837047416370474162F8
:105860007047028B4FF6F3731A400283028B0A4390
:1058700002837047028B4FF2FF331A400283028B80
:105880004FF6FF7303EA01231A4302837047828BAA
:105890004FF6F3731A408283828B0A4382837047E8
:1058A000828B4FF2FF331A408283828B4FF6FF7355
:1058B00003EA01231A438283704700000022028812
:1058C000184B98420ED0184B98420BD0B0F1804F35
:1058D00008D0164B984205D0154B984202D0154B74
:1058E000984204D14FF68F731A404B881A43124BDB
:1058F000984207D0114B984204D04FF6FF431A400C
:105900000B891A4302804B68C3620B880385054BE1
:10591000984202D0044B984201D18B7A038601232E
:1059200083827047000001400004014000040040F1
:1059300000080040000C004000100040001400402F
:105940002DE9F0472DED028BD0B08246FBF752F9DE
:10595000022804DA50B0BDEC028BBDE8F087504657
:10596000FBF708FF18B1102061490870F2E761A148
:105970005046FAF7EEFC18BB6048006860490978A9
:10598000604A1278604B1B88CDE90432CDE90610DD
:105990005E4800685E4909885E4A12685E4B1B6873
:1059A000CDE90032CDE902105C4803685C4802682A
:1059B0005C4908A800F090FB08A8FFF753FBC9E773
:1059C00059A15046FAF7C5FC10B900F033F9C1E708
:1059D00020215046FAF7ACFC06463A215046FAF729
:1059E000A7FC804626B1B8F1000F02D0B04500D226
:1059F00046461EB94DA0FCF70FFCABE70020307007
:105A0000751C00E06D1C28782028FBD028783A28E7
:105A1000F8D0287818B945A0FCF7FEFB9AE70A22CF
:105A20003FA92846FAF7B2FC81463F98A84208D021
:105A30003F98007828B919F5004F02DBB9F5004FFF
:105A400003DB3DA0FCF7E8FB84E74F46002448E079
:105A50003C4800EB041001685046FAF77AFC00B1AC
:105A60003DE0384800EB0410B0F90800B84206DC0D
:105A7000344800EB0410B0F90A00B84203DA32A04F
:105A8000FCF7CAFB66E72F4800EB0410007B3149A6
:105A900051F8200000EE100AF8EEC00A00EE107A6D
:105AA000B8EEC00A80EE201AB0EE418A254A02EB19
:105AB000041204F16400B0EE480A5168FCF70EFAD3
:105AC00018B925A0FCF7A8FB44E73B46524625A1A0
:105AD00040A800F001FB40A8FFF7C4FA3AE7601CB9
