:020000040800F2
:1000000090B600209D0100086D6400086F64000830
:1000100073640008776400087B6400080000000037
:100020000000000000000000000000007F640008E5
:1000300081640008000000008364000885640008F3
:10004000B7010008B7010008B7010008B7010008B0
:10005000B7010008B7010008B7010008B7010008A0
:10006000B7010008B7010008B7010008B701000890
:10007000B7010008B7010008B7010008B701000880
:10008000DF330008B7010008B7010008B701000816
:10009000B7010008B7010008B7010008B701000860
:1000A000B7010008B7010008B7010008B701000850
:1000B000B7010008B7010008B7010008B701000840
:1000C000B7010008B7010008B7010008B701000830
:1000D000B7010008CD230008B7010008B7010008E8
:1000E000B7010008B7010008B7010008B701000810
:1000F000B7010008B7010008B7010008B701000800
:10010000B7010008B7010008573A0008B701000816
:10011000B7010008B7010008B7010008B7010008DF
:10012000B7010008B7010008B7010008B7010008CF
:10013000B7010008B7010008B7010008B7010008BF
:10014000B7010008B7010008B7010008B7010008AF
:10015000B7010008B7010008B701000867360008BA
:10016000B7010008B7010008B7010008B70100088F
:10017000B7010008B7010008B7010008B70100087F
:10018000B7010008B7010008DFF80CD006F0A0FEA8
:1001900000480047FD63000890B6002006488047ED
:1001A00006480047FEE7FEE7FEE7FEE7FEE7FEE75C
:1001B000FEE7FEE7FEE7FEE7656500088901000847
:1001C00032490143324A1160704770B50021002363
:1001D0000F22C4781CB32E4C246804F4E064C4F5E8
:1001E000E064C4F30721C1F10404E3B20A41447896
:1001F0009C40E1B28478144021430C07210E254C29
:1002000005786155047804F01F050124AC40057899
:100210006D11AD0005F1E025C5F8004109E0047855
:1002200004F01F050124AC401B4D0678761145F8FB
:10023000264070BD194A0A400243154B1B1F1A6025
:10024000704739B1124A121D12680243104B1B1D30
:100250001A6006E00E4A121D126882430C4B1B1DE9
:100260001A607047042808D14FF0E021096941F075
:1002700004014FF0E022116107E04FF0E02109692D
:1002800021F004014FF0E022116170470000FA05EF
:100290000CED00E000E400E080E100E080FFFF1FE3
:1002A000016821F00101016000210160416081606D
:1002B000C160016121214161DB49884204D13D21B6
:1002C000D94A103A91608CE0D7491831884205D15B
:1002D0004FF47461D44A103A916082E0D2493031CF
:1002E000884205D14FF47411CF4A103A916078E0FA
:1002F000CD494831884205D14FF07461CA4A103A5D
:1003000091606EE0C8496031884204D1C749C64A4D
:10031000103AD16065E0C4497831884204D1C449BB
:10032000C14A103AD1605CE0BF499031884204D1A3
:10033000C049BD4A103AD16053E0BB49A831884258
:1003400005D14FF03D51B84A103AD16049E0BA4961
:10035000884204D13D21B84A083A116041E0B649CB
:100360001831884205D14FF47461B34A083A1160DC
:1003700037E0B1493031884205D14FF47411AE4AAB
:10038000083A11602DE0AC494831884205D14FF060
:100390007461A94A083A116023E0A7496031884294
:1003A00004D1A249A44A121F11601AE0A24978316F
:1003B000884204D19E49A04A121F116011E09E4953
:1003C0009031884204D19B499B4A121F116008E07A
:1003D0009949A831884204D14FF03D51964A121FE5
:1003E0001160704710B500220268944B1A40CC6827
:1003F0000B6823434C6923438C692343CC69234313
:100400000C6A23434C6A23438C6A23434C6B23437B
:100410008C6B23431A430260426922F00702D1E940
:100420000B3423431A4342610B6943604B6883607A
:100430008B68C36010BD0021016041608160C160B4
:10044000016141618161C161016241628162C16298
:10045000016341638163704721B1026842F0010288
:10046000026003E0026822F001020260704721B1DD
:10047000026842F40042026003E0026822F4004293
:100480000260704721B1026842F02002026003E07E
:10049000026822F020020260704741607047014606
:1004A000486880B2704722B1036843F400230360B8
:1004B00003E0036823F4002303600161704721B166
:1004C000026842F48022026003E0026822F4802283
:1004D000026070470AB1016100E0C16070470146E7
:1004E00000200A6802F400220AB1012000E0002086
:1004F0007047014600200A6802F001020AB101209B
:1005000000E000207047014600204A6902F03800F0
:10051000704730B503460A4600200024464DAB42E2
:1005200002D24149103901E04349103902F0005527
:100530000DB14C6800E00C68414D2C4004EA020506
:100540000DB1012000E0002030BD02463A4B9A4236
:1005500002D23548103801E03748103801F0005316
:100560001BB1374B0B40C36002E0354B0B4083603F
:10057000704710B501F080034BB122B1436943F0DD
:100580008003436103E0436923F0800343618029D2
:100590000BD02AB1036801F01E042343036004E07A
:1005A000036801F01E04A343036010BD70B502464A
:1005B000002000240025204EB24202D21A4B103BEC
:1005C00001E01D4B103B1F4E0E4036B11E2606EAC1
:1005D000D124166806EA040502E0566906F0800593
:1005E00001F000560EB15C6800E01C68144E344007
:1005F00004EA010616B10DB1012000E0002070BD33
:1006000002460D4B9A4202D20748103801E00A48D0
:10061000103801F000531BB1094B0B40C36002E0DE
:10062000074B0B4083607047106002403D00002084
:10063000400F002000003D20106402403F801CF06D
:100640007D0F7D0F3C0F3C0F10B504469848844247
:1006500008D10121084600F0A6FB0021012000F08E
:10066000A2FB76E09348844208D10121022000F0E9
:100670009AFB0021022000F096FB6AE08E4884423B
:1006800008D10121042000F08EFB0021042000F09D
:100690008AFB5EE08948844208D10121082000F0ED
:1006A00082FB0021082000F07EFB52E08448844257
:1006B00008D10121102000F076FB0021102000F06D
:1006C00072FB46E07F48844208D10121202000F0DF
:1006D0006AFB0021202000F066FB3AE07A48844261
:1006E00008D10121402000F05EFB0021402000F0F5
:1006F0005AFB2EE07548844208D10121802000F089
:1007000052FB0021802000F04EFB22E07048844222
:1007100008D10121801500F046FB0021A01500F052
:1007200042FB16E06B48844208D10121401500F0DD
:100730003AFB0021601500F036FB0AE0664884426F
:1007400007D10121001500F02EFB0021201500F03B
:100750002AFB10BDF0B50A4600210023002400BF8B
:100760003DE0012505FA01F3156805EA03049C4202
:1007700034D105684F000326BE40B54305601579A6
:100780004E00B5400668354305601579012D02D04D
:100790001579022D16D185684F000326BE40B5435A
:1007A000856055794E00B54086683543856045685B
:1007B00001268E40B5434560456896798E40B6B2B5
:1007C00035434560C5684F000326BE40B543C5604C
:1007D000D5794E00B540C6683543C560491C10291F
:1007E000BFD3F0BD4FF6FF7101600021017141716F
:1007F0008171C171704708B54FF480320092009A40
:100800000A430092009AC261C161009AC261C26942
:100810000092C269009208BD0246002013690B4095
:100820000BB1012000E0002070470146086980B24A
:1008300070470246002053690B400BB1012000E0D5
:10084000002070470146486980B2704701837047B5
:10085000418370470AB1018300E0418370474161E1
:10086000704742694A4042617047F0B50023002456
:100870004D07ED0E02FA05F3CE1000F1200555F8F4
:1008800026504E07F70E0F26BE40B543CF1000F19D
:10089000200646F82750CE1000F1200555F82650C6
:1008A00045EA0304CE1000F1200545F82640F0BDCE
:1008B000000002400004024000080240000C024018
:1008C000001002400014024000180240001C0240C8
:1008D0000020024000240240002802400E49086027
:1008E00070470D49486070470B49886070474AF669
:1008F000AA200949086070474CF6CC4006490860B8
:10090000704701460020044AD2680A400AB101201B
:1009100000E000207047000000300040F948006807
:1009200040F00100F74908600020F64908310860EE
:10093000F4480068F4490840F2490860F348091D8A
:100940000860F348EF4984310860F0481038091D09
:100950000860EC48006820F48020EA490860002024
:10096000E8490C310860E7498C3108607047002184
:10097000E44A921C117011460870704710B5014688
:100980000022002300204A11012A02D1DD4C2368F5
:1009900008E0022A03D1DB4C7034236802E0D94C12
:1009A0007434236801F01F02012494401C400CB1F0
:1009B000012000E0002010BD38B500200090002488
:1009C000002500BF3120FFF7D9FF05460098401CE5
:1009D00000900098B0F5A04F01D0002DF2D031204A
:1009E000FFF7CCFF08B1012400E00024204638BD09
:1009F00001460020C34A106820F0F80040EAC10018
:100A000010607047C349086070470021BD4A7032CA
:100A100011701170012802D004280AD104E00121CC
:100A2000B84A7032117005E00521B64A7032117073
:100A300000E000BF00BF7047B7490860704770B55D
:100A4000049C41EA82150126C6EB530645EA064599
:100A5000054345EA0465AB4E361D356070BDAD49B2
:100A600008667047820142EA0172A64B84331A601D
:100A70007047A8498866704710B5830143EA01634F
:100A800043EA02739F4C8834236010BDA149086774
:100A90007047A049C864704702460020994B08334C
:100AA000186820F0EC6042EA01031843954B0833C4
:100AB0001860704702460020924B0833186820F0F7
:100AC000784042EA010318438E4B083318607047A0
:100AD000014600208B4A0832106820F003000843CA
:100AE0001060704787480830006800F00C007047BD
:100AF00001460020834A0832106820F0F0000843C5
:100B000010607047014600207E4A0832106820F4C9
:100B1000E05008431060704701460020794A0832CF
:100B2000106820F4604040EAC10010607047F0B5E2
:100B3000002100220024022500260223714F0837DD
:100B40003F6807F00C0121B1042905D0082937D1ED
:100B500005E0724F076036E0714F076033E0694F80
:100B60003F1D3F68C7F38056664F3F1D3F6807F043
:100B70003F036EB16A4FB7FBF3F7DFF888C10CF1A2
:100B8000040CDCF800C0CCF3881C07FB0CF40CE070
:100B9000624FB7FBF3F7DFF86CC10CF1040CDCF823
:100BA00000C0CCF3881C07FB0CF4564F3F1D3F6878
:100BB000C7F301477F1C7D00B4FBF5F7076002E037
:100BC000564F076000BF00BF4E4F08373F6807F021
:100BD000F0010909534F7A5C0768D7404760494FD5
:100BE00008373F6807F4E051890A4E4F7A5C47683E
:100BF000D7408760434F08373F6807F46041490B8F
:100C0000484F7A5C4768D740C760F0BD002100F4C8
:100C10004072B2F5407F0AD13A4A0832116821F495
:100C2000F811414A02401143364A08321160354AF0
:100C300070321268C0F30B031A43324B70331A60E0
:100C40007047354944390860704733494039086076
:100C5000704736490860704701460020294A8C32A7
:100C6000106820F01F004A1E1043264A8C32106084
:100C7000704701460020234A8C32106820F4F85057
:100C80004A1E40EA02201F4A8C321060704701461B
:100C900000201C4A8C32106820F440100843106079
:100CA000704701460020174A8C32106820F440003B
:100CB00008431060704701460020124A8C321068C9
:100CC00020F44030084310607047194908607047AD
:100CD00039B10C4A3032126802430A4B30331A6081
:100CE00006E0084A303212688243064B30331A60FD
:100CF0007047F9B1034A343212680243014B34336E
:100D00001A601CE000380240FFFFF6EA10300024B1
:100D10000030002000004742800E47420024F400CB
:100D200000127A0000000020FFFCFF0F5C01474228
:100D3000E01147428F4A126882438E4B1A60704717
:100D400039B18C4A121D126802438A4B1B1D1A606E
:100D500006E0884A121D12688243864B1B1D1A60EA
:100D6000704739B1834A0C3212680243814B0C330D
:100D70001A6006E07F4A0C32126882437D4B0C33C6
:100D80001A60704739B17B4A103212680243794BBE
:100D900010331A6006E0774A103212688243754BAE
:100DA00010331A60704739B1724A243A126802430C
:100DB000704B243B1A6006E06E4A243A1268824364
:100DC0006C4B243B1A60704739B16A4A203A12686A
:100DD0000243684B203B1A6006E0664A203A1268DC
:100DE0008243644B203B1A60704739B1614A1C3A18
:100DF000126802435F4B1C3B1A6006E05D4A1C3AD6
:100E0000126882435B4B1C3B1A60704739B1594AE8
:100E1000143A12680243574B143B1A6006E0554AD5
:100E2000143A12688243534B143B1A60704739B12D
:100E3000504A103A126802434E4B103B1A6006E0CB
:100E40004C4A103A126882434A4B103B1A60704772
:100E500039B1484A1C3212680243464B1C331A60AF
:100E600006E0444A1C3212688243424B1C331A602B
:100E7000704739B13F4A2032126802433D4B20335C
:100E80001A6006E03B4A203212688243394B203315
:100E90001A60704739B1374A243212680243354B21
:100EA00024331A6006E0334A243212688243314BFD
:100EB00024331A60704739B12E4A2C32126802432B
:100EC0002C4B2C331A6006E02A4A2C3212688243DB
:100ED000284B2C331A60704739B1264A30321268D9
:100EE0000243244B30331A6006E0224A3032126843
:100EF0008243204B30331A607047012808D11D49C6
:100F00003C31096841F008011A4A3C32116007E09F
:100F100018493C31096821F00801164A3C32116039
:100F2000704739B1134A273A12780243114B273BD5
:100F30001A7006E00F4A273A127882430D4B273B7E
:100F40001A7070470B484030006840F080700949C3
:100F500040310860704701460020064A283A12686E
:100F60000A400AB1012000E00020704701492639FB
:100F7000087070473438024010B50446FE48844279
:100F800008D101210846FFF752FF00210120FFF799
:100F90004EFF9DE0B4F1804F08D101210846FFF7D4
:100FA00035FF00210120FFF731FF91E0F348844233
:100FB00008D101210220FFF729FF00210220FFF7BD
:100FC00025FF85E0EE48844208D101210420FFF787
:100FD0001DFF00210420FFF719FF79E0E948844252
:100FE00008D101210820FFF711FF00210820FFF799
:100FF0000DFF6DE0E448844208D101211020FFF785
:1010000005FF00211020FFF701FF61E0DF48844267
:1010100008D101212020FFF7F9FE00212020FFF751
:10102000F5FE55E0DA48844208D101210220FFF79D
:10103000FEFE00210220FFF7FAFE49E0D548844277
:1010400009D101210804FFF7F2FE00214FF480309E
:10105000FFF7EDFE3CE0D048844209D1012148046D
:10106000FFF7E5FE00214FF40030FFF7E0FE2FE030
:10107000CA48844209D101218804FFF7D8FE002123
:101080004FF48020FFF7D3FE22E0C548844208D108
:1010900001214020FFF7BAFE00214020FFF7B6FEF5
:1010A00016E0C048844208D101218020FFF7AEFE3F
:1010B00000218020FFF7AAFE0AE0BB48844207D146
:1010C00001218015FFF7A2FE0021A015FFF79EFE6B
:1010D00010BD00220288A84B98420ED0AC4B98421B
:1010E0000BD0B0F1804F08D0A44B984205D0A44B50
:1010F000984202D0A34B984204D14FF68F731A4006
:101100004B881A43A04B984207D0A04B984204D07A
:101110004FF6FF431A400B891A4302804B68C362A3
:101120000B880385944B984202D0994B984201D189
:101130008B7A03860123838270474FF0FF31416031
:101140000021018001814180817270470185828286
:1011500070470A46002101884FF68F7319401143EA
:101160000180704741627047C16270470146486A1A
:1011700070470146088D704721B1028842F0020293
:10118000028004E002884FF6FD731A400280704727
:1011900021B1028842F00402028004E002884FF686
:1011A000FB731A400280704721B1028842F080022E
:1011B000028004E002884FF67F731A400280704775
:1011C00002884FF6F7731A40028002880A430280B1
:1011D000704702884FF6FF431A40028002880A4394
:1011E0000280704721B1028842F00102028004E0CF
:1011F00002884FF6FE731A400280704770B50024D3
:1012000000220023058C4FF6FE7635400584028CC3
:101210008388048B4FF68F752C40B51E2C400D88AB
:101220002C43751E2A408D892A434D882A43524DEE
:10123000A84202D0564DA84213D14FF6F7752A4066
:10124000CD892A434FF6FB752A408D882A434FF6F5
:10125000FF652B404FF6FF552B400D8A2B434D8ADF
:101260002B43838004838D684563028470BD70B511
:10127000002400220023058C4FF6EF7635400584CC
:10128000028C8388048B48F6FF752C404FF6FF458F
:101290002C400D884FF6FF7606EA05252C434FF6C5
:1012A000DF752A408D8906EA05152A434D8806EA2E
:1012B00005152A43304DA84202D0354DA8421DD114
:1012C0004FF67F752A40CD894FF6FF7606EA051561
:1012D0002A434FF6BF752A408D8806EA05152A4332
:1012E0004FF6FF352B404FF2FF752B400D8A06EA73
:1012F00085052B434D8A06EA85052B4383800483AD
:101300008D688563028470BD70B5002400220023BF
:10131000058C4FF6FF6635400584028C8388848BEC
:101320004FF68F752C404FF6FC752C400D882C43E2
:101330004FF6FF552A408D894FF6FF7606EA0525C0
:101340002A434D8806EA05252A430B4DA84202D0C0
:101350000F4DA84238D14FF2FF752A40CD894FF684
:10136000FF7606EA05252A434FF6FF352A408D8889
:1013700006EA05252A4319E0000001400004004068
:1013800000080040000C0040001000400014004025
:101390000004014000400140004401400048014079
:1013A00000180040001C0040002000404EF6FF7571
:1013B0002B404DF6FF752B400D8A06EA05152B4391
:1013C0004D8A06EA05152B43838084838D68C563A7
:1013D000028470BD70B5002200230024058C4EF6F7
:1013E000FF7635400584038C8488828B48F6FF7530
:1013F0002A404FF6FF452A400D884FF6FF7606EA51
:1014000005252A434DF6FF752B408D8906EA0535E3
:101410002B434D8806EA05352B43FE4DA84202D0EA
:10142000FD4DA84208D14BF6FF752C400D8A4FF6B2
:10143000FF7606EA85152C43848082838D680564D7
:10144000038470BD002101804180818081608181A1
:10145000C18101824182704770B50346002000249B
:101460001846183001258D40ACB21D8CA5431D8453
:1014700009B108290AD100EB610005684FF68F76A3
:10148000354005600568154305600FE00D1FC5F385
:101490004E052844056848F6FF7635400560056826
:1014A0004FF6FF7606EA02263543056070BD4163BC
:1014B000704781637047C1637047016470470A4693
:1014C0000021018B4FF68F73194011430183704740
:1014D0000A460021018B48F6FF7319404FF6FF734F
:1014E00003EA02231943018370470A460021818BD6
:1014F0004FF68F7319401143818370470A460021CC
:10150000818B48F6FF7319404FF6FF7303EA0223FD
:101510001943818370470A460021018B4FF6F77308
:1015200019401143018370470A460021018B4FF295
:10153000FF7319404FF6FF7303EA02231943018337
:1015400070470A460021818B4FF6F773194011430B
:10155000818370470A460021818B4FF2FF73194047
:101560004FF6FF7303EA02231943818370470A464B
:101570000021018B4FF6FB73194011430183704723
:101580000A460021018B4FF6FF3319404FF6FF73D7
:1015900003EA02231943018370470A460021818B25
:1015A0004FF6FB7319401143818370470A460021AF
:1015B000818B4FF6FF3319404FF6FF7303EA022386
:1015C0001943818370470A460021018B4FF67F73D0
:1015D00019401143018370470A460021018BC1F372
:1015E0000E014FF6FF7303EA02231943018370478C
:1015F0000A460021818B4FF67F7319401143818386
:1016000070470A460021818BC1F30E014FF6FF732C
:1016100003EA02231943818370470A460021018CA3
:101620004FF6FD7319401143018470470A460021AB
:10163000018C4FF6F77319401143018470470A4635
:101640000021018C4FF6DF7319404FF6FF7303EA58
:1016500002131943018470470A460021018C4FF69A
:101660007F7319404FF6FF7303EA02131943018495
:1016700070470A460021018C4FF6FF5319404FF680
:10168000FF7303EA02231943018470470A460021CD
:10169000018C4FF2FF7319404FF6FF7303EA0223E8
:1016A0001943018470470A460021018C4DF6FF73EF
:1016B00019404FF6FF7303EA023319430184704760
:1016C00030B5002301248C40A3B2048C9C430484D5
:1016D000048C02FA01F5ADB22C43048430BD30B560
:1016E000002304248C40A3B2048C9C430484048C07
:1016F00002FA01F5ADB22C43048430BD828B4FF267
:10170000FF331A408283828B4FF6FF7303EA012373
:101710001A4382837047F0B50C461546002100221B
:101720000026078C4EF6FF7C07EA0C070784818BA6
:10173000028C4FF6FF7707EA043640F6FF47394040
:101740004FF6FF7707EA052739434FF6FF7707EA99
:101750000337394345F6FF773A4046F480573A431A
:1017600081830284F0BD828B4FF6F3731A4082832B
:10177000828B0A4382837047F0B50C4615460021E0
:1017800000220026078C4FF6FF6C07EA0C0707843F
:10179000818B028C4FF6FF7707EA04264FF60C7711
:1017A00039404FF6FF7707EA03172F4339434FF2CB
:1017B000FF573A4046F480773A4381830284F0BD74
:1017C000028B4FF2FF331A400283028B4FF6FF73F6
:1017D00003EA01231A4302837047F0B50C4615460D
:1017E000002100220026078C4FF6EF7C07EA0C0749
:1017F0000784018B028C4FF6FF7707EA041640F648
:10180000FF4739404FF6FF7707EA033739434FF672
:10181000FF7703E0000001400004014007EA0527CC
:1018200039434FF65F773A4046F010073A43018359
:101830000284F0BD028B4FF6F3731A400283028BD1
:101840000A4302837047F0B50C461546002100227A
:10185000068C4FF6FE773E400684018B028C4FF6D5
:101860000C7631407E1C06EA03162E4331434FF6B8
:10187000F576324044F00106324301830284F0BD24
:1018800070B505460C46208850B92389A288618826
:101890002846FFF7D8FFE1882846FFF7CBFF25E071
:1018A000208804280AD12389A28861882846FFF766
:1018B00094FFE1882846FFF783FF17E02088082877
:1018C0000AD12389A28861882846FFF755FFE1885D
:1018D0002846FFF748FF09E02389A2886188284647
:1018E000FFF719FFE1882846FFF708FF70BD0021C8
:1018F00001804180012181800021C18001817047E8
:101900002DE9F04105460C4600260127608808B9FC
:10191000022600E00026A088012801D1022700E06D
:1019200001272088A0B92389A28861882846FFF76B
:101930008AFFE1882846FFF77DFF23893A46314632
:101940002846FFF74AFFE1882846FFF739FF13E0F2
:101950002389A28861882846FFF73FFFE18828464F
:10196000FFF72EFF23893A4631462846FFF76BFFE3
:10197000E1882846FFF75EFFBDE8F0810146486B2D
:1019800070470146886B70470146C86B7047014637
:10199000086C70470A884B881A438B881A43CB8897
:1019A0001A430B891A434B891A438B891A43A0F8AF
:1019B000442070470021018041808180C1800181E5
:1019C00041818181704731B1B0F8442042F4004236
:1019D000A0F8442005E0B0F84420C2F30E02A0F8BD
:1019E0004420704721B1828842F00402828004E0E2
:1019F00082884FF6FB731A408280704721B182883B
:101A000042F00102828004E082884FF6FE731A40A1
:101A1000828070471AB183890B43838102E08389F6
:101A20008B43838170478182704702460020138A6E
:101A30000B400BB1012000E000207047CA43028236
:101A4000704730B50246002000230024158A05EABD
:101A50000103958905EA010413B10CB1012000E0EE
:101A6000002030BDCA430282704741EA0203A0F859
:101A7000483070471AB183890B43838102E0838920
:101A80008B438381704721B1828842F008028280B3
:101A900004E082884FF6F7731A408280704701890C
:101AA0004FF6F8721140018170470A460021018902
:101AB0004FF68F73194011430181704730B50446CA
:101AC0000D4629462046FFF7F0FF208940F0070029
:101AD000208130BD2DE9F04104460D4616461F46D3
:101AE000602D06D13B46012231462046FFF775FEA8
:101AF00005E03B46012231462046FFF7A4FE294679
:101B00002046FFF7D2FF208940F007002081BDE882
:101B1000F08130B50C4600210189C9B24FF6FF753E
:101B200005EA0325154325432943018130BD2DE9ED
:101B3000F04105460E4617469846002443463A466D
:101B400031462846FFF7E5FF2C894FF6F870044030
:101B500044F007044FF68F70044044F070042C8169
:101B6000BDE8F081F0B504460D4616461F463B46DB
:101B7000324629462046FFF7CCFF208940F48040BA
:101B80002081F0BD82884FF68F731A408280828850
:101B90000A438280704702894FF6F8731A40028127
:101BA00002890A430281704702894FF67F731A4007
:101BB000028102890A4302817047F0B50C4615463E
:101BC0001E460021002200230189028B038C4FF660
:101BD000F877394021434FF6FC473A4040F201176D
:101BE0003A434FF6DD773B404FF6FF7707EA06179B
:101BF0002F433B43018102830384F0BD21B18288DE
:101C000042F08002828004E082884FF67F731A409F
:101C100082807047A0F850107047000010B504464D
:101C2000FA48844208D101211020FFF700F9002171
:101C30001020FFF7FCF857E0F548844209D1012154
:101C40004804FFF7E3F800214FF40030FFF7DEF817
:101C50004AE0F048844209D101218804FFF7D6F810
:101C600000214FF48020FFF7D1F83DE0EA4884429C
:101C700009D10121C804FFF7C9F800214FF4002061
:101C8000FFF7C4F830E0E548844209D10121080596
:101C9000FFF7BCF800214FF48010FFF7B7F823E0FE
:101CA000DF48844208D101212020FFF7C0F800213D
:101CB0002020FFF7BCF817E0DA48844209D101215F
:101CC0008807FFF7A3F800214FF08040FFF79EF848
:101CD0000AE0D548844207D101214005FFF796F874
:101CE00000216005FFF792F810BD2DE9FF4705467A
:101CF0000E460024A14600BFA046B08900B100BF37
:101D00002C8A24F44054F08804432C82AC8941F29C
:101D10000C608443B08831890843718908430443C7
:101D2000AC81AC8A24F44074B0890443AC82684628
:101D3000FEF7FDFEB548854202D0B948854202D182
:101D4000DDF80C9001E0DDF80890A88900F400406F
:101D500040B109EBC90000EB091031684900B0FB44
:101D6000F1F707E009EBC90000EB091031688900C1
:101D7000B0FBF1F76420B7FBF0F004012009642107
:101D800001FB1078A88900F4004040B1322000EB3C
:101D9000C800B0FBF1F000F00700044308E0322077
:101DA00000EB08106421B0FBF1F000F00F000443D9
:101DB0002C81BDE8FF874FF416510160002181801E
:101DC000C18001810C21418100218181704710B5C2
:101DD00002460020108A20F470600B884C88234350
:101DE0008C882343CC8823431843108210BD0021E4
:101DF000018041808180C180704721B1828942F495
:101E00000052828104E082894DF6FF731A4082817C
:101E10007047028B02F47F420283028B0A430283E3
:101E2000704721B1828942F40042828103E08289B5
:101E3000C2F30E028281704721B1828A42F40062AD
:101E4000828204E0828A4FF2FF731A4082827047D6
:101E5000C1F308028280704701468888C0F30800F9
:101E60007047028A4FF6F0731A400282028A0A43D0
:101E70000282704721B1828942F00202828104E02D
:101E800082894FF6FD731A408281704782894FF232
:101E9000FF731A40828182890A4382817047028AD5
:101EA0004FF6DF731A400282028A0A4302827047A9
:101EB00021B1028A42F48042028204E0028A4BF697
:101EC000FF731A4002827047818941F001018181CC
:101ED000704721B1828A42F00802828204E0828A3D
:101EE0004FF6F7731A4082827047028BD2B2028398
:101EF000028B42EA01220283704721B1828A42F0BA
:101F00002002828204E0828A4FF6DF731A408282C6
:101F1000704721B1828A42F01002828204E0828AF4
:101F20004FF6EF731A4082827047828A4FF6FB7336
:101F30001A408282828A0A438282704721B1828A51
:101F400042F00202828204E0828A4FF6FD731A4058
:101F5000828270471AB1838A0B43838202E0838AAC
:101F60008B4383827047F0B503460024002600258A
:101F7000002040F66A17B94200D100BF1846C1F3ED
:101F8000421401F01F06012707FA06F5012C01D1C2
:101F90000C3004E0022C01D1103000E014301AB1F2
:101FA00007682F43076002E00768AF430760F0BD92
:101FB00002460020B1F5007F00D100BF13880B401E
:101FC0000BB1012000E00020704701F40072B2F56F
:101FD000007F00D100BFCA430280704770B502463F
:101FE000002400230025002040F66A16B14200D1EB
:101FF00000BFC1F3421501F01F03012606FA03F3E7
:10200000012D13D19689334017E0000000100140E4
:102010000044004000480040004C00400050004098
:102020000014014000780040007C0040022D02D1E5
:10203000168A334001E0968A33400C12012606FAD4
:1020400004F41688344013B10CB1012000E00020E4
:1020500070BD10B50022002340F66A14A14200D1E1
:1020600000BF0A1201249440A3B2DC43048010BDD7
:1020700010B504466FF00400FEF7F4F8E11704EB26
:102080005171C1F3C701394A11701046007800EB55
:102090004001C1EBC0104FF6FF7101EAC0003449A6
:1020A000088010BD0146314A12784A434FF0E023C0
:1020B0005A6100229A611A46126942F001021A61BD
:1020C00000BF4FF0E022106900F001021AB100F4E5
:1020D0008032002AF5D04FF0E022126922F001028E
:1020E0004FF0E0231A6100229A6170470146204AAE
:1020F00012884A434FF0E0235A6100229A611A463F
:10210000126942F001021A6100BF4FF0E02210692B
:1021100000F001021AB100F48032002AF5D04FF02D
:10212000E022126922F001024FF0E0231A6100223E
:102130009A61704770B504464FF4077094FBF0F055
:10214000C6B24FF4077094FBF0F100FB114085B26A
:1021500005E04FF40770FFF7C9FF701EC6B2002EEE
:10216000F7D115B12846FFF7C1FF70BD1000002060
:102170001200002000BF704700BFD24A128802F050
:102180004002002AF9D0C2B2CE4B9A80704710B5F7
:1021900088B0044601210846FEF79AFD012110206F
:1021A000FEF7F0FD07220921C748FEF75EFB072274
:1021B0000A21C548FEF759FB4FF4C0600690022083
:1021C0008DF81C0003208DF81D0000208DF81E00E6
:1021D00001208DF81F0006A9BB48FEF7BBFA029448
:1021E0000020ADF80C00ADF80E00ADF81000ADF811
:1021F00014000C20ADF8120002A9B248FFF775FDDB
:102200000121B048FFF7F9FD01224021AD48FFF759
:10221000A1FE4021AB48FFF7D8FE012240F2255134
:10222000A848FFF7A0FE25208DF8040003208DF8B4
:1022300005008DF8060001208DF8070001A8FDF7C4
:10224000C4FF08B010BDF0B52DED028B81B005467E
:102250000E460024062E06DA9CA004F04BFE01B0C8
:10226000BDEC028BF0BD2878697840EA01209F49D7
:102270000880084601889EA004F03CFE02249FE0EE
:10228000E01CB04204DB21469DA004F033FE9AE03E
:10229000281900680090A01EC11700EB917101225F
:1022A00002EBA101132978D2DFE801F0770A1016BA
:1022B0001C22282E343A40464C52585E646A710003
:1022C0009DED000A9C4880ED000A67E09DED000A44
:1022D0009A4880ED000A61E09DED000A984880ED83
:1022E000000A5BE09DED000A964880ED000A55E08B
:1022F0009DED000A944880ED000A4FE09DED000A34
:10230000924880ED000A49E09DED000A904880ED7A
:10231000000A43E09DED000A8E4880ED000A3DE092
:102320009DED000A8C4880ED000A37E09DED000A23
:102330008A4880ED000A31E09DED000A884880ED72
:10234000000A2BE09DED000A864880ED000A25E09A
:102350009DED000A844880ED000A1FE09DED000A13
:10236000824880ED000A19E09DED000A804880ED6A
:10237000000A13E09DED000A7E4880ED000A0DE0A2
:102380009DED000A7C4880ED000A07E005E09DED28
:10239000000A7A4880ED000A00E000BF00BF009804
:1023A00004F0C0FB41EC180BA71EF81707EB907068
:1023B000811053EC182B72A004F09CFD201D84B2F8
:1023C000B442FFF65DAF00BF00BF48E710B540F272
:1023D00025513C48FFF702FE002871D03948FFF72D
:1023E0003BFDC4B26A48007828B9FF2C62D10120B5
:1023F000674908705EE066480078012808D1FE2C25
:1024000058D102206249087000206249087051E0EA
:102410005F48007802284DD15F485E4909784454EE
:102420005C480078401C5B490870084600784A28E0
:1024300040DB002056490870564908704A2156482A
:10244000FFF701FF4FF480615448FEF701FA4FF4A3
:1024500000715248FEF7FCF94FF47A70FFF76AFEFC
:102460004FF480614D48FEF7F1F94FF400714B488D
:10247000FEF7ECF94FF47A70FFF75CFE4FF48061E1
:102480004648FEF7E5F94FF400714448FEF7E0F9DD
:102490004FF47A70FFF74EFE4FF480613F48FEF72D
:1024A000D5F94FF400713D48FEF7D0F94FF47A703A
:1024B000FFF740FE40F225510248FFF7CAFD00BF7A
:1024C00010BD000000100140000002404572726F14
:1024D000723A2041727261792073697A6520746F53
:1024E0006F20736D616C6C2E0A00000024000020C8
:1024F0000D0A4D6F746F5F70776D3A2025640A0086
:102500005761726E696E673A20496E7375666669C7
:102510006369656E7420627974657320666F7220DA
:102520006120666C6F617420617420696E646578E7
:102530002025750A000000005000002054000020F3
:102540005800002060000020640000206800002087
:102550006C00002074000020780000207C00002027
:10256000840000208C0000209000002094000020B7
:102570009C000020A4000020A8000020AC00002047
:10258000466C6F61742025753A20252E32660A004C
:102590001B0000201C000020B0010020001402409D
:1025A00010B50446012C02D0022C12D108E040F2F2
:1025B000D66000F0DBFF4FF4FA70FFF7BBFD09E0D7
:1025C0004FF4966000F0D2FF4FF4FA70FFF7B2FDBF
:1025D00000E000BF00BF10BDADF5F66D00BF0020EC
:1025E000CDF8AC0728909FEDFE0A8DED270A9FEDF0
:1025F000FC0A8DED260A9FEDFB0A8DED250A9FED65
:10260000F90A8DED240A9FEDF80B8DED220B9FED5D
:10261000F60B8DED200B9FEDF40B8DED1E0B9FED5A
:10262000F40B8DED1C0B9FEDEF0A8DED1B0A1A903C
:102630009FEDED0B8DED180B1822EF4912A804F059
:10264000B1F89FEDE90B8DED100B9FEDE90B8DEDD2
:102650000E0B9FEDE70B8DED0C0B9FEDE20A8DED60
:102660000B0A9FEDE00A8DED0A0A58E2E348007874
:1026700000287DD00020E149087040F20672E04950
:1026800029A804F08FF840F2067229A9DD4801F06C
:1026900039FACDF8AC07DCA004F02CFCDEA0DDF8A4
:1026A000AC1704F027FCDDF8AC07C82860DDDC4877
:1026B000006804F037FACDE90801DA480088009094
:1026C0009DED080B53EC102BD7A004F013FCCD4963
:1026D000DC48DDF8AC2701F04CFBDB480288D94927
:1026E000DA4801F0D6FBDA480188D84801F056FCF8
:1026F000D8480188D8A004F0FDFB26AA27A9DA480B
:1027000001F047FD2890289818B9D8A004F0F2FBF2
:10271000ABE70020D8490880D8490880D84908800C
:10272000D8490880D8480090D8480388D84AD94961
:10273000012002F0EFF8D8480090D8480388D84A22
:10274000D849022002F0E6F8CB480090D64803882A
:10275000D64AD749002002F0DDF8C8480090D54895
:102760000388D54AD549002002F0D4F8C44A00E0D5
:1027700082E210460188C74802F0C6FAC14A1046F4
:102780000188C84802F0C0FA9FED990B8DED1C0B33
:102790009FED940A8DED240A9FED920A8DED250A96
:1027A0009FED900A8DED1B0A9FED8E0A8DED0A0AB2
:1027B0009FED8F0B8DED0C0B9FED8D0B8DED0E0BAB
:1027C0009DED270ABE48D0ED000AB4EEE00AF1EE16
:1027D00010FA13D29DED260AD0ED000AB4EEE00AFD
:1027E000F1EE10FA0AD24FF40071B648FEF72EF857
:1027F0004FF48061B348FEF729F836E79DED270ACC
:10280000AF48D0ED000AB4EEE00AF1EE10FA7DDD3B
:102810009DED260AD0ED000AB4EEE00AF1EE10FAC2
:10282000F5DD9748008804F057F99FEDA70B53ECAE
:10283000102BCDE904019DED040B51EC100B04F0BD
:102840006AF8CDE906019DED060B51EC100B04F082
:1028500050F980B209908A48008804F03DF99FED54
:102860009C0B53EC102BCDE904019DED040B51ECB6
:10287000100B04F050F8CDE906019DED060B51EC6C
:10288000100B04F036F980B20890042022AB0090BF
:102890008048DDE9081202F06DFB7A48008804F0F8
:1028A0001BF99FED890B53EC102BCDE904019DED35
:1028B000040B51EC100B04F02EF8CDE906019DED50
:1028C000060B51EC100B04F014F980B209906D481E
:1028D000008804F001F99FED7E0B53EC102BCDE93D
:1028E00004019DED040B51EC100B04F014F8CDE93C
:1028F00006019DED060B51EC100B04F0FAF880B2C6
:102900000890042020AB0090664800E0B5E1DDE9C6
:10291000081202F02FFB9DED200B53EC102B9DEDC8
:10292000220B51EC100B03F04FFF9FED6B0B53ECA0
:10293000102BCDE908019DED080B51EC100B04F0B4
:102940005CF8CDE91E014E48008804F0C5F89FED03
:10295000640B53EC102BCDE904019DED040B51ECFD
:10296000100B03F0D8FFCDE906019DED060B51ECED
:10297000100B04F0BEF880B2DFED5B0A9FED190A80
:10298000024601210990434802F019FE8DED250A07
:102990003C48008804F0A0F89FED510B53EC102B3D
:1029A000CDE904019DED040B51EC100B03F0B3FFD6
:1029B000CDE906019DED060B51EC100B04F099F8E2
:1029C00080B2DFED490A9FED070A02460121099016
:1029D000344802F0F4FD8DED240A9DED240A85E0D3
:1029E0000080BB4500000000000000000080564051
:1029F0000000000000000000D87C00081D0000203E
:102A000000090020101000200D0A0D0A7374617275
:102A1000740D0A0D0A000000636E743D25640A00FF
:102A2000200000202400002053706565645F6E6FF5
:102A3000773D252E32662C4D6F746F5F70776D3D3C
:102A400025640A0090350020340000205048002002
:102A50003600002038000020436E745F3138303D6E
:102A600025640D0A00000000105B00207969646194
:102A70006F6368650D0A00004400002046000020D6
:102A8000480000204A0000204C00002040000020A8
:102A9000108D0020906700204E0000204200002092
:102AA00070960020F07000203C000020D09F002095
:102AB000507A00203E00002030A90020B083002082
:102AC000AC00002000140240AE47E17A14AEEF3FA4
:102AD000295C8FC2F528E43F0000000000000040A0
:102AE000666666666666EE3F0000C843DDED250A51
:102AF00030EE600ADFEDFE0AB4EEE00AF1EE10FA05
:102B00000DD39DED240AB5EEC00AF1EE10FA06D3FE
:102B10009DED250AB5EEC00AF1EE10FA00DDF6E3F0
:102B20001FED4D0B53EC102B9DED1E0B51EC100BBC
:102B300004F00CF80AD99FEDEF0B53EC102B9DED30
:102B40001E0B51EC100B04F019F800D8DFE31FED59
:102B50005A0B53EC102B9DED1E0B51EC100B03F098
:102B6000F5FF14D29FEDE50B53EC102B9DED1E0BE2
:102B700051EC100B04F002F809D801201A909DEDD9
:102B80001E0B53EC102BDFA004F0B4F955E09FEDC1
:102B9000DB0B53EC102B9DED1E0B51EC100B03F0D7
:102BA000D5FF0FD21FED6E0B53EC102B9DED1E0BBE
:102BB00051EC100B03F0E2FF04D240F2924000F01F
:102BC000D5FCA4E39FEDD50B53EC102B9DED1E0B14
:102BD00051EC100B03F0BAFF14D81FED7D0B53EC32
:102BE000102B9DED1E0B51EC100B03F0C7FF09D20B
:102BF00002201A909DED1E0B53EC102BC1A004F087
:102C000079F91AE09FEDC50B53EC102B9DED1E0BCF
:102C100051EC100B03F0B2FF0FD29FEDB60B53EC4B
:102C2000102B9DED1E0B51EC100B03F08FFF04D207
:102C30004FF4D76000F09AFC69E3DDED240A9DEDC6
:102C4000250A012002F000FD8DED1B0A1CA99DED57
:102C50001E0B1A9802F0A7FD9DED1C0B51EC100BFA
:102C600003F0A4FF09901A989DED0A1ADDED090AF8
:102C70009DED1B0A03F0D0F848E39DED270AA94813
:102C8000D0ED000AB4EEE00AF1EE10FA08DD9DED99
:102C9000260AD0ED000AB4EEE00AF1EE10FA12D9DD
:102CA0009DED270A9F48D0ED000AB4EEE00AF1EE50
:102CB00010FAE1D29DED260AD0ED000AB4EEE00A4A
:102CC000F1EE10FAD8DB9DED270A9648D0ED000A08
:102CD000B4EEE00AF1EE10FA7EDD9DED260AD0EDAD
:102CE000000AB4EEE00AF1EE10FA75D88E480088BA
:102CF00003F0F2FE1FED860B53EC102BCDE904011F
:102D00009DED040B51EC100B03F005FECDE906011F
:102D10009DED060B51EC100B03F0EBFE80B2099019
:102D20008148008803F0D8FE9FED800B53EC102BF8
:102D3000CDE904019DED040B51EC100B03F0EBFD0C
:102D4000CDE906019DED060B51EC100B03F0D1FE11
:102D500080B20BAB089001467648099A02F06FF8F2
:102D60007148008803F0B8FE1FEDA30B53EC102B45
:102D7000CDE904019DED040B51EC100B03F0CBFDEC
:102D8000CDE906019DED060B51EC100B03F0B1FEF1
:102D900080B209906448008803F09EFE9FED630BAB
:102DA00053EC102BCDE904019DED040B51EC100BFD
:102DB00003F0B1FDCDE906019DED060B51EC100BC2
:102DC00003F097FE80B218AB089001465948099A63
:102DD00002F037FD544800E0E1E0008803F07CFE9B
:102DE0009FED550B53EC102BCDE904019DED040B29
:102DF00051EC100B03F08FFDCDE906019DED060BA4
:102E000051EC100B03F075FE80B209904648008823
:102E100003F062FE9FED450B53EC102BCDE904014E
:102E20009DED040B51EC100B03F075FDCDE906018F
:102E30009DED060B51EC100B03F05BFE80B212AB64
:102E4000089001463B48099A02F0FBFC364800888E
:102E500003F042FE9FED3A0B53EC102BCDE9040139
:102E60009DED040B51EC100B03F055FDCDE906016F
:102E70009DED060B51EC100B03F03BFE80B2099068
:102E80002948008803F028FE9FED2F0B53EC102BF0
:102E9000CDE904019DED040B51EC100B03F03BFD5B
:102EA000CDE906019DED060B51EC100B03F021FE60
:102EB00080B214AB089001461E48099A02F0C1FC8A
:102EC0001948008803F008FE1FEDFB0B53EC102B94
:102ED000CDE904019DED040B51EC100B03F01BFD3B
:102EE000CDE906019DED060B51EC100B30E0000022
:102EF0000000C842000000000080664000000000A2
:102F0000004050406E6968656A69616F5F4D5F7827
:102F1000313D252E326C660D0A00000000000000D5
:102F200000C05C40AC000020440000209A999999B0
:102F30009999A93F507A0020CDCCCCCCCCCCDC3FA9
:102F4000CDCCCCCCCCCCE43F666666666666D63F1C
:102F500003F0CFFD80B20990EE48008803F0BCFD7D
:102F60001FED090B53EC102BCDE904019DED040B73
:102F700051EC100B03F0CFFCCDE906019DED060BE3
:102F800051EC100B03F0B5FD80B216AB0890014672
:102F9000E148099A02F055FC03201A9036E19DEDB4
:102FA000270ADE48D0ED000AB4EEE00AF1EE10FA8E
:102FB000F4D29DED260AD0ED000AB4EEE00AF1EE5F
:102FC00010FAEBDBD648008803F086FD9FEDD50BA9
:102FD00053EC102BCDE904019DED040B51EC100BCB
:102FE00003F099FCCDE906019DED060B51EC100BA9
:102FF00003F07FFD80B20990C948008803F06CFDA2
:103000001FED360B53EC102BCDE904019DED040BA5
:1030100051EC100B03F07FFCCDE906019DED060B92
:1030200051EC100B03F065FD80B20BAB089001462C
:10303000BE48099A01F003FFB948008803F04CFD2F
:103040009FEDB80B53EC102BCDE904019DED040B63
:1030500051EC100B03F05FFCCDE906019DED060B72
:1030600051EC100B03F045FD80B20990AC4800888C
:1030700003F032FD1FED530B53EC102BCDE904018F
:103080009DED040B51EC100B03F045FCCDE906015E
:103090009DED060B51EC100B03F02BFD80B218AB2D
:1030A00008900146A148099A02F0CBFB9C48008891
:1030B00003F012FD1FED600B53EC102BCDE9040162
:1030C0009DED040B51EC100B03F025FCCDE906013E
:1030D0009DED060B51EC100B03F00BFD80B2099037
:1030E0008F48008803F0F8FC1FED700B53EC102B99
:1030F000CDE904019DED040B51EC100B03F00BFC2A
:10310000CDE906019DED060B51EC100B03F0F1FC2F
:1031100080B212AB089001468448099A02F091FBF4
:103120007F48008803F0D8FC1FED7B0B53EC102B7D
:10313000CDE904019DED040B51EC100B03F0EBFB0A
:10314000CDE906019DED060B51EC100B03F0D1FC0F
:1031500080B209907248008803F0BEFC1FED860B18
:1031600053EC102BCDE904019DED040B51EC100B39
:1031700003F0D1FBCDE906019DED060B51EC100BE0
:1031800003F0B7FC80B214AB089001466748099A77
:1031900002F057FB6248008803F09EFC9FED610B34
:1031A00053EC102BCDE904019DED040B51EC100BF9
:1031B00003F0B1FBCDE906019DED060B51EC100BC0
:1031C00003F097FC80B209905548008803F084FC16
:1031D0001FEDA50B53EC102BCDE904019DED040B65
:1031E00051EC100B03F097FBCDE906019DED060BAA
:1031F00051EC100B03F07DFC80B216AB0890014639
:103200004A48099A02F01DFB04201A904848008899
:10321000042814DA47480088042810DD9FED460A88
:103220008DED250ADFED450A9FED430A41480288EE
:103230000021434802F0C3F98DED240A17E03D4810
:103240000088042813DA3A48008804280FDD9FED2F
:103250003A0A8DED240ADFED390A9FED370A34482A
:1032600002880021374802F0AAF98DED250A10AA3C
:1032700012A91A9802F093FB0EA99DED100B1A9853
:1032800002F091FA0CA99DED180B1A9802F08BFA36
:10329000DDED240A9DED250A002002F0D5F98DED23
:1032A0001B0A0AA99DED0B0A1A9801F027FE0A983D
:1032B00003F038FCCDE908011B9803F033FCCDE99D
:1032C0000601DDE90801CDE90401DDE90601CDE9EA
:1032D00002019DED0C0B8DED000B9DED0E0B53ECE3
:1032E000102B194803F006FE9DED0C0B51EC100B52
:1032F00003F05CFC09901A989DED0A1ADDED090AAD
:103300009DED1B0A02F088FD03F06AF800BFFFF78D
:10331000ADB9000044000020507A0020AC0000202D
:1033200046000020666666666666EE3FB083002053
:10333000480000204A000020000000000000484330
:10334000F0700020906700209085000800B591B0D3
:1033500001214805FDF7BCFC3148FCF7A1FF00BF87
:103360002F48FDF7C6F80028FAD14FF00060029010
:103370002C4803902C4804900020059040F20670E1
:103380000690002007904FF480600890002009907C
:103390000A900B904FF480300C9000200D900E900E
:1033A0000F90109002A91E48FDF71CF80122102171
:1033B0001B48FDF7DEF810208DF8040000208DF882
:1033C00005008DF8060001208DF8070001A8FCF724
:1033D000FCFE01211248FDF73FF811B000BD10B509
:1033E00012490F48FDF795F8C8B100210C48FDF7C8
:1033F00033F840F206720C490D4803F0D3F901206E
:103400000C4908700C490648FDF79FF840F2067118
:103410000348FDF742F801210148FDF71DF810BDF2
:103420008860024004440040FA01002000080020A7
:10343000000900201D000020400F00201CB50121C4
:103440000220FDF745FC01208DF8040000208DF8D6
:1034500006004FF48060009002208DF805000020E7
:103460008DF8070069463548FDF774F94FF480611F
:103470003248FDF7EBF91CBD70B504460D46164603
:10348000FFF7DCFF691E601E324600F033F970BDA5
:1034900010B5044621464FF08040FEF70EF810BDEF
:1034A00010B500F0C2F910BD10B52548FDF75EFE5D
:1034B0002449088000212248FDF754FE2148008855
:1034C00000EE100AB8EE400A1F4880ED000A002402
:1034D00015E01E49601C31F8100021F81400084660
:1034E00030F8140000EE100AB8EE400A1648D0ED8D
:1034F000000A30EE200A80ED000A601C84B2042C21
:10350000E7DB10480088114921F814000E4890EDBF
:10351000000AF1EE040A80EE201A80ED001A90ED08
:10352000000AB2EE061AC0EE010A9FED090A20EE6B
:10353000800A084880ED000A10BD00000004024027
:10354000000800402C000020280000200610002069
:103550000000C8422000002070B504460D46164603
:10356000691E601E324600F014F970BD10B50446A5
:10357000214609A003F0BEFCB4F5D76F01DD4FF47E
:10358000D76440F29240844200DA0446214608485B
:10359000FDF78DFF10BD000066696E616C207365DC
:1035A00072766F5F70776D3D25640A0A0000000037
:1035B0000004004010B588B0044601210420FDF746
:1035C00087FB01212020FDF7DDFB08220621394879
:1035D000FDF74BF9082207213648FDF746F9C020D0
:1035E000069002208DF81C008DF81D0000208DF83B
:1035F0001E0001208DF81F0006A92E48FDF7AAF82D
:1036000002940020ADF80C00ADF80E00ADF81000EB
:10361000ADF814000C20ADF8120002A92648FEF700
:1036200064FB01212448FEF7E8FB40212248FEF715
:10363000CCFC20212048FEF7C8FC012240F2255195
:103640001D48FEF790FC47208DF8040002208DF8FD
:1036500005008DF8060001208DF8070001A8FCF791
:10366000B4FD08B010BD10B5002440F22551124839
:10367000FEF7B4FCE0B11048FEF7EEFBC4B2FF2C3D
:1036800006D100200D4908700DA003F033FC07E0BF
:10369000EE2C05D10120094908700FA003F02AFC87
:1036A00001201349087040F225510348FEF7D1FC70
:1036B00010BD000000080240001401402F0000204F
:1036C0000D0A0D0A0D0A73746F700D0A0D0A0D0AAA
:1036D0000D0A0D0A0D0A00000D0A0D0A0D0A737479
:1036E0006172740D0A0D0A0D0A0D0A0D0A0D0A0009
:1036F0002E00002070B58AB006460C461546012102
:103700000846FDF72EFB01210220FDF7E1FA012218
:103710000B216E48FDF7A9F84FF4006008900220D5
:103720008DF8240003208DF8250000208DF8260058
:103730008DF8270008A96548FDF70CF8B0B2ADF880
:1037400014000020ADF816000694ADF81C0005A981
:103750004FF08040FDF7BDFC6020ADF80000012077
:10376000ADF802000020ADF80C00029569464FF05C
:103770008040FDF72FFE0821C806FDF7EBFE012172
:103780008807FDF711FD01218807FDF72BFD0AB021
:1037900070BD70B58AB006460C4615460121022060
:1037A000FDF7DFFA01210846FDF792FA0222062111
:1037B0004748FDF75AF84020089002208DF8240071
:1037C00003208DF8250000208DF826008DF82700B5
:1037D00008A93F48FCF7BEFFB0B2ADF814000020C6
:1037E000ADF816000694ADF81C00029505A93948FD
:1037F000FDF76FFC6020ADF800000120ADF802007D
:103800000020ADF80C0069463248FDF7F7FC0821AE
:103810003048FDF780FE01212E48FDF7C5FC01214F
:103820002C48FDF7DFFC0AB070BD00B589B001215E
:103830000420FDF796FA01210820FDF749FA02203D
:103840008DF8080001208DF80A0003208DF809008A
:1038500000208DF80B004FF44050019001A91E4844
:10386000FCF778FF02220C211B48FCF7FEFF022226
:103870000D211948FCF7F9FF0020ADF81800ADF84C
:103880001A004FF6FE7007900020ADF8200006A940
:103890001248FDF71EFC00231A4603210F48FEF7CD
:1038A0008CF903A8FEF723F80F20ADF8140003A944
:1038B0000A48FDF7E5FF00210848FDF753FC012108
:1038C0000648FDF78FFC09B000BD0000000402406F
:1038D0000000024000040040000C024000080040CC
:1038E00010B586B0044601210846FDF7F1F9012123
:1038F0004804FDF736FA072202212648FCF7B5FFF7
:10390000072203212348FCF7B0FF0820049002207F
:103910008DF8140003208DF8150000208DF8160096
:1039200001208DF8170004A91A48FCF713FF0420A2
:10393000049002208DF8140003208DF8150000205B
:103940008DF8160002208DF8170004A91148FCF725
:1039500001FF00940020ADF80400ADF80600ADF8BA
:103960000800ADF80C000C20ADF80A0069460A48C2
:10397000FEF7BBF901210848FEF73FFA012240217A
:103980000548FEF7E7FA40210348FEF71EFB06B0A4
:1039900010BD000000000240004400407FB5054615
:1039A0000C4601210820FDF7DCF90295ADF8044032
:1039B0000020ADF80600ADF80C0001A94948FDF75C
:1039C00088FB012211464748FEF724F801214548AB
:1039D000FDF708FC32208DF8000001208DF8010071
:1039E00003208DF8020001208DF803006846FCF7E3
:1039F000ECFB7FBD2DE9F04107460C4615461E46FF
:103A0000022D12D111023848FCF722FF40F29240F9
:103A1000FFF7ACFD3046FFF73BFD2046FEF78AFB83
:103A200029023148FCF712FF13E04FF400712E48D1
:103A3000FCF70EFF4FF4D760FFF798FD3046FFF715
:103A400027FD2046FEF776FB4FF400712648FCF771
:103A5000FDFEBDE8F08110B501212248FDF7F1FF20
:103A600001283DD12148007801280DD12048007857
:103A700018B900201F49088003E040F6E4401D49C2
:103A800008800020194908701B48007802280CD1D2
:103A90001A48038802224FF4FA7119480088FFF788
:103AA000A9FF00201449087016E013480078012887
:103AB0000CD11248038801224FF4FA711048008893
:103AC000FFF798FF00200C49087005E0FFF7ECFCB9
:103AD00008480088FFF7DCFC01210248FDF7C2FF1F
:103AE00010BD0000000C0040001402402E00002019
:103AF0002F000020240000203A0000203200002087
:103B0000300000202DE9F04104460D461646002203
:103B1000002300219FEDFC1AB0EE410A9FEDFA1A36
:103B2000F0EE410A002700BF1DE0A85CA52818D1CF
:103B3000501C285C5A2814D102F13A00285CA528B0
:103B40000FD102F13B00285C5A280AD102F174001F
:103B5000285CA52805D102F17500285C5A2800D1FF
:103B600005E0501C82B2A6F175009042DDDC00BF7A
:103B7000A6F17500904202D10020BDE8F08100233B
:103B8000EDE0A85CA5287CD1501C285C5A28FAD10D
:103B9000901D15F800C0501D285C0CEB002001EEB4
:103BA000100AB8EEC11ADFEDD91A81EE212AB0EE63
:103BB000420A02F1380015F800C0401E285C0CEBE8
:103BC000002001EE100AB8EEC11ADFEDD01A81EE26
:103BD000212AF0EE420AB4EEE00AF1EE10FA05DD19
:103BE0009FEDCB1A30EE811AF0EE410A0021ADE0D4
:103BF00002F108004FF0030C0CFB010015F800C0A7
:103C0000D01D4FF0030808FB0100285C0CEB0020DE
:103C100001EE100AB8EEC11AF7EE001A21EE211AD1
:103C2000581804EBC00080ED011A30EEC01AB3EE54
:103C3000002AC1EE021A01EE101AB8EE412AB0EEC7
:103C4000401A01EE821A581804EBC00080ED001AE9
:103C5000581804EBC00090ED001ADFEDAD1AB4EE79
:103C6000E11AF1EE10FA0FDD581804EBC00090EDE8
:103C7000001ADFEDA71A31EE611A581804EBC000E4
:103C800000E066E080ED001A581804EBC00090EDEB
:103C9000001AB5EEC01AF1EE10FA0DD2581804EB66
:103CA000C00090ED001ADFED9A1A31EE211A581873
:103CB00004EBC00080ED001A781C87B2581804EBA2
:103CC000C000D0ED001A9FED921ABFEE002A02EE5E
:103CD000211ADFED901A31EE211A581804EBC000BA
:103CE00080ED001A581804EBC00090ED001ADFEDCB
:103CF000881AB4EEE11AF1EE10FA0DDD581804EB53
:103D0000C00090ED001ADFED821A31EE611A5818EA
:103D100004EBC00080ED001A581804EBC00090EDD1
:103D2000001AB5EEC01AF1EE10FA0DD2581804EBD5
:103D3000C00090ED001ADFED761A31EE211A581806
:103D400004EBC00080ED001A481C81B21029FFF678
:103D50004FAF02F13A0082B203F1100083B2A6F134
:103D60003B00904203DDB3F5127FFFF60AAF384601
:103D700003E72DE9F04F2DED068B81B081460D460E
:103D800016464FF0000A00270024A04695ED000AD1
:103D9000B0EE408AA346002000905F49088000BF33
:103DA00052E005EBC40090ED000ADFED590A30EE59
:103DB000600A10EE101A084602F0B4FE41EC1A0B2D
:103DC000B0EE4A0AF0EE6A0A03F02AFAB0EE409A20
:103DD000F0EE609A9FED510B53EC102B51EC190B48
:103DE00002F0B4FE02D8A2460120009005EBC40008
:103DF00090ED000A30EE480A10EE101A084602F064
:103E000091FE41EC1A0BB0EE4A0AF0EE6A0A03F09A
:103E100007FAB0EE409AF0EE609A9FED420B53EC39
:103E2000102B51EC190B02F091FE02D827464FF0EF
:103E3000010B0098012805D1BBF1010F02D10A2F17
:103E400000DD03E0601C84B2B442AADB00BF0024A2
:103E5000D04614E009EBC40005EBC80206CA06C050
:103E60002D480088401C2C490880B84501D14FF0EE
:103E70000008601C84B208F101001FFA80F8F81CE9
:103E8000844201DAB442E5DB01B0BDEC068BBDE84B
:103E9000F08F30B5034600200024244D2C8000BF55
:103EA0002EE001EBC00494ED000ADFED210AB4EE30
:103EB000E00AF1EE10FA21D201EBC00494ED000A01
:103EC000B5EEC00AF1EE10FA18DD01EBC00494ED76
:103ED000000A164C248803EBC40484ED000A01EBAD
:103EE000C00494ED010A114C248803EBC40484ED52
:103EF000010A0E4C2488641C0C4D2C80441CA0B27A
:103F00009042CEDB002046E0000000000000C842E6
:103F10000000B4430000AA4234000020000000006A
:103F200000000040000000000000F83F36000020C4
:103F300000007A4301EBC00494ED000A5FED0C0A27
:103F4000B4EEE00AF1EE10FA23D201EBC00494EDD6
:103F5000000ADFEDFE0AB4EEE00AF1EE10FA18DD19
:103F600001EBC00494ED000AF94C248803EBC4046F
:103F700084ED000A01EBC00494ED010AF44C24889E
:103F800003EBC40484ED010AF14C2488641CF04D59
:103F90002C80441CA0B29042CCDB30BD2DE9F04116
:103FA0002DED048B05460F460020EA4908800324C6
:103FB000E7E0002605EBC40090ED010A601C05EB6C
:103FC000C000D0ED010A30EE600A10EE101A08466B
:103FD00002F0A8FD41EC190BB0EE490AF0EE690AB7
:103FE00003F01EF9B0EE408AF0EE608A9FEDDA0B26
:103FF00053EC102B51EC180B02F0C0FD01D8701CD3
:1040000086B205EBC40090ED010AA01C05EBC000D0
:10401000D0ED010A30EE600A10EE101A084602F0E8
:1040200081FD41EC190BB0EE490AF0EE690A03F08C
:10403000F7F8B0EE408AF0EE608A9FEDC90B53ECC2
:10404000102B51EC180B02F099FD01D8701C86B2B0
:1040500005EBC40090ED010A601E05EBC000D0ED39
:10406000010A30EE600A10EE101A084602F05AFDFE
:1040700041EC190BB0EE490AF0EE690A03F0D0F8F2
:10408000B0EE408AF0EE608A9FEDB30B53EC102B3C
:1040900051EC180B02F072FD01D8701C86B205EBD2
:1040A000C40090ED010AA01E05EBC000D0ED010A8E
:1040B00030EE600A10EE101A084602F033FD41ECB3
:1040C000190BB0EE490AF0EE690A03F0A9F8B0EE58
:1040D000408AF0EE608A9FEDA20B53EC102B51EC5E
:1040E000180B02F04BFD01D8701C86B2032E00DBCA
:1040F00045E005EBC40090ED010A5FED7C0AB4EEEB
:10410000E00AF1EE10FA39DB05EBC40090ED000A8D
:10411000DFED950A20EE200ADFED940A80EE201AEA
:10412000B0EE418AB0EE480A02F0F2FA05EBC400A4
:10413000D0ED010A20EE200ADFED8D0AB4EEE00A90
:10414000F1EE10FA1ADD05EBC40090ED000A894883
:104150008049098800EBC10080ED000A05EBC4002E
:1041600090ED010A83487B49098800EBC10080ED8E
:10417000010A78480088401C7649088000BF601C0E
:1041800084B2B81FA0423FF714AFBDEC048BBDE86A
:10419000F0812DE9F04F2DED088B83B004460F46DA
:1041A00090464FF00009CA461FEDA90AB0EE40BA8A
:1041B0001FEDAB0AB0EE408A1FEDAD0AF0EE408A6B
:1041C000CB4600200290019000909FED6B0A87ED96
:1041D000000A9FED690A88ED000A6849088068496D
:1041E0000880684908806849088000BF029003255C
:1041F00058480088001F86B22DE304EBC50090EDFF
:10420000000ADFED590A20EE200ADFED580A80EEA1
:10421000201AB0EE419AB0EE490A02F03DFA04EBE2
:10422000C500D0ED010A20EE200AB0EE40BA04EB42
:10423000C50090ED000ADFED4C0A20EE200ADFED0C
:104240004B0A80EE201AB0EE419AB0EE490A02F015
:104250005FFA04EBC500D0ED010A20EE200AB0EEB3
:10426000408A04EBC60090ED000ADFED3F0A20EE25
:10427000200ADFED3E0A80EE201AB0EE419AB0EE41
:10428000490A02F045FA04EBC600D0ED010A20EE1F
:10429000200AF0EE408A9FED3D0AB4EEC08AF1EEAE
:1042A00010FA0DDD681C04EBC00090ED010ADFED93
:1042B000370AB4EEE00AF1EE10FA01DD4FF0010B1F
:1042C000BBF1010F68D0B9F1000F65D104EBC50057
:1042D00090ED000A5FEDEA0AB4EEE00AF1EE10FAA2
:1042E0005AD804EBC50090ED000AF3EE0E0AB4EEC6
:1042F000E00AF1EE10FA4FDD9FED1D0AB4EEC08A20
:10430000F1EE10FAF7DD04EBC50090ED010A681C30
:1043100004EBC000D0ED010A30EE600A10EE101A76
:10432000084602F0FFFB41EC1A0BB0EE4A0AF0EE31
:104330006A0A02F075FFB0EE409AF0EE609A9FEDC7
:10434000140B53EC102B51EC190B26E00000914399
:1043500036000020380000200000000000C062404D
:104360000000000000006940DB0F494000003443BA
:10437000000048C3105B00200080BB4540000020C7
:10438000420000203C0000203E00002000401C4570
:104390000000000000E07540F4E002F0EFFB7DD883
:1043A000681E04EBC00090ED010AA81C04EBC000DD
:1043B000D0ED010A30EE600A10EE101A084602F045
:1043C000B1FB41EC1A0BB0EE4A0AF0EE6A0A02F0B9
:1043D00027FFB0EE409AF0EE609A1FED130B53ECFE
:1043E000102B51EC190B02F0C9FB74D8A81E04EB7A
:1043F000C00090ED010AE81C04EBC000D0ED010AFA
:1044000030EE600A10EE101A084602F08BFB41EC09
:104410001A0BB0EE4A0AF0EE6A0A02F001FFB0EEA3
:10442000409AF0EE609A1FED260B53EC102B51ECE6
:10443000190B02F0A3FB4ED8E81E04EBC00090ED70
:10444000010A281D04EBC000D0ED010A30EE600A1D
:1044500010EE101A084602F065FB41EC1A0BB0EEA4
:104460004A0AF0EE6A0A02F0DBFEB0EE409AF0EE85
:10447000609A1FED390B53EC102B51EC190B02F025
:104480007DFB28D8E81E04EBC00090ED000A5FED2C
:104490004A0A20EE200A5FED4B0A00E01BE080EEA6
:1044A000201AB0EE419AB0EE490A02F031F9E81E46
:1044B00004EBC000D0ED010A20EE200A87ED000ACF
:1044C00097ED000ADFEDF90AB4EEE00AF1EE10FA1A
:1044D00001D24FF00109B9F1000F53D1B5EEC08AF6
:1044E000F1EE10FA4EDDBBF1010F4BD004EBC5002D
:1044F00090ED000ADFEDEE0AB4EEE00AF1EE10FAFC
:1045000025D204EBC50090ED000AF3EE0E0AB4EEDE
:10451000E00AF1EE10FA1ADD04EBC50090ED000A96
:10452000E448E549098800EBC10080ED000A04EB8E
:10453000C50090ED010ADF48DF49098800EBC100A2
:1045400080ED010ADC480088401CDB49088004EB50
:10455000C50090ED010AD948D949098800EBC1008E
:1045600080ED010A04EBC50090ED000AD348D44960
:10457000098800EBC10080ED000AD1480088401C8A
:10458000CF4908801FED7F0AF4EEC08AF1EE10FAE1
:104590000DDD701E04EBC00090ED010A5FED850A91
:1045A000B4EEE00AF1EE10FA01DD01200290BAF15A
:1045B000000F7CD10298012879D004EBC60090ED61
:1045C000000ADFEDC00AB4EEE00AF1EE10FA08D2FC
:1045D00004EBC60090ED000AB5EEC00AF1EE10FA49
:1045E00015DA04EBC60090ED000ADFEDB70AB4EE71
:1045F000E00AF1EE10FA5AD804EBC60090ED000A7A
:104600005FEDAE0AB4EEE00AF1EE10FA4FDD1FEDF9
:10461000A80AF4EEC08AF1EE10FAF7DD04EBC6004A
:1046200090ED010A701E04EBC000D0ED010A30EEDF
:10463000600A10EE101A084602F074FA41EC1A0BE8
:10464000B0EE4A0AF0EE6A0A02F0EAFDB0EE409AD5
:10465000F0EE609A1FEDB20B53EC102B51EC190BDE
:1046600002F08CFA7DD8701C04EBC00090ED010ABA
:10467000B01E04EBC000D0ED010A30EE600A10EE6F
:10468000101A084602F04EFA41EC1A0BB0EE4A0A34
:10469000F0EE6A0A02F0C4FDB0EE409AF0EE609AC5
:1046A0001FEDC50B53EC102B51EC190B00E0CEE0C5
:1046B00002F064FA74D8B01C04EBC00090ED010A5B
:1046C000F01E04EBC000D0ED010A30EE600A10EEDF
:1046D000101A084602F026FA41EC1A0BB0EE4A0A0C
:1046E000F0EE6A0A02F09CFDB0EE409AF0EE609A9D
:1046F0001FEDD90B53EC102B51EC190B02F03EFAC5
:104700004ED8F01C04EBC00090ED010A301F04EB02
:10471000C000D0ED010A30EE600A10EE101A084613
:1047200002F000FA41EC1A0BB0EE4A0AF0EE6A0A07
:1047300002F076FDB0EE409AF0EE609A1FEDEC0BC1
:1047400053EC102B51EC190B02F018FA28D8F01C7E
:1047500004EBC00090ED000A5FEDFD0A20EE200A98
:1047600000E01DE0DFED590A80EE201AB0EE419A1C
:10477000B0EE490A01F0CCFFF01C04EBC000D0ED14
:10478000010A20EE200A88ED000A98ED000ADFED0C
:10479000470AB4EEE00AF1EE10FA01D24FF0010A36
:1047A000BAF1000F53D1F5EEC08AF1EE10FA4EDDEA
:1047B000029801284BD004EBC60090ED000ADFED13
:1047C000440AB4EEE00AF1EE10FA25DD04EBC6006F
:1047D00090ED000ADFED3B0AB4EEE00AF1EE10FACC
:1047E0001AD204EBC60090ED000A3A483A4909880B
:1047F00000EBC10080ED000A04EBC60090ED010A59
:1048000034483549098800EBC10080ED010A32487F
:104810000088401C3049088004EBC60090ED010A76
:104820002E482F49098800EBC10080ED010A04EBF6
:10483000C60090ED000A29482949098800EBC1000B
:1048400080ED000A26480088401C25490880681C25
:1048500085B2701E86B223480088001FA84202DD80
:10486000032E3FF7CAAC97ED000A10EE101A084667
:1048700002F058F941EC190B53EC192B1AA002F075
:1048800039FB98ED000A10EE101A084602F04AF9BA
:1048900041EC190B53EC192B18A002F02BFB012053
:1048A00003B0BDEC088BBDE8F08F000000409C45D4
:1048B0000000F042D09F00203C000020108D00201E
:1048C00040000020000016430000B44300003443C1
:1048D0000000704230A900203E00002070960020A9
:1048E00042000020380000202A6C6566745F647501
:1048F000616E5F793A252E31660D0A002A7269676A
:1049000068745F6475616E5F793A252E31660D0AB1
:10491000000000002DE9F04F2DED048B81B08146A1
:104920000F4615469A46DDF838B000240026A0460A
:1049300000200090ABF8000000900324D6E14FF077
:10494000000805EBC40090ED010A601C05EBC000F7
:10495000D0ED010A30EE600A10EE101A084602F09F
:10496000E1F841EC190BB0EE490AF0EE690A02F0E9
:1049700057FCB0EE408AF0EE608A9FEDFE0B53ECE0
:10498000102B51EC180B02F0F9F803D808F10100D4
:1049900000F0FF0805EBC40090ED010AA01C05EB38
:1049A000C000D0ED010A30EE600A10EE101A084681
:1049B00002F0B8F841EC190BB0EE490AF0EE690AC2
:1049C00002F02EFCB0EE408AF0EE608A9FEDEB0B19
:1049D00053EC102B51EC180B02F0D0F803D808F16F
:1049E000010000F0FF0805EBC40090ED010A601E15
:1049F00005EBC000D0ED010A30EE600A10EE101A8F
:104A0000084602F08FF841EC190BB0EE490AF0EEBF
:104A1000690A02F005FCB0EE408AF0EE608A9FED74
:104A2000D50B53EC102B51EC180B02F0A7F803D860
:104A300008F1010000F0FF0805EBC40090ED010A49
:104A4000A01E05EBC000D0ED010A30EE600A10EEAA
:104A5000101A084602F066F841EC190BB0EE490A4C
:104A6000F0EE690A02F0DCFBB0EE408AF0EE608AFC
:104A70009FEDC20B53EC102B51EC180B02F07EF89B
:104A800003D808F1010000F0FF08B8F1020F00DBC5
:104A90002AE1B9F1010F74D105EBC40090ED000AD1
:104AA000DFEDB80AB4EEE00AF1EE10FA67DD05EBCF
:104AB000C40090ED000ADFEDB40A20EE200A5FED9D
:104AC0007D0A80EE201AB0EE418AB0EE480A01F06D
:104AD0001FFE05EBC400D0ED010A20EE200AAB4812
:104AE000D0ED000AB4EEE00AF1EE10FA47D205EB81
:104AF000C40090ED000ADFEDA40A20EE200A5FED6D
:104B00008D0A80EE201AB0EE418AB0EE480A01F01C
:104B1000C3FD05EBC400D0ED010A20EE200A07EB2F
:104B2000C60080ED000A05EBC40090ED000ADFED41
:104B3000960A20EE200A5FED9B0A80EE201AB0EE66
:104B4000418AB0EE480A01F0E3FD05EBC400D0ED68
:104B5000010A20EE200A07EBC60080ED010A07EBF0
:104B6000C60090ED010A8948D0ED000AB4EEE00AD3
:104B7000F1EE10FA01D286480680701C86B2B2E0CF
:104B8000FFE7B9F1020F74D105EBC40090ED000A04
:104B9000DFED7C0AB4EEE00AF1EE10FA67D205EB25
:104BA000C40090ED000ADFED780A20EE200A5FEDE8
:104BB000B90A80EE201AB0EE418AB0EE480A01F040
:104BC000A7FD05EBC400D0ED010A20EE200A6F48D6
:104BD000D0ED000AB4EEE00AF1EE10FA47D205EB90
:104BE000C40090ED000ADFED680A20EE200A5FEDB8
:104BF000C90A80EE201AB0EE418AB0EE480A01F0F0
:104C00004BFD05EBC400D0ED010A20EE200A07EBB6
:104C1000C60080ED000A05EBC40090ED000ADFED50
:104C20005A0A20EE200A5FEDD70A80EE201AB0EE75
:104C3000418AB0EE480A01F06BFD05EBC400D0EDEF
:104C4000010A20EE200A07EBC60080ED010A07EBFF
:104C5000C60090ED010A4D48D0ED000AB4EEE00A1E
:104C6000F1EE10FA01D24B480680701C86B23AE091
:104C7000FFE705EBC40090ED000ADFED430A20EEEC
:104C8000200A5FEDEE0A80EE201AB0EE418AB0EE07
:104C9000480A01F001FD05EBC400D0ED010A20EE49
:104CA000200A07EBC60080ED000A05EBC40090ED7A
:104CB000000ADFED350A20EE200A5FEDFC0A80EEE7
:104CC000201AB0EE418AB0EE480A01F021FD05EB52
:104CD000C400D0ED010A20EE200A07EBC60080EDEB
:104CE000010A701C86B200BF601C84B2AAF10400E5
:104CF0000099401AA0423FF722AEABF8006001B025
:104D0000BDEC048BBDE8F08F2DE9F0412DED048B57
:104D100005460E4617460024022486E005EBC40033
:104D200090ED000A601C05EBC000D0ED000A30EEEB
:104D3000600A10EE101A084601F0F4FE41EC190B5F
:104D4000B0EE490AF0EE690A02F06AFAB0EE408A63
:104D5000F0EE608A9FED070B53EC102B51EC180B13
:104D600001F00CFF5FD8601E05EBC00090ED000A5B
:104D7000A01C11E00000000000C062400000000024
:104D8000000069400000B442DB0F4940A800002049
:104D9000480000204A00002005EBC000D0ED000ACA
:104DA00030EE600A10EE101A084601F0BBFE41EC2E
:104DB000190BB0EE490AF0EE690A02F031FAB0EED2
:104DC000408AF0EE608A1FED150B53EC102B51EC6E
:104DD000180B01F0D3FE26D8A01E05EBC00090ED05
:104DE000000AE01C05EBC000D0ED000A30EE600ABE
:104DF00010EE101A084601F095FE41EC190BB0EECA
:104E0000490AF0EE690A02F00BFAB0EE408AF0EEC1
:104E1000608A1FED280B53EC102B51EC180B01F09E
:104E2000ADFE00D805E0601C84B2F01EA0423FF742
:104E300075AF00BF3C80BDEC048BBDE8F0812DE96F
:104E4000F0472DED0A8B05460E461746984600247E
:104E50009FEDFE0AB0EE408AA7EB0609B9F1010FFB
:104E600007DA9FEDFB0A88ED000ABDEC0A8BBDE86E
:104E7000F087344632E005EBC40090ED000A20EEE6
:104E8000000A05EBC400D0ED010A05EBC40090ED6B
:104E9000011A00EE810A10EE101A084601F042FED7
:104EA00041EC1C0BB0EE4C0AF0EE6C0A02F0C2F9B9
:104EB000B0EE40AAF0EE60AA18EE100A01F032FE41
:104EC00041EC1B0B53EC1A2B01F07EFC41EC190B4F
:104ED00001F06CFE08EE100A601C84B2BC42CADB12
:104EE00000EE109AB8EEC00AF7EE000A20EE200A93
:104EF000C8EE000AC8ED000A00BFB6E770B52DED98
:104F0000048B0546B0EE408A0C4618EE100A01F0FC
:104F100009FE41EC190B53EC192BCEA001F0EAFF6E
:104F2000042D0AD19FEDD00A30EE480ADFEDCF0AFA
:104F300080EE201A84ED001A0BE0032D09D19FEDBD
:104F4000CA0A38EE400ADFEDC90A80EE201A84ED65
:104F5000001A94ED000A10EE101A084601F0E2FD66
:104F600041EC190B53EC192BC1A001F0C3FFBDECB0
:104F7000048B70BD2DE9F0472DED108BACB00546CC
:104F8000884617469A46DDF810919FEDBE0BB0EEAD
:104F900040AAF0EE60AA00240026A7EB0806162E11
:104FA0007EDD00BF65E096FBF9F000FB048005EBB9
:104FB000C00090ED010A96FBF9F000FB0480401C54
:104FC00005EBC000D0ED010A30EE200A96FBF9F0A7
:104FD00000FB0480801C05EBC000D0ED010A30EE20
:104FE000200A96FBF9F000FB0480C01C05EBC00012
:104FF000D0ED010A30EE200AF1EE000A80EE201A10
:1050000018A800EBC40080ED011A96FBF9F000FB34
:10501000048005EBC00090ED000A96FBF9F000FB60
:105020000480401C05EBC000D0ED000A30EE200AE1
:1050300096FBF9F000FB0480801C05EBC000D0ED6E
:10504000000A30EE200A96FBF9F000FB0480C01C39
:1050500005EBC000D0ED000A30EE200AF1EE000AA8
:1050600080EE201A18A800EBC40080ED001A601C26
:1050700084B24C4597DB781E05EBC00090ED010A29
:10508000B81E05EBC000D0ED010A30EE200AF81E74
:1050900005EBC000D0ED010A30EE200A381F00E019
:1050A0002DE105EBC000D0ED010A30EE200AF1EE53
:1050B000000A80EE201A18A800EBC40080ED011A47
:1050C000781E05EBC00090ED000AB81E05EBC0008D
:1050D000D0ED000A30EE200AF81E05EBC000D0ED3E
:1050E000000A30EE200A381F05EBC000D0ED000AA0
:1050F00030EE200AF1EE000A80EE201A18A800EB2C
:10510000C40080ED001A002466E018A9601C01EBC1
:10511000C00090ED000A18A800EBC400D0ED000A12
:1051200030EE600AB5EEC00AF1EE10FA47D0601C0E
:1051300001EBC00090ED010A18A800EBC400D0ED0F
:10514000010A30EE600A601C01EBC000D0ED000ADD
:1051500018A800EBC40090ED001A70EEC10A80EEB2
:10516000209A19EE100A01F0DDFC41EC1C0BB0EEA8
:105170004C0AF0EE6C0A01F0E7FEB0EE40BAF0EE39
:1051800060BA9FED420B53EC102B51EC1B0B01F05E
:10519000C2FB41EC180B9FED3B0B53EC102B51EC79
:1051A000180B01F0D3FC10D29FED3A0B53EC102BEF
:1051B00051EC180B01F008FB41EC180B05E09FEDDA
:1051C000370BB0EE408AF0EE608A04A800EBC40012
:1051D00080ED008B601C84B24C4596DB9DED0A1B74
:1051E000B0EE410AF0EE610A53EC102B9FED2D1B3F
:1051F00051EC110B01F08FFBCDE902019DED081B75
:10520000B0EE410AF0EE610A53EC102B9FED271B24
:1052100051EC110B01F07FFB41EC1C0B9DED061BCB
:10522000B0EE410AF0EE610A53EC102B9FED211B0A
:1052300051EC110B01F06FFB41EC1E0B9DED041BBB
:10524000B0EE410AF0EE610A38E000000000000014
:1052500000007A445A575F4A5A425F6176653D259D
:105260002E32660D0A0000000000484400001B4476
:105270005A575F6176655F47313D252E32660D0ACC
:10528000000000000000000000000000000000001E
:10529000DCA54C40000000000080664000000000DB
:1052A00000805640295C8FC2F528D43FE17A14AEC5
:1052B00047E1D23F295C8FC2F528CC3F53EC102B3D
:1052C0009FEDFE1B51EC110B01F025FB41EC1F0B78
:1052D00053EC1E2B01F078FA41EC1D0B53EC1C2B08
:1052E00001F072FA41EC1B0B9DED020B53EC102BFD
:1052F00001F06AFA41EC1A0B8AED00AB1EE1092EAF
:105300007EDD002458E0304606EBD0735B1003FBD3
:10531000048305EBC30393ED010A314606EBD17319
:105320005B1003FB04835B1C05EBC303D3ED010A95
:1053300030EE200A324606EBD2735B1003FB048387
:105340009B1C05EBC303D3ED010A30EE200AF0EEFF
:10535000080A80EE201A18AB03EBC40383ED011A90
:1053600006EBD0735B1003FB048305EBC30393EDE3
:10537000000A06EBD1735B1003FB04835B1C05EB97
:10538000C303D3ED000A30EE200A06EBD2735B10A4
:1053900003FB04839B1C05EBC303D3ED000A30EE33
:1053A000200AF0EE080A80EE201A18AB03EBC403C3
:1053B00083ED001A601C84B2022CA4DB781E05EB7E
:1053C000C00090ED010AB81E05EBC000D0ED010A47
:1053D00030EE200AF81E05EBC000D0ED010A30EED9
:1053E000200AF0EE080A80EE201A18A800EBC4008C
:1053F00080ED011A781E05EBC00090ED000A00E078
:105400008FE0B81E05EBC000D0ED000A30EE200A98
:10541000F81E05EBC000D0ED000A30EE200AF0EED9
:10542000080A80EE201A18A800EBC40080ED001ACC
:10543000002469E018A9601C01EBC00090ED000A8F
:1054400018A800EBC400D0ED000A30EE600AB5EEFB
:10545000C00AF1EE10FA47D0601C01EBC00090EDDD
:10546000010A18A800EBC400D0ED010A30EE600A72
:10547000601C01EBC000D0ED000A18A800EBC400CE
:1054800090ED001A70EEC10A80EE209A19EE100A13
:1054900001F048FB41EC1C0BB0EE4C0AF0EE6C0A3C
:1054A00001F052FDB0EE40BAF0EE60BA1FED890B8C
:1054B00053EC102B51EC1B0B01F02DFA41EC180BA7
:1054C0001FED900B53EC102B51EC180B01F03EFB31
:1054D00010D21FED900B53EC102B51EC180B01F078
:1054E00073F941EC180B05E01FED940BB0EE408A08
:1054F000F0EE608A53EC182B51EC1A0B01F064F9B2
:1055000041EC1A0B601C84B2022C93DB9FED6D0BF7
:1055100053EC102B51EC1A0B01F06FFACAE90001A1
:105520000CE01FEDA20B8AED000B314667A001F0E5
:10553000E1FC2CB0BDEC108BBDE8F08705EBC8009A
:1055400090ED010A10EE101A084601F0EBFA41EC5A
:105550001B0B05EBC80090ED000A10EE101A084670
:1055600001F0E0FA41EC1C0B8DED02BB53EC1C2B5F
:1055700041465CA0CDF8008001F0BCFC05EBC70003
:1055800090ED010A10EE101A084601F0CBFA41EC3A
:105590001B0B05EBC70090ED000A10EE101A084631
:1055A00001F0C0FA41EC1C0B8DED02BB53EC1C2B3F
:1055B000394659A0009701F09DFC00BFB9E730B50E
:1055C00003460C46B0EE401A1FEDE00AB0EE402A4A
:1055D0001FEDE20AF0EE401A0021002020461DE0F7
:1055E00003EBC00595ED010AB4EEE00AF1EE10FA06
:1055F00012D203EBC00595ED010AB4EEC10AF1EE3B
:1056000010FA09DD03EBC00595ED000A30EE210A22
:10561000F0EE401A4D1CA9B2451CA8B2551E854299
:10562000DEDC11B91FEDF70A30BD00EE101AB8EE3E
:10563000400AF7EE002A20EE220AC1EE802AB0EEE0
:10564000622AB0EE420AEFE710B52DED0C8B84B064
:105650000446B0EE408AF0EE608A9FED3C0AF0EE20
:10566000409A9FED3A0AB0EE409A9FED380AB0EEAC
:1056700040AAF5EEC08AF1EE10FA05D1B8EE000AA4
:1056800004B0BDEC0C8B10BDB5EEC08AF1EE10FA83
:1056900002D1B0EE000AF3E738EEC80ADFED2C0ABB
:1056A00030EE600AB0EE409A38EE880AB0EE40AABA
:1056B000B5EEC09AF1EE10FA4FD14BE0C3F5285C7D
:1056C0008FC2C53F00000000000000404B5F6176C4
:1056D0006520204572726F7220636E743D25640DE3
:1056E0000A0000004B5F617665202073746172745C
:1056F0006C696E65206172725B25645D2E5F783D1A
:10570000252E32662020206172725B25645D2E5F3B
:10571000793D252E32660A004B5F61766520206553
:105720006E646C696E65206172725B25645D2E5FCC
:10573000783D252E32662020206172725B25645DE3
:105740002E5F793D252E32660A0000000000000021
:1057500000008C431FED030A92E7B1EE4A0AC0EE47
:10576000090AF0EE609A04B100BF19EE900A01F048
:10577000D9F941EC1B0B1AEE100A01F0D3F941ECF8
:105780001C0B19EE100A01F0CDF941EC1D0B8DED4B
:1057900002BB8DED00CB53EC1D2BFAA001F0AAFB50
:1057A000B0EE690A6CE770B52DED048B0446B0EEDF
:1057B000408AF0EE608A0D46042C01D0032C27D1DC
:1057C000042C12D19FEDFE0B53EC102B51EC180B57
:1057D00001F09BF841EC190B9FEDFB0B53EC102BE8
:1057E00001F00BF9C5E9000128E09FEDF50B53EC42
:1057F000102B51EC180B01F088F841EC190B9FEDC0
:10580000F20B53EC102B01F0F8F8C5E9000115E09C
:10581000012C01D0022C11D19FEDE90B53EC102B80
:1058200051EC180B01F071F841EC190B9FEDE80BEE
:1058300053EC102B01F0E1F8C5E90001BDEC048B3D
:1058400070BD2DE9F0472DED0C8B05460F469046B7
:105850001E4600241FED430AF0EE408A1FED450A64
:10586000F0EE409A1FED470AB0EE40AA1FED490A3C
:10587000F0EE40AA1FED4B0A10EE109AA8EB0700BD
:1058800080B208EE100A3C462DE005EBC40090ED16
:10589000000A30EE280AF0EE408A05EBC40090EDD5
:1058A000010A30EE290AF0EE409A05EBC400D0ED73
:1058B000000A05EBC40090ED001AB0EE4A0A00EEB3
:1058C000810AB0EE40AA05EBC400D0ED000A05EB5A
:1058D000C40090ED011AB0EE6A0A00EE810AF0EE03
:1058E00040AA601C84B24445CFDBB8EE480A20EEE3
:1058F0002A0AB0EE40DA08EEE9DAB8EE480A20EEFD
:105900000A0AB0EE409A08EEE89AB5EEC09AF1EEB7
:1059100010FA04D19FEDB00A10EE109A03E08DEE5C
:10592000090A10EE109A484601F0FCF841EC1C0BF5
:10593000B0EE4C0AF0EE6C0A01F006FBB0EE40BA95
:10594000F0EE60BA9FEDA50B53EC102B51EC1B0B46
:1059500000F0E1FFC6E9000196ED001BB0EE410A40
:10596000F0EE610A9FED9F1B53EC112B51EC100BD5
:1059700001F0ECF80FD296ED001BB0EE410AF0EE0C
:10598000610A9FED9A1B53EC112B51EC100B00F0A8
:105990001BFFC6E90001BDEC0C8BBDE8F08770B5BC
:1059A0002DED0C8B06460C4615469FED8E0BB0EE8A
:1059B000408AF0EE608A9FED8B0BB0EE409AF0EEDD
:1059C000609A94ED002BB0EE420AF0EE620A94ED7C
:1059D000022BB0EE421AF0EE621A53EC102B51EC8F
:1059E000110B00F092FF41EC180B94ED022BB0EE7E
:1059F000420AF0EE620A94ED042BB0EE421AF0EE89
:105A0000621A53EC102B51EC110B00F07EFF41ECAD
:105A1000190B032E7DD19FED730B53EC102B51EC22
:105A2000180B01F093F845D89FED6E0B53EC102B3B
:105A300051EC190B01F08AF83CD894ED041BB0EE40
:105A4000410AF0EE610A53EC102B9FED6A1B51ECFA
:105A5000110B00F060FF41EC1A0B94ED021BB0EE4D
:105A6000410AF0EE610A53EC102B9FED641B51ECE0
:105A7000110B00F050FF41EC1C0B94ED001BB0EE3D
:105A8000410AF0EE610A53EC102B9FED5E1B51ECC6
:105A9000110B00F040FF41EC1D0B53EC1C2B00F0F0
:105AA00093FE41EC1B0B53EC1A2B00F08DFEC5E965
:105AB0000001AEE19FED4B0B53EC102B51EC180B9A
:105AC00001F044F847D89FED470B53EC102B51ECF5
:105AD000190B01F053F83ED894ED041BB0EE410AC7
