:020000040800F2
:10000000C84800209D010008F10A0008B90A00084C
:10001000DD0A00085D050008271100080000000047
:10002000000000000000000000000000850C000837
:10003000DD07000800000000D90B0008CD0D000806
:10004000B7010008B7010008B7010008B7010008B0
:10005000B7010008B7010008B7010008B7010008A0
:10006000B7010008B7010008B7010008B701000890
:10007000B7010008B7010008B7010008B701000880
:1000800061050008B7010008B7010008B7010008C2
:10009000B7010008B7010008B7010008B701000860
:1000A000B7010008B7010008B7010008B701000850
:1000B000B7010008B7010008B7010008B701000840
:1000C000B7010008B7010008B7010008B701000830
:1000D000B7010008B7010008A90F0008B701000820
:1000E000B7010008B7010008B7010008B701000810
:1000F000B7010008B7010008B7010008B701000800
:10010000B7010008B7010008390E0008B701000860
:10011000B7010008B7010008510F0008B701000837
:10012000B7010008B7010008B7010008B7010008CF
:10013000B7010008B7010008B7010008B7010008BF
:10014000B7010008B7010008B7010008B7010008AF
:10015000B7010008B7010008B7010008D90F00086F
:10016000B7010008B7010008B7010008B70100088F
:10017000B7010008B7010008B7010008B70100087F
:10018000B7010008B7010008DFF80CD000F08AF9C9
:100190000048004755120008C8480020064880471C
:1001A00006480047FEE7FEE7FEE7FEE7FEE7FEE75C
:1001B000FEE7FEE7FEE7FEE7D10D00088901000833
:1001C00010B5431A934209D28318881803E010F837
:1001D000011D03F8011D521EF9D210BD40EA0103B2
:1001E0009B0703D009E008C9121F08C0042AFAD2ED
:1001F00003E011F8013B00F8013B521EF9D210BD9B
:100200002DE9F04D81EA030404F0004B21F0004594
:1002100014464FF0000A23F0004150EA050220D0B6
:1002200054EA01021DD0C5F30A570246C5F3130371
:10023000C1F31300C1F30A5640F4801543F4801350
:10024000A7EB0608101BD64608F2FD3873EB050035
:1002500002D308F1010801E092185B41B8F1000FE8
:1002600003DA00200146BDE8F08D00204FF4801134
:10027000064684460EE0171B73EB050705D3121BD9
:1002800063EB050306434CEA010C49084FEA3000D2
:1002900092185B4150EA0107EDD152EA030012D0F7
:1002A00082EA040083EA0501084305D0101BAB4134
:1002B00006D20122002306E000224FF0004302E0B4
:1002C0006FF0010253101AEB06004CEB085110EBD3
:1002D0000A0041EB0B01BDE8F04D00F085B800F0DD
:1002E000004230F000400AD0C10D01F56071C0F34A
:1002F000160042EA0151C20840071143704700202E
:100300000146704701F0004330B421F0004150EA4B
:10031000010206D00A0DA2F56072C1F31301002A92
:1003200002DC30BC00207047440F44EAC104C10025
:10033000E01830BC00EBC25000F01FB8202A04DBEC
:10034000203A00FA02F1002070479140C2F12003E8
:1003500020FA03F3194390407047202A04DB203A27
:1003600021FA02F00021704721FA02F3D040C2F1D5
:10037000200291400843194670470029A8BF7047E2
:10038000401C490008BF20F00100704710B4B0FACB
:1003900080FC00FA0CF050EA010404BF10BC704766
:1003A00049B1CCF1200421FA04F411FA0CF118BF80
:1003B000012121430843A3EB0C01CB1D4FEA00614F
:1003C0004FEA102042BF002010BC704700EBC35022
:1003D00010440029A4BF10BC7047401C490008BF4E
:1003E00020F0010010BC704710B5141E73F100041A
:1003F00008DA401C41F1000192185B411A4301D117
:1004000020F0010010BD2DE9F04D92469B4611B140
:10041000B1FA81F202E0B0FA80F220329046FFF7A2
:100420008DFF04460F4640EA0A0041EA0B0153469D
:100430005A46084313D0114653EA010019D0C8F1B7
:1004400040025046FFF789FF05460E465046594682
:100450004246FFF773FF084305D0012004E0204621
:100460003946BDE8F08D0020054346EAE0762C438E
:1004700037430A986305E40AA0EB08000022FD0A4E
:1004800044EA47540A3002D500200146E9E7010555
:1004900010196941DDE9084500196941BDE8F04DD1
:1004A000A2E70000064C074D06E0E06840F00103BB
:1004B00094E8070098471034AC42F6D3FFF768FE83
:1004C000C4120008E412000810B5204890F900009A
:1004D000002806DA002240F227711D4800F0FAFDDC
:1004E00010BD1C480488601C1A4A1080174890F9F7
:1004F000000000EB4010184A02EBC000015D1448F8
:1005000000F00DFE114890F9000000EB4010124978
:1005100001EBC000B0F800010E490988884213DCE5
:1005200000200A4991F9001001EB41110A4A02EB3F
:10053000C10181F80301FF2004490870002240F244
:100540002771034800F0C6FD00BFC9E7D0000020B6
:1005500000140140D2000020F031002000BFFEE76F
:100560002DE9F0477848466800F0CCF98246774894
:10057000476806F4507030B175480068401C7449F3
:10058000086000F09BFA7348007830B172496E48F9
:10059000883000F005F9BDE8F08706F44060B0F55A
:1005A000406F0CD16D480068401C6C49086000F039
:1005B00085FA69496448883000F0F2F8EBE706F400
:1005C000406000B9E7E7012020EA96240CB16448B6
:1005D00000E0644801465C48883000F0E1F85A4881
:1005E000883000F0F7F805465F480078844212D161
:1005F0005E4800683221B0FBF1F05D490968791A64
:10060000884208D33DB114B9B5F5007F03D854B181
:10061000B5F5007F07D851480068401C4F49086075
:1006200000F04CFAB7E75348006853490968A0EB5B
:100630000108B8F1100F07D350480068401C4F491B
:10064000086000F03BFAA6E74D4A02EB4421494A14
:10065000126802F00F024B4B03EB42204FF4007282
:10066000FFF7AEFD3848883000F0B4F805468DB18C
:100670003E4800686421B0FBF1F034494968C91B69
:10068000884207D914B9B5F5007F03D854B1B5F540
:10069000007F07D831480068401C3049086000F0EE
:1006A0000DFA78E738480068A0F59C4020383149B9
:1006B000096801F00F0101EB4101344A42F82100C1
:1006C0002C48006800F00F0000EB4000114601EBE1
:1006D0008000C0F804A02E4800682649096801F08F
:1006E0000F0101EB410102EB81018860BFF35F8FD5
:1006F00020480068401C1F49086026480068401CCC
:100700002449086008F1010023490968B1EB402F32
:1007100002D24002204908601348007880F00100AE
:10072000114908701848C0F800A011480760074830
:100730004068A0EB070919480068814502D91748AD
:10074000C0F8009000BF26E700600240001000E003
:100750006400002020000020400F0020380000200E
:1007600000080020000400202100002000000020DC
:1007700028000020180000201C0000206800002035
:10078000200100202005002024000020202500203A
:100790002C00002034000020300000203C0000200D
:1007A0000246094B9A4201D2084801E00648103837
:1007B00001F000531BB1064B0B40C36002E0044B39
:1007C0000B408360704700001064024000600240EC
:1007D0007D0F7D0F0146486880B27047704700006A
:1007E0002DE9F04105460E46174637480068401C83
:1007F00035490860804635480078032802D13448DE
:10080000006808B9BDE8F0813248006832490968DB
:10081000401A402805D331480068401C2F49086021
:10082000F0E72C48006800F03F0000EBC0002C49C6
:1008300001EB8004C4F800802A480068606000F082
:1008400061F8A060A5814FF08040C06BE081264830
:1008500090ED000A84ED040A244890ED000A84ED2E
:10086000050A234890ED000A84ED060A214890ED20
:10087000000A84ED070A0EB1012000E000200FB14C
:10088000022100E0002108431B49097809B1042135
:1008900000E0002108431949097809B1082100E066
:1008A000002108431649098809B1102100E0002100
:1008B00008432062BFF35F8F06480068401C05496B
:1008C000086000BF9EE70000B80000204400002040
:1008D0004C000020B0000020B4000020BC0000202C
:1008E000F0280020480000200C0100200401002016
:1008F000A8000020AC000020E2000020E30000205F
:10090000080100201CB5694601A800F023FC0198ED
:1009100000EB4001C1EBC010BDF8001001EBC000BE
:100920001CBDF0B50A4600210023002400BF3DE0B5
:10093000012505FA01F3156805EA03049C4234D148
:1009400005684F000326BE40B543056015794E008B
:10095000B5400668354305601579012D02D015793B
:10096000022D16D185684F000326BE40B543856031
:1009700055794E00B5408668354385604568012647
:100980008E40B5434560456896798E40B6B2354392
:100990004560C5684F000326BE40B543C560D579A4
:1009A0004E00B540C6683543C560491C1029BFD309
:1009B000F0BD41837047018370474FF6FF710160BE
:1009C0000021017141718171C171704770B52DEDC8
:1009D000048B304800F0D1FA86B22F480088301AD4
:1009E0002E4908802C48068008460088B0F5004F44
:1009F00002DA0846008803E028480088A0F5803025
:100A000005B200EE105AB8EEC00A254880ED000A83
:100A1000002415E02349601C31F8100021F814006F
:100A2000084630F9140000EE100AB8EEC00A1C485F
:100A3000D0ED000A30EE200A80ED000A601C84B27E
:100A4000042CE7DB174820F81450154890ED000AF5
:100A5000F1EE040A80EE201A80ED001A90ED000AF3
:100A6000DFED110A20EE200A10EE101A0846FFF7FB
:100A700036FC41EC190B9FED0D0B53EC102BFFF7DF
:100A8000BFFB41EC180BFFF73DFC0A490860BDECC9
:100A9000048B70BD000800401C01002018010020DC
:100AA00014010020BC3800200000C84200000000F3
:100AB000003071400C01002000BFFEE705480078BF
:100AC00038B905480068401C034908600120014905
:100AD00008707047200000202C00002000BFFEE7B7
:100AE00010B5044621464FF0804000F05AFA10BD80
:100AF00070470000B0EE401ADFED311AB0EE610A27
:100B000070EEC11AC0ED0B1AD0ED0C1A90ED0B2A45
:100B100071EE821AC0ED0C1AD0ED0C1A9FED292A45
:100B2000F4EEC21AF1EE10FA03DBDFED261AC0ED87
:100B30000C1AD0ED0C1A9FED242AF4EEC21AF1EE35
:100B400010FA03D8DFED201AC0ED0C1AD0ED001A10
:100B500090ED0B2A61EE821A90ED032AD0ED0C2A5B
:100B600042EE221A90ED0B2AD0ED0A2A32EE622ACA
:100B7000D0ED042A42EE821AB0EE610AD0ED0B1AD3
:100B8000C0ED0A1AD0ED0C1A1049C1ED001A104937
:100B900081ED000ADFED0F1AB4EEE10AF1EE10FA72
:100BA00003DBDFED0C1AB0EE610AB5EEC00AF1EE20
:100BB00010FA03D8DFED021AB0EE610A70470000A8
:100BC0000000000000004843000048C3A8000020C7
:100BD000AC0000200000C8427047000029B1064A5E
:100BE00012680243044B1A6004E0034A126882430D
:100BF000014B1A60704700003038024010B51748AA
:100C00000078B8B116480078A0B916480088322894
:100C100004D214480088401C1249088011480088FA
:100C2000322807D301200E4908700F480068401C85
:100C30000D4908600D4800680D490968884207D1D0
:100C4000FFF760FE0B490968401A0B49884204D936
:100C500000200A4908700A49087010BDE20000200F
:100C6000E3000020E0000020E4000020F00000206D
:100C70002C000020EC000020F049020000010020C0
:100C800001010020704700000CB500200190009089
:100C90003448006840F480303249086000BF314871
:100CA000006800F4003000900198401C019000980A
:100CB00018B90198B0F5A04FF1D12A48006800F4A6
:100CC000003010B10120009001E000200090009859
:100CD000012846D123484030006840F08050214927
:100CE000403108602048006840F440401E490860D8
:100CF0001C48083000681B49083108600846006835
:100D000040F4004008600846006840F4A0500860C5
:100D10001648091F0860081F006840F08070091F0E
:100D2000086000BF0F48006800F000700028F9D08C
:100D300040F205700E4908600A480830006820F04B
:100D400003000849083108600846006840F00200C6
:100D5000086000BF03480830006800F00C00082855
:100D6000F8D10CBD00380240007000400854400724
:100D7000003C02409FED080A80ED0A0A80ED0B0A54
:100D800080ED0C0A9FED040A044981ED000A044934
:100D900081ED000A7047000000000000AC00002058
:100DA000A8000020042808D14FF0E021096941F093
:100DB00004014FF0E022116107E04FF0E0210969E2
:100DC00021F004014FF0E0221161704770470000EC
:100DD00010B51548006840F47000134908601348C6
:100DE000006840F001001149086000200F490831F7
:100DF00008600E4800680E4908400C4908600D481C
:100E0000091D0860081F006820F48020091F086081
:100E1000002006490C310860FFF736FF4FF00060F4
:100E200001498039086010BD88ED00E000380240BB
:100E3000FFFFF6FE1030002470B50121374800F0A6
:100E40009FF8012868D10121344800F093F800246C
:100E50000025FFF7D3FE3248007828B131480078EA
:100E600010B93148007880B9FFF7B0FD01249FED3B
:100E70002F0A2F4880ED000A2E48FFF77BFF002045
:100E80002D490880FFF72CFE3FE02C480088012800
:100E900003D13220FFF724FE37E0FFF797FD01244E
:100EA0002748D0ED000A274890ED001A60EE810A2D
:100EB000B0EE600A1E48D0ED000AB5EE001A70EEE2
:100EC000810AF4EEC00AF1EE10FA07D2D0ED000A62
:100ED000B5EE001A70EE810AB0EE600A144880ED9B
:100EE000000A14481249D1ED000A174991ED000A91
:100EF000FFF700FEBCEEC00A10EE100A0E49088093
:100F0000012508460088FFF7EBFD2A4621460F48D9
:100F10000088FFF765FC00BF70BD0000000C0040BA
:100F2000E2000020E300002000010020000000009B
:100F300004010020643800201A010020080100206C
:100F400010010020FC0000200C01002018010020EE
:100F50000648008A00F0010038B1002003490882E9
:100F600003480068401C02490860704700100040B8
:100F70006C000020CA43028270470146486A7047ED
:100F800030B50246002000230024158A05EA01033B
:100F9000958905EA010413B10CB1012000E000209D
:100FA00030BDC1637047000008B509480088009053
:100FB000009800F00E0050B10548001D0088009018
:100FC00004480068401C03490860FFF777FD08BD2E
:100FD000004400406000002010B52448048804F05C
:100FE0003E0060B32149091D0988C8B204F00E0112
:100FF00041B11F490968491C1D4A116002211D4A5F
:1010000011701BE004F02001C1B11B490978C72908
:101010000CDA19490A780978491C174B19701749D5
:1010200088540021154A1B78D15407E010490968FB
:10103000491C0F4A116002210E4A117000BF04F0D2
:10104000100048B10C48007830B10A4800780228F6
:1010500002D001200749087040F22771034800F0D0
:101060000FF8012801D1FFF72FFA10BD001401403D
:10107000680000204100002042000020E025002000
:1010800070B50246002400230025002040F66A16B1
:10109000B14200D100BFC1F3421501F01F03012688
:1010A00006FA03F3012D02D19689334006E0022DA2
:1010B00002D1168A334001E0968A33400C12012691
:1010C00006FA04F41688344013B10CB1012000E094
:1010D000002070BDF0B50346002400260025002046
:1010E00040F66A17B94200D100BF1846C1F3421456
:1010F00001F01F06012707FA06F5012C01D10C307B
:1011000004E0022C01D1103000E014301AB107685D
:101110002F43076002E00768AF430760F0BDC1F3EB
:1011200008028280704700BFFEE7EFF3108070472F
:1011300002E008C8121F08C1002AFAD170477047A0
:10114000002001E001C1121F002AFBD1704780F38B
:101150001088704770B504460D46FFF7E6FF064657
:1011600072B60A48006820600948406A288008482A
:10117000008A00F0010028B12068401C206004486B
:10118000406A28803046FFF7E2FF70BD6C00002007
:101190000010004010B504466FF00400FFF702FE97
:1011A000E11704EB5171C1F3C701074A11701046F2
:1011B000007800EB4001C1EBC0104FF6FF7101EA6F
:1011C000C0000249088010BD140000201600002055
:1011D00070B504464FF4077094FBF0F0C6B24FF4BC
:1011E000077094FBF0F100FB114085B205E04FF46D
:1011F000077000F009F8701EC6B2002EF7D115B1C5
:10120000284600F001F870BD0146114A12884A4391
:101210004FF0E0235A6100229A611A46126942F0A7
:1012200001021A6100BF4FF0E022106900F00102D4
:101230001AB100F48032002AF5D04FF0E022126992
:1012400022F001024FF0E0231A6100229A617047F8
:10125000160000201CB5A820FFF79CFF01210220EA
:10126000FFF7BCFC4FF480611548FFF7A2FB68460E
:10127000FFF7A3FB4FF48060009001208DF804007D
:1012800000208DF806008DF805008DF807006946EE
:101290000B48FFF746FB11E04FF480610848FFF769
:1012A00088FB41F28830FFF793FF4FF480610448D8
:1012B000FFF781FB41F28830FFF78AFFECE700007F
:1012C00000040240E4120008000000202001000099
:1012D000301100080414000820010020A847000075
:1012E00040110008007A030A00000000000000001E
:1012F00001020304060708090000000000000000C6
:1013000000000000000000000000000000000000DD
:1013100000000000000000000000000000000000CD
:1013200000000000000000000101000000000000BB
:1013300000000000000000000000000000000000AD
:10134000000000000000000000000000000000009D
:10135000000000000000000000000000000000008D
:10136000000000000000000000000000000000007D
:10137000000000000000000000000000000000006D
:10138000000000000000000000000000000000005D
:10139000000000000000000000000000000000004D
:1013A000000000000000000000000000FF0000003E
:1013B00000000000FF00000000000000000000002E
:1013C000000000000000000000000000000000001D
:1013D000000000000000000000000000000000000D
:1013E00000000000000000000000000000000000FD
:1013F00000000000000000000000000000000000ED
:0414000000000000E8
:040000050800018965
:00000001FF
