:020000040800F2
:10000000505801209D0100088153000889290008EB
:100010009947000809130008416900080000000022
:10002000000000000000000000000000515800081F
:10003000E718000800000000F5540008015A000805
:10004000B7010008B7010008B7010008B7010008B0
:10005000B7010008B7010008B7010008B7010008A0
:10006000B7010008B7010008B7010008B701000890
:10007000B7010008B7010008B7010008B701000880
:1000800061130008B7010008B7010008B7010008B4
:10009000B7010008B7010008B7010008B701000860
:1000A000B7010008B7010008B7010008B701000850
:1000B000B7010008B7010008B7010008B701000840
:1000C000B7010008B7010008B7010008B701000830
:1000D000B7010008B7010008A9650008B7010008CA
:1000E000B7010008B7010008B7010008B701000810
:1000F000B7010008B7010008B7010008B701000800
:10010000B7010008B7010008895D0008B7010008C1
:10011000B7010008B7010008D15E0008B701000868
:10012000B7010008B7010008B7010008B7010008CF
:10013000B7010008B7010008B7010008B7010008BF
:10014000B7010008B7010008B7010008B7010008AF
:10015000B7010008B7010008B7010008D965000819
:10016000B7010008B7010008B7010008B70100088F
:10017000B7010008B7010008B7010008B70100087F
:10018000B7010008B7010008DFF80CD000F0CEFC82
:1001900000480047CD7E000850580120064880479F
:1001A00006480047FEE7FEE7FEE7FEE7FEE7FEE75C
:1001B000FEE7FEE7FEE7FEE7055A000889010008B2
:1001C0009FED1A1AF5EE000A40EE010ABDEEE00AB4
:1001D000F5EEC00A10EE100AF1EE10FA38BF401E1C
:1001E00000EE100A1349F7EE001AB8EEC00A30EE1E
:1001F000C00ADFED0F0A20EE200AFCEEC00A10EE66
:10020000900AC0F3080000EE900A01EB8000F8EEBF
:10021000600A90ED011A70EE600A90ED000A71EE2E
:10022000E01A21EE800A00EE810A704783F9223E2F
:100230000000004428920008B5EEC00AF1EE10FA62
:1002400007D2DFED1E0AB4EEE00AF1EE10FAA8BF05
:100250007047DFED1B0AB5EEC00A60EE200ABDEE66
:10026000E01A11EE100AF1EE10FA38BF401E00EE4F
:10027000100A1549F7EE001AB8EEC00A30EEC00AAF
:10028000DFED100A60EE200ABCEEE00A10EE100A64
:10029000C0F3080000EE100A01EB8000B8EE400A3F
:1002A00090ED011A70EEC00A90ED000A71EEE01AAE
:1002B00021EE800A00EE810A70470000CD024CB4A6
:1002C00083F9223E000000442892000810B5431A2A
:1002D000934209D28318881803E010F8011D03F82F
:1002E000011D521EF9D210BD40EA01039B0703D045
:1002F00009E008C9121F08C0042AFAD203E011F865
:10030000013B00F8013B521EF9D210BDD2B201E010
:1003100000F8012B491EFBD270470022F6E710B50A
:1003200013460A4604461946FFF7F0FF204610BD63
:10033000CAB2401E10F8011F8A4202D00029F9D12A
:1003400000207047421C10F8011B0029FBD1801AC5
:10035000704710B5002200E0521C835C8C5CA34205
:1003600001D1002BF8D1D8B2E1B2401A10BD30B59E
:1003700005460020034600E05B1C934205D2EC5C7E
:10038000C85C201A01D1002CF6D130BD2DE9F04710
:1003900091460F4680460446002614F8015B2DB1B5
:1003A00000F038FA0068405DC007F6D12B2D02D06E
:1003B0002D2D18D0641E4A463946204600F02EFAEC
:1003C00027B13968A14201D1C7F8008071054FF00B
:1003D00002040BD54042002803DD06F0D7FA046082
:1003E000A007BDE8F08746F48066E4E70028F8DA65
:1003F00006F0CCFA04606FF00040F2E72DE9FE4F02
:10040000804681EA0300C00F0C46009021F00041B5
:1004100023F00045B8EB0200A94105D24046214631
:1004200090461C460B46024623F00040104347D03E
:10043000270DC7F30A00C3F30A510290401A019036
:1004400040286BDAC3F3130040F4801B00989246F7
:1004500020B10023D2EB030A63EB0B0B0198594642
:10046000C0F14002504600F0A4F906460D46504641
:100470005946019A00F0BCF910EB080061410024D4
:1004800087EA115284EAE7731A4340D0009A62B3B4
:10049000019A012A4FEA075215DC001B61EB0201A9
:1004A0004FF0004202EA0752CDE90042001C41F53C
:1004B000801132462B4600F046FA03B0BDE8F08FBB
:1004C00040462146F9E7001B61EB0201001C41F5A3
:1004D000801300185B412018A2F5001747EB0301B9
:1004E00040EAD570B6196D4111E06D084FEA360645
:1004F00045EAC0754FEA0752001B61EB0201001C80
:1005000041F5801149084FEA300000195141324647
:100510002B4603B0BDE8F04F00F006BA0098012268
:1005200040000023D0EB020263EBE0730098214609
:100530004FEAE074B8EB000061EB0401E9E783F0F7
:1005400000435BE781F0004158E72DE9F04D81EA77
:10055000030404F0004B21F0004514464FF0000A5C
:1005600023F0004150EA050220D054EA01021DD0D8
:10057000C5F30A570246C5F31303C1F31300C1F3D1
:100580000A5640F4801543F48013A7EB0608101BAD
:10059000D64608F2FD3873EB050002D308F10108D6
:1005A00001E092185B41B8F1000F03DA0020014628
:1005B000BDE8F08D00204FF48011064684460EE021
:1005C000171B73EB050705D3121B63EB05030643EB
:1005D0004CEA010C49084FEA300092185B4150EA9E
:1005E0000107EDD152EA030012D082EA040083EA47
:1005F0000501084305D0101BAB4106D201220023A0
:1006000006E000224FF0004302E06FF001025310B9
:100610001AEB06004CEB085110EB0A0041EB0B0102
:10062000BDE8F04D00F080B970B5C1F30A5201F099
:1006300000450024C1F3130140F2FF3341F480115F
:100640009A4201DA002070BD40F233439A42A2F28E
:10065000334203DC524200F0BBF800E090402C43F0
:10066000F1D0404270BD00F0004230F000400AD0AE
:10067000C10D01F56071C0F3160042EA0151C208D4
:1006800040071143704700200146704730B5041EF3
:1006900071F1000404DB4FF00044404264EB0101BF
:1006A000141E73F1000405DB1C464FF00043524258
:1006B00063EB04038B4208BF824230BD30B5041E99
:1006C00071F1000404DB4FF00044404264EB01018F
:1006D000141E73F1000405DB1C464FF00043524228
:1006E00063EB0403994208BF904230BD01F0004320
:1006F00030B421F0004150EA010206D00A0DA2F503
:100700006072C1F31301002A02DC30BC0020704784
:10071000440F44EAC104C100E01830BC00EBC250F1
:1007200000F0CBB830B50B46014600202022012452
:1007300009E021FA02F59D4205D303FA02F5491BAF
:1007400004FA02F52844151EA2F10102F1DC30BDC5
:100750002DE9F05F0546002092469B4688460646F6
:10076000814640241BE0284641464746224600F089
:100770002FF853465A46C01A914110D311461846D5
:10078000224600F016F82D1A67EB01084F46224664
:100790000120002100F00DF817EB00094E41201E4A
:1007A000A4F10104DFDC484631462A464346BDE851
:1007B000F09F202A04DB203A00FA02F10020704763
:1007C0009140C2F1200320FA03F31943904070478F
:1007D000202A04DB203A21FA02F00021704721FA96
:1007E00002F3D040C2F120029140084319467047FD
:1007F000202A06DBCB17203A41FA02F043EAE073E5
:1008000006E041FA02F3D040C2F1200291400843D1
:100810001946704700487047B09A00082DE9F05F0C
:1008200082460078002715468B460AF10104B94636
:10083000302801D09DB113E014F8010B012778286E
:1008400003D0582801D045B10AE00DB1102D07D1D1
:100850000027102514F8010B02E0082500E00A2506
:100860000026B0460EE005FB080005FB06F1012757
:1008700001EB10461FFA80F8B6F5803F00D3B94669
:1008800014F8010B294600F063F90028EBDABBF1FC
:10089000000F05D00FB1641E00E05446CBF80040B5
:1008A000B9F1000F06D006F071F802210160C81EF0
:1008B000BDE8F09F48EA0640FAE70029A8BF704764
:1008C000401C490008BF20F00100704710B4B0FA86
:1008D00080FC00FA0CF050EA010404BF10BC704721
:1008E00049B1CCF1200421FA04F411FA0CF118BF3B
:1008F000012121430843A3EB0C01CB1D4FEA00610A
:100900004FEA102042BF002010BC704700EBC350DC
:1009100010440029A4BF10BC7047401C490008BF08
:1009200020F0010010BC704710B5141E73F10004D4
:1009300008DA401C41F1000192185B411A4301D1D1
:1009400020F0010010BD2DE9F04D92469B4611B1FB
:10095000B1FA81F202E0B0FA80F220329046FFF75D
:1009600028FF04460F4640EA0A0041EA0B015346BD
:100970005A46084313D0114653EA010019D0C8F172
:1009800040025046FFF724FF05460E4650465946A2
:100990004246FFF70EFF084305D0012004E0204641
:1009A0003946BDE8F08D0020054346EAE0762C4349
:1009B00037430A986305E40AA0EB08000022FD0A09
:1009C00044EA47540A3002D500200146E9E7010510
:1009D00010196941DDE9084500196941BDE8F04D8C
:1009E000A2E72DE9FE4F81EA030404F0004421F060
:1009F000004100944FF0000B23F0004350EA010443
:100A00005ED052EA03045BD0C3F30A54C1F30A5523
:100A10002C44A4F2F3340194A0FB0254C1F313015B
:100A200041F48011C3F3130343F4801301FB024428
:100A300000FB034E840A970A44EA815447EA83572D
:100A4000A4FB076802958D0A05FB07854FEA932CE6
:100A500004FB0C542705029D4FEA065847EA163757
:100A6000B5EB08056EEB070C870E920E47EA81176F
:100A700042EA8312A7FB0201B6EB0B0164EB000410
:100A80002B0D43EA0C335E1844EB1C50DA465146FA
:100A9000E7FB0201C5F313044FEA0B3343EA145397
:100AA0004FEA0432019C43EA0603A4F10C040294C9
:100AB000009CCDE900B4FFF746FF03B0BDE8F08F1E
:100AC00000200146F9E7C1F30A52C1F3130140F2D5
:100AD000FF3341F480119A4202DA00200146704748
:100AE00040F233439A42A2F2334202DC5242FFF711
:100AF0006FBEFFF75EBE002801DBC0F10040002999
:100B000001DBC1F10041814202D24FF0004004E01C
:100B10004FF0005001D14FF0C0404FEA2062EFF398
:100B2000008162F31F6181F300887047064C074D16
:100B300006E0E06840F0010394E8070098471034AD
:100B4000AC42F6D3FFF724FBEC9C00080C9D000898
:100B50003A2800D2303820F02002412A01D3A2F1F5
:100B60003700884201D34FF0FF30704770B58C18C2
:100B700010F8015B15F0070301D110F8013B2A11B1
:100B800006D110F8012B03E010F8016B01F8016B9E
:100B90005B1EF9D12B0705D40023521E0DD401F89A
:100BA000013BFAE710F8013BCB1A921C03E013F863
:100BB000015B01F8015B521EF9D5A142D8D3002098
:100BC00070BD000010B500BFEFF31082114672B681
:100BD00000201BE0114A92F90020904214D000EB53
:100BE00040120F4B03EBC20292F8032162B10022C4
:100BF00000EB40130A4C04EBC30383F80321094ABA
:100C00001268521C074B1A60421CD0B20628E1DB66
:100C100000BF81F3108800BF10BD00000801002054
:100C200014330020100100200020002110E001EB0F
:100C30004112094B03EBC20292F8032132B9074A71
:100C400092F900208A4201D0421CD0B24A1CD1B293
:100C50000629ECDB70470000143300200801002057
:100C6000002110E001EB4110094A02EBC00090F8AE
:100C7000030130B9074890F90000884201D00120F3
:100C80007047481CC1B20429ECDB0020F8E70000E3
:100C900014330020080100202DE9F04107460D46DD
:100CA0001646022E01D1062000E00420804600F006
:100CB00003FB01F0EDFD10B90020BDE8F08115B196
:100CC000B5F5807F06DD28480068401C264908608D
:100CD0000020F2E700243DE004EB4410234901EB3F
:100CE000C00090F8030190BB214890F90000A04299
:100CF0002ED004EB44111D4A02EBC1002A463946AE
:100D0000FFF7E4FA04EB4410184901EBC000A0F827
:100D1000005104EB441001EBC00080F8026115485B
:100D2000006804EB4411114A02EBC101C1F804014F
:100D300010480068401C0F490860BFF35F8F012016
:100D400004EB441102EBC10181F80301B5E7FFE7B1
:100D5000601CC4B24445BFDB03480068401C024924
:100D600008600020A9E700001001002014330020D3
:100D7000080100200C010020F0B5B3B005F040FBE5
:100D80004248007808B933B0F0BD00BFEFF31080DF
:100D9000054672B63E4806783C480078022801D1E4
:100DA000012000E00020074632463A4901A8FFF73B
:100DB0008DFA00F0ABFA00BF85F3108800BF2FB1A9
:100DC000002035490870012034490870002458E09B
:100DD00001A8005D0A2826D130480078D0B92E48F5
:100DE000007858B12C480078401E2D49085C0D2829
:100DF00004D129480078401E27490870002028495E
:100E0000254A127888542448007830B1084605F005
:100E1000C5F902E023A001F09DFA00201E490870E8
:100E20001E4908702BE01D48007840BB01A8005DFA
:100E300020280ADA01A8005D0D2806D001201749F4
:100E4000087000201449087019E013480078C7287A
:100E50000AD201A8015D104802780078401C0E4BB0
:100E600018700F4881540AE001200C4908700020D6
:100E7000094908700F480068401C0E490860601C52
:100E8000C4B2B442A4DB00BF7DE7000079000020BB
:100E90007A000020042700201601002017010020FE
:100EA00044390020455252206F766572666C6F7728
:100EB0000D0A0000A000002030B52DED028B91B08E
:100EC000B0EE408AF0EE608A0446244D2448007853
:100ED000012803D011B0BDEC028B30BD8DED008A2E
:100EE0000A2C00DB0095CDED018A1E4890ED000A2A
:100EF0008DED020A90ED040A8DED030A00EE104A12
:100F0000B8EE400A8DED040A174890ED000A8DED09
:100F1000050A164890ED000A8DED060A144800886F
:100F200000EE100AB8EE400A8DED070A202269464D
:100F300008A8FFF7CBF900208DF840008DF841009C
:100F400080208DF842007F208DF84300002224216C
:100F500008A8FFF7A1FE00BFBCE700000000C07FAB
:100F60007C000020E8BE0020DC010020E001002021
:100F70001A01002010B5204890F90000002806DA78
:100F8000002240F227711D4805F03AFC10BD1C48B4
:100F90000488601C1A4A1080174890F9000000EB82
:100FA0004010184A02EBC000015D144805F0B8FC7F
:100FB000114890F9000000EB4010124901EBC0000D
:100FC000B0F800010E490988884213DC00200A4964
:100FD00091F9001001EB41110A4A02EBC10181F8BD
:100FE0000301FF2004490870002240F227710348E2
:100FF00005F006FC00BFC9E708010020001401400D
:101000000A0100201433002070B54FF0FF3500F0C6
:1010100053F901F03DFC58B93848007820B1FFF78A
:10102000D1FD00203649086000203449087070BDA9
:10103000012032490870334890F90000002800DB95
:10104000F5E7002439E004EB44102F4901EBC00020
:1010500090F8030178B3002D2CDB04EB441001EB76
:10106000C00090F8020105EB4511274A02EBC101CF
:1010700091F8021188421DDC04EB4410114601EB8B
:10108000C00090F8020105EB451102EBC10191F897
:10109000021188420FD104EB4410114601EBC0004D
:1010A000D0F8040105EB451102EBC101D1F80411A0
:1010B000401A00D565B2601CC4B2062CC3DB002DFB
:1010C00000DAB4E705EB45120F4B03EBC202B2F8AE
:1010D000001105EB451203EBC20000F0ADFE00204D
:1010E0000A49088007480570BFF35F8F012240F26C
:1010F0002771074805F084FB00BF98E71401002022
:101100008400002008010020143300200A01002080
:101110000014014070B5044644B12046FFF712F9AF
:1011200085B2022229462046FFF7B6FD70BD0000B9
:1011300010B588B004460121042004F0DDF9012136
:10114000042004F0D9F9082206213B4801F066FB8F
:1011500008220721384801F061FB06A801F08EFB48
:101160004020069002208DF81C0003208DF81D0001
:1011700000208DF81E0001208DF81F0006A92E48C2
:1011800001F004FB06A801F079FB80200690022004
:101190008DF81C0003208DF81D0000208DF81E0026
:1011A00001208DF81F0006A9234801F0EFFA012164
:1011B000202004F0D1F9214805F080FA02A805F0BA
:1011C000B3FB02940020ADF80C00ADF80E00ADF8B2
:1011D00010000C20ADF812000020ADF8140002A998
:1011E000164805F033FB012240F22551134805F063
:1011F00007FB012240F22441104805F001FB2021A9
:101200000E4805F03DFA40F224410C4805F038FA4A
:1012100001210A4805F03DFA47208DF8040001201D
:101220008DF805008DF806008DF8070001A804F080
:10123000A9F808B010BD00000008024000140140E9
:1012400010B54FF4E130FFF773FF00F013F802A080
:1012500005F078FB10BD0000426C7565746F6F740B
:10126000685F496E69742073756363656564210DF9
:101270000A0000001CB50121042004F03DF9684675
:1012800001F0FCFA0420009000208DF804000320F7
:101290008DF8050000208DF8060001208DF807006C
:1012A0006946044801F072FA0421024801F0E2FAAA
:1012B0001CBD00000008024010B504210F4801F0D9
:1012C000D0FA50B900200E4908700E480078012865
:1012D00002D100200B49087010BD0421074801F01D
:1012E000C0FA012807D1064908700648007810B9ED
:1012F00001200449087000BFEEE70000000802402A
:10130000780000207B00002000BFFEE7002002499B
:1013100008700249087070477A00002079000020A8
:101320001CB50121022004F0E7F801208DF804002B
:1013300000208DF806004FF40040009002208DF848
:10134000050000208DF807006946044801F01EFAE8
:101350004FF40041014801F08FFA1CBD0004024027
:101360002DE9F0477148466801F0FDF98246704862
:10137000D0F8048006F4507030B16E480068401C0C
:101380006C49086002F000FE6B48007830B16B4990
:101390006648883000F0F6F8BDE8F08706F4406053
:1013A000B0F5406F0CD166480068401C6449086085
:1013B00002F0EAFD61495D48883000F0E3F8EBE7B0
:1013C00006F4406000B9E7E7012020EA96240CB15A
:1013D0005C4800E05C4801465448883000F0D2F890
:1013E0005248883000F0AAF90546584800788442EF
:1013F00012D1574800683221B0FBF1F05549096815
:10140000A8EB0101884207D314B9B5F5007F03D8D2
:1014100054B1B5F5007F07D849480068401C4849D9
:10142000086002F0B1FDB7E74B4800684B49096816
:10143000471A102F07D34A480068401C48490860E3
:1014400002F0A2FDA8E7474A02EB4421424A126893
:1014500002F00F02444B03EB42204FF40072FEF700
:1014600035FF3248883000F069F9054614B9B5F502
:10147000007F03D854B1B5F5007F07D83048006825
:10148000401C2F49086002F07FFD85E7374800685F
:101490003149096801F00F0101EB4101344A42F87A
:1014A00021002D48006800F00F0000EB40001146BD
:1014B00001EB8000C0F804A02E48006826490968A6
:1014C00001F00F0101EB410102EB81018860BFF3E4
:1014D0005F8F21480068401C1F490860264800684B
:1014E000401C25490860781C24490968B1EB402F4D
:1014F00002D24002214908601448007880F00100BF
:10150000124908701948C0F800A01248C0F80080BD
:1015100007484068A0EB080919480068814502D9CE
:101520001748C0F8009000BF36E700000060024096
:10153000001000E09C00002058000020400F002018
:101540007000002000080020000400205900002046
:1015500024000020600000205000002054000020E3
:10156000A000002044020020440600205C0000206F
:1015700044260020640000206C0000206800002049
:10158000740000200246094B9A4201D2084801E04B
:101590000648103801F000531BB1064B0B40C360E6
:1015A00002E0044B0B40836070470000106402406F
:1015B000006002407D0F7D0F21B1026842F0010200
:1015C000026003E0026822F001020260704700003E
:1015D000016821F00101016000210160416081602A
:1015E000C1600161212141614A49884204D13D2104
:1015F000484A103A91608CE046491831884205D13A
:101600004FF47461434A103A916082E041493031AD
:10161000884205D14FF474113E4A103A916078E047
:101620003C494831884205D14FF07461394A103A3B
:1016300091606EE037496031884204D13649354ABD
:10164000103AD16065E033497831884204D133499A
:10165000304A103AD1605CE02E499031884204D182
:101660002F492C4A103AD16053E02A49A8318842C8
:1016700005D14FF03D51274A103AD16049E0294940
:10168000884204D13D21274A083A116041E02549AA
:101690001831884205D14FF47461224A083A11602A
:1016A00037E020493031884205D14FF474111D4A8A
:1016B000083A11602DE01B494831884205D14FF0AE
:1016C0007461184A083A116023E016496031884273
:1016D00004D11149134A121F11601AE011497831DF
:1016E000884204D10D490F4A121F116011E00D49C3
:1016F0009031884204D10A490A4A121F116008E059
:101700000849A831884204D14FF03D51054A121FC3
:1017100011607047106002403D000020400F002023
:1017200000003D2010640240014600200A6802F0DB
:1017300001020AB1012000E000207047014648681C
:1017400080B2704710B501F080034BB122B14369FC
:1017500043F08003436103E0436923F08003436166
:1017600080290BD02AB1036801F01E0423430360D3
:1017700004E0036801F01E04A343036010BD0000F1
:1017800010B500220268134B1A40CC680B68234343
:101790004C6923438C692343CC6923430C6A23435C
:1017A0004C6A23438C6A23434C6B23438C6B234347
:1017B0001A430260426922F00702D1E90B34234345
:1017C0001A4342610B6943604B6883608B68C36056
:1017D00010BD00003F801CF000B591B0012148050C
:1017E00003F08AFE2A48FFF7F3FE02A800F06AF829
:1017F0004FF0006002902748039027480490002093
:1018000005904FF480600690089080100B90400285
:101810000C9002A91E48FFF7B3FF01229E211C482D
:10182000FFF790FF10208DF8040000208DF80500D0
:101830008DF8060001208DF8070001A803F0A2FD35
:101840001648006840F08070144908601448006829
:1018500040F0010012490860002012490860124956
:101860000860124908701249087000F07CFF1149A5
:1018700008600B4840681049086010490448FFF7A9
:1018800081FE01210248FFF797FE11B000BD000064
:10189000886002400444004044020020FCED00E067
:1018A000001000E0540000205000002059000020EB
:1018B000580000205C00002060000020400F002045
:1018C000416070470021016041608160C160016139
:1018D00041618161C161016241628162C1620163F2
:1018E000416381637047704770B504460D46002020
:1018F0000B4908600B49086068210B48FEF70DFD95
:101900000A48046000F02FFF094908606021094877
:10191000FEF703FD40210848FEF7FFFC70BD000004
:10192000CC000020C8000020CC270020C4000020EC
:10193000C000002074290020D429002030B50246C0
:101940000B464FF6FF7017E012F8015B80EA0520A6
:1019500000210FE000F400442CB141F2210484EA9C
:101960004004A4B203E04FF6FF7404EA40042046AA
:101970004C1CE1B20829EDDB1C1EA3F10105ABB242
:10198000E2D130BD10B5B0B0044656A12046FEF7F6
:10199000E0FC78B90120032154A35AA2CDE900103C
:1019A0005D4902A804F0DEFF02A803F053FF012006
:1019B00030B010BD59A12046FEF7CBFC78B959488C
:1019C0000078032804D058A000F0C4FC0120EFE701
:1019D00000F0FEF857A003F03DFF0120E8E70822E1
:1019E00057A12046FEF7C3FC20BB2FA904F1080035
:1019F00007F0A4F908B12F9820B954A000F0AAFC70
:101A00000120D5E7FFF7DEF854492F98086007F06A
:101A100083F9002052490860524908705249087001
:101A200052A102A82F9A04F09DFF02A803F012FF12
:101A30000120BDE7052252A12046FEF798FC10BB0D
:101A40002FA9601D07F07AF910B12F98032804D947
:101A50004DA000F07FFC0120AAE7FFF7B3F8314961
:101A60002F98087007F058F900203F4908703D4949
:101A7000087048A102A82F9A04F074FF02A803F08E
:101A8000E9FE012094E7052246A12046FEF76FFCFF
:101A900030BB2FA9601D07F051F938B12F9828B13C
:101AA0002F980A2802D82F48007820B13FA000F0D4
:101AB00051FC01207CE740492F98087000202A49FA
:101AC00008703E480068401C3C4908603CA102A8E0
:101AD0002F9A04F047FF02A803F0BCFE012067E73D
:101AE000002065E7696E666F000000007368613270
:101AF00035362D3630656639323563383434303317
:101B000035323000726332362D6D61736B33312D97
:101B100076322E3100000000B49A000867657463C5
:101B2000666700007C000020455252206D6F64659E
:101B30000D0A00004F4B206765746366670D0A004D
:101B400073657373696F6E20000000004552522068
:101B500073657373696F6E0D0A00000084000020C6
:101B6000A8000020D8000020D70000204F4B207391
:101B7000657373696F6E20256C750D0A0000000097
:101B800074656C65200000004552522074656C65D8
:101B90000D0A00004F4B2074656C6520256C750D97
:101BA0000A00000072617465200000004552522056
:101BB000726174650D0A00007D0000208000002025
:101BC0004F4B207261746520256C750D0A00000072
:101BD00038B5002408E00B4800EB84026946204633
:101BE00004F0FAFB601CC4B2102CF4DB012006499F
:101BF000087000200549087005480068401C044929
:101C0000086038BD34280020D8000020D90000200A
:101C1000DC00002070B52DED088B0446B0EE408A44
:101C20000E4615469FED640AF0EE408A00203070A3
:101C300028701A2C0DDA9FED610AB4EEC08AF1EE1D
:101C400010FA06D89FED5E0AB4EEC08AF1EE10FAE3
:101C500003DA0020BDEC088B70BD022C16D1B5EE66
:101C6000C08AF1EE10FA0FD3B2EE020AB4EEC08AC7
:101C7000F1EE10FA08DCBDEEC80AB8EEC00AB4EE08
:101C8000408AF1EE10FA01D00020E3E7142C0DD1C8
:101C9000B5EEC08AF1EE10FA08D0B7EE000AB4EE45
:101CA000408AF1EE10FA01D00020D3E71CB99FED75
:101CB000450AF0EE408A032C05D0052C03D0072CF2
:101CC00001D0082C03D1B3EE0E0AF0EE408A042CAA
:101CD00001D0062C03D19FED3C0AF0EE408AF5EED0
:101CE000C08AF1EE10FA08D1122C06D0B5EEC08AE7
:101CF000F1EE10FA01D20020ACE701203070F5EED1
:101D0000C08AF1EE10FA14D0B4EEE88AF1EE10FABF
:101D100002DDB0EE688A2870B1EE680AB4EEC08ABF
:101D2000F1EE10FA05D2B1EE680AB0EE408A012059
:101D30002870264830F8140000EE100AB8EE400A69
:101D400020EE089A9FED220AB4EEC09AF1EE10FA46
:101D500004DD0120287047F6FF707BE79FED1D0A28
:101D6000B4EEC09AF1EE10FA03D2012028701A489E
:101D700070E719EE100AFEF776FC41EC1B0BB5EE8E
:101D8000C09AF1EE10FA02DB9FED141B01E09FED0B
:101D9000151BB0EE410AF0EE610A53EC102B51EC2A
:101DA0001B0BFEF72BFB41EC1A0B51EC1A0BFEF749
:101DB0003BFC00B24EE7000000000000FFFF7F7F09
:101DC000FFFF7FFF000016440060EA46D490000841
:101DD00000FEFF46000000C70080FFFF000000007B
:101DE0000000E03F000000000000E0BF1A281BDAFE
:101DF0000E4A02EB800282ED000A012282400C4B67
:101E00001B681A430A4B1A6039B101228240094B00
:101E10001B681A43074B1A6006E001228240054BFB
:101E20001B689343034A136070470000CC270020CF
:101E3000CC000020C800002070B504460D46102DCF
:101E40001CDB2078AA2819D16078552816D1A078F3
:101E5000022813D10A4801680068401C084B18602A
:101E6000A01D06F0ABFF281F81B2A01CFFF766FD86
:101E700006466119881E314606F09CFF70BD0000C1
:101E8000A800002070B505460E462C461E48854227
:101E90000FD1D4ED000AB0EE600A31460320FFF7FF
:101EA000A5FFD4ED010AB0EE600A31460420FFF729
:101EB0009DFF164885420FD1D4ED000AB0EE600AAE
:101EC00031460520FFF792FFD4ED010AB0EE600A1B
:101ED00031460620FFF78AFF0D48854207D1D4ED31
:101EE000000AB0EE600A31460720FFF77FFF09487D
:101EF000854207D1D4ED000AB0EE600A31460820D1
:101F0000FFF774FF70BD0000580100207001002031
:101F1000780100208001002030B50446F0EE400A30
:101F20000D462946B0EE600A2046FFF75FFF01200C
:101F3000A0400349096881430148016030BD0000A9
:101F4000CC00002008B50121102003F0E5FA0020A4
:101F5000104908805320088540F2E730C86201200C
:101F60008882002008820C49086001200949888184
:101F700036208DF8000000208DF8010001208DF83A
:101F800002008DF80300684603F0FCF901200149C6
:101F9000088008BD00100040A40000202DE9F04199
:101FA00005460E46174637480068401C354908600C
:101FB000804635480078032802D13448006808B9C3
:101FC000BDE8F0813248006832490968401A40286B
:101FD00005D331480068401C2F490860F0E72C48C1
:101FE000006800F03F0000EBC0002C4901EB8004CA
:101FF000C4F800802A480068606000F0B4FBA0606C
:10200000A5814FF08040406BE081264890ED000AAA
:1020100084ED040A244890ED000A84ED050A234863
:1020200090ED000A84ED060A214890ED000A84ED47
:10203000070A0EB1012000E000200FB1022100E0EC
:10204000002108431B49097809B1042100E000215F
:1020500008431949097809B1082100E00021084323
:102060001649098809B1102100E0002108432062C7
:10207000BFF35F8F06480068401C0549086000BF39
:102080009EE70000F00000207C000020840000207B
:10209000E8000020EC000020F4000020142A0020BA
:1020A00080000020DC010020D4010020E00000209E
:1020B000E4000020B2010020B3010020D80100207C
:1020C00070B52DED028B05460C46B0EE408A1448E3
:1020D000007818B9FEF7A8FD022803DA0020BDEC4D
:1020E000028B70BD0F480078032808D1D4ED000A98
:1020F000B0EE600AF0EE480A284605F0DBFD04F079
:1021000049FC064672B684ED008A07480068401C08
:1021100005490860304604F0A1FC0120DFE700001B
:10212000D80000207C000020800000202DE9F04332
:10213000A1B000F011FB05468024FEF765FF00F01A
:10214000A7FB10B921B0BDE8F08305F035FB06F020
:10215000FBFC284605F018FE5E48007803282CD1C9
:10216000FEF762FD032828DB5B4800785B490978AD
:1021700088420ED05948027859A101A804F0F2FB18
:1021800001A9032006F05AFE54480078524908700D
:1021900013E0594800685949096888420DD05748EA
:1021A000026857A101A804F0DDFB01A9042006F094
:1021B00045FE5248006850490860464800780328A8
:1021C0000BD154480068281A4449097809B1C8213C
:1021D00001E04FF47A71884200D2B3E74D480560C0
:1021E00004F0D8FB814672B64B48D0F800804B48CB
:1021F0000768484604F032FC3848007808B144F0DB
:1022000001044748007810B14648007808B944F006
:1022100002043A48006808B144F0040442480078D7
:1022200008B144F0080444F010040FB144F0200455
:102230003B48007808B144F04004119517B1A5EB74
:10224000080000E0002012903548007818B13748A7
:102250000068281A00E000201390149734480068A2
:10226000159034480068169033480068179033483A
:10227000006818903248C06A19903148006B1A9073
:102280001E4800681B902F4800681C902E4800686C
:102290001D902E4800681E901F9400202090502111
:1022A000022005F051FD002609E011AA52F826107F
:1022B000274A02EB860006F081FD701CC6B2102E84
:1022C000F3DB0122502122480E38FEF7E5FC00BF67
:1022D00038E700007C00002000010020B30100204E
:1022E0006D6F746F725F73746F705F6C617463682D
:1022F00065643D25750000000401002010010020E8
:1023000074785F64726F705F746F74616C3D256C7C
:1023100075000000D00000208C0000208800002004
:10232000D5000020D6000020D8000020B8000020F2
:10233000AC000020980000209C000020A00000209D
:1023400090BF0020BC00002068000020800000201A
:102350008228002010B5044607480078032807D1DA
:10236000FEF762FC022803DB2146022006F066FD30
:10237000204603F06FFA10BD7C0000202DE9FF4FCE
:1023800089B006468B46994600F0EDF9074600F005
:10239000E3F9824600200890D1480568D148D0F87A
:1023A000008000200690D0480068401CCE4908609C
:1023B000CE4880F80090CE48007870B1CD480068D3
:1023C000AAEB0000CC49884207D2CC480068381AF2
:1023D000069045F0804548F08048C8480760C548E9
:1023E000C0F800A00120C2490870B9F1000F05D063
:1023F000C348C0F800A00120C2490870C248006864
:10240000381AC2490968884204D9BF480068381A96
:10241000BE490860092E01DC01200FE00B2E01D11E
:1024200005200BE00C2E08D1B9480068B0F5D76F35
:1024300001D1032002E0042000E002200390B44810
:10244000006800EE900AF8EE600AB0EE600A012122
:102450000846FFF7CBFC092E10DCAE48D0ED0B0A86
:10246000B0EE600A01210020FFF7C0FC012100EE60
:10247000106AB8EE400A0220FFF7B8FC04F08AFAAE
:10248000079072B60121A44890ED000A1220FFF7D0
:10249000ADFC0121A14890ED000A1320FFF7A6FC36
:1024A0009F48007808B1032005E09E48007808B1F5
:1024B000022000E001200290079804F0CFFA9A4829
:1024C00090ED000A994880ED030A974890ED010AC3
:1024D000964880ED040A964890ED000A934880EDF6
:1024E000050A934890ED010A904880ED060A91484C
:1024F00090ED000A8D4880ED070A8F4890ED000AA4
:102500008A4880ED080A76480068054375480068E7
:1025100048EA000845F0405548F04058BBF1000F2C
:1025200003D045F0406548F040680398022803D185
:1025300082480068401C00E0002080490860804814
:102540000078401CC0B27E4908707E4909788842F4
:1025500002DA0DB0BDE8F08F0020794908707A48A2
:102560000078022800DAF4E76C21012005F0ECFB8A
:1025700000242FE06D4800EB8400D0ED000AB0EE9F
:10258000600A04AA05A92046FFF744FB01909DF8C4
:10259000140010B90120A04085439DF8100040B1FF
:1025A0000120A040284020B10120A0400899084304
:1025B00008900122A2402A4012B1019A92B200E092
:1025C00000221146614A022303FB042006F0F2FBBD
:1025D000601CC4B21A2CCDDB5B480078022827D1DE
:1025E0000020009034225949A1F10A00FDF76EFE47
:1025F000012056490E3988703B480078C870042481
:1026000008E052480E38015D00980844C0B20090BE
:10261000601CC4B2382CF4DB4C490E39009881F8A8
:1026200038000022392149480E38FEF735FB90E783
:102630002D4801684548343006F0C0FB4448016825
:102640004248383006F0BAFB514640483C3006F06C
:10265000B5FB3E484030069906F0B0FB29463B48A2
:10266000443006F0ABFB41463848483006F0A6FB44
:1026700036484C30089906F0A1FB34490E390398CE
:1026800081F85E00029881F85F00032081F8600005
:1026900081F861002F4801682C48543006F08EFB09
:1026A00059462A48583006F085FBBBF1000F01D08F
:1026B0000B9800E00020014624485A3006F07AFBCF
:1026C00000226C2121480E38FEF7E6FA0E4909680F
:1026D000781A4A46039905F089FA00BF39E70000E5
:1026E000C8000020CC000020AC000020D600002054
:1026F000D4000020B400002037894100B000002041
:10270000B8000020D5000020C0000020BC00002040
:1027100034040040E8BE0020DC010020E00100207D
:10272000B3010020B201002058010020CC27002076
:10273000700100207801002080010020F8000020B6
:10274000D70000207D0000207C000020822800208F
:10275000C4000020800000201CB5694601A805F0D7
:102760000BF801981CBD1CB5694601A805F004F8DA
:10277000019800EB4001C1EBC010BDF8001001EB67
:10278000C0001CBD10B503F0A3FA10BDF0B50A4699
:1027900000210023002400BF3DE0012505FA01F3DC
:1027A000156805EA03049C4234D105684F000326EE
:1027B000BE40B543056015794E00B5400668354307
:1027C00005601579012D02D01579022D16D1856885
:1027D0004F000326BE40B543856055794E00B54095
:1027E000866835438560456801268E40B54345605F
:1027F000456896798E40B6B235434560C5684F004E
:102800000326BE40B543C560D5794E00B540C668C5
:102810003543C560491C1029BFD3F0BDF0B5002376
:1028200000244D07ED0E02FA05F3CE1000F120054D
:1028300055F826504E07F70E0F26BE40B543CF1071
:1028400000F1200646F82750CE1000F1200555F87B
:10285000265045EA0304CE1000F1200545F8264035
:10286000F0BD0246002013690B400BB1012000E0CF
:102870000020704741837047018370474FF6FF7116
:1028800001600021017141718171C17170470000C7
:1028900001480078704700007800002070B52DEDE9
:1028A000048B304803F062FB86B22F480088301A50
:1028B0002E4908802C48068008460088B0F5004F55
:1028C00002DA0846008803E028480088A0F5803036
:1028D00005B200EE105AB8EEC00A254880ED000A95
:1028E000002415E02349601C31F8100021F8140081
:1028F000084630F9140000EE100AB8EEC00A1C4871
:10290000D0ED000A30EE200A80ED000A601C84B28F
:10291000042CE7DB174820F81450154890ED000A06
:10292000F1EE040A80EE201A80ED001A90ED000A04
:10293000DFED110A20EE200A10EE101A0846FDF70E
:1029400092FE41EC190B9FED0D0B53EC102BFDF794
:10295000FCFD41EC180BFDF7C9FE0A490860BDEC0F
:10296000048B70BD00080040EC010020E80100204D
:10297000E401002084BF00200000C84200000000E5
:1029800000307140DC01002000BFFEE72DE9F0417E
:102990002DED0C8B05460E4600279FED770AB0EE15
:1029A000409A9FED760AF0EE409A9FED750AB0EEE0
:1029B00040AA002438E005EBC40090ED000ADFEDEA
:1029C0006E0AB4EEE00AF1EE10FA20D805EBC4006E
:1029D00090ED000ADFED690AB4EEE00AF1EE10FABC
:1029E00015DB05EBC40090ED010ADFED630AB4EEE0
:1029F000E00AF1EE10FA0AD805EBC40090ED010AE6
:102A0000DFED5E0AB4EEE00AF1EE10FA00DA09E05A
:102A10003846791C8FB205EBC00005EBC40206CA2C
:102A200006C000BF601C84B2B442C4DB3E46032E25
:102A300004DA3046BDEC0C8BBDE8F08100241FE0C9
:102A400005EBC40090ED000AB4EEC90AF1EE10FAED
:102A500005D205EBC40090ED000AB0EE409A05EBFC
:102A6000C40090ED000AB4EEE90AF1EE10FA05DDBB
:102A700005EBC40090ED000AF0EE409A601C84B2B1
:102A8000B442DDDB39EEC90AF1EE040A60EE200A39
:102A900000EE106AB8EE400A80EE808AB3EE040AB7
:102AA000B4EEC08AF1EE10FA03D2B3EE040AB0EE2F
:102AB000408A002400275BE005EBC400D0ED008ACB
:102AC000ECB3601CB04246D018EE100AFDF7CBFD07
:102AD00041EC1B0B38EECA0A10EE101A0846FDF73F
:102AE000C2FD41EC1D0BB0EE4D0AF0EE6D0A03F095
:102AF00054FFB0EE40CAF0EE60CA53EC1B2B51EC11
:102B00001C0BFDF7C3FD26D918EE100AFDF7ABFD2F
:102B100041EC1B0B601C05EBC00090ED000A38EE89
:102B2000C00A10EE101A0846FDF79DFD41EC1D0B82
:102B3000B0EE4D0AF0EE6D0A03F02FFF00E00AE060
:102B4000B0EE40CAF0EE60CA53EC1B2B51EC1C0BEC
:102B5000FDF79CFD08D83846791C8FB205EBC00004
:102B600005EBC40206CA06C0B0EE68AA601C84B2B7
:102B7000B442A1DB38465DE7FFFF7F7FFFFF7FFFA9
:102B80000000000030B503469FED2E0AB0EE402A4B
:102B90009FED2D0AB0EE401A9FED2C0AF0EE401A80
:102BA00000242B4D2C708A4205DD541A022C02DBC6
:102BB000B2F5C87F02DD9FED250A30BD084628E04A
:102BC00003EBC004D4ED000A9FED1E0AF4EEC00A28
:102BD000F1EE10FA06D89FED1C0AF4EEC00AF1EEF1
:102BE00010FA02DA9FED190AE7E7F4EEC20AF1EEF5
:102BF00010FA01D2B0EE602AF4EEC10AF1EE10FA3A
:102C000001DDB0EE601A31EEA00AF0EE401A441C6D
:102C1000A0B29042D4DB31EE420AF2EE042AB4EEC6
:102C2000E20AF1EE10FA0AD20124094D2C70541A6E
:102C300000EE104AF8EEC02A81EEA20ABDE79FED31
:102C4000030ABAE7FFFF7F7FFFFF7FFF000000005E
:102C5000540100202DE9F0412DED028B06460D4672
:102C60001746002438E005EBC40090ED000ADFEDC4
:102C70001D0A20EE200ADFED1C0A80EE201AB0EEBD
:102C8000418AB0EE480AFDF79BFA05EBC400D0ED8F
:102C9000010A20EE200A06EBC40080ED000A05EBD5
:102CA000C40090ED000ADFED0F0A20EE200ADFEDF0
:102CB0000E0A80EE201AB0EE418AB0EE480AFDF707
:102CC000BBFA05EBC400D0ED010A20EE200A06EBAA
:102CD000C40080ED010A641CBC42C4DBBDEC028B65
:102CE000BDE8F081DB0F4940000034432DE9F04797
:102CF0002DED0C8B81460C46924600269FEDC40AB2
:102D0000C44880ED000A9FEDC20AB0EE409A9FEDE4
:102D1000C20AF0EE409A4BE14FF0FF308046074682
:102D20009FEDBE0AB0EE40DAF0EE40AA0025A7E023
:102D300004EBC50090ED010ADFEDB90AB4EEE00A3C
:102D4000F1EE10FA0AD304EBC50090ED010ADFEDB5
:102D5000B50AB4EEE00AF1EE10FA00DD8EE004EB05
:102D6000C50090ED000A30EE490A10EE101A084630
:102D7000FDF779FC41EC1C0BB0EE4C0AF0EE6C0A4E
:102D800003F00BFEB0EE40BAF0EE60BA51EC1B0B54
:102D9000FDF7ACFC08EE100A9FED9F0AB4EEC08A66
:102DA000F1EE10FA05DD9FEDA00A30EE480AB0EE14
:102DB000408A18EE100AFDF756FC41EC1B0B9FED04
:102DC0009B0B53EC102BFDF761FC0FD804EBC500F7
:102DD00090ED010AB4EEEA0AF1EE10FA06D22F469F
:102DE00004EBC50090ED010AF0EE40AA04EBC5002B
:102DF00090ED000A30EE690A10EE101A0846FDF751
:102E000032FC41EC1C0BB0EE4C0AF0EE6C0A03F005
:102E1000C4FDB0EE40BAF0EE60BA51EC1B0BFDF70A
:102E200065FC08EE100A9FED7C0AB4EEC08AF1EE54
:102E300010FA05DD9FED7C0A30EE480AB0EE408ABC
:102E400018EE100AFDF70FFC41EC1B0B9FED770B02
:102E500053EC102BFDF71AFC0FD804EBC50090EDD6
:102E6000010AB4EECD0AF1EE10FA06D2A84604EB40
:102E7000C50090ED010AB0EE40DA00BF681C85B2D3
:102E80005545FFF655AF002F02DBB8F1000F00DA11
:102E900082E004EBC70090ED000ADFED660A20EE49
:102EA000200ADFED5D0A80EE201AB0EE41BAB0EEE6
:102EB0004B0AFDF785F904EBC700D0ED010A60EE7F
:102EC00020BA04EBC80090ED000ADFED5A0A20EEAC
:102ED000200ADFED510A80EE201AB0EE41BAB0EEC2
:102EE0004B0AFDF76DF904EBC800D0ED010A40EE86
:102EF00080BAB0EE000A8BEE80AA04EBC70090ED1A
:102F0000000ADFED4C0A20EE200ADFED430A80EED6
:102F1000201AB0EE41BAB0EE4B0AFDF78DF904EB82
:102F2000C700D0ED010A60EE20BA04EBC80090EDB6
:102F3000000ADFED400A20EE200ADFED370A80EEBE
:102F4000201AB0EE41BAB0EE4B0AFDF775F904EB6A
:102F5000C800D0ED010A40EE80BAB0EE000ACBEE18
:102F6000808AF5EEC08AF1EE10FA14DB9FED320A8A
:102F7000F4EEC08AF1EE10FA0DD8B6F5C87F0ADA81
:102F800009EBC60080ED00AA3046711C8EB209EB39
:102F9000C000C0ED018A00BF9FED280A39EE000A8B
:102FA000B0EE409A9FED250A39EEC00AF0EE409A45
:102FB0009FED230AB4EEC09AF1EE10FA7FF6ACAEA4
:102FC00031464846FFF7E2FC064600250CE009EBD7
:102FD000C50090ED000A0F48D0ED000A30EE200A3F
:102FE00080ED000A681C85B2B542F0DB56B1094895
:102FF000D0ED000A00EE106AB8EE400A80EE801AAA
:1030000080ED001A3046BDEC0C8BBDE8F087000067
:10301000000000003C010020000034430020FA447E
:103020000000C8420000FA440000B4430000000061
:103030000000E03FDB0F4940000048449A99193FE7
:10304000000096422DE9F04F2DED0E8B83B0054622
:103050000E4690460027002002909FEDFE0AB0EE3B
:10306000408A824683469FEDFC0AF0EE408A9FED3F
:10307000FA0AF0EE40AA9FEDF80AB0EE409A9FEDF2
:10308000F70AF0EE409A9FEDF50AB0EE40DA9FEDB8
:10309000F30AB0EE40AA9FEDF20AF0EE40DAB8F182
:1030A000020F02DBB8F5487F05DD002003B0BDEC60
:1030B0000E8BBDE8F08F002468E006EBC40090EDB5
:1030C000000ADFEDE80A30EE600A10EE101A08463A
:1030D000FDF7C9FA41EC1C0BB0EE4C0AF0EE6C0A9D
:1030E00003F05BFCB0EE40BAF0EE60BA9FEDDE0B91
:1030F00053EC102B51EC1B0BFDF7C8FA19D806EB5B
:10310000C40090ED010ADFEDDA0AB4EEE00AF1EE58
:1031100010FA0EDD06EBC40090ED010ADFEDCF0AD8
:10312000B4EEE00AF1EE10FA03D80AF101001FFA3A
:1031300080FA06EBC40090ED000ADFEDCA0A30EE1B
:10314000600AB0EEC00AF1EE000AB4EEE00AF1EE59
:1031500010FA19D806EBC40090ED010ADFEDC50A9C
:10316000B4EEE00AF1EE10FA0EDB06EBC40090EDCF
:10317000010ADFEDBF0AB4EEE00AF1EE10FA03D85F
:103180000BF101001FFA80FB601C84B2444594DB04
:10319000BAF10C0F04DBBBF1000F01D1002085E771
:1031A0009FEDB50AB0EE408A96E000248AE006EB77
:1031B000C40090ED000A30EE480A10EE101A0846DE
:1031C000FDF751FA41EC1C0BB0EE4C0AF0EE6C0A24
:1031D00003F0E3FBB0EE40BAF0EE60BA9FEDA70B50
:1031E00053EC102B51EC1B0BFDF750FA68D806EB93
:1031F000C40090ED000ADFEDA30A20EE200ADFED07
:10320000A20A80EE201AB0EE41BAB0EE4B0AFDF7EA
:1032100013F806EBC400D0ED010A20EE200ADFED22
:103220009B0AB4EEE00AF1EE10FA49D806EBC400AE
:1032300090ED010ADFED8F0AB4EEE00AF1EE10FA2C
:103240003EDBC82F01DB384630E706EBC40090EDCB
:10325000000ADFED8C0A20EE200ADFED8B0A80EEFB
:10326000201AB0EE41BAB0EE4B0AFCF7A9FF06EB0C
:10327000C400D0ED010A20EE200A05EBC70080ED66
:10328000000A06EBC40090ED000ADFED7E0A20EE96
:10329000200ADFED7D0A80EE201AB0EE41BAB0EED2
:1032A0004B0AFCF7C9FF06EBC400D0ED010A20EE83
:1032B000200A05EBC70080ED010A781C87B204E004
:1032C000601C84B24445FFF672AF00BFB7EE000A3F
:1032D00038EE000AB0EE408A9FED6D0AB4EEC08A67
:1032E000F1EE10FA7FF661AF062F01DA3846DDE61F
:1032F0007A1E6B460121284601F03EFF9DED000A33
:10330000B5EEC00AF1EE10FA03DD3946284605F0A5
:1033100061FD00241FE005EBC40090ED010AB4EE4E
:10332000E80AF1EE10FA05DD05EBC40090ED010AA4
:10333000F0EE408A05EBC40090ED010AB4EEE90A14
:10334000F1EE10FA05D205EBC40090ED010AF0EEA3
:10335000409A601C84B2BC42DDDB002431E005EB06
:10336000C40090ED010AB4EEEA0AF1EE10FA0EDDA7
:1033700005EBC40090ED010AB4EE680AF1EE10FA14
:1033800005D005EBC40090ED010AF0EE40AA05EB74
:10339000C40090ED010AB4EECD0AF1EE10FA0ED29F
:1033A00005EBC40090ED010AB4EE690AF1EE10FAE3
:1033B00005D005EBC40090ED010AB0EE40DA601CC8
:1033C00084B2BC42CBDB002443E005EBC40090EDAB
:1033D000010AB4EEC90AF1EE10FA17DD05EBC400DC
:1033E00090ED010AB4EE680AF1EE10FA0ED005EB8A
:1033F000C40090ED010AB4EE6A0AF1EE10FA05D0AD
:1034000005EBC40090ED010AB0EE409A05EBC40054
:1034100090ED010AB4EECA0AF1EE10FA17D205EBEC
:10342000C40090ED010AB4EE690AF1EE10FA0ED074
:1034300005EBC40090ED010AB4EE4D0AF1EE10FA6E
:1034400005D005EBC40090ED010AB0EE40AA601C67
:1034500084B21FE00000704200007AC500007A4587
:10346000000000000000B442000000000000104016
:103470000080BB440000C84200008C4200000000F5
:103480000000F03FDB0F4940000034430000FA44E5
:103490000000DC42BC4298DBB4EECA9AF1EE10FAAE
:1034A00001D8384602E679EE4A0A381F00EE100AC3
:1034B000B8EEC00A80EE801AF0EE41DA0024A14690
:1034C00043E0B1EE040A2DEE800A10EE101A084611
:1034D000FDF7C9F841EC1B0B05EBC40090ED010AA8
:1034E000601C05EBC000D0ED010A30EE600A10EE62
:1034F000101A0846FDF7B7F841EC1C0BB0EE4C0A69
:10350000F0EE6C0A03F049FAB0EE40EAF0EE60EA41
:1035100053EC1B2B51EC1E0BFDF7B8F813D805EB41
:10352000C40090ED000A05EBC90080ED000A05EB30
:10353000C40090ED010A05EBC90080ED010A09F114
:1035400001001FFA80F9601C84B2781EA042B8DC2A
:103550004846ABE52DE9F05F2DED0E8B80460D461C
:103560001746B0EE408AF0EE608A0026B146B246B9
:10357000B3469FED6B0AB0EE40BA9FED690AF0EEDC
:1035800040BA9FED670AB0EE40CA9FED660AF0EEC2
:1035900040CA9FED640AB0EE40DA9FED620AF0EE99
:1035A00040DA9FED610AB0EE40EA022F13DBB7F577
:1035B000487F10DCB5EEC08AF1EE10FA0BD39FED18
:1035C0005B0AF4EEC08AF1EE10FA04DCB4EEE88A8D
:1035D000F1EE10FA04DD0020BDEC0E8BBDE8F09F8B
:1035E00096E000248AE005EBC40090ED000A30EE7E
:1035F000480A10EE101A0846FDF735F841EC1A0B90
:10360000B0EE4A0AF0EE6A0A03F0C7F9B0EE409A4B
:10361000F0EE609A9FED460B53EC102B51EC190B1A
:10362000FDF734F868D805EBC40090ED000ADFED33
:10363000420A20EE200ADFED3D0A80EE201AB0EEAD
:10364000419AB0EE490AFCF7F7FD05EBC400D0ED56
:10365000010A20EE200ADFED390AB4EEE00AF1EEAD
:1036600010FA49D805EBC40090ED010ADFED340AE9
:10367000B4EEE00AF1EE10FA3EDBC82E01DB304674
:10368000AAE705EBC40090ED000ADFED2B0A20EE5F
:10369000200ADFED260A80EE201AB0EE419AB0EE45
:1036A000490AFCF78DFD05EBC400D0ED010A20EEC0
:1036B000200A08EBC60080ED000A05EBC40090ED7F
:1036C000000ADFED1D0A20EE200ADFED180A80EE69
:1036D000201AB0EE419AB0EE490AFCF7ADFD05EBB9
:1036E000C400D0ED010A20EE200A08EBC60080EDF0
:1036F000010A701C86B204E0601C84B2BC42FFF672
:1037000072AF00BFB7EE000A38EE000AB0EE408A92
:10371000B4EEE88AF1EE10FA7FF663AF30465BE76D
:1037200000007AC500007A45000000000000344324
:10373000000000000000F03FDB0F49400000FA44A9
:103740000000C84270B504460D46164601233246B5
:103750002946204603F038FF70BD70B504460D467B
:103760001646002332462946204603F02DFF70BD41
:103770002DE9F0472DED088B05460E4600249FED00
:10378000BC0AB0EE408A082E02DBB6F5C87F04DD25
:103790000020BDEC088BBDE8F087032462E14FF008
:1037A0000108A01E87B220E0781C05EBC000D0ED18
:1037B000000A05EBC70090ED001A70EEC10AF0EEAA
:1037C000E00AB0EE600AF5EE000AB4EEE00AF1EEAF
:1037D00010FA06D3F0EE000AB4EEE00AF1EE10FAA9
:1037E00001DD4FF00008781C87B2E01C8742DBDB6C
:1037F000B8F1000F00D133E105EBC40090ED000AF1
:10380000DFED9C0AB4EEE00AF1EE10FA7EDB601CFC
:1038100005EBC00090ED011AF0EE410A05EBC40083
:1038200090ED011AB0EE410A03F0E5F8F5EE000A5A
:1038300020EE200AF0EE408AF0EE680A9FED8E0A34
:1038400003F0B5F810EE109A4846FCF70CFF41EC77
:10385000190B05EBC40090ED010A601C05EBC000DC
:10386000D0ED010A30EE600A10EE101A0846FCF79F
:10387000FAFE41EC1B0BB0EE4B0AF0EE6B0A03F0C4
:103880008CF8B0EE40AAF0EE60AA53EC192B51EC84
:103890001A0BFCF713FF39D8601C05EBC00090ED44
:1038A000011AF0EE410A05EBC40090ED011AB0EEEA
:1038B000410A03F0A0F8F5EE000A20EE200AF0EE2F
:1038C000408AF0EE680A9FED6C0A03F070F810EE83
:1038D000109A4846FCF7C7FE41EC1A0B601E05EB38
:1038E000C00090ED010AA01C05EBC000D0ED010A5C
:1038F00030EE600A10EE101A0846FCF7B4FE41ECF8
:103900001B0BB0EE4B0AF0EE6B0A00E07DE003F01B
:1039100044F8B0EE409AF0EE609A53EC1A2B51EC5A
:10392000190BFCF7CBFE70D8601C05EBC00090EDC6
:10393000011AF0EE410A05EBC40090ED011AB0EE59
:10394000410A03F058F8F5EE000A20EE200AF0EEE6
:10395000408AF0EE680A9FED480A03F028F810EE5E
:10396000109A4846FCF77FFE41EC1A0BA01E05EBAF
:10397000C00090ED010AE01C05EBC000D0ED010A8B
:1039800030EE600A10EE101A0846FCF76CFE41ECAF
:103990001B0BB0EE4B0AF0EE6B0A02F0FEFFB0EE2E
:1039A000409AF0EE609A53EC1A2B51EC190BFCF78D
:1039B00085FE54D805EBC40090ED010AA01C05EB70
:1039C000C000D0ED010AB4EEE00AF1EE10FA1DDD00
:1039D000A01C05EBC00090ED000ADFED280A20EEE8
:1039E000200ADFED270A80EE201AF0EE418AB0EEC1
:1039F000680AFCF721FCA01C05EBC000D0ED010A11
:103A000020EE200AB0EE408A1CE028E0601E05EBA4
:103A1000C00090ED000ADFED190A20EE200ADFED6C
:103A2000180A80EE201AF0EE418AB0EE680AFCF720
:103A300003FC601E05EBC000D0ED010A20EE200A59
:103A4000B0EE408A9FED0F0AB4EEC08AF1EE10FA94
:103A500005D2BCEEC80A10EE100A80B299E600BF8B
:103A6000601C84B2201DB042FFF699AE002090E6A3
:103A7000000000000000C8420000C843DB0F4940BE
:103A80000000344300007A442DE9F0472DED088B07
:103A900005460E4600249FEDBD0AB0EE408A082E72
:103AA00002DBB6F5C87F04DD0020BDEC088BBDE865
:103AB000F087032463E14FF00108A01E87B220E0E5
:103AC000781C05EBC000D0ED000A05EBC70090EDB7
:103AD000001A70EEC10AF0EEE00AB0EE600AF5EEF0
:103AE000000AB4EEE00AF1EE10FA06D3F0EE000A96
:103AF000B4EEE00AF1EE10FA01DD4FF00008781C98
:103B000087B2E01C8742DBDBB8F1000F00D134E163
:103B100005EBC40090ED000ADFED9D0AB4EEE00A6B
:103B2000F1EE10FA7ED8601C05EBC00090ED011A92
:103B3000F0EE410A05EBC40090ED011AB0EE410A27
:103B400002F059FFF5EE000A20EE200AF0EE408A5E
:103B5000F0EE680A9FED8F0A02F029FF10EE109A2E
:103B60004846FCF780FD41EC1A0B05EBC40090EDD4
:103B7000010A601C05EBC000D0ED010A30EE600ABE
:103B800010EE101A0846FCF76EFD41EC1B0BB0EE70
:103B90004B0AF0EE6B0A02F000FFB0EE409AF0EE36
:103BA000609A53EC1A2B51EC190BFCF787FD39D8AE
:103BB000601C05EBC00090ED011AF0EE410A05EB28
:103BC000C40090ED011AB0EE410A02F014FFF5EEC8
:103BD000000A20EE200AF0EE408AF0EE680A9FED1F
:103BE0006D0A02F0E4FE10EE109A4846FCF73BFD29
:103BF00041EC190B601E05EBC00090ED010AA01C02
:103C000005EBC000D0ED010A30EE600A10EE101A8C
:103C10000846FCF728FD41EC1B0BB0EE4B0AF0EE1A
:103C20006B0A00E07EE002F0B8FEB0EE40AAF0EED3
:103C300060AA53EC192B51EC1A0BFCF73FFD71D81D
:103C4000601C05EBC00090ED011AF0EE410A05EB97
:103C5000C40090ED011AB0EE410A02F0CCFEF5EE80
:103C6000000A20EE200AF0EE408AF0EE680A9FED8E
:103C7000490A02F09CFE10EE109A4846FCF7F3FC4D
:103C800041EC190BA01E05EBC00090ED010AE01CF1
:103C900005EBC000D0ED010A30EE600A10EE101AFC
:103CA0000846FCF7E0FC41EC1B0BB0EE4B0AF0EED3
:103CB0006B0A02F072FEB0EE40AAF0EE60AA53EC7E
:103CC000192B51EC1A0BFCF7F9FC55D8601E05EBCB
:103CD000C00090ED010AA01C05EBC000D0ED010A68
:103CE000B4EEE00AF1EE10FA1DDDA01C05EBC000F9
:103CF00090ED000ADFED280A20EE200ADFED270A0A
:103D000080EE201AF0EE418AB0EE680AFCF794FAD1
:103D1000A01C05EBC000D0ED010A20EE200AB0EE99
:103D2000408A1CE028E0601E05EBC00090ED000A10
:103D3000DFED190A20EE200ADFED180A80EE201AC6
:103D4000F0EE418AB0EE680AFCF776FA601E05EBE9
:103D5000C000D0ED010A20EE200AB0EE408A9FEDAF
:103D6000100AB4EEC08AF1EE10FA05D2BCEEC80A11
:103D700010EE100A80B298E600BF601C84B2201DCD
:103D8000B042FFF698AE00208FE600000000000071
:103D90000000A0420000C843DB0F4940000034434C
:103DA00000007A442DE9F0412DED0E8B04460F46BC
:103DB0009FED700AB0EE40EA9FED6E0AF0EE40AA69
:103DC0009FED6C0AF0EE409A9FED6A0AB0EE409AC1
:103DD0009FED680AF0EE408A9FED660AF0EE40EA39
:103DE0000025BEE004EBC50090ED000ADFED620A9D
:103DF000B4EEE00AF1EE10FA70DB04EBC50090EDD2
:103E0000000ADFED5E0AB4EEE00AF1EE10FA65D8C2
:103E100004EBC500D0ED00DA9FED590A3DEE800AB3
:103E2000B0EE40AA9FED570AB4EEC0AAF1EE10FA28
:103E300005DB9FED540A3AEE400AB0EE40AA002698
:103E40008AE004EBC60090ED000A30EE4A0A10EE5C
:103E5000101A0846FCF707FC41EC1C0BB0EE4C0AAC
:103E6000F0EE6C0A02F099FDB0EE40BAF0EE60BAE6
:103E700051EC1B0BFCF73AFC0DEE100A9FED400ACB
:103E8000B4EEC0DAF1EE10FA05DD9FED3E0A30EE39
:103E90004D0AB0EE40DAB7EE000AB4EEC0DAF1EE49
:103EA00010FA57D804EBC50090ED010A04EBC600E8
:103EB000D0ED010A30EE208AB4EECE8AF1EE10FA8F
:103EC0000DD8F0EE68EAF0EE498AB0EE699AF0EEAD
:103ED0006A9AF0EE4EAAB0EE48EA3BE03FE0B4EE5C
:103EE000EA8AF1EE10FA0AD8F0EE68EAF0EE498AB2
:103EF000B0EE699AF0EE6A9AF0EE48AA2AE0B4EEC3
:103F0000E98AF1EE10FA08D8F0EE68EAF0EE498A94
:103F1000B0EE699AF0EE489A1CE0B4EEC98AF1EE70
:103F200010FA06D8F0EE68EAF0EE498AB0EE489A48
:103F300010E0B4EEE88AF1EE10FA04D8F0EE68EA88
:103F4000F0EE488A06E0B4EEEE8AF1EE10FA01D8FF
:103F5000F0EE48EA701C86B2BE42FFF672AF681CF3
:103F600085B2BD42FFF63EAFB0EE6E0ABDEC0E8BE1
:103F7000BDE8F08100409C4500001643000052431C
:103F8000000034430000B4430548007838B90548C0
:103F90000068401C0349086001200149087070470F
:103FA00058000020640000202DE9F04107460D462E
:103FB00016461C4804681C48D0F800801B4800784E
:103FC00030B9B5F5007F03D319480068844202D1A7
:103FD0000020BDE8F081BFF35F8F04F00F0000EB1D
:103FE0004000144901EB800207CA86E8070004F08C
:103FF0000F00114A02EB40214FF400723846FCF7E3
:1040000065F9BFF35F8F601C0649086007480078B8
:1040100030B905480068804502D14FF40070D8E7F8
:104020000020D6E754000020640000205800002043
:1040300050000020442600204406002070B51E4891
:10404000007800B970BD00211C48FDF7B5FA1B4887
:10405000FDF76AFB00B1F5E700BFEFF310800446FF
:1040600000BF72B6164800681649086016480588F1
:10407000001D058815491148FDF784FA4FF4806149
:104080000E48FDF71DFC002011490870FEF76BFB80
:10409000104908601048406810490860002006492F
:1040A000087001210548FDF787FA00BF84F31088E6
:1040B00000BF00BFC6E70000580000208860024033
:1040C000500000205400002000440040400F002019
:1040D000590000205C000020001000E0600000207B
:1040E00010B54FF0FF3200211EE02148405C02284D
:1040F00019D1002A16DB01EBC10000EB01301D4B8A
:1041000003EB800000F58040036802EBC20000EB87
:104110000230184C04EB800000F580400068181A4B
:10412000002800DD0A46491C0229DEDB002A01DAEC
:10413000002010BD00210EE091420BD00C48405CE5
:10414000022807D100200A4B58540B48006B401C32
:10415000094B1863491C0229EEDB0320044B9854D9
:1041600002EBC20000EB0230024B03EB8000E0E701
:10417000F0010020C8BF002090BF0020024642F29C
:104180002830801A014648F6A04091FBF0F300FB6E
:104190001311002900DA014488B270472DE9F04775
:1041A0002DED048B05468846914600270020924954
:1041B000088092490880924908809FED920A9248AF
:1041C00080ED000A0020914908709FED910A914806
:1041D00080ED000A4FF4804040598F49086044F256
:1041E000100040598D49086044F2140040598C4930
:1041F00008608C49284600F0E3F900244EE0894825
:1042000030F814004FF6FF71884245D0854830F8E9
:10421000140005EBC0063088FFF7B0FF00EE100A6F
:10422000B8EE400ADFED800A80EE201AB0EE418A37
:104230004F4504DB0020BDEC048BBDE8F08708EBA4
:10424000C70080ED008A708800EE100AB8EE400AC0
:104250003846791C8FB208EBC00080ED010A8C2C27
:1042600006DBDC2C04DC66480088401C64490880BE
:10427000DC2C07DBB4F5AA7F04DC60480088401C16
:104280005E490880142C06DB8C2C04DC5A4800881C
:10429000401C5949088000BF601C84B2B4F5347FCB
:1042A000ADD3002445E005EBC406708820B17088CA
:1042B00042F21071884200D939E03088FFF75EFF82
:1042C00000EE100AB8EE400ADFED580A60EE208AD0
:1042D000B0EE680AFBF774FF708800EE900AF8EE03
:1042E000600A20EE209AB0EE680AFBF7A5FF7088FE
:1042F00000EE900AF8EE600A20EE208AB5EEC08A41
:10430000F1EE10FA12DDB0EEC90ADFED490AB4EEA3
:10431000E00AF1EE10FA09D23B4890ED000AB4EE43
:10432000C08AF1EE10FA01D280ED008A00BF601C55
:1043300084B244F21800405BA042B4DC44F2200096
:10434000405D38B32E480088282823DB2B4800889E
:1043500010281FDB2848008810281BDB44F21400BB
:10436000405934490968884214D1FEF7FCF944F2F7
:1043700010014959401A304988420BD8224890ED23
:10438000000ADFED2E0AB4EEE00AF1EE10FA01DDCC
:10439000012000E000201D4908700846007840B365
:1043A000194890ED000ADFED250A30EE600ADFEDD6
:1043B000240A80EE201A174880ED001A90ED000ABA
:1043C000F7EE000AB4EEE00AF1EE10FA03DDB7EE04
:1043D000000A80ED000A0F4890ED000AF5EE000A91
:1043E000B4EEE00AF1EE10FA03D2B5EE000A80ED69
:1043F000000A38461FE700002402002022020020A5
:104400002002002000401C4628020020300200202C
:10441000000000002C0200201402002018020020DE
:104420001C020020B04001200000C842D4023739ED
:104430000000344364000020F04902000000AF4354
:10444000008022442DE9F05F06460F4691469A46C9
:10445000564800683844554908600025A0E04FF0F0
:1044600000085348008830B9705DA52800D096E058
:104470005048C0F80090715D4D4802880088401C8B
:104480004B4B18804C48815418460088022805DBA5
:10449000494840785A2801D04FF001084448008824
:1044A00004280CDB4448801C02F0CAFFA02806D078
:1044B0003E488068401C3D4988604FF00108B8F1D3
:1044C000000F04D13A480088A02800D267E0B8F174
:1044D000000F2FD13848801D02F0B2FF83463648C6
:1044E00090F89E00FA2804D1334890F89F00FB28EA
:1044F00006D02E48C068401C2C49C8604FF0010807
:104500002D48001D02F09CFF48F6A041884206DDC0
:1045100026480069401C254908614FF00108BBF19D
:10452000E50F06D221484069401C204948614FF000
:10453000010800BFB8F1000F0BD11C484068401CB7
:104540001A494860504603F047FA0020184908808D
:1045500024E01A48007830B11448006A401C13491E
:10456000086202F0DDFE012401E0601C84B2104804
:104570000088844203DA1048005DA528F5D10C4874
:104580000088001B0A4908800846008830B10A48A4
:104590000119074802880848FBF798FE00BF6D1C08
:1045A000BD42FFF45CAFBDE8F09F000090BF00206B
:1045B000F8010020FC01002010400120080200202A
:1045C0002DE9F04706460D464FF0000A002405E0AD
:1045D0004FF6FF7025F81400601C84B2B4F5347FE8
:1045E000F6D300242CE006EBC408B8F802006428D7
:1045F00005D3B8F8020042F21071884200D91DE0DC
:10460000B8F80000FFF7BAFD3221B0FBF1F735F83A
:1046100017904FF6FF70814506D125F817400AF133
:1046200001001FFA80FA08E0B8F8020006EBC901A1
:104630004988884201DA25F8174000BF601C84B21F
:1046400044F21800805BA042CDDC5046BDE8F08704
:1046500010B538210648FBF760FE064800210180AE
:104660000020054908800549086002F059FE10BD88
:1046700090BF0020F0010020F8010020040200207B
:1046800010B5044600200549088002F049FE0448A0
:104690004463006A401C0249086210BDF801002012
:1046A00090BF00203EB502242748006827490968CA
:1046B000884209D0254800682349086008460068F8
:1046C000FFF7DEFF01F020F8FFF7B8FC22E01E49FB
:1046D00002980968884208D01B4902980860084679
:1046E0000068FFF7CDFF01F00FF8FEF73CF80099E6
:1046F000401A1749884206D913480068FFF7C0FFDF
:1047000001F002F806E029461248DDE90023FFF730
:1047100099FE00BF201EA4F1010407D06A464FF4A1
:1047200000710C48FFF740FC051ED0D10A48006A12
:104730000A490968884205D00748006A07490860A5
:1047400000F0E2FF3EBD00000C02002064000020EB
:10475000F04902005046012090BF002010020020C6
:104760000146002010E000EBC00202EB0032084BD3
:1047700003EB82028A4206D1064A125C032A02D166
:104780000022044B1A54401C0228ECDB7047000046
:10479000C8BF0020F001002000BFFEE72DE9F04F68
:1047A0002DED108B87B082460D461746B0EE40AA1D
:1047B0009946DDE92084FDF7D6FF0590FE4905986E
:1047C0000968401A04909FEDFD0AF0EE408A9FEDC3
:1047D000FB0AF0EE40AA9FEDFA0AB0EE40EA9FED28
:1047E000F70AB0EE40FA0020F6490870F648008853
:1047F000F64988610846C0F81C90C0F82080C8457A
:1048000002DDA8EB090000E00020F049486295EDC8
:104810000A0AEF4880ED0D0A97ED000A80ED0B0AB9
:1048200097ED010A80ED0C0A092C04DCC84502DD75
:10483000B8F5C87F10DD012C01D0022C05D1E3486A
:10484000006940F00800E149086104F09DFA07B0F2
:10485000BDEC108BBDE8F08F002C7DD197ED000AE8
:1048600010EE101A0846FBF7FEFE41EC1C0BB0EEF2
:104870004C0AF0EE6C0A02F090F88DED020B9FED01
:10488000D50B53EC102B9DED020B51EC100BFBF7ED
:1048900015FF37D297ED000A10EE101A0846FBF705
:1048A000E2FE41EC1C0BB0EE4C0AF0EE6C0A02F09A
:1048B00074F88DED020B9FEDC90B53EC102B9DEDA1
:1048C000020B51EC100BFBF7E1FE1BD897ED010A30
:1048D00010EE101A0846FBF7C6FE41EC1C0BB0EEBA
:1048E0004C0AF0EE6C0A02F058F88DED020B9FEDC9
:1048F000BB0B53EC102B9DED020B51EC100BFBF797
:10490000C5FE02D904F040FAA1E7B64890ED000ACE
:10491000F7EE000AB4EE600AF1EE10FA03D1B248E5
:1049200090ED000A05E0A8F101000AEBC00090ED4F
:10493000010AF0EE40EA97ED010A3EEEC00AD7ED1B
:10494000000A80EE201A9FEDA90A31EE400AB1EE6E
:10495000400AF0EE408A00E020E0A24890ED000A14
:10496000F7EE000AB4EE600AF1EE10FA15D09FEDF2
:10497000A00AF4EEC08AF1EE10FA03DD9FED9C0A66
:10498000F0EE408A9FED9B0AF4EEC08AF1EE10FA39
:1049900003D29FED980AF0EE408AB2E1012C01D0DB
:1049A000022C76D1012C03D1934890ED000A02E04D
:1049B000924890ED000AF0EE40EA4E4659E00AEBCC
:1049C000C60090ED010A30EE6E0A10EE101A08468D
:1049D000FBF749FE41EC1C0BB0EE4C0AF0EE6C0A02
:1049E00001F0DBFF8DED020B9DED020B51EC100B86
:1049F000FBF77CFE0FEE900AF4EECEFAF1EE10FA21
:104A000035D20AEBC60090ED000A10EE101A0846E7
:104A1000FBF729FECDE902019DED020B01F0BDFF80
:104A2000B0EE40CAF0EE60CA9FED6C0B53EC102B59
:104A300051EC1C0BFBF72AFE19D8B0EE6FEA0AEB1B
:104A4000C60090ED000AF0EE40AA6048006940F010
:104A500002005E4908615E48C0ED08AA0AEBC60084
:104A600090ED010A5A4880ED090AC0ED0AFA701C5F
:104A700086B24645A3DB5548007C00F0020048B9E9
:104A80005248006940F008005049086104F07CF980
:104A9000DDE625E0012C10D1594890ED000A594877
:104AA000D0ED000A60EE200A9FED571A80EE810AD1
:104AB00030EE2A0AB1EE400A0FE0514890ED000AAC
:104AC0005248D0ED000A60EE200A9FED4F1A80EEAA
:104AD000810A3AEEC00AB1EE400AF0EE408A10E1D7
:104AE000032C05D0042C03D0082C01D0092C61D153
:104AF00097ED000A10EE101A0846FBF7B4FDCDE959
:104B000002019DED020B01F048FFB0EE40CAF0EE4D
:104B100060CA9FED320B53EC102B51EC1C0BFBF7D2
:104B2000B5FD02D904F030F991E697ED000A10EED8
:104B3000101A0846FBF797FD41EC1C0BB0EE4C0A2F
:104B4000F0EE6C0A01F029FF8DED000B9FED300BAC
:104B500053EC102B9DED000B51EC100BFBF796FD69
:104B600002D29FED2D0B1CE097ED000A10EE101AFB
:104B70000846FBF778FD41EC1C0BB0EE4C0AF0EE5A
:104B80006C0A01F00AFF8DED000B9DED000B53EC5C
:104B9000102B9FED230B51EC100BFBF7D6FC41ECD7
:104BA000100B8DED020B9DED020B51EC100BFBF782
:104BB0009DFD39E046E00000A80100200000000053
:104BC000FFFF7F7FA4010020A601002074290020A0
:104BD000D4290020000000A09999B93F000000E00E
:104BE000FFFFEF47A00100209C0100200000484289
:104BF00000004843000048C39401002098010020B1
:104C0000040000208C0100200000C8429001002018
:104C1000000000606666D63F0000000000407F4054
:104C20000000000000E065400DEE100A032C01D0EA
:104C3000082C02D1B1EE4D0A01E0B0EE4D0AF0EEC3
:104C4000408A5EE0052C0FD1FE48007810B904F0D0
:104C50009BF8FCE5FC4890ED000A5FED1C0A30EE85
:104C6000C00AF0EE408A4CE0A8EB0900022802DA04
:104C700004F08AF8EBE54E4628E00AEBC60090ED1A
:104C8000000A10EE101A0846FBF7EDFCCDE9020110
:104C90009DED020B01F081FEB0EE40CAF0EE60CA5D
:104CA0001FED320B53EC102B51EC1C0BFBF7EEFC01
:104CB00002D904F069F8CAE50AEBC60090ED000AD3
:104CC00030EE2A0AF0EE40AA701C86B24645D4DBCC
:104CD000A8EB090000EE100AB8EEC00ACAEE800A7E
:104CE000F0EE60AA1FED3F0A30EE6A0AF0EE408A4D
:104CF000D648C0ED0EAAD648006940F48070D44969
:104D0000086118EE900AFBF7AEFCCDE902019DEDBB
:104D1000020B01F042FEB0EE40CAF0EE60CA1FED99
:104D2000510B53EC102B51EC1C0BFBF7AFFC02D9D1
:104D300004F02AF88BE59FEDC70AF4EEC08AF1EE85
:104D400010FA03DD9FEDC30AF0EE408A9FEDC20A20
:104D5000F4EEC08AF1EE10FA03D29FEDBF0AF0EE36
:104D6000408A012C01D0022C02D195ED020A09E003
:104D70001CB1052C04DB072C02DC95ED000A01E0D8
:104D800095ED010AF0EE40DA012C01D0022C02D19F
:104D900095ED060A09E01CB1052C04DB072C02DCAA
:104DA00095ED040A01E095ED050AF0EE40BAAB4836
:104DB000007848B1049838B1A9490498884203D8CA
:104DC000A8480088844208D0C5ED0A8AA048006936
:104DD00040F004009E4908610BE09DED040AF8EEE6
:104DE000400A9FEDA11A81EE200A20EE2B0AF0EE78
:104DF00040BAB2EE040A2DEE800A20EE288AB2EE06
:104E0000040A2BEE800AD5ED0A0A78EEE00A60EE7D
:104E1000209AB0EE69BA9FED950AF4EEC09AF1EED1
:104E200010FA03DD9FED910AF0EE409A9FED900A93
:104E3000F4EEC09AF1EE10FA03D29FED8D0AF0EE77
:104E4000409AB5EEC08AF1EE10FA06DB38EE290A78
:104E5000B5EEC00AF1EE10FA0BD3B5EEC08AF1EE52
:104E600010FA0AD838EE290AB5EEC00AF1EE10FAA7
:104E700003DDB1EE480AF0EE409AF4EE4B9AF1EE03
:104E800010FA05D07248006940F40060704908616A
:104E9000204604F00FF8E0B3204604F00BF88346F8
:104EA0007048008804F006F8834509D1204604F0D4
:104EB00014F883466B48008804F00FF883454EDDF4
:104EC000204603F0F7FF012804D1B5EEC08AF1EEC9
:104ED00010FA09D3204603F0EDFF02283FD1B5EECA
:104EE000C08AF1EE10FA3ADD18EE100AFBF7BBFBB0
:104EF000CDE900019DED000B01F04FFDB0EE40CA81
:104F0000F0EE60CA9FED5B0B53EC102B51EC1C0BC9
:104F100000E024E0FBF7BAFB0CD218EE100AFBF716
:104F2000A2FB41EC1C0BB0EE4C0AF0EE6C0A01F057
:104F300034FD01E09FED4F0B8DED020B9DED020B5B
:104F400051EC100BFBF7D2FB0FEE100AB5EEC08A46
:104F5000F1EE10FA03D2B1EE4F0AB0EE40FAF2EEE3
:104F6000040AB0EE480A00EE8A0A30EE290A30EE52
:104F70000F9A012C03D0032C01D0082C14D1B2EECF
:104F8000040A2AEE000AB4EEC90AF1EE10FA0BD2B6
:104F9000B2EE040A2AEE000AB0EE409A2C480069EC
:104FA00040F480602A490861022C03D0042C01D00F
:104FB000092C14D1B2EE040A2AEE000AB4EEC90A92
:104FC000F1EE10FA0BDDB2EE040A2AEE000AB0EEA2
:104FD000409A1F48006940F480601D49086119EE3D
:104FE000100AFBF740FB41EC1C0BB0EE4C0AF0EE54
:104FF0006C0A01F0D2FC8DED020B9FED200B53ECFF
:10500000102B9DED020B51EC100BFBF73FFB02D96F
:1050100003F0BAFE1BE40E48006940F001000C49A1
:10502000086195ED0A0A094880ED000AC0ED018A81
:1050300080ED028AC0ED039AC0ED04DAC0ED05BA36
:1050400020E000005401002050010020D42900205D
:10505000742900200000FA430000FAC3A5010020D3
:1050600090D00300A6010020009CE04700001643FA
:10507000000016C30000000000C05240000000E025
:10508000FFFFEF4780ED069AB2EE040A2AEE000A0F
:1050900080ED070A9FED1E0AB4EEC09AF1EE10FAF9
:1050A00006D39FED1C0AB4EEC09AF1EE10FA05DDAE
:1050B0001948006940F01000174908619FED140A73
:1050C000B4EEC09AF1EE10FA03D29FED110AB0EEE1
:1050D000409A9FED100AB4EEC09AF1EE10FA03DD8B
:1050E0009FED0C0AB0EE409AC5ED0A8AC5ED0B8A19
:1050F0000A49059808600A48048001200949087097
:1051000009490870BCEEC90A10EE100A80B2BFE46B
:10511000004092440000D74474290020A8010020D8
:10512000A6010020A5010020A401002000B5024630
:1051300000F018F89FED0A3A82ED0B3A9FED083A1D
:1051400082ED0A3A82ED000AC2ED010A82ED021AEE
:10515000C2ED041A82ED052AC2ED062A00BD000048
:1051600000000000002002490870024908707047E2
:10517000A5010020A40100202DE9F0472DED068BAC
:1051800006460F4690461C46A8EB07099FED6E0A9F
:10519000B0EE409A9FED6C0AF0EE408A9FED6A0AED
:1051A000B0EE40AA9FED680AF0EE40AA9FED660AB5
:1051B00084ED010A84ED000A002F05DBB9F1020F2E
:1051C00002DBB8F5C87F08DD00212046FCF75AFE57
:1051D0000020BDEC068BBDE8F0873D4632E006EBD3
:1051E000C50090ED008A06EBC500D0ED019A9FED59
:1051F000570AB4EEC08AF1EE10FA14D89FED540AA3
:10520000B4EEC08AF1EE10FA0DDB9FED500AF4EE19
:10521000C09AF1EE10FA06D89FED4D0AF4EEC09A4E
:10522000F1EE10FA05DA00212046FCF72BFE0020F3
:10523000CFE739EE080AB0EE409A38EEA90AF0EE50
:10524000408A6D1C4545CADB00EE109AB8EEC00AD4
:10525000C9EE000AB0EE609A00EE109AB8EEC00AED
:10526000C8EE800AF0EE608A3D461AE006EBC50003
:1052700090ED000A30EE490AB0EE408AB0EE4A0ADC
:1052800008EE080AB0EE40AA06EBC50090ED010A50
:1052900070EE680AB0EE6A0A08EE200AF0EE40AA44
:1052A0006D1C4545E2DB9FED2B0AB4EEC0AAF1EE82
:1052B00010FA07D8C4ED018A00212046FCF7E2FD70
:1052C000002086E78AEE8A0A84ED000AD4ED000AFF
:1052D000B0EE680A00EEC90A84ED010A94ED000AF6
:1052E000DFED1A0AB4EEE00AF1EE10FA1AD894EDE6
:1052F000000ADFED170AB4EEE00AF1EE10FA11DB56
:1053000094ED010ADFED110AB4EEE00AF1EE10FAB5
:1053100008D894ED010ADFED0E0AB4EEE00AF1EED2
:1053200010FA0BDA9FED080A84ED010A84ED000AF9
:1053300000212046FCF7A6FD00204AE70121204677
:10534000FCF7A0FD012044E700000000FFFF7F7F85
:10535000FFFF7FFFBD37863570B504460D46164604
:10536000FBF7DEFF691E601E324600F011FC70BDC7
:1053700010B5044621464FF0804000F09CFE10BD61
:105380007047000070B5002100230F22C4781CB3C1
:10539000174C246804F4E064C4F5E064C4F3072106
:1053A000C1F10404E3B20A4144789C40E1B284783C
:1053B000144021430C07210E0E4C057861550478EA
:1053C00004F01F050124AC4005786D11AD0005F116
:1053D000E025C5F8004109E0047804F01F05012428
:1053E000AC40054D0678761145F8264070BD0000AA
:1053F0000CED00E000E400E080E100E00249014340
:10540000024A1160704700000000FA050CED00E050
:10541000B0EE401ADFED311AB0EE610A70EEC11A3B
:10542000C0ED0B1AD0ED0C1A90ED0B2A71EE821A1A
:10543000C0ED0C1AD0ED0C1A9FED292AF4EEC21A19
:10544000F1EE10FA03DBDFED261AC0ED0C1AD0EDF9
:105450000C1A9FED242AF4EEC21AF1EE10FA03D8CA
:10546000DFED201AC0ED0C1AD0ED001A90ED0B2ADA
:1054700061EE821A90ED032AD0ED0C2A42EE221A38
:1054800090ED0B2AD0ED0A2A32EE622AD0ED042AE2
:1054900042EE821AB0EE610AD0ED0B1AC0ED0A1A84
:1054A000D0ED0C1A1049C1ED001A104981ED000A27
:1054B000DFED0F1AB4EEE10AF1EE10FA03DBDFEDD7
:1054C0000C1AB0EE610AB5EEC00AF1EE10FA03D87C
:1054D000DFED021AB0EE610A704700000000000024
:1054E00000004843000048C3E0000020E400002022
:1054F0000000C8427047000029B1064A1268024302
:10550000044B1A6004E0034A12688243014B1A609C
:10551000704700003038024029B1064A1268024341
:10552000044B1A6004E0034A12688243014B1A607C
:10553000704700004038024029B1064A1268024311
:10554000044B1A6004E0034A12688243014B1A605C
:10555000704700002038024029B1064A1268024311
:10556000044B1A6004E0034A12688243014B1A603C
:10557000704700004438024029B1064A12680243CD
:10558000044B1A6004E0034A12688243014B1A601C
:105590007047000024380240F0B5002100220024AA
:1055A000022500260223324F3F6807F00C0121B18B
:1055B000042905D0082937D105E02E4F076036E0D1
:1055C0002D4F076033E02A4F3F1F3F68C7F38056D7
:1055D000274F3F1F3F6807F03F036EB1264FB7FBD1
:1055E000F3F7DFF88CC0ACF1040CDCF800C0CCF3AE
:1055F000881C07FB0CF40CE01E4FB7FBF3F7DFF839
:1056000070C0ACF1040CDCF800C0CCF3881C07FBC4
:105610000CF4174F3F1F3F68C7F301477F1C7D0005
:10562000B4FBF5F7076002E0124F076000BF00BF50
:105630000F4F3F6807F0F0010909104F7A5C0768C7
:10564000D74047600A4F3F6807F4E051890A0B4F83
:105650007A5C4768D7408760054F3F6807F4604130
:10566000490B064F7A5C4768D740C760F0BD000021
:10567000083802400024F40000127A0038000020AC
:1056800010B517480078B8B116480078A0B9164888
:105690000088322804D214480088401C124908802F
:1056A00011480088322807D301200E4908700F489E
:1056B0000068401C0D4908600D4800680D490968E4
:1056C000884207D1FDF74FF80B490968401A0B498A
:1056D000884204D900200A4908700A49087010BDA0
:1056E000B2010020B3010020B0010020B40100206D
:1056F000C001002064000020BC010020F04902002D
:10570000D0010020D101002000BFEFF31081084636
:1057100072B60021044A1170044A1170014681F3E7
:10572000108800BF70470000D0010020D101002088
:105730002DE9F0412DED028B04460D461646B0EEE4
:10574000408A00BFEFF310808046FDF70CF8074653
:1057500072B63248007858B931480068864207D19D
:10576000781B3049884203D82F480068844205D10D
:1057700000202E4908702E49087047E02A4800682A
:10578000401C844205D12B480068381A25498842BC
:1057900002D9002026490870234804602648056085
:1057A0002648066023480760B5EEC08AF1EE10FA7D
:1057B00002D29FED230A0BE0B7EE000AB4EEC08AD6
:1057C000F1EE10FA02DDB7EE000A01E0B0EE480A91
:1057D0001C4880ED000A16480078032804DA1448B3
:1057E0000078401C1249087011480078032801DB3A
:1057F000012000E000200D4908700846007828B11B
:1058000000201149088001201049087000BF88F36A
:10581000108800BFBDEC028BBDE8F081B301002011
:1058200064000020F0490200C4010020D0010020E3
:10583000D1010020C8010020BC010020C0010020CF
:1058400000000000CC010020B0010020B2010020C7
:105850007047000010B50446FBF72EFD03480078A2
:10586000012802D12046FBF755FC10BD780000202E
:1058700010B504462146024800F01DFC10BD000092
:105880000004004070B504460D461646691E601EB1
:10589000324600F0CDF970BD0CB5002001900090AB
:1058A0003448006840F480303249086000BF314815
:1058B000006800F4003000900198401C01900098AE
:1058C00018B90198B0F5A04FF1D12A48006800F44A
:1058D000003010B10120009001E0002000900098FD
:1058E000012846D123484030006840F080502149CB
:1058F000403108602048006840F440401E4908607C
:105900001C48083000681B490831086008460068D8
:1059100040F4004008600846006840F4A050086069
:105920001648091F0860081F006840F08070091FB2
:10593000086000BF0F48006800F000700028F9D030
:1059400040F205700E4908600A480830006820F0EF
:1059500003000849083108600846006840F002006A
:10596000086000BF03480830006800F00C000828F9
:10597000F8D10CBD003802400070004008544007C8
:10598000003C0240DFED071AC0ED0B1ADFED051AEF
:10599000C0ED0A1A80ED000AC0ED030A80ED041A7A
:1059A00070470000000000009FED080A80ED0A0A21
:1059B00080ED0B0A80ED0C0A9FED040A044981ED8D
:1059C000000A044981ED000A704700000000000051
:1059D000E4000020E0000020042808D14FF0E0217E
:1059E000096941F004014FF0E022116107E04FF036
:1059F000E021096921F004014FF0E02211617047B4
:105A00007047000010B51548006840F47000134955
:105A100008601348006840F0010011490860002048
:105A20000F49083108600E4800680E4908400C49CB
:105A300008600D48091D0860081F006820F48020D8
:105A4000091F0860002006490C310860FFF724FF99
:105A50004FF0006001498039086010BD88ED00E01A
:105A600000380240FFFFF6FE10300024F0B50C466F
:105A7000154600210022068C4FF6FE773E40068434
:105A8000018B028C4FF60C7631407E1C06EA031621
:105A90002E4331434FF6F576324044F0010632434F
:105AA00001830284F0BDF0B50C46154600210022AA
:105AB0000026078C4FF6EF7C07EA0C070784018B62
:105AC000028C4FF6FF7707EA041640F6FF4739408D
:105AD0004FF6FF7707EA033739434FF6FF7707EAB8
