:020000040800F2
:10000000504C01209D0100083D520008F5280008D1
:100010002D460008091300082968000800000000A8
:1000200000000000000000000000000089550008EA
:100030000319000800000000B15300080957000828
:10004000B7010008B7010008B7010008B7010008B0
:10005000B7010008B7010008B7010008B7010008A0
:10006000B7010008B7010008B7010008B701000890
:10007000B7010008B7010008B7010008B701000880
:1000800061130008B7010008B7010008B7010008B4
:10009000B7010008B7010008B7010008B701000860
:1000A000B7010008B7010008B7010008B701000850
:1000B000B7010008B7010008B7010008B701000840
:1000C000B7010008B7010008B7010008B701000830
:1000D000B7010008B701000891640008B7010008E3
:1000E000B7010008B7010008B7010008B701000810
:1000F000B7010008B7010008B7010008B701000800
:10010000B7010008B7010008915A0008B7010008BC
:10011000B7010008B7010008655B0008B7010008D7
:10012000B7010008B7010008B7010008B7010008CF
:10013000B7010008B7010008B7010008B7010008BF
:10014000B7010008B7010008B7010008B7010008AF
:10015000B7010008B7010008B7010008C164000832
:10016000B7010008B7010008B7010008B70100088F
:10017000B7010008B7010008B7010008B70100087F
:10018000B7010008B7010008DFF80CD000F0CEFC82
:10019000004800472D800008504C01200648804749
:1001A00006480047FEE7FEE7FEE7FEE7FEE7FEE75C
:1001B000FEE7FEE7FEE7FEE70D57000889010008AD
:1001C0009FED1A1AF5EE000A40EE010ABDEEE00AB4
:1001D000F5EEC00A10EE100AF1EE10FA38BF401E1C
:1001E00000EE100A1349F7EE001AB8EEC00A30EE1E
:1001F000C00ADFED0F0A20EE200AFCEEC00A10EE66
:10020000900AC0F3080000EE900A01EB8000F8EEBF
:10021000600A90ED011A70EE600A90ED000A71EE2E
:10022000E01A21EE800A00EE810A704783F9223E2F
:10023000000000441C960008B5EEC00AF1EE10FA6A
:1002400007D2DFED1E0AB4EEE00AF1EE10FAA8BF05
:100250007047DFED1B0AB5EEC00A60EE200ABDEE66
:10026000E01A11EE100AF1EE10FA38BF401E00EE4F
:10027000100A1549F7EE001AB8EEC00A30EEC00AAF
:10028000DFED100A60EE200ABCEEE00A10EE100A64
:10029000C0F3080000EE100A01EB8000B8EE400A3F
:1002A00090ED011A70EEC00A90ED000A71EEE01AAE
:1002B00021EE800A00EE810A70470000CD024CB4A6
:1002C00083F9223E000000441C96000810B5431A32
:1002D000934209D28318881803E010F8011D03F82F
:1002E000011D521EF9D210BD40EA01039B0703D045
:1002F00009E008C9121F08C0042AFAD203E011F865
:10030000013B00F8013B521EF9D210BDD2B201E010
:1003100000F8012B491EFBD270470022F6E710B50A
:1003200013460A4604461946FFF7F0FF204610BD63
:10033000CAB2401E10F8011F8A4202D00029F9D12A
:1003400000207047421C10F8011B0029FBD1801AC5
:10035000704710B5002200E0521C835C8C5CA34205
:1003600001D1002BF8D1D8B2E1B2401A10BD30B59E
:1003700005460020034600E05B1C934205D2EC5C7E
:10038000C85C201A01D1002CF6D130BD2DE9F04710
:1003900091460F4680460446002614F8015B2DB1B5
:1003A00000F038FA0068405DC007F6D12B2D02D06E
:1003B0002D2D18D0641E4A463946204600F02EFAEC
:1003C00027B13968A14201D1C7F8008071054FF00B
:1003D00002040BD54042002803DD06F04BFA04600E
:1003E000A007BDE8F08746F48066E4E70028F8DA65
:1003F00006F040FA04606FF00040F2E72DE9FE4F8E
:10040000804681EA0300C00F0C46009021F00041B5
:1004100023F00045B8EB0200A94105D24046214631
:1004200090461C460B46024623F00040104347D03E
:10043000270DC7F30A00C3F30A510290401A019036
:1004400040286BDAC3F3130040F4801B00989246F7
:1004500020B10023D2EB030A63EB0B0B0198594642
:10046000C0F14002504600F0A4F906460D46504641
:100470005946019A00F0BCF910EB080061410024D4
:1004800087EA115284EAE7731A4340D0009A62B3B4
:10049000019A012A4FEA075215DC001B61EB0201A9
:1004A0004FF0004202EA0752CDE90042001C41F53C
:1004B000801132462B4600F046FA03B0BDE8F08FBB
:1004C00040462146F9E7001B61EB0201001C41F5A3
:1004D000801300185B412018A2F5001747EB0301B9
:1004E00040EAD570B6196D4111E06D084FEA360645
:1004F00045EAC0754FEA0752001B61EB0201001C80
:1005000041F5801149084FEA300000195141324647
:100510002B4603B0BDE8F04F00F006BA0098012268
:1005200040000023D0EB020263EBE0730098214609
:100530004FEAE074B8EB000061EB0401E9E783F0F7
:1005400000435BE781F0004158E72DE9F04D81EA77
:10055000030404F0004B21F0004514464FF0000A5C
:1005600023F0004150EA050220D054EA01021DD0D8
:10057000C5F30A570246C5F31303C1F31300C1F3D1
:100580000A5640F4801543F48013A7EB0608101BAD
:10059000D64608F2FD3873EB050002D308F10108D6
:1005A00001E092185B41B8F1000F03DA0020014628
:1005B000BDE8F08D00204FF48011064684460EE021
:1005C000171B73EB050705D3121B63EB05030643EB
:1005D0004CEA010C49084FEA300092185B4150EA9E
:1005E0000107EDD152EA030012D082EA040083EA47
:1005F0000501084305D0101BAB4106D201220023A0
:1006000006E000224FF0004302E06FF001025310B9
:100610001AEB06004CEB085110EB0A0041EB0B0102
:10062000BDE8F04D00F080B970B5C1F30A5201F099
:1006300000450024C1F3130140F2FF3341F480115F
:100640009A4201DA002070BD40F233439A42A2F28E
:10065000334203DC524200F0BBF800E090402C43F0
:10066000F1D0404270BD00F0004230F000400AD0AE
:10067000C10D01F56071C0F3160042EA0151C208D4
:1006800040071143704700200146704730B5041EF3
:1006900071F1000404DB4FF00044404264EB0101BF
:1006A000141E73F1000405DB1C464FF00043524258
:1006B00063EB04038B4208BF824230BD30B5041E99
:1006C00071F1000404DB4FF00044404264EB01018F
:1006D000141E73F1000405DB1C464FF00043524228
:1006E00063EB0403994208BF904230BD01F0004320
:1006F00030B421F0004150EA010206D00A0DA2F503
:100700006072C1F31301002A02DC30BC0020704784
:10071000440F44EAC104C100E01830BC00EBC250F1
:1007200000F0CBB830B50B46014600202022012452
:1007300009E021FA02F59D4205D303FA02F5491BAF
:1007400004FA02F52844151EA2F10102F1DC30BDC5
:100750002DE9F05F0546002092469B4688460646F6
:10076000814640241BE0284641464746224600F089
:100770002FF853465A46C01A914110D311461846D5
:10078000224600F016F82D1A67EB01084F46224664
:100790000120002100F00DF817EB00094E41201E4A
:1007A000A4F10104DFDC484631462A464346BDE851
:1007B000F09F202A04DB203A00FA02F10020704763
:1007C0009140C2F1200320FA03F31943904070478F
:1007D000202A04DB203A21FA02F00021704721FA96
:1007E00002F3D040C2F120029140084319467047FD
:1007F000202A06DBCB17203A41FA02F043EAE073E5
:1008000006E041FA02F3D040C2F1200291400843D1
:100810001946704700487047A49E00082DE9F05F14
:1008200082460078002715468B460AF10104B94636
:10083000302801D09DB113E014F8010B012778286E
:1008400003D0582801D045B10AE00DB1102D07D1D1
:100850000027102514F8010B02E0082500E00A2506
:100860000026B0460EE005FB080005FB06F1012757
:1008700001EB10461FFA80F8B6F5803F00D3B94669
:1008800014F8010B294600F063F90028EBDABBF1FC
:10089000000F05D00FB1641E00E05446CBF80040B5
:1008A000B9F1000F06D005F0E5FF02210160C81E76
:1008B000BDE8F09F48EA0640FAE70029A8BF704764
:1008C000401C490008BF20F00100704710B4B0FA86
:1008D00080FC00FA0CF050EA010404BF10BC704721
:1008E00049B1CCF1200421FA04F411FA0CF118BF3B
:1008F000012121430843A3EB0C01CB1D4FEA00610A
:100900004FEA102042BF002010BC704700EBC350DC
:1009100010440029A4BF10BC7047401C490008BF08
:1009200020F0010010BC704710B5141E73F10004D4
:1009300008DA401C41F1000192185B411A4301D1D1
:1009400020F0010010BD2DE9F04D92469B4611B1FB
:10095000B1FA81F202E0B0FA80F220329046FFF75D
:1009600028FF04460F4640EA0A0041EA0B015346BD
:100970005A46084313D0114653EA010019D0C8F172
:1009800040025046FFF724FF05460E4650465946A2
:100990004246FFF70EFF084305D0012004E0204641
:1009A0003946BDE8F08D0020054346EAE0762C4349
:1009B00037430A986305E40AA0EB08000022FD0A09
:1009C00044EA47540A3002D500200146E9E7010510
:1009D00010196941DDE9084500196941BDE8F04D8C
:1009E000A2E72DE9FE4F81EA030404F0004421F060
:1009F000004100944FF0000B23F0004350EA010443
:100A00005ED052EA03045BD0C3F30A54C1F30A5523
:100A10002C44A4F2F3340194A0FB0254C1F313015B
:100A200041F48011C3F3130343F4801301FB024428
:100A300000FB034E840A970A44EA815447EA83572D
:100A4000A4FB076802958D0A05FB07854FEA932CE6
:100A500004FB0C542705029D4FEA065847EA163757
:100A6000B5EB08056EEB070C870E920E47EA81176F
:100A700042EA8312A7FB0201B6EB0B0164EB000410
:100A80002B0D43EA0C335E1844EB1C50DA465146FA
:100A9000E7FB0201C5F313044FEA0B3343EA145397
:100AA0004FEA0432019C43EA0603A4F10C040294C9
:100AB000009CCDE900B4FFF746FF03B0BDE8F08F1E
:100AC00000200146F9E7C1F30A52C1F3130140F2D5
:100AD000FF3341F480119A4202DA00200146704748
:100AE00040F233439A42A2F2334202DC5242FFF711
:100AF0006FBEFFF75EBE002801DBC0F10040002999
:100B000001DBC1F10041814202D24FF0004004E01C
:100B10004FF0005001D14FF0C0404FEA2062EFF398
:100B2000008162F31F6181F300887047064C074D16
:100B300006E0E06840F0010394E8070098471034AD
:100B4000AC42F6D3FFF724FBFCA100081CA200086E
:100B50003A2800D2303820F02002412A01D3A2F1F5
:100B60003700884201D34FF0FF30704770B58C18C2
:100B700010F8015B15F0070301D110F8013B2A11B1
:100B800006D110F8012B03E010F8016B01F8016B9E
:100B90005B1EF9D12B0705D40023521E0DD401F89A
:100BA000013BFAE710F8013BCB1A921C03E013F863
:100BB000015B01F8015B521EF9D5A142D8D3002098
:100BC00070BD000010B500BFEFF31082114672B681
:100BD00000201BE0114A92F90020904214D000EB53
:100BE00040120F4B03EBC20292F8032162B10022C4
:100BF00000EB40130A4C04EBC30383F80321094ABA
:100C00001268521C074B1A60421CD0B20628E1DB66
:100C100000BF81F3108800BF10BD0000F800002065
:100C200004330020000100200020002110E001EB2F
:100C30004112094B03EBC20292F8032132B9074A71
:100C400092F900208A4201D0421CD0B24A1CD1B293
:100C50000629ECDB7047000004330020F800002078
:100C6000002110E001EB4110094A02EBC00090F8AE
:100C7000030130B9074890F90000884201D00120F3
:100C80007047481CC1B20429ECDB0020F8E70000E3
:100C900004330020F80000202DE9F04107460D46FE
:100CA0001646022E01D1062000E00420804600F006
:100CB00003FB01F0A3FD10B90020BDE8F08115B1E0
:100CC000B5F5807F06DD28480068401C264908608D
:100CD0000020F2E700243DE004EB4410234901EB3F
:100CE000C00090F8030190BB214890F90000A04299
:100CF0002ED004EB44111D4A02EBC1002A463946AE
:100D0000FFF7E4FA04EB4410184901EBC000A0F827
:100D1000005104EB441001EBC00080F8026115485B
:100D2000006804EB4411114A02EBC101C1F804014F
:100D300010480068401C0F490860BFF35F8F012016
:100D400004EB441102EBC10181F80301B5E7FFE7B1
:100D5000601CC4B24445BFDB03480068401C024924
:100D600008600020A9E700000001002004330020F3
:100D7000F8000020FC000020F0B5B3B005F08AFABE
:100D80004248007808B933B0F0BD00BFEFF31080DF
:100D9000054672B63E4806783C480078022801D1E4
:100DA000012000E00020074632463A4901A8FFF73B
:100DB0008DFA00F0ABFA00BF85F3108800BF2FB1A9
:100DC000002035490870012034490870002458E09B
:100DD00001A8005D0A2826D130480078D0B92E48F5
:100DE000007858B12C480078401E2D49085C0D2829
:100DF00004D129480078401E27490870002028495E
:100E0000254A127888542448007830B1084605F005
:100E100071F802E023A001F061FA00201E49087079
:100E20001E4908702BE01D48007840BB01A8005DFA
:100E300020280ADA01A8005D0D2806D001201749F4
:100E4000087000201449087019E013480078C7287A
:100E50000AD201A8015D104802780078401C0E4BB0
:100E600018700F4881540AE001200C4908700020D6
:100E7000094908700F480068401C0E490860601C52
:100E8000C4B2B442A4DB00BF7DE700006D000020C7
:100E90006E000020E026002006010020070100204F
:100EA00034390020455252206F766572666C6F7738
:100EB0000D0A00009400002030B52DED028B91B09A
:100EC000B0EE408AF0EE608A0446244D2448007853
:100ED000012803D011B0BDEC028B30BD8DED008A2E
:100EE0000A2C00DB0095CDED018A1E4890ED000A2A
:100EF0008DED020A90ED040A8DED030A00EE104A12
:100F0000B8EE400A8DED040A174890ED000A8DED09
:100F1000050A164890ED000A8DED060A144800886F
:100F200000EE100AB8EE400A8DED070A202269464D
:100F300008A8FFF7CBF900208DF840008DF841009C
:100F400080208DF842007F208DF84300002224216C
:100F500008A8FFF7A1FE00BFBCE700000000C07FAB
:100F60007000002088B10020B0010020B4010020F2
:100F70000801002010B5204890F90000002806DA8A
:100F8000002240F227711D4805F0AEFB10BD1C4841
:100F90000488601C1A4A1080174890F9000000EB82
:100FA0004010184A02EBC000015D144805F02CFC0B
:100FB000114890F9000000EB4010124901EBC0000D
:100FC000B0F800010E490988884213DC00200A4964
:100FD00091F9001001EB41110A4A02EBC10181F8BD
:100FE0000301FF2004490870002240F227710348E2
:100FF00005F07AFB00BFC9E7F800002000140140AB
:10100000FA0000200433002070B54FF0FF3500F0E7
:1010100053F901F0F3FB58B93848007820B1FFF7D5
:10102000D1FD00203649086000203449087070BDA9
:10103000012032490870334890F90000002800DB95
:10104000F5E7002439E004EB44102F4901EBC00020
:1010500090F8030178B3002D2CDB04EB441001EB76
:10106000C00090F8020105EB4511274A02EBC101CF
:1010700091F8021188421DDC04EB4410114601EB8B
:10108000C00090F8020105EB451102EBC10191F897
:10109000021188420FD104EB4410114601EBC0004D
:1010A000D0F8040105EB451102EBC101D1F80411A0
:1010B000401A00D565B2601CC4B2062CC3DB002DFB
:1010C00000DAB4E705EB45120F4B03EBC202B2F8AE
:1010D000001105EB451203EBC20000F0BBFE00203F
:1010E0000A49088007480570BFF35F8F012240F26C
:1010F0002771074805F0F8FA00BF98E704010020BF
:1011000078000020F800002004330020FA000020BE
:101110000014014070B5044644B12046FFF712F9AF
:1011200085B2022229462046FFF7B6FD70BD0000B9
:1011300010B588B004460121042004F03BF90121D8
:10114000042004F037F9082206213B4801F01CFB7B
:1011500008220721384801F017FB06A801F044FBDC
:101160004020069002208DF81C0003208DF81D0001
:1011700000208DF81E0001208DF81F0006A92E48C2
:1011800001F0BAFA06A801F02FFB80200690022099
:101190008DF81C0003208DF81D0000208DF81E0026
:1011A00001208DF81F0006A9234801F0A5FA0121AE
:1011B000202004F02FF9214805F0F4F902A805F0E9
:1011C00027FB02940020ADF80C00ADF80E00ADF83E
:1011D00010000C20ADF812000020ADF8140002A998
:1011E000164805F0A7FA012240F22551134805F0F0
:1011F0007BFA012240F22441104805F075FA2021C3
:101200000E4805F0B1F940F224410C4805F0ACF964
:1012100001210A4805F0B1F947208DF804000120AA
:101220008DF805008DF806008DF8070001A804F080
:1012300007F808B010BD000000080240001401408B
:1012400010B54FF4E130FFF773FF00F013F802A080
:1012500005F0ECFA10BD0000426C7565746F6F7498
:10126000685F496E69742073756363656564210DF9
:101270000A0000001CB50121042004F09BF8684618
:1012800001F0B2FA0420009000208DF80400032041
:101290008DF8050000208DF8060001208DF807006C
:1012A0006946044801F028FA0421024801F098FA3E
:1012B0001CBD00000008024010B504210F4801F0D9
:1012C00086FA50B900200E4908700E4800780128AF
:1012D00002D100200B49087010BD0421074801F01D
:1012E00076FA012807D1064908700648007810B937
:1012F00001200449087000BFEEE70000000802402A
:101300006C0000206F00002000BFFEE700200249B3
:1013100008700249087070476E0000206D000020C0
:101320001CB50121022004F045F801208DF80400CD
:1013300000208DF806004FF40040009002208DF848
:10134000050000208DF807006946044801F0D4F933
:101350004FF40041014801F045FA1CBD0004024071
:101360002DE9F0477848466801F0B3F9824677489E
:10137000476806F4507030B175480068401C7449E5
:10138000086002F09BFD7348007830B172496E48E6
:10139000883000F005F9BDE8F08706F44060B0F54C
:1013A000406F0CD16D480068401C6C49086002F029
:1013B00085FD69496448883000F0F2F8EBE706F4EF
:1013C000406000B9E7E7012020EA96240CB16448A8
:1013D00000E0644801465C48883000F0E1F85A4873
:1013E000883000F0B9F905465F480078844212D190
:1013F0005E4800683221B0FBF1F05D490968791A56
:10140000884208D33DB114B9B5F5007F03D854B173
:10141000B5F5007F07D851480068401C4F49086067
:1014200002F04CFDB7E75348006853490968A0EB48
:101430000108B8F1100F07D350480068401C4F490D
:10144000086002F03BFDA6E74D4A02EB4421494A01
:10145000126802F00F024B4B03EB42204FF4007274
:10146000FEF734FF3848883000F076F905468DB134
:101470003E4800686421B0FBF1F034494968C91B5B
:10148000884207D914B9B5F5007F03D854B1B5F532
:10149000007F07D831480068401C3049086002F0DE
:1014A0000DFD78E738480068A0F59C4020383149A8
:1014B000096801F00F0101EB4101344A42F82100B3
:1014C0002C48006800F00F0000EB4000114601EBD3
:1014D0008000C0F804A02E4800682649096801F081
:1014E0000F0101EB410102EB81018860BFF35F8FC7
:1014F00020480068401C1F49086026480068401CBE
:101500002449086008F1010023490968B1EB402F24
:1015100002D24002204908601348007880F00100A0
:10152000114908701848C0F800A011480760074822
:101530004068A0EB070919480068814502D917489F
:10154000C0F8009000BF26E700600240001000E0F5
:10155000900000204C000020400F0020640000207C
:1015600000080020000400204D000020180000208A
:101570005400002044000020480000209400002077
:1015800020020020200600205000002020260020FD
:1015900058000020600000205C000020680000204F
:1015A0000246094B9A4201D2084801E00648103829
:1015B00001F000531BB1064B0B40C36002E0044B2B
:1015C0000B408360704700001064024000600240DE
:1015D0007D0F7D0F21B1026842F00102026003E03D
:1015E000026822F00102026070470000016821F0E9
:1015F000010101600021016041608160C160016101
:10160000212141614A49884204D13D21484A103A8A
:1016100091608CE046491831884205D14FF47461DD
:10162000434A103A916082E041493031884205D105
:101630004FF474113E4A103A916078E03C494831C9
:10164000884205D14FF07461394A103A91606EE0DA
:1016500037496031884204D13649354A103AD16061
:1016600065E033497831884204D13349304A103A31
:10167000D1605CE02E499031884204D12F492C4A38
:10168000103AD16053E02A49A831884205D14FF081
:101690003D51274A103AD16049E02949884204D196
:1016A0003D21274A083A116041E025491831884216
:1016B00005D14FF47461224A083A116037E020499D
:1016C0003031884205D14FF474111D4A083A116037
:1016D0002DE01B494831884205D14FF07461184A0A
:1016E000083A116023E016496031884204D111495B
:1016F000134A121F11601AE011497831884204D14F
:101700000D490F4A121F116011E00D4990318842B6
:1017100004D10A490A4A121F116008E00849A83199
:10172000884204D14FF03D51054A121F11607047A5
:10173000106002403D000020400F002000003D20CE
:1017400010640240014600200A6802F001020AB15A
:10175000012000E0002070470146486880B27047D1
:1017600010B501F080034BB122B1436943F080030F
:10177000436103E0436923F08003436180290BD078
:101780002AB1036801F01E042343036004E00368E8
:1017900001F01E04A343036010BD000010B5002239
:1017A0000268134B1A40CC680B6823434C692343EF
:1017B0008C692343CC6923430C6A23434C6A23433B
:1017C0008C6A23434C6B23438C6B23431A43026084
:1017D000426922F00702D1E90B3423431A434261E4
:1017E0000B6943604B6883608B68C36010BD000069
:1017F0003F801CF000B591B00121480503F0DAFDEF
:101800002A48FFF7F3FE02A800F06AF84FF00060E4
:1018100002902748039027480490002005904FF439
:1018200080600690089080100B9040020C9002A9F6
:101830001E48FFF7B3FF01229E211C48FFF790FFCF
:1018400010208DF8040000208DF805008DF80600AA
:1018500001208DF8070001A803F0F2FC164800688B
:1018600040F08070144908601448006840F001009E
:1018700012490860002012490860124908601249A4
:1018800008701249087000F024FF114908600B48E5
:1018900040681049086010490448FFF781FE0121A3
:1018A0000248FFF797FE11B000BD000088600240BB
:1018B0000444004020020020FCED00E0001000E0A5
:1018C00048000020440000204D0000204C00002073
:1018D0005000002054000020400F0020416070475D
:1018E0000021016041608160C160016141618161ED
:1018F000C161016241628162C162016341638163CE
:101900007047704770B504460D4600200B490860CB
:101910000B49086068210B48FEF7FFFC0A48046089
:1019200000F0D7FE0949086060210948FEF7F5FC80
:1019300040210848FEF7F1FC70BD0000C000002007
:10194000BC000020A8270020B8000020B400002020
:1019500064290020C429002030B502460B464FF60A
:10196000FF7017E012F8015B80EA052000210FE00C
:1019700000F400442CB141F2210484EA4004A4B2F2
:1019800003E04FF6FF7404EA400420464C1CE1B229
:101990000829EDDB1C1EA3F10105ABB2E2D130BD7D
:1019A00010B5B0B0044656A12046FEF7D2FC78B977
:1019B0000120032154A35AA2CDE900105D4902A8D9
:1019C00004F044FF02A803F0E1FD012030B010BD97
:1019D00059A12046FEF7BDFC78B959480078032884
:1019E00004D058A000F07AFC0120EFE700F0FEF8E8
:1019F00057A003F0CBFD0120E8E7082257A12046BD
:101A0000FEF7B5FC20BB2FA904F1080007F0CCFAC3
:101A100008B12F9820B954A000F060FC0120D5E750
:101A2000FFF7D0F854492F98086007F0ABFA002070
:101A300052490860524908705249087052A102A8E0
:101A40002F9A04F003FF02A803F0A0FD0120BDE7D8
:101A5000052252A12046FEF78AFC10BB2FA9601D6B
:101A600007F0A2FA10B12F98032804D94DA000F076
:101A700035FC0120AAE7FFF7A5F831492F98087037
:101A800007F080FA00203F4908703D49087048A1DE
:101A900002A82F9A04F0DAFE02A803F077FD0120D5
:101AA00094E7052246A12046FEF761FC30BB2FA932
:101AB000601D07F079FA38B12F9828B12F980A28BD
:101AC00002D82F48007820B13FA000F007FC012089
:101AD0007CE740492F98087000202A4908703E484A
:101AE0000068401C3C4908603CA102A82F9A04F001
:101AF000ADFE02A803F04AFD012067E7002065E77C
:101B0000696E666F000000007368613235362D66BD
:101B100039306266653863323032616135383000A1
:101B2000726332362D6D61736B33312D76322E3107
:101B300000000000A89E00086765746366670000E7
:101B400070000020455252206D6F64650D0A000040
:101B50004F4B206765746366670D0A007365737386
:101B6000696F6E2000000000455252207365737348
:101B7000696F6E0D0A000000780000209C000020B4
:101B8000CC000020CB0000204F4B2073657373699D
:101B90006F6E20256C750D0A0000000074656C6581
:101BA000200000004552522074656C650D0A00004B
:101BB0004F4B2074656C6520256C750D0A00000084
:101BC0007261746520000000455252207261746594
:101BD0000D0A000071000020740000204F4B20729D
:101BE00061746520256C750D0A00000038B500246D
:101BF00008E00B4800EB84026946204604F036FBFF
:101C0000601CC4B2152CF4DB0120064908700020CA
:101C10000549087005480068401C0449086038BD43
:101C200010280020CC000020CD000020D000002093
:101C300070B52DED088B0446B0EE408A0E46154671
:101C40009FED640AF0EE408A0020307028701A2C54
:101C50000DDA9FED610AB4EEC08AF1EE10FA06D8F3
:101C60009FED5E0AB4EEC08AF1EE10FA03DA0020AE
:101C7000BDEC088B70BD022C16D1B5EEC08AF1EE1A
:101C800010FA0FD3B2EE020AB4EEC08AF1EE10FAE7
:101C900008DCBDEEC80AB8EEC00AB4EE408AF1EE28
:101CA00010FA01D00020E3E7142C0DD1B5EEC08A64
:101CB000F1EE10FA08D0B7EE000AB4EE408AF1EE69
:101CC00010FA01D00020D3E71CB99FED450AF0EED1
:101CD000408A032C05D0052C03D0072C01D0082CFA
:101CE00003D1B3EE0E0AF0EE408A042C01D0062C8C
:101CF00003D19FED3C0AF0EE408AF5EEC08AF1EE8A
:101D000010FA08D1122C06D0B5EEC08AF1EE10FA06
:101D100001D20020ACE701203070F5EEC08AF1EE70
:101D200010FA14D0B4EEE88AF1EE10FA02DDB0EE4B
:101D3000688A2870B1EE680AB4EEC08AF1EE10FA33
:101D400005D2B1EE680AB0EE408A0120287026481C
:101D500030F8140000EE100AB8EE400A20EE089A9F
:101D60009FED220AB4EEC09AF1EE10FA04DD0120D4
:101D7000287047F6FF707BE79FED1D0AB4EEC09A0E
:101D8000F1EE10FA03D2012028701A4870E719EE1C
:101D9000100AFEF768FC41EC1B0BB5EEC09AF1EEA1
:101DA00010FA02DB9FED141B01E09FED151BB0EE56
:101DB000410AF0EE610A53EC102B51EC1B0BFEF7BD
:101DC0001DFB41EC1A0B51EC1A0BFEF72DFC00B277
:101DD0004EE7000000000000FFFF7F7FFFFF7FFF56
:101DE000000016440060EA467894000800FEFF46B2
:101DF000000000C70080FFFF000000000000E03F7F
:101E0000000000000000E0BF1A281BDA0E4A02EBB7
:101E1000800282ED000A012282400C4B1B681A43AB
:101E20000A4B1A6039B101228240094B1B681A43E0
:101E3000074B1A6006E001228240054B1B68934362
:101E4000034A136070470000A8270020C00000204C
:101E5000BC00002070B504460D46102D1CDB207818
:101E6000AA2819D16078552816D1A078022813D154
:101E70000A4801680068401C084B1860A01D07F064
:101E80006FF9281F81B2A01CFFF766FD0646611995
:101E9000881E314607F060F970BD00009C000020EC
:101EA00070B505460E462C461E4885420FD1D4ED2E
:101EB000000AB0EE600A31460320FFF7A5FFD4ED1B
:101EC000010AB0EE600A31460420FFF79DFF164874
:101ED00085420FD1D4ED000AB0EE600A31460520EC
:101EE000FFF792FFD4ED010AB0EE600A31460620FA
:101EF000FFF78AFF0D48854207D1D4ED000AB0EE06
:101F0000600A31460720FFF77FFF0948854207D165
:101F1000D4ED000AB0EE600A31460820FFF774FFE6
:101F200070BD0000340100204C010020540100204D
:101F30005C01002030B50446F0EE400A0D4629460B
:101F4000B0EE600A2046FFF75FFF0120A040034982
:101F5000096881430148016030BD0000C0000020D5
:101F600008B50121102003F035FA0020104908803F
:101F70005320088540F2E730C862012088820020A3
:101F800008820C49086001200949888136208DF8B3
:101F9000000000208DF8010001208DF802008DF86E
:101FA0000300684603F04CF901200149088008BD90
:101FB00000100040980000202DE9F04105460E4633
:101FC00017462D480068401C2B49086080462B4866
:101FD0000078032802D12A48006808B9BDE8F081DA
:101FE0002848006828490968401A402805D327482E
:101FF0000068401C25490860F0E72248006800F0AE
:102000003F0000EBC000224901EB8004C4F80080CF
:1020100020480068606000F05CFBA060A5814FF084
:102020008040806BE0811C4890ED000A84ED040A3A
:102030001A4890ED000A84ED050A194890ED000A4F
:1020400084ED060A174890ED000A84ED070A0EB1E8
:10205000012000E000200FB1022100E00021084330
:10206000001D2062BFF35F8F06480068401C0549D1
:10207000086000BFB2E70000E4000020700000200C
:1020800078000020DC000020E0000020E8000020B4
:10209000042A002074000020B0010020A4010020C8
:1020A000D4000020D800002070B52DED028B05462D
:1020B0000C46B0EE408A1448007818B9FEF7B4FD1B
:1020C000022803DA0020BDEC028B70BD0F480078B7
:1020D000032808D1D4ED000AB0EE600AF0EE480AF9
:1020E000284605F087FE04F0C9FB064672B684ED6B
:1020F000008A07480068401C05490860304604F023
:1021000021FC0120DFE70000CC000020700000204F
:10211000740000202DE9F043A1B000F0D3FA054689
:102120008024FEF771FF00F069FB10B921B0BDE813
:10213000F08305F0C1FB06F03DFE284605F0C4FE25
:102140004E480078032817D1FEF76EFD032813DBF5
:102150004B4800684B49096888420DD049480268DD
:1021600049A101A804F072FB01A9042007F038F886
:10217000444800684249086040480078032805D177
:1021800046480068281AB0F57A7F00D2CEE7434867
:10219000056004F073FB814672B64148D0F80080B8
:1021A00040480768484604F0CDFB3F48007810B12E
:1021B0003E48007808B944F002043248006808B18B
:1021C00044F004043A48007808B144F0080444F0AC
:1021D00010040FB144F020043348007808B144F0F3
:1021E0004004119517B1A5EB080000E00020129003
:1021F0002D48007818B12F480068281A00E0002008
:10220000139014972C48006815902C48006816907D
:102210002B48006817902B48006818902A48C06A1D
:1022200019902948006B1A90164800681B9027489F
:1022300000681C90264800681D90264800681E9083
:102240001F94002020905021022005F01DFE002642
:1022500009E011AA52F826101F4A02EB860006F088
:102260007FFF701CC6B2102EF3DB012250211A48EA
:102270000E38FEF711FD00BF58E700007000002087
:10228000F40000200001002074785F64726F705FBA
:10229000746F74616C3D256C75000000C4000020F3
:1022A000800000207C000020C9000020CA0000201F
:1022B000CC000020AC000020A00000208C000020FA
:1022C000900000209400002030B20020B0000020D8
:1022D0005C000020740000207228002010B5044625
:1022E00007480078032807D1FEF79EFC022803DB8D
:1022F0002146022006F074FF204603F047F910BD86
:10230000700000202DE9FF4F89B006468B469946A4
:1023100000F0DFF9074600F0D5F98246002008906A
:10232000CC480568CC48D0F8008000200690CB4807
:102330000068401CC9490860C94880F80090C94835
:10234000007870B1C8480068AAEB0000C74988420D
:1023500007D2C7480068381A069045F0804548F013
:102360008048C3480760C048C0F800A00120BD49AC
:102370000870B9F1000F05D0BE48C0F800A00120D8
:10238000BD490870BD480068381ABD4909688842CF
:1023900004D9BA480068381AB9490860092E01DC26
:1023A00001200FE00B2E01D105200BE00C2E08D1EF
:1023B000B4480068B0F5D76F01D1032002E00420D3
:1023C00000E002200390AF48006800EE900AF8EEAB
:1023D000600AB0EE600A01210846FFF715FD092EDC
:1023E00010DCA948D0ED0B0AB0EE600A01210020F4
:1023F000FFF70AFD012100EE106AB8EE400A022044
:10240000FFF702FD04F03AFA079072B601219F48E7
:1024100090ED000A1220FFF7F7FC01219C4890ED97
:10242000000A1320FFF7F0FC02200290079804F046
:1024300089FA984890ED000A974880ED030A95487C
:1024400090ED010A944880ED040A944890ED000A4A
:10245000914880ED050A914890ED010A8E4880ED83
:10246000060A8F4890ED000A8B4880ED070A8D48D8
:1024700090ED000A884880ED080A76480068054318
:102480007548006848EA000845F0405548F0405853
:10249000BBF1000F03D045F0406548F04068039859
:1024A000022803D180480068401C00E000207E49DB
:1024B00008607E480078401CC0B27C4908707C49A6
:1024C0000978884202DA0DB0BDE8F08F0020774924
:1024D000087078480078022800DAF4E76C210120BF
:1024E00005F0D2FC00242FE06B4800EB8400D0ED17
:1024F000000AB0EE600A04AA05A92046FFF798FB7F
:1025000001909DF8140010B90120A04085439DF86A
:10251000100040B10120A040284020B10120A0407F
:102520000899084308900122A2402A4012B1019A5A
:1025300092B200E0002211465F4A022303FB04200E
:1025400006F00AFE601CC4B21A2CCDDB5948007894
:10255000022827D10020009034225749A1F10A0017
:10256000FDF7B4FE012054490E3988703B480078CD
:10257000C870042408E050480E38015D00980844F3
:10258000C0B20090601CC4B2382CF4DB4A490E394A
:10259000009881F838000022392147480E38FEF7AC
:1025A0007BFB90E72D4801684348343006F0D8FDA6
:1025B000424801684048383006F0D2FD51463E4856
:1025C0003C3006F0CDFD3C484030069906F0C8FD91
:1025D00029463948443006F0C3FD41463648483064
:1025E00006F0BEFD34484C30089906F0B9FD32497A
:1025F0000E39039881F85E00029881F85F0003208D
:1026000081F8600081F861002D4801682A48543043
:1026100006F0A6FD59462848583006F09DFDBBF14E
:10262000000F01D00B9800E00020014622485A30EC
:1026300006F092FD00226C211F480E38FEF72CFB9D
:102640000E490968781A4A46039905F077FB00BFDE
:1026500039E70000BC000020C0000020A0000020DE
:10266000CA000020C8000020A800002037894100CF
:10267000A4000020AC000020C9000020B40000200D
:10268000B00000203404004088B10020B0010020D8
:10269000A401002034010020A82700204C010020C4
:1026A000540100205C010020EC000020CB00002041
:1026B000710000207000002072280020B800002067
:1026C000740000201CB5694601A805F0D5F80198F2
:1026D0001CBD1CB5694601A805F0CEF8019800EBB9
:1026E0004001C1EBC010BDF8001001EBC0001CBDE3
:1026F00010B503F071F910BDF0B50A4600210023B2
:10270000002400BF3DE0012505FA01F3156805EA44
:1027100003049C4234D105684F000326BE40B543F4
:10272000056015794E00B54006683543056015799A
:10273000012D02D01579022D16D185684F00032690
:10274000BE40B543856055794E00B5408668354337
:102750008560456801268E40B54345604568967999
:102760008E40B6B235434560C5684F000326BE4073
:10277000B543C560D5794E00B540C6683543C560E0
:10278000491C1029BFD3F0BDF0B5002300244D072C
:10279000ED0E02FA05F3CE1000F1200555F8265093
:1027A0004E07F70E0F26BE40B543CF1000F12006AE
:1027B00046F82750CE1000F1200555F8265045EA7E
:1027C0000304CE1000F1200545F82640F0BD024676
:1027D000002013690B400BB1012000E0002070477E
:1027E00041837047018370474FF6FF7101600021FC
:1027F000017141718171C171704700000148007819
:10280000704700006C00002070B52DED048B30483F
:1028100003F0F6F986B22F480088301A2E49088056
:102820002C48068008460088B0F5004F02DA0846BA
:10283000008803E028480088A0F5803005B200EE4B
:10284000105AB8EEC00A254880ED000A002415E0B1
:102850002349601C31F8100021F81400084630F9B3
:10286000140000EE100AB8EEC00A1C48D0ED000AB1
:1028700030EE200A80ED000A601C84B2042CE7DBF5
:10288000174820F81450154890ED000AF1EE040A9C
:1028900080EE201A80ED001A90ED000ADFED110A9B
:1028A00020EE200A10EE101A0846FDF7DCFE41EC7F
:1028B000190B9FED0D0B53EC102BFDF746FE41EC71
:1028C000180BFDF713FF0A490860BDEC048B70BDBF
:1028D00000080040C0010020BC010020B801002019
:1028E00024B200200000C842000000000030714007
:1028F000B001002000BFFEE72DE9F0412DED0C8B6B
:1029000005460E4600279FED770AB0EE409A9FEDF0
:10291000760AF0EE409A9FED750AB0EE40AA0024C8
:1029200038E005EBC40090ED000ADFED6E0AB4EE6E
:10293000E00AF1EE10FA20D805EBC40090ED000A91
:10294000DFED690AB4EEE00AF1EE10FA15DB05EBF3
:10295000C40090ED010ADFED630AB4EEE00AF1EE87
:1029600010FA0AD805EBC40090ED010ADFED5E0A0B
:10297000B4EEE00AF1EE10FA00DA09E03846791C0C
:102980008FB205EBC00005EBC40206CA06C000BF4B
:10299000601C84B2B442C4DB3E46032E04DA3046E7
:1029A000BDEC0C8BBDE8F08100241FE005EBC400FA
:1029B00090ED000AB4EEC90AF1EE10FA05D205EB6B
:1029C000C40090ED000AB0EE409A05EBC40090ED13
:1029D000000AB4EEE90AF1EE10FA05DD05EBC400D9
:1029E00090ED000AF0EE409A601C84B2B442DDDB48
:1029F00039EEC90AF1EE040A60EE200A00EE106A10
:102A0000B8EE400A80EE808AB3EE040AB4EEC08AC3
:102A1000F1EE10FA03D2B3EE040AB0EE408A0024BD
:102A200000275BE005EBC400D0ED008AECB3601C2E
:102A3000B04246D018EE100AFDF715FE41EC1B0B14
:102A400038EECA0A10EE101A0846FDF70CFE41ECEB
:102A50001D0BB0EE4D0AF0EE6D0A03F012FFB0EE62
:102A600040CAF0EE60CA53EC1B2B51EC1C0BFDF777
:102A70000DFE26D918EE100AFDF7F5FD41EC1B0BF3
:102A8000601C05EBC00090ED000A38EEC00A10EEA5
:102A9000101A0846FDF7E7FD41EC1D0BB0EE4D0A9C
:102AA000F0EE6D0A03F0EDFE00E00AE0B0EE40CA81
:102AB000F0EE60CA53EC1B2B51EC1C0BFDF7E6FD4E
:102AC00008D83846791C8FB205EBC00005EBC4026C
:102AD00006CA06C0B0EE68AA601C84B2B442A1DB8C
:102AE00038465DE7FFFF7F7FFFFF7FFF00000000AC
:102AF00030B503469FED2E0AB0EE402A9FED2D0A19
:102B0000B0EE401A9FED2C0AF0EE401A00242B4D37
:102B10002C708A4205DD541A022C02DBB2F5C87F04
:102B200002DD9FED250A30BD084628E003EBC00416
:102B3000D4ED000A9FED1E0AF4EEC00AF1EE10FA81
:102B400006D89FED1C0AF4EEC00AF1EE10FA02DA84
:102B50009FED190AE7E7F4EEC20AF1EE10FA01D28E
:102B6000B0EE602AF4EEC10AF1EE10FA01DDB0EE2B
:102B7000601A31EEA00AF0EE401A441CA0B2904256
:102B8000D4DB31EE420AF2EE042AB4EEE20AF1EEB0
:102B900010FA0AD20124094D2C70541A00EE104A82
:102BA000F8EEC02A81EEA20ABDE79FED030ABAE75C
:102BB000FFFF7F7FFFFF7FFF00000000300100204C
:102BC0002DE9F0412DED028B06460D4617460024F7
:102BD00038E005EBC40090ED000ADFED1D0A20EEA1
:102BE000200ADFED1C0A80EE201AB0EE418AB0EE1A
:102BF000480AFDF7E5FA05EBC400D0ED010A20EE26
:102C0000200A06EBC40080ED000A05EBC40090ED3D
:102C1000000ADFED0F0A20EE200ADFED0E0A80EE3B
:102C2000201AB0EE418AB0EE480AFDF705FB05EB2D
:102C3000C400D0ED010A20EE200A06EBC40080EDAE
:102C4000010A641CBC42C4DBBDEC028BBDE8F08110
:102C5000DB0F4940000034432DE9F04F2DED068B8A
:102C600099B080460E469246002764216846FDF7DB
:102C700054FB9FEDA50AA54880ED000ABAF5487FF0
:102C800005DD002019B0BDEC068BBDE8F08F514684
:102C9000304604F0D3FA9FED9C8A9FED9D9A04E1A3
:102CA000B0EE480A304604F013FB0546B0EE490A80
:102CB000304604F00DFB0446002D01DB002C00DA49
:102CC000E7E04FEAE57C05EB5C7C4FEAEC0C1DF895
:102CD0000CC04FEAE57B05EB5B7B4FEAEB0BA5EB0A
:102CE000CB0E4FF0010B0BFA0EFB0CEA0B0CBCF1F8
:102CF000000F18D14FEAE47C04EB5C7C4FEAEC0C4B
:102D00001DF80CC04FEAE47B04EB5B7B4FEAEB0B56
:102D1000A4EBCB0E4FF0010B0BFA0EFB0CEA0B0CE5
:102D2000BCF1000F00D0B4E006EBC50090ED000A46
:102D3000DFED780A20EE200ADFED750A80EE201A1A
:102D4000B0EE41AAB0EE4A0AFDF73AFA06EBC5002A
:102D5000D0ED010A60EE20AA06EBC40090ED000A57
:102D6000DFED6C0A20EE200ADFED690A80EE201A02
:102D7000B0EE41AAB0EE4A0AFDF722FA06EBC40013
:102D8000D0ED010A40EE80AAB0EE000ACAEE809AA9
:102D900006EBC50090ED000ADFED5E0A20EE200A8A
:102DA000DFED5B0A80EE201AB0EE41AAB0EE4A0ACF
:102DB000FDF742FA06EBC500D0ED010A60EE20AA4D
:102DC00006EBC40090ED000ADFED520A20EE200A67
:102DD000DFED4F0A80EE201AB0EE41AAB0EE4A0AAB
:102DE000FDF72AFA06EBC400D0ED010A40EE80AAF6
:102DF000B0EE000ACAEE808AF5EEC08AF1EE10FA53
:102E000046DB9FED450AF4EEC08AF1EE10FA3FD89A
:102E1000B7F5C87F3CDAEA1705EB5272D2101DF8FD
:102E200002202946EB1705EB5373DB10A5EBC30C0F
:102E3000012303FA0CF3DBB21A432846EB1705EB28
:102E40005373DB100DF80320E21704EB5272D2101B
:102E50001DF802202146E31704EB5373DB10A4EBAB
:102E6000C30C012303FA0CF3DBB21A432046E31729
:102E700004EB5373DB100DF8032008EBC700C0ED23
:102E8000009A3846791C8FB208EBC000C0ED018A69
:102E900000BF9FED220A38EE000AB0EE408A9FED97
:102EA0001F0A39EE400AB0EE409A9FED1D0AB4EEBB
:102EB000C08AF1EE10FA7FF6F3AE39464046FFF7CE
:102EC0001BFD07464FF000090EE008EBC90090ED2E
:102ED000000A0E48D0ED000A30EE200A80ED000A0C
:102EE00009F101001FFA80F9B945EEDB57B1074837
:102EF000D0ED000A00EE107AB8EE400A80EE801A9B
:102F000080ED001A3846BDE60000000018010020E0
:102F100000003443DB0F4940000048449A99193FB0
:102F2000000096422DE9F04F2DED0E8B83B0054643
:102F30000E4690460027002002909FEDFE0AB0EE5C
:102F4000408A824683469FEDFC0AF0EE408A9FED60
:102F5000FA0AF0EE40AA9FEDF80AB0EE409A9FED13
:102F6000F70AF0EE409A9FEDF50AB0EE40DA9FEDD9
:102F7000F30AB0EE40AA9FEDF20AF0EE40DAB8F1A3
:102F8000020F02DBB8F5487F05DD002003B0BDEC81
:102F90000E8BBDE8F08F002468E006EBC40090EDD6
:102FA000000ADFEDE80A30EE600A10EE101A08465B
:102FB000FDF759FB41EC1C0BB0EE4C0AF0EE6C0A2D
:102FC00003F05FFCB0EE40BAF0EE60BA9FEDDE0BAE
:102FD00053EC102B51EC1B0BFDF758FB19D806EBEB
:102FE000C40090ED010ADFEDDA0AB4EEE00AF1EE7A
:102FF00010FA0EDD06EBC40090ED010ADFEDCF0AFA
:10300000B4EEE00AF1EE10FA03D80AF101001FFA5B
:1030100080FA06EBC40090ED000ADFEDCA0A30EE3C
:10302000600AB0EEC00AF1EE000AB4EEE00AF1EE7A
:1030300010FA19D806EBC40090ED010ADFEDC50ABD
:10304000B4EEE00AF1EE10FA0EDB06EBC40090EDF0
:10305000010ADFEDBF0AB4EEE00AF1EE10FA03D880
:103060000BF101001FFA80FB601C84B2444594DB25
:10307000BAF10C0F04DBBBF1000F01D1002085E792
:103080009FEDB50AB0EE408A96E000248AE006EB98
:10309000C40090ED000A30EE480A10EE101A0846FF
:1030A000FDF7E1FA41EC1C0BB0EE4C0AF0EE6C0AB5
:1030B00003F0E7FBB0EE40BAF0EE60BA9FEDA70B6D
:1030C00053EC102B51EC1B0BFDF7E0FA68D806EB24
:1030D000C40090ED000ADFEDA30A20EE200ADFED28
:1030E000A20A80EE201AB0EE41BAB0EE4B0AFDF70C
:1030F000A3F806EBC400D0ED010A20EE200ADFEDB4
:103100009B0AB4EEE00AF1EE10FA49D806EBC400CF
:1031100090ED010ADFED8F0AB4EEE00AF1EE10FA4D
:103120003EDBC82F01DB384630E706EBC40090EDEC
:10313000000ADFED8C0A20EE200ADFED8B0A80EE1C
:10314000201AB0EE41BAB0EE4B0AFDF739F806EBA3
:10315000C400D0ED010A20EE200A05EBC70080ED87
:10316000000A06EBC40090ED000ADFED7E0A20EEB7
:10317000200ADFED7D0A80EE201AB0EE41BAB0EEF3
:103180004B0AFDF759F806EBC400D0ED010A20EE1A
:10319000200A05EBC70080ED010A781C87B204E025
:1031A000601C84B24445FFF672AF00BFB7EE000A60
:1031B00038EE000AB0EE408A9FED6D0AB4EEC08A88
:1031C000F1EE10FA7FF661AF062F01DA3846DDE640
:1031D0007A1E6B460121284601F02CFF9DED000A66
:1031E000B5EEC00AF1EE10FA03DD3946284605F0C7
:1031F000C3FF00241FE005EBC40090ED010AB4EE0C
:10320000E80AF1EE10FA05DD05EBC40090ED010AC5
:10321000F0EE408A05EBC40090ED010AB4EEE90A35
:10322000F1EE10FA05D205EBC40090ED010AF0EEC4
:10323000409A601C84B2BC42DDDB002431E005EB27
:10324000C40090ED010AB4EEEA0AF1EE10FA0EDDC8
:1032500005EBC40090ED010AB4EE680AF1EE10FA35
:1032600005D005EBC40090ED010AF0EE40AA05EB95
:10327000C40090ED010AB4EECD0AF1EE10FA0ED2C0
:1032800005EBC40090ED010AB4EE690AF1EE10FA04
:1032900005D005EBC40090ED010AB0EE40DA601CE9
:1032A00084B2BC42CBDB002443E005EBC40090EDCC
:1032B000010AB4EEC90AF1EE10FA17DD05EBC400FD
:1032C00090ED010AB4EE680AF1EE10FA0ED005EBAB
:1032D000C40090ED010AB4EE6A0AF1EE10FA05D0CE
:1032E00005EBC40090ED010AB0EE409A05EBC40076
:1032F00090ED010AB4EECA0AF1EE10FA17D205EB0E
:10330000C40090ED010AB4EE690AF1EE10FA0ED095
:1033100005EBC40090ED010AB4EE4D0AF1EE10FA8F
:1033200005D005EBC40090ED010AB0EE40AA601C88
:1033300084B21FE00000704200007AC500007A45A8
:10334000000000000000B442000000000000104037
:103350000080BB440000C84200008C420000000016
:103360000000F03FDB0F4940000034430000FA4406
:103370000000DC42BC4298DBB4EECA9AF1EE10FACF
:1033800001D8384602E679EE4A0A381F00EE100AE4
:10339000B8EEC00A80EE801AF0EE41DA0024A146B1
:1033A00043E0B1EE040A2DEE800A10EE101A084632
:1033B000FDF759F941EC1B0B05EBC40090ED010A38
:1033C000601C05EBC000D0ED010A30EE600A10EE83
:1033D000101A0846FDF747F941EC1C0BB0EE4C0AF9
:1033E000F0EE6C0A03F04DFAB0EE40EAF0EE60EA5F
:1033F00053EC1B2B51EC1E0BFDF748F913D805EBD2
:10340000C40090ED000A05EBC90080ED000A05EB51
:10341000C40090ED010A05EBC90080ED010A09F135
:1034200001001FFA80F9601C84B2781EA042B8DC4B
:103430004846ABE52DE9F05F2DED0E8B80460D463D
:103440001746B0EE408AF0EE608A0026B146B246DA
:10345000B3469FED6B0AB0EE40BA9FED690AF0EEFD
:1034600040BA9FED670AB0EE40CA9FED660AF0EEE3
:1034700040CA9FED640AB0EE40DA9FED620AF0EEBA
:1034800040DA9FED610AB0EE40EA022F13DBB7F598
:10349000487F10DCB5EEC08AF1EE10FA0BD39FED39
:1034A0005B0AF4EEC08AF1EE10FA04DCB4EEE88AAE
:1034B000F1EE10FA04DD0020BDEC0E8BBDE8F09FAC
:1034C00096E000248AE005EBC40090ED000A30EE9F
:1034D000480A10EE101A0846FDF7C5F841EC1A0B21
:1034E000B0EE4A0AF0EE6A0A03F0CBF9B0EE409A69
:1034F000F0EE609A9FED460B53EC102B51EC190B3C
:10350000FDF7C4F868D805EBC40090ED000ADFEDC4
:10351000420A20EE200ADFED3D0A80EE201AB0EECE
:10352000419AB0EE490AFCF787FE05EBC400D0EDE6
:10353000010A20EE200ADFED390AB4EEE00AF1EECE
:1035400010FA49D805EBC40090ED010ADFED340A0A
:10355000B4EEE00AF1EE10FA3EDBC82E01DB304695
:10356000AAE705EBC40090ED000ADFED2B0A20EE80
:10357000200ADFED260A80EE201AB0EE419AB0EE66
:10358000490AFCF71DFE05EBC400D0ED010A20EE50
:10359000200A08EBC60080ED000A05EBC40090EDA0
:1035A000000ADFED1D0A20EE200ADFED180A80EE8A
:1035B000201AB0EE419AB0EE490AFCF73DFE05EB49
:1035C000C400D0ED010A20EE200A08EBC60080ED11
:1035D000010A701C86B204E0601C84B2BC42FFF693
:1035E00072AF00BFB7EE000A38EE000AB0EE408AB4
:1035F000B4EEE88AF1EE10FA7FF663AF30465BE78F
:1036000000007AC500007A45000000000000344345
:10361000000000000000F03FDB0F49400000FA44CA
:103620000000C84270B504460D46164601233246D6
:103630002946204604F048F870BD70B504460D4692
:103640001646002332462946204604F03DF870BD58
:103650002DE9F0472DED088B05460E4600249FED21
:10366000C00AB0EE408A082E02DBB6F5C87F04DD42
:103670000020BDEC088BBDE8F08703246AE14FF021
:103680000108A01E87B220E0781C05EBC000D0ED39
:10369000000A05EBC70090ED001A70EEC10AF0EECB
:1036A000E00AB0EE600AF5EE000AB4EEE00AF1EED0
:1036B00010FA06D3F0EE000AB4EEE00AF1EE10FACA
:1036C00001DD4FF00008781C87B2E01C8742DBDB8D
:1036D000B8F1000F00D13BE105EBC40090ED000A0A
:1036E000DFEDA00AB4EEE00AF1EE10FA7EDB601C1A
:1036F00005EBC00090ED011AF0EE410A05EBC400A5
:1037000090ED011AB0EE410A03F0E9F8F5EE000A77
:1037100020EE200AF0EE408AF0EE680A9FED920A51
:1037200003F0B9F810EE109A4846FCF79CFF41EC04
:103730001A0B05EBC40090ED010A601C05EBC000FC
:10374000D0ED010A30EE600A10EE101A0846FCF7C0
:103750008AFF41EC1B0BB0EE4B0AF0EE6B0A03F054
:1037600090F8B0EE409AF0EE609A53EC1A2B51ECC0
:10377000190BFCF7A3FF39D8601C05EBC00090EDD6
:10378000011AF0EE410A05EBC40090ED011AB0EE0B
:10379000410A03F0A4F8F5EE000A20EE200AF0EE4C
:1037A000408AF0EE680A9FED700A03F074F810EE9C
:1037B000109A4846FCF757FF41EC1A0B601E05EBC8
:1037C000C00090ED010AA01C05EBC000D0ED010A7D
:1037D00030EE600A10EE101A0846FCF744FF41EC88
:1037E0001B0BB0EE4B0AF0EE6B0A00E07DE003F03D
:1037F00048F8B0EE409AF0EE609A53EC1A2B51EC78
:10380000190BFCF75BFF70D8601C05EBC00090ED56
:10381000011AF0EE410A05EBC40090ED011AB0EE7A
:10382000410A03F05CF8F5EE000A20EE200AF0EE03
:10383000408AF0EE680A9FED4C0A03F02CF810EE77
:10384000109A4846FCF70FFF41EC1A0BA01E05EB3F
:10385000C00090ED010AE01C05EBC000D0ED010AAC
:1038600030EE600A10EE101A0846FCF7FCFE41EC40
:103870001B0BB0EE4B0AF0EE6B0A03F002F8B0EE51
:10388000409AF0EE609A53EC1A2B51EC190BFCF7AE
:1038900015FF5CD805EBC40090ED010AA01C05EBF8
:1038A000C000D0ED010AB4EEE00AF1EE10FA1DDD21
:1038B000A01C05EBC00090ED000ADFED2C0A20EE05
:1038C000200ADFED2B0A80EE201AF0EE418AB0EEDE
:1038D000680AFCF7B1FCA01C05EBC000D0ED010AA2
:1038E00020EE200AB0EE408A1CE030E0601E05EBBE
:1038F000C00090ED000ADFED1D0A20EE200ADFED8A
:103900001C0A80EE201AF0EE418AB0EE680AFCF73D
:1039100093FC601E05EBC000D0ED010A20EE200AEA
:10392000B0EE408A134890ED000AB4EEC08AF1EE82
:1039300010FA0CDB9FED100AB4EEC08AF1EE10FA1B
:1039400005D2BCEEC80A10EE100A80B291E600BFA4
:10395000601C84B2201DB042FFF691AE002088E6C4
:10396000000000000000C8420000C843DB0F4940CF
:10397000000034438C01002000007A442DE9F04718
:103980002DED088B05460E4600249FEDC10AB0EED2
:10399000408A082E02DBB6F5C87F04DD0020BDECAE
:1039A000088BBDE8F08703246BE14FF00108A01EEF
:1039B00087B220E0781C05EBC000D0ED000A05EBD3
:1039C000C70090ED001A70EEC10AF0EEE00AB0EE0A
:1039D000600AF5EE000AB4EEE00AF1EE10FA06D342
:1039E000F0EE000AB4EEE00AF1EE10FA01DD4FF05D
:1039F0000008781C87B2E01C8742DBDBB8F1000FBF
:103A000000D13CE105EBC40090ED000ADFEDA10A16
:103A1000B4EEE00AF1EE10FA7ED8601C05EBC000AF
:103A200090ED011AF0EE410A05EBC40090ED011A89
:103A3000B0EE410A02F053FFF5EE000A20EE200A34
:103A4000F0EE408AF0EE680A9FED930A02F023FF41
:103A500010EE109A4846FCF706FE41EC190B05EBF8
:103A6000C40090ED010A601C05EBC000D0ED010A16
:103A700030EE600A10EE101A0846FCF7F4FD41EC37
:103A80001B0BB0EE4B0AF0EE6B0A02F0FAFEB0EE42
:103A900040AAF0EE60AA53EC192B51EC1A0BFCF77C
:103AA0000DFEB9D8601C05EBC00090ED011AF0EED8
:103AB000410A05EBC40090ED011AB0EE410A02F094
:103AC0000EFFF5EE000A20EE200AF0EE408AF0EE3E
:103AD000680A9FED710A02F0DEFE10EE109A484669
:103AE000FCF7C1FD41EC190B601E05EBC00090ED29
:103AF000010AA01C05EBC000D0ED010A30EE600AFF
:103B000010EE101A0846FCF7AEFD41EC1B0BB0EEB0
:103B10004B0AF0EE6B0A00E07EE002F0B2FEB0EE7F
:103B200040AAF0EE60AA53EC192B51EC1A0BFCF7EB
:103B3000C5FD71D8601C05EBC00090ED011AF0EED8
:103B4000410A05EBC40090ED011AB0EE410A02F003
:103B5000C6FEF5EE000A20EE200AF0EE408AF0EEF6
:103B6000680A9FED4D0A02F096FE10EE109A484644
:103B7000FCF779FD41EC1A0BA01E05EBC00090ED9F
:103B8000010AE01C05EBC000D0ED010A30EE600A2E
:103B900010EE101A0846FCF766FD41EC1B0BB0EE68
:103BA0004B0AF0EE6B0A02F06CFEB0EE409AF0EEBB
:103BB000609A53EC1A2B51EC190BFCF77FFD5DD882
:103BC000601E05EBC00090ED010AA01C05EBC000D3
:103BD000D0ED010AB4EEE00AF1EE10FA1DDDA01CF2
:103BE00005EBC00090ED000ADFED2C0A20EE200A64
:103BF000DFED2B0A80EE201AF0EE418AB0EE680A63
:103C0000FCF71AFBA01C05EBC000D0ED010A20EE6A
:103C1000200AB0EE408A1CE030E0601E05EBC000D8
:103C200090ED000ADFED1D0A20EE200ADFED1C0AF0
:103C300080EE201AF0EE418AB0EE680AFCF7FCFA3A
:103C4000601E05EBC000D0ED010A20EE200AB0EEA8
:103C5000408A144890ED000AB4EEC08AF1EE10FAE2
:103C60000CDB9FED110AB4EEC08AF1EE10FA05D21A
:103C7000BCEEC80A10EE100A80B290E600BF601CCD
:103C800084B2201DB042FFF690AE002087E600000F
:103C9000000000000000A0420000C843DB0F4940C4
:103CA000000034438C01002000007A442DE9F047E5
:103CB0002DED0A8B044688469FED790AB0EE40CA86
:103CC0009FED770AF0EE40AA9FED750AB0EE40AA8C
:103CD0009FED730AB0EE409A9FED710AF0EE408AB4
:103CE0009FED6F0AB0EE40BAB8F5487F05DDB0EE43
:103CF0004B0ABDEC0A8BBDE8F0874146204603F035
:103D00009DFA0025C6E004EBC50090ED000ADFED4A
:103D1000650AB4EEE00AF1EE10FA72DB04EBC500BE
:103D200090ED000ADFED600AB4EEE00AF1EE10FA61
:103D300067D804EBC500D0ED00BA9FED5C0A3BEEFE
:103D4000800AF0EE409A9FED5A0AF4EEC09AF1EE26
:103D500010FA05DB9FED560A39EEC00AF0EE409AE4
:103D6000B0EE000A29EE800ABDEEC00A10EE107A0D
:103D7000A7F1030988E009F534704FF4347190FB22
:103D8000F1F201FB12004B4931F9106078E004EBCD
:103D9000C600D0ED000A70EEE90AF0EEE00AB0EEDF
:103DA000600ADFED420AB4EEE00AF1EE10FA05DD3A
:103DB000DFED3F0A70EEC00AB0EE600AF7EE000ACF
:103DC000B4EEE00AF1EE10FA57D804EBC500D0EDDE
:103DD000010A04EBC60090ED011A30EE818AB4EEC0
:103DE000CC8AF1EE10FA0DD8B0EE68BAF0EE498A3E
:103DF000B0EE4A9AB0EE6AAAF0EE4CAAB0EE48CA0B
:103E00003BE045E0B4EEEA8AF1EE10FA0AD8B0EEF3
:103E100068BAF0EE498AB0EE4A9AB0EE6AAAF0EEBD
:103E200048AA2AE0B4EECA8AF1EE10FA08D8B0EE39
:103E300068BAF0EE498AB0EE4A9AB0EE48AA1CE0A1
:103E4000B4EEC98AF1EE10FA06D8B0EE68BAF0EE18
:103E5000498AB0EE489A10E0B4EEE88AF1EE10FA22
:103E600004D8B0EE68BAF0EE488A06E0B4EECB8A29
:103E7000F1EE10FA01D8B0EE48BA0F4830F91660EA
:103E8000002E84DA09F10109F81C81457FF773AF30
:103E9000681C85B24545FFF636AFB0EE4B0A28E701
:103EA00000409C450000164300005243000034438C
:103EB0000000B4437C9100201C9700200548007846
:103EC00038B905480068401C0349086001200149D1
:103ED000087070474C000020580000202DE9F04188
:103EE00007460D4616461C4804681C48D0F800805A
:103EF0001B48007830B9B5F5007F03D31948006836
:103F0000844202D10020BDE8F081BFF35F8F04F04E
:103F10000F0000EB4000144901EB800207CA86E85D
:103F2000070004F00F00114A02EB40214FF4007229
:103F30003846FCF7CBF9BFF35F8F601C0649086079
:103F40000748007830B905480068804502D14FF431
:103F50000070D8E70020D6E7480000205800002075
:103F60004C000020440000202026002020060020D5
:103F700070B51E48007800B970BD00211C48FDF7DF
:103F800029FB1B48FDF7DEFB00B1F5E700BFEFF3AF
:103F90001080044600BF72B61648006816490860D3
:103FA00016480588001D058815491148FDF7F8FADF
:103FB0004FF480610E48FDF791FC00201149087014
:103FC000FEF787FB104908601048406810490860F8
:103FD00000200649087001210548FDF7FBFA00BFE3
:103FE00084F3108800BF00BFC6E700004C0000202B
:103FF0008860024044000020480000200044004047
:10400000400F00204D00002050000020001000E074
:104010005400002010B54FF0FF3200211EE021486F
:10402000405C022819D1002A16DB01EBC10000EB2D
:1040300001301D4B03EB800000F58040036802EB6C
:10404000C20000EB0230184C04EB800000F5804009
:104050000068181A002800DD0A46491C0229DEDB28
:10406000002A01DA002010BD00210EE091420BD0A1
:104070000C48405C022807D100200A4B58540B48DA
:10408000006B401C094B1863491C0229EEDB03201E
:10409000044B985402EBC20000EB0230024B03EBDE
:1040A0008000E0E7C401002068B2002030B20020A8
:1040B000024642F22830801A014648F6A04091FBA1
:1040C000F0F300FB1311002900DA014488B27047B5
:1040D0002DE9F74F2DED048B054689460027BA469A
:1040E000B8460020B7490880B7490880B74908801A
:1040F0009FEDB70AB74880ED000A0020B649087066
:10410000B6490880B6490870B6490870B6490870C3
:104110008020B649087044F22000405DB449087020
:1041200044F214004059B3490968884201D1012082
:1041300000E00020B0490870FEF7CBFA44F210010D
:104140004959401AAD4908604FF480404059AC4984
:10415000086044F210004059AA49086044F2140073
:104160004059A9490860A949284600F089F98C24DA
:1041700012E0A64830F814004FF6FF71884207D1CC
:104180000AF1010080B28246404503DDD04601E0DD
:104190004FF0000A601C84B2DC2CEADD8F48A0F8E6
:1041A000008000244FE0994830F814004FF6FF716A
:1041B000884246D0954830F8140005EBC006308898
:1041C000FFF776FF00EE100AB8EE400ADFED900A26
:1041D00080EE201AB0EE418A0698874204DB002068
:1041E000BDEC048BBDE8FE8F09EBC70080ED008AB3
:1041F000708800EE100AB8EE400A3846791C8FB27B
:1042000009EBC00080ED010A8C2C06DBDC2C04DC01
:104210006E480088401C6D490880DC2C07DBB4F533
:10422000AA7F04DC68480088401C67490880142C79
:1042300006DB8C2C04DC63480088401C6149088044
:1042400000BF601C84B2B4F5347FACD300244BE0D3
:1042500005EBC406708820B1708842F21071884264
:1042600000D93FE03088FFF723FF834644F25061D6
:104270008B4500D936E000EE10BAB8EE400ADFED0B
:10428000650A60EE208AB0EE680AFBF799FF708835
:1042900000EE900AF8EE600A20EE209AB0EE680A6E
:1042A000FBF7CAFF708800EE900AF8EE600A20EE75
:1042B000208AB5EEC08AF1EE10FA12DDB0EEC90A1E
:1042C000DFED550AB4EEE00AF1EE10FA09D24148EA
:1042D00090ED000AB4EEC08AF1EE10FA01D280ED42
:1042E000008A00BF601C84B244F21800405BA04208
:1042F000AEDCFEF7EEF944F210014959401A3F498D
:10430000086044F2140040593A490968884201D1D2
:10431000012000E00020384908702C4800880C2853
:1043200004D3B8F1140F01D8012000E000202E4979
:10433000087025480088042801D3012000E00020EF
:10434000284908701F480088042801D3012000E094
:10435000002023490870002044F22001495D09B97A
:1043600040F00100194909880C2901D240F00200EF
:10437000B8F1140F01D940F004001A49097809B9BD
:1043800040F008001649097809B940F0100044F2DD
:1043900014014959174A1268914201D040F0200097
:1043A000164909681D4A914201D940F040000F4961
:1043B000087008B9012100E00021074A1170384651
:1043C0000EE70000F4010020F2010020F0010020BF
:1043D00000401C46F8010020FC010020FE010020E6
:1043E0000802002007020020060200200902002027
:1043F00004020020580000200502002000020020D6
:10440000E4010020E8010020EC010020B03401208C
:104410000000C842D402373900000243605B030049
:104420002DE9F04105460E461746984610480068AB
:1044300030440F490860002416E00E48008828B96F
:10444000285DA52800D00EE00B480760295D0948CB
:1044500002880088401C074B188008488154404659
:1044600004F0C8FD00BF641CB442E6D3BDE8F0818F
:1044700030B20020CC010020D0010020B032012059
:104480002DE9F04706460D464FF0000A002405E0EE
:104490004FF6FF7025F81400601C84B2B4F5347F29
:1044A000F6D300242CE006EBC408B8F80200642818
:1044B00005D3B8F8020042F21071884200D91DE01D
:1044C000B8F80000FFF7F4FD3221B0FBF1F735F842
:1044D00017904FF6FF70814506D125F817400AF175
:1044E00001001FFA80FA08E0B8F8020006EBC901E3
:1044F0004988884201DA25F8174000BF601C84B261
:1045000044F21800805BA042CDDC5046BDE8F08745
:1045100010B538210648FBF700FF0648002101804E
:104520000020054908800549086002F06DFE10BDB5
:1045300030B20020C4010020CC010020D8010020AE
:1045400010B5044600200549088002F05DFE0448CD
:104550004463006A401C0249086210BDCC0100207F
:1045600030B200203EB502241E4800681E4909688A
:10457000884207D01C4800681A490860084600684D
:10458000FFF7DEFFFFF7F4FC1EE01649029809680A
:10459000884206D013490298086008460068FFF771
:1045A000CFFFFEF796F80099401A1049884204D9C7
:1045B0000C480068FFF7C4FF06E029460C48DDE917
:1045C0000023FFF72DFF00BF201EA4F1010407D038
:1045D0006A464FF400710648FFF780FC051ED4D1EF
:1045E0003EBD0000E001002058000020605B030099
:1045F000503A01200146002010E000EBC00202EB1F
:104600000032084B03EB82028A4206D1064A125C52
:10461000032A02D10022044B1A54401C0228ECDB6E
:104620007047000068B20020C401002000BFFEE710
:104630002DE9F04F2DED108B87B082460D461746C1
:10464000B0EE40AA9946DDE92084FEF742F80590D5
:10465000FD4905980968401A04909FEDFC0AF0EEA8
:10466000408A9FEDFA0AF0EE40AA9FEDF90AF0EEBB
:1046700040EA9FEDF60AB0EE40DA0020F5490870F6
:10468000F5480088F54988610846C0F81C90C0F8D4
:104690002080C84502DDA8EB090000E00020EF49BA
:1046A000486295ED0A0AEE4880ED0D0A97ED000A82
:1046B00080ED0B0A97ED010A80ED0C0A092C04DC51
:1046C000C84502DDB8F5C87F10DD012C01D0022CF1
:1046D00005D1E248006940F00800E049086104F0B3
:1046E00025FD07B0BDEC108BBDE8F08F002C7DD10F
:1046F00097ED000A10EE101A0846FBF7B4FFCDE95B
:1047000002019DED020B02F0BCF8B0EE40CAF0EEE3
:1047100060CA9FEDD40B53EC102B51EC1C0BFBF734
:10472000CDFF37D297ED000A10EE101A0846FBF7BE
:104730009AFF41EC1C0BB0EE4C0AF0EE6C0A02F052
:10474000A0F88DED020B9FEDC90B53EC102B9DEDE6
:10475000020B51EC100BFBF799FF1BD897ED010AE8
:1047600010EE101A0846FBF77EFF41EC1C0BB0EE72
:104770004C0AF0EE6C0A02F084F88DED020B9FED0E
:10478000BB0B53EC102B9DED020B51EC100BFBF708
:104790007DFF02D904F0CAFCA3E7B64890ED000AF9
:1047A000F7EE000AB4EE600AF1EE10FA03D1B24857
:1047B00090ED000A05E0A8F101000AEBC00090EDC1
:1047C000010AB0EE40FA97ED010A3FEE400AD7ED3C
:1047D000000A80EE201AA94890ED000A31EE400A46
:1047E000B1EE400AF0EE408AA24800E025E090EDEC
:1047F000000AF7EE000AB4EE600AF1EE10FA1BD0E0
:104800009F4890ED000AF4EEC08AF1EE10FA03DD45
:1048100090ED000AF0EE408A994890ED000AB1EE62
:10482000400AF4EEC08AF1EE10FA05D290ED000ACB
:10483000B1EE400AF0EE408AC3E1012C01D0022C17
:1048400074D1012C03D18F4890ED000A02E08E480C
:1048500090ED000AB0EE40FA4E4657E00AEBC60073
:1048600090ED010A30EE4F0A10EE101A0846FBF7E1
:10487000FAFECDE902019DED020B02F002F8B0EE66
:1048800040CAF0EE60CA51EC1C0BFBF72FFF0FEE95
:10489000900AF4EEEEFAF1EE10FA35D20AEBC60009
:1048A00090ED000A10EE101A0846FBF7DCFECDE989
:1048B00002019DED020B01F0E4FFB0EE40CAF0EE04
:1048C00060CA9FED6A0B53EC102B51EC1C0BFBF7ED
:1048D000DDFE19D8F0EE6FEA0AEBC60090ED000A93
:1048E000F0EE40AA5D48006940F002005B490861B3
:1048F0005B48C0ED08AA0AEBC60090ED010A5848D3
:1049000080ED090AC0ED0AFA701C86B24645A5DBA7
:104910005248007C00F0020048B95048006940F05D
:1049200008004E49086104F001FCDAE62BE0012C96
:1049300013D1564890ED000A5548D0ED000A60EEBC
:10494000200A9FED541A80EE810A30EE2A0A4B4865
:10495000D0ED000A30EEC00A12E04C4890ED000A9B
:104960004D48D0ED000A60EE200A9FED4A1A80EE15
:10497000810A3AEEC00A4148D0ED000A30EEC00A82
:10498000F0EE408A1DE1032C05D0042C03D0082C46
:1049900001D0092C57D197ED000A10EE101A0846E5
:1049A000FBF761FECDE902019DED020B01F069FF0D
:1049B000B0EE40CAF0EE60CA9FED2C0B53EC102B0A
:1049C00051EC1C0BFBF762FE02D904F0AFFB88E64A
:1049D00097ED000A10EE101A0846FBF744FE41EC72
:1049E0001C0BB0EE4C0AF0EE6C0A01F04AFF8DEDA4
:1049F000000B9FED2A0B53EC102B9DED000B51EC9F
:104A0000100BFBF743FE02D29FED260B54E097ED0F
:104A1000000A10EE101A0846FBF725FE41EC1C0BAD
:104A2000B0EE4C0AF0EE6C0A01F02BFF8DED000B9E
:104A30009DED000B53EC102B9FED1C0B51EC100B5C
:104A4000FBF783FD36E059E09C01002000000000E8
:104A5000FFFF7F7F980100209A0100206429002039
:104A6000C4290020000000A09999B93F000000E08F
:104A7000FFFFEF477C01002078010020800100202B
:104A80008401002070010020740100200400002037
:104A9000680100200000C8426C0100200000006096
:104AA0006666D63F0000000000407F400000000026
:104AB00000E0654041EC100B8DED020B9DED020B0B
:104AC00051EC100BFBF712FE0BEE900AFE4890ED36
:104AD000000AF4EEC0BAF1EE10FA03D290ED000A2B
:104AE000F0EE40BA032C01D0082C02D1B1EE6B0AD3
:104AF00001E0B0EE6B0AF0EE408A62E0052C10D1C6
:104B0000F248007810B904F011FBEAE5F04890EDA6
:104B1000000AF048D0ED000A30EE600AF0EE408A5C
:104B20004FE0A8EB0900022802DA04F0FFFAD8E50A
:104B30004E462AE00AEBC60090ED000A10EE101A6D
:104B40000846FBF790FD41EC1C0BB0EE4C0AF0EE72
:104B50006C0A01F096FE8DED020B1FED3C0B53EC41
:104B6000102B9DED020B51EC100BFBF78FFD02D9C2
:104B700004F0DCFAB5E50AEBC60090ED000A30EE71
:104B80002A0AF0EE40AA701C86B24645D2DBA8EB9A
:104B9000090000EE100AB8EEC00ACAEE800AF0EE74
:104BA00060AACB4890ED000A30EE6A0AF0EE408A27
:104BB000C948C0ED0EAAC948006940F48070C749D1
:104BC000086118EE900AFBF74EFDCDE902019DED5C
:104BD000020B01F056FEB0EE40CAF0EE60CA1FEDC7
:104BE0005D0B53EC102B51EC1C0BFBF74FFD02D966
:104BF00004F09CFA75E59FEDBA0AF4EEC08AF1EE76
:104C000010FA03DD9FEDB60AF0EE408A9FEDB50A7B
:104C1000F4EEC08AF1EE10FA03D29FEDB20AF0EE84
:104C2000408A012C01D0022C02D195ED020A09E044
:104C30001CB1052C04DB072C02DC95ED000A01E019
:104C400095ED010AB0EE40EA012C01D0022C02D110
:104C500095ED060A09E01CB1052C04DB072C02DCEB
:104C600095ED040A01E095ED050AF0EE40DA9E4864
:104C7000007848B1049838B19C490498884203D818
:104C80009B480088844208D0C5ED0A8A9348006991
:104C900040F00400914908610BE09DED040AF8EE34
:104CA000400A9FED941A81EE200A20EE2D0AF0EEC4
:104CB00040DAB2EE040A2EEE000A20EE288AB2EEA6
:104CC000040A2DEE800AD5ED0A0A78EEE00A60EEBD
:104CD000209AB0EE69BA9FED880AF4EEC09AF1EE20
:104CE00010FA03DD9FED840AF0EE409A9FED830AEF
:104CF000F4EEC09AF1EE10FA03D29FED800AF0EEC6
:104D0000409AB5EEC08AF1EE10FA06DB38EE290AB9
:104D1000B5EEC00AF1EE10FA0BD3B5EEC08AF1EE93
:104D200010FA0AD838EE290AB5EEC00AF1EE10FAE8
:104D300003DDB1EE480AF0EE409AF4EE4B9AF1EE44
:104D400010FA05D06548006940F4006063490861C5
:104D5000204604F081FAE0B3204604F07DFA834651
:104D60006348008804F078FA834509D1204604F0AE
:104D700086FA83465E48008804F081FA83454ADD5E
:104D8000204604F069FA012804D1B5EEC08AF1EE9C
:104D900010FA09D3204604F05FFA02283BD1B5EEA1
:104DA000C08AF1EE10FA36DD18EE100AFBF75BFC54
:104DB00041EC1C0BB0EE4C0AF0EE6C0A01F061FD08
:104DC0008DED020B9DED020B51EC100BFBF78EFCF1
:104DD00000E020E00DEE100A9FED490AB4EEC0DAC3
:104DE000F1EE10FA03D29FED460AB0EE40DA9FEDE5
:104DF000450AB4EEC0DAF1EE10FA03DD9FED410A88
:104E0000B0EE40DAB5EEC08AF1EE10FA03D2B1EEA0
:104E10004D0AB0EE40DAF2EE040AB0EE480A00EEB7
:104E20008A0A30EE290A30EE0D9A032C01D0082CA4
:104E300014D1B2EE040A2AEE000AB4EEC90AF1EE69
:104E400010FA0BD2B2EE040A2AEE000AB0EE409A33
:104E50002248006940F4806020490861042C01D098
:104E6000092C14D1B2EE040A2AEE000AB4EEC90AE3
:104E7000F1EE10FA0BDDB2EE040A2AEE000AB0EEF3
:104E8000409A1648006940F480601449086119EEA0
:104E9000100AFBF7E8FB41EC1C0BB0EE4C0AF0EEFD
:104EA0006C0A01F0EEFC8DED020B9FED170B53EC3D
:104EB000102B9DED020B51EC100BFBF7E7FB27D9F4
:104EC00004F034F90DE400008801002030010020D6
:104ED000800100202C010020C4290020642900202A
:104EE0000000FA430000FAC39901002090D00300AB
:104EF0009A010020009CE04700001643000016C302
:104F00000000344200009642000000E0FFFFEF473F
:104F10002D48006940F001002B49086195ED0A0A0F
:104F20002A4880ED000AC0ED018A80ED028AC0EDBA
:104F3000039A80ED04EAC0ED05DA80ED069AB2EE40
:104F4000040A2AEE000A80ED070A9FED210AB4EE5A
:104F5000C09AF1EE10FA06D39FED1E0AB4EEC09A85
:104F6000F1EE10FA05DD1848006940F0100016490E
:104F700008619FED170AB4EEC09AF1EE10FA03D261
:104F80009FED130AB0EE409A9FED120AB4EEC09A5C
:104F9000F1EE10FA03DD9FED0F0AB0EE409AC5ED79
:104FA0000A8AC5ED0B8A0C49059808600B480480F5
:104FB00001200B4908700B490870BCEEC90A10EEBD
:104FC000100A80B2B1E4000064290020C429002046
:104FD000004092440000D7449C0100209A01002028
:104FE000990100209801002000B5024600F018F851
:104FF0009FED0A3A82ED0B3A9FED083A82ED0A3AAC
:1050000082ED000AC2ED010A82ED021AC2ED041A15
:1050100082ED052AC2ED062A00BD00000000000056
:105020000020024908700249087070479901002069
:10503000980100202DE9F0472DED068B06460F461E
:1050400090461C46A8EB07099FED6E0AB0EE409A09
:105050009FED6C0AF0EE408A9FED6A0AB0EE40AA1E
:105060009FED680AF0EE40AA9FED660A84ED010A02
:1050700084ED000A002F05DBB9F1020F02DBB8F561
:10508000C87F08DD00212046FCF70AFF0020BDECA8
:10509000068BBDE8F0873D4632E006EBC50090ED9B
:1050A000008A06EBC500D0ED019A9FED570AB4EED9
:1050B000C08AF1EE10FA14D89FED540AB4EEC08AFB
:1050C000F1EE10FA0DDB9FED500AF4EEC09AF1EE0E
:1050D00010FA06D89FED4D0AF4EEC09AF1EE10FAE0
:1050E00005DA00212046FCF7DBFE0020CFE739EE91
:1050F000080AB0EE409A38EEA90AF0EE408A6D1C1C
:105100004545CADB00EE109AB8EEC00AC9EE000AA7
:10511000B0EE609A00EE109AB8EEC00AC8EE800AAF
:10512000F0EE608A3D461AE006EBC50090ED000AFD
:1051300030EE490AB0EE408AB0EE4A0A08EE080A9C
:10514000B0EE40AA06EBC50090ED010A70EE680AC9
:10515000B0EE6A0A08EE200AF0EE40AA6D1C454542
:10516000E2DB9FED2B0AB4EEC0AAF1EE10FA07D8ED
:10517000C4ED018A00212046FCF792FE002086E75C
:105180008AEE8A0A84ED000AD4ED000AB0EE680ABD
:1051900000EEC90A84ED010A94ED000ADFED1A0A57
:1051A000B4EEE00AF1EE10FA1AD894ED000ADFED41
:1051B000170AB4EEE00AF1EE10FA11DB94ED010AE1
:1051C000DFED110AB4EEE00AF1EE10FA08D894ED22
:1051D000010ADFED0E0AB4EEE00AF1EE10FA0BDA86
:1051E0009FED080A84ED010A84ED000A00212046A3
:1051F000FCF756FE00204AE701212046FCF750FE4E
:10520000012044E700000000FFFF7F7FFFFF7FFFDA
:10521000BD37863570B504460D461646FCF780F856
:10522000691E601E324600F037FB70BD10B50446A3
:1052300021464FF0804000F0EAFD10BD70470000AD
:1052400070B5002100230F22C4781CB3174C2468CA
:1052500004F4E064C4F5E064C4F30721C1F104047C
:10526000E3B20A4144789C40E1B28478144021437F
:105270000C07210E0E4C05786155047804F01F05CB
:105280000124AC4005786D11AD0005F1E025C5F8AD
:10529000004109E0047804F01F050124AC40054DED
:1052A0000678761145F8264070BD00000CED00E050
:1052B00000E400E080E100E002490143024A11609D
:1052C000704700000000FA050CED00E0B0EE401A57
:1052D000DFED311AB0EE610A70EEC11AC0ED0B1AA3
:1052E000D0ED0C1A90ED0B2A71EE821AC0ED0C1A5B
:1052F000D0ED0C1A9FED292AF4EEC21AF1EE10FA45
:1053000003DBDFED261AC0ED0C1AD0ED0C1A9FED71
:10531000242AF4EEC21AF1EE10FA03D8DFED201AB7
:10532000C0ED0C1AD0ED001A90ED0B2A61EE821A36
:1053300090ED032AD0ED0C2A42EE221A90ED0B2AB2
:10534000D0ED0A2A32EE622AD0ED042A42EE821A09
:10535000B0EE610AD0ED0B1AC0ED0A1AD0ED0C1AAE
:105360001049C1ED001A104981ED000ADFED0F1A56
:10537000B4EEE10AF1EE10FA03DBDFED0C1AB0EE49
:10538000610AB5EEC00AF1EE10FA03D8DFED021A99
:10539000B0EE610A704700000000000000004843C2
:1053A000000048C3D4000020D80000200000C842FC
:1053B0007047000029B1064A12680243044B1A6084
:1053C00004E0034A12688243014B1A6070470000F0
:1053D0003038024029B1064A12680243044B1A6071
:1053E00004E0034A12688243014B1A6070470000D0
:1053F0004038024029B1064A12680243044B1A6041
:1054000004E0034A12688243014B1A6070470000AF
:105410002038024029B1064A12680243044B1A6040
:1054200004E0034A12688243014B1A60704700008F
:105430004438024029B1064A12680243044B1A60FC
:1054400004E0034A12688243014B1A60704700006F
:1054500024380240F0B50021002200240225002655
:105460000223324F3F6807F00C0121B1042905D017
:10547000082937D105E02E4F076036E02D4F076031
:1054800033E02A4F3F1F3F68C7F38056274F3F1F27
:105490003F6807F03F036EB1264FB7FBF3F7DFF825
:1054A0008CC0ACF1040CDCF800C0CCF3881C07FB0A
:1054B0000CF40CE01E4FB7FBF3F7DFF870C0ACF153
:1054C000040CDCF800C0CCF3881C07FB0CF4174F6D
:1054D0003F1F3F68C7F301477F1C7D00B4FBF5F712
:1054E000076002E0124F076000BF00BF0F4F3F6828
:1054F00007F0F0010909104F7A5C0768D740476050
:105500000A4F3F6807F4E051890A0B4F7A5C4768FD
:10551000D7408760054F3F6807F46041490B064F4D
:105520007A5C4768D740C760F0BD00000838024089
:105530000024F40000127A002C00002010B5064868
:10554000007828B1FDF7C5F804490968401A10BD74
:105550004FF0FF30FBE70000AC010020A801002065
:1055600000BFEFF31082114672B6054A10600122A7
:10557000044B1A700A4682F3108800BF704700007F
:10558000A8010020AC0100207047000010B50446BF
:10559000FBF792FE03480078012802D12046FBF772
:1055A000B9FD10BD6C00002010B50446214602482C
:1055B00000F02BFC10BD00000004004070B5044654
:1055C0000D461646691E601E324600F0B5F970BDE4
:1055D0000CB50020019000903448006840F4803001
:1055E0003249086000BF3148006800F40030009084
:1055F0000198401C0190009818B90198B0F5A04F8F
:10560000F1D12A48006800F4003010B10120009068
:1056100001E0002000900098012846D12348403046
:10562000006840F0805021494031086020480068FF
:1056300040F440401E4908601C48083000681B497F
:10564000083108600846006840F4004008600846D9
:10565000006840F4A05008601648091F0860081F41
:10566000006840F08070091F086000BF0F480068A4
:1056700000F000700028F9D040F205700E49086073
:105680000A480830006820F0030008490831086023
:105690000846006840F00200086000BF0348083078
:1056A000006800F00C000828F8D10CBD003802405A
:1056B0000070004008544007003C0240DFED071A2C
:1056C000C0ED0B1ADFED051AC0ED0A1A80ED000AD5
:1056D000C0ED030A80ED041A7047000000000000CE
:1056E000042808D14FF0E021096941F004014FF08E
:1056F000E022116107E04FF0E021096921F0040187
:105700004FF0E022116170477047000010B5154856
:10571000006840F47000134908601348006840F0C6
:1057200001001149086000200F49083108600E4847
:1057300000680E4908400C4908600D48091D0860C2
:10574000081F006820F48020091F08600020064917
:105750000C310860FFF73CFF4FF0006001498039D1
:10576000086010BD88ED00E000380240FFFFF6FE43
:1057700010300024F0B50C46154600210022068C9E
:105780004FF6FE773E400684018B028C4FF60C7676
:1057900031407E1C06EA03162E4331434FF6F57660
:1057A000324044F00106324301830284F0BDF0B57B
:1057B0000C461546002100220026078C4FF6EF7C90
:1057C00007EA0C070784018B028C4FF6FF7707EA84
:1057D000041640F6FF4739404FF6FF7707EA0337D4
:1057E00039434FF6FF7707EA052739434FF65F77CE
:1057F0003A4046F010073A4301830284F0BDF0B509
:105800000C461546002100220026078C4FF6FF6C3F
:1058100007EA0C070784818B028C4FF6FF7707EAB3
:1058200004264FF60C7739404FF6FF7707EA031747
:105830002F4339434FF2FF573A4046F480773A43BB
:1058400081830284F0BDF0B50C461546002100228C
:105850000026078C4EF6FF7C07EA0C070784818B35
:10586000028C4FF6FF7707EA043640F6FF473940CF
:105870004FF6FF7707EA052739434FF6FF7707EA28
:105880000337394345F6FF773A4046F480573A43A9
:1058900081830284F0BD000070B58AB006460C46D4
:1058A000154601210846FFF795FD01210846FFF73F
:1058B00081FD012211461F48FCF766FF0220089077
:1058C0008DF8240003208DF8250000208DF8260097
:1058D0008DF8270008A91748FCF70EFFB0B2ADF805
:1058E00014000020ADF816000694ADF81C0005A9C0
:1058F0004FF0804000F0BCFA6020ADF800000120BD
:10590000ADF802000020ADF80C00029569464FF09A
:10591000804000F01BFA0821C80600F069FA012156
:10592000880700F031F90121880700F03CF90AB03E
:1059300070BD00000000024070B58AB006460C46FB
:10594000154601210220FFF745FD01210846FFF71A
:1059500031FD022206211E48FCF716FF4020089068
:1059600002208DF8240003208DF8250000208DF8FA
:1059700026008DF8270008A91548FCF7BDFEB0B237
:10598000ADF814000020ADF816000694ADF81C0028
:10599000029505A90F4800F06BFA6020ADF80000F1
:1059A0000120ADF802000020ADF80C00694609485E
:1059B00000F084F90821074800F0BEF901210548EC
:1059C00000F0E2F80121034800F0EDF80AB070BDE4
:1059D000000002400004004000B589B0012104200D
:1059E000FFF7F8FC01210820FFF7E4FC02208DF806
:1059F000080001208DF80A0003208DF8090000201E
:105A00008DF80B004FF44050019001A91E48FCF79F
:105A100073FE02220C211C48FCF7B6FE02220D2167
:105A20001948FCF7B1FE0020ADF81800ADF81A00D7
:105A30004FF6FF7007900020ADF8200006A913482C
:105A400000F016FA03A800F026F90F20ADF81400B4
:105A500003A90E4800F0E8F80420ADF80C0003A9F3
:105A60000A4800F0E1F800231A460321074800F035
:105A7000A6F80021054800F0CCF90121034800F008
:105A800092F809B000BD0000000C02400008004080
:105A900010B50121154800F0B6F8012824D10121E4
:105AA000124800F07DF8FCF7AFFE114890ED000AB7
:105AB000104880ED000A10480E49D1ED000A0F4948
:105AC00091ED000AFFF702FCBCEEC00A10EE100ACE
:105AD0000B49088008460088FFF7A8FB0122114601
