:020000040800F2
:10000000484C01209D010008F950000819280008FB
:10001000114500089511000839690008000000002A
:100020000000000000000000000000004956000829
:100030008F170008000000006D520008F9570008F3
:10004000B7010008B7010008B7010008B7010008B0
:10005000B7010008B7010008B7010008B7010008A0
:10006000B7010008B7010008B7010008B701000890
:10007000B7010008B7010008B7010008B701000880
:10008000ED110008B7010008B7010008B70100082A
:10009000B7010008B7010008B7010008B701000860
:1000A000B7010008B7010008B7010008B701000850
:1000B000B7010008B7010008B7010008B701000840
:1000C000B7010008B7010008B7010008B701000830
:1000D000B7010008B7010008A1650008B7010008D2
:1000E000B7010008B7010008B7010008B701000810
:1000F000B7010008B7010008B7010008B701000800
:10010000B7010008B7010008815B0008B7010008CB
:10011000B7010008B7010008A55C0008B701000896
:10012000B7010008B7010008B7010008B7010008CF
:10013000B7010008B7010008B7010008B7010008BF
:10014000B7010008B7010008B7010008B7010008AF
:10015000B7010008B7010008B7010008D165000821
:10016000B7010008B7010008B7010008B70100088F
:10017000B7010008B7010008B7010008B70100087F
:10018000B7010008B7010008DFF80CD000F014FC3C
:1001900000480047D17B0008484C012006488047B2
:1001A00006480047FEE7FEE7FEE7FEE7FEE7FEE75C
:1001B000FEE7FEE7FEE7FEE7FD57000889010008BD
:1001C0009FED1A1AF5EE000A40EE010ABDEEE00AB4
:1001D000F5EEC00A10EE100AF1EE10FA38BF401E1C
:1001E00000EE100A1349F7EE001AB8EEC00A30EE1E
:1001F000C00ADFED0F0A20EE200AFCEEC00A10EE66
:10020000900AC0F3080000EE900A01EB8000F8EEBF
:10021000600A90ED011A70EE600A90ED000A71EE2E
:10022000E01A21EE800A00EE810A704783F9223E2F
:100230000000004474900008B5EEC00AF1EE10FA18
:1002400007D2DFED1E0AB4EEE00AF1EE10FAA8BF05
:100250007047DFED1B0AB5EEC00A60EE200ABDEE66
:10026000E01A11EE100AF1EE10FA38BF401E00EE4F
:10027000100A1549F7EE001AB8EEC00A30EEC00AAF
:10028000DFED100A60EE200ABCEEE00A10EE100A64
:10029000C0F3080000EE100A01EB8000B8EE400A3F
:1002A00090ED011A70EEC00A90ED000A71EEE01AAE
:1002B00021EE800A00EE810A70470000CD024CB4A6
:1002C00083F9223E000000447490000810B5431AE0
:1002D000934209D28318881803E010F8011D03F82F
:1002E000011D521EF9D210BD40EA01039B0703D045
:1002F00009E008C9121F08C0042AFAD203E011F865
:10030000013B00F8013B521EF9D210BDD2B201E010
:1003100000F8012B491EFBD270470022F6E710B50A
:1003200013460A4604461946FFF7F0FF204610BD63
:10033000CAB2401E10F8011F8A4202D00029F9D12A
:1003400000207047421C10F8011B0029FBD1801AC5
:10035000704710B5002200E0521C835C8C5CA34205
:1003600001D1002BF8D1D8B2E1B2401A10BD30B59E
:1003700005460020034600E05B1C934205D2EC5C7E
:10038000C85C201A01D1002CF6D130BD2DE9F04710
:1003900091460F4680460446002614F8015B2DB1B5
:1003A00000F008FA0068405DC007F6D12B2D02D09E
:1003B0002D2D18D0641E4A463946204600F0FEF91D
:1003C00027B13968A14201D1C7F8008071054FF00B
:1003D00002040BD54042002803DD06F0D3FA046086
:1003E000A007BDE8F08746F48066E4E70028F8DA65
:1003F00006F0C8FA04606FF00040F2E72DE9FE4F06
:10040000804681EA0300C00F0C46009021F00041B5
:1004100023F00045B8EB0200A94105D24046214631
:1004200090461C460B46024623F00040104347D03E
:10043000270DC7F30A00C3F30A510290401A019036
:1004400040286BDAC3F3130040F4801B00989246F7
:1004500020B10023D2EB030A63EB0B0B0198594642
:10046000C0F14002504600F073F906460D46504672
:100470005946019A00F08BF910EB08006141002405
:1004800087EA115284EAE7731A4340D0009A62B3B4
:10049000019A012A4FEA075215DC001B61EB0201A9
:1004A0004FF0004202EA0752CDE90042001C41F53C
:1004B000801132462B4600F016FA03B0BDE8F08FEB
:1004C00040462146F9E7001B61EB0201001C41F5A3
:1004D000801300185B412018A2F5001747EB0301B9
:1004E00040EAD570B6196D4111E06D084FEA360645
:1004F00045EAC0754FEA0752001B61EB0201001C80
:1005000041F5801149084FEA300000195141324647
:100510002B4603B0BDE8F04F00F0D6B90098012299
:1005200040000023D0EB020263EBE0730098214609
:100530004FEAE074B8EB000061EB0401E9E783F0F7
:1005400000435BE781F0004158E72DE9F04D81EA77
:10055000030404F0004B21F0004514464FF0000A5C
:1005600023F0004150EA050220D054EA01021DD0D8
:10057000C5F30A570246C5F31303C1F31300C1F3D1
:100580000A5640F4801543F48013A7EB0608101BAD
:10059000D64608F2FD3873EB050002D308F10108D6
:1005A00001E092185B41B8F1000F03DA0020014628
:1005B000BDE8F08D00204FF48011064684460EE021
:1005C000171B73EB050705D3121B63EB05030643EB
:1005D0004CEA010C49084FEA300092185B4150EA9E
:1005E0000107EDD152EA030012D082EA040083EA47
:1005F0000501084305D0101BAB4106D201220023A0
:1006000006E000224FF0004302E06FF001025310B9
:100610001AEB06004CEB085110EB0A0041EB0B0102
:10062000BDE8F04D00F050B970B5C1F30A5201F0C9
:1006300000450024C1F3130140F2FF3341F480115F
:100640009A4201DA002070BD40F233439A42A2F28E
:10065000334203DC524200F08AF800E090402C4321
:10066000F1D0404270BD00F0004230F000400AD0AE
:10067000C10D01F56071C0F3160042EA0151C208D4
:1006800040071143704700200146704730B5041EF3
:1006900071F1000404DB4FF00044404264EB0101BF
:1006A000141E73F1000405DB1C464FF00043524258
:1006B00063EB04038B4208BF824230BD30B5041E99
:1006C00071F1000404DB4FF00044404264EB01018F
:1006D000141E73F1000405DB1C464FF00043524228
:1006E00063EB0403994208BF904230BD01F0004320
:1006F00030B421F0004150EA010206D00A0DA2F503
:100700006072C1F31301002A02DC30BC0020704784
:10071000440F44EAC104C100E01830BC00EBC250F1
:1007200000F09BB830B50B46014600202022012482
:1007300009E021FA02F59D4205D303FA02F5491BAF
:1007400004FA02F52844151EA2F10102F1DC30BDC5
:10075000202A04DB203A00FA02F100207047914081
:10076000C2F1200320FA03F3194390407047202A76
:1007700004DB203A21FA02F00021704721FA02F34B
:10078000D040C2F120029140084319467047202A08
:1007900006DBCB17203A41FA02F043EAE07306E0A9
:1007A00041FA02F3D040C2F12002914008431946B9
:1007B0007047000000487047FC9800082DE9F05F82
:1007C00082460078002715468B460AF10104B94697
:1007D000302801D09DB113E014F8010B01277828CF
:1007E00003D0582801D045B10AE00DB1102D07D132
:1007F0000027102514F8010B02E0082500E00A2567
:100800000026B0460EE005FB080005FB06F10127B7
:1008100001EB10461FFA80F8B6F5803F00D3B946C9
:1008200014F8010B294600F0D9F80028EBDABBF1E7
:10083000000F05D00FB1641E00E05446CBF8004015
:10084000B9F1000F06D006F09DF802210160C81E24
:10085000BDE8F09F48EA0640FAE70029A8BF7047C4
:10086000401C490008BF20F00100704710B4B0FAE6
:1008700080FC00FA0CF050EA010404BF10BC704781
:1008800049B1CCF1200421FA04F411FA0CF118BF9B
:10089000012121430843A3EB0C01CB1D4FEA00616A
:1008A0004FEA102042BF002010BC704700EBC3503D
:1008B00010440029A4BF10BC7047401C490008BF69
:1008C00020F0010010BC704710B5141E73F1000435
:1008D00008DA401C41F1000192185B411A4301D132
:1008E00020F0010010BD2DE9F04D92469B4611B15C
:1008F000B1FA81F202E0B0FA80F220329046FFF7BE
:1009000027FF04460F4640EA0A0041EA0B0153461E
:100910005A46084313D0114653EA010019D0C8F1D2
:1009200040025046FFF723FF05460E465046594603
:100930004246FFF70DFF084305D0012004E02046A2
:100940003946BDE8F08D0020054346EAE0762C43A9
:1009500037430A986305E40AA0EB08000022FD0A69
:1009600044EA47540A3002D500200146E9E7010570
:1009700010196941DDE9084500196941BDE8F04DEC
:10098000A2E7002801DBC0F10040002901DBC1F132
:100990000041814202D24FF0004004E04FF000508D
:1009A00001D14FF0C0404FEA2062EFF3008162F3C3
:1009B0001F6181F300887047064C074D06E0E06830
:1009C00040F0010394E8070098471034AC42F6D396
:1009D000FFF7DEFB649C0008849C00083A2800D2E4
:1009E000303820F02002412A01D3A2F1370088429A
:1009F00001D34FF0FF30704770B58C1810F8015BD1
:100A000015F0070301D110F8013B2A1106D110F8A7
:100A1000012B03E010F8016B01F8016B5B1EF9D1AB
:100A20002B0705D40023521E0DD401F8013BFAE731
:100A300010F8013BCB1A921C03E013F8015B01F89C
:100A4000015B521EF9D5A142D8D3002070BD000031
:100A500010B500BFEFF31082114672B600201BE004
:100A6000114A92F90020904214D000EB40120F4B33
:100A700003EBC20292F8032162B1002200EB4013A3
:100A80000A4C04EBC30383F80321094A1268521C81
:100A9000074B1A60421CD0B20628E1DB00BF81F38D
:100AA000108800BF10BD0000FC000020FC320020B8
:100AB000040100200020002110E001EB4112094B4D
:100AC00003EBC20292F8032132B9074A92F90020DF
:100AD0008A4201D0421CD0B24A1CD1B20629ECDBBA
:100AE00070470000FC320020FC000020002110E0D4
:100AF00001EB4110094A02EBC00090F8030130B944
:100B0000074890F90000884201D001207047481C36
:100B1000C1B20429ECDB0020F8E70000FC32002021
:100B2000FC0000202DE9F04107460D461646022E36
:100B300001D1062000E00420804600F003FB01F014
:100B4000EFFD10B90020BDE8F08115B1B5F5807F4B
:100B500006DD28480068401C264908600020F2E7AE
:100B600000243DE004EB4410234901EBC00090F861
:100B7000030190BB214890F90000A0422ED004EB65
:100B800044111D4A02EBC1002A463946FFF79EFB7D
:100B900004EB4410184901EBC000A0F8005104EB2D
:100BA000441001EBC00080F802611548006804EBB6
:100BB0004411114A02EBC101C1F804011048006858
:100BC000401C0F490860BFF35F8F012004EB441104
:100BD00002EBC10181F80301B5E7FFE7601CC4B275
:100BE0004445BFDB03480068401C02490860002000
:100BF000A9E7000004010020FC320020FC000020D6
:100C000000010020F0B5B3B005F0DCFB42480078ED
:100C100008B933B0F0BD00BFEFF31080054672B6DF
:100C20003E4806783C480078022801D1012000E0C7
:100C30000020074632463A4901A8FFF747FB00F07B
:100C4000ABFA00BF85F3108800BF2FB100203549F3
:100C50000870012034490870002458E001A8005DA4
:100C60000A2826D130480078D0B92E48007858B1EB
:100C70002C480078401E2D49085C0D2804D12948D5
:100C80000078401E2749087000202849254A12781C
:100C900088542448007830B1084605F0CBF902E0CA
:100CA00023A001F0A1FA00201E4908701E49087017
:100CB0002BE01D48007840BB01A8005D20280ADA1F
:100CC00001A8005D0D2806D00120174908700020FA
:100CD0001449087019E013480078C7280AD201A8FF
:100CE000015D104802780078401C0E4B18700F48C8
:100CF00081540AE001200C4908700020094908705D
:100D00000F480068401C0E490860601CC4B2B44221
:100D1000A4DB00BF7DE700006D0000206E00002016
:100D2000EC2600200A0100200B0100202C390020B5
:100D3000455252206F766572666C6F770D0A00001F
:100D40009400002030B52DED028B91B0B0EE408ABA
:100D5000F0EE608A0446244D24480078012803D030
:100D600011B0BDEC028B30BD8DED008A0A2C00DB8A
:100D70000095CDED018A1E4890ED000A8DED020A26
:100D800090ED040A8DED030A00EE104AB8EE400A19
:100D90008DED040A174890ED000A8DED050A1648FE
:100DA00090ED000A8DED060A1448008800EE100A46
:100DB000B8EE400A8DED070A2022694608A8FFF721
:100DC00085FA00208DF840008DF8410080208DF8D4
:100DD00042007F208DF843000022242108A8FFF75D
:100DE000A1FE00BFBCE700000000C07F7000002033
:100DF00080B10020B8010020BC0100200C010020BF
:100E000010B5204890F90000002806DA002240F2D0
:100E100027711D4805F0F0FC10BD1C480488601CBB
:100E20001A4A1080174890F9000000EB4010184A49
:100E300002EBC000015D144805F06EFD114890F909
:100E4000000000EB4010124901EBC000B0F80001B7
:100E50000E490988884213DC00200A4991F90010E4
:100E600001EB41110A4A02EBC10181F80301FF20A5
:100E700004490870002240F22771034805F0BCFCC9
:100E800000BFC9E7FC00002000140140FE00002064
:100E9000FC32002070B54FF0FF3500F053F901F03F
:100EA0003FFC58B93848007820B1FFF7D1FD002049
:100EB0003649086000203449087070BD012032496D
:100EC0000870334890F90000002800DBF5E70024A3
:100ED00039E004EB44102F4901EBC00090F8030106
:100EE00078B3002D2CDB04EB441001EBC00090F82C
:100EF000020105EB4511274A02EBC10191F80211ED
:100F000088421DDC04EB4410114601EBC00090F850
:100F1000020105EB451102EBC10191F80211884273
:100F20000FD104EB4410114601EBC000D0F80401CE
:100F300005EB451102EBC101D1F80411401A00D5AF
:100F400065B2601CC4B2062CC3DB002D00DAB4E726
:100F500005EB45120F4B03EBC202B2F8001105EB93
:100F6000451203EBC20000F0BBFE00200A490880D6
:100F700007480570BFF35F8F012240F227710748D1
:100F800005F03AFC00BF98E7080100207800002037
:100F9000FC000020FC320020FE0000200014014074
:100FA00070B5044644B12046FFF7CCF985B2022261
:100FB00029462046FFF7B6FD70BD000010B588B089
:100FC00004460121042004F053F90121042004F017
:100FD0004FF9082206213B4801F068FB082207214F
:100FE000384801F063FB06A801F090FB4020069012
:100FF00002208DF81C0003208DF81D0000208DF8C4
:101000001E0001208DF81F0006A92E4801F006FBE6
:1010100006A801F07BFB8020069002208DF81C00C2
:1010200003208DF81D0000208DF81E0001208DF892
:101030001F0006A9234801F0F1FA0121202004F045
:1010400047F9214805F036FB02A805F069FC029437
:101050000020ADF80C00ADF80E00ADF810000C202B
:10106000ADF812000020ADF8140002A9164805F0F2
:10107000E9FB012240F22551134805F0BDFB012296
:1010800040F22441104805F0B7FB20210E4805F03E
:10109000F3FA40F224410C4805F0EEFA01210A4827
:1010A00005F0F3FA47208DF8040001208DF80500C3
:1010B0008DF806008DF8070001A804F01FF808B0AD
:1010C00010BD0000000802400014014010B54FF4AC
:1010D000E130FFF773FF00F013F802A005F02EFCDB
:1010E00010BD0000426C7565746F6F74685F496E67
:1010F00069742073756363656564210D0A000000DF
:101100001CB50121042004F0B3F8684601F0FEFA92
:101110000420009000208DF8040003208DF80500C5
:1011200000208DF8060001208DF80700694604486C
:1011300001F074FA0421024801F0E4FA1CBD000039
:101140000008024010B504210F4801F0D2FA50B94E
:1011500000200E4908700E480078012802D10020B6
:101160000B49087010BD0421074801F0C2FA01289C
:1011700007D1064908700648007810B901200449D3
:10118000087000BFEEE70000000802406C0000207D
:101190006F00002000BFFEE70020024908700249EE
:1011A000087070476E0000206D0000201CB5012102
:1011B000022004F05DF801208DF8040000208DF875
:1011C00006004FF40040009002208DF8050000203A
:1011D0008DF807006946044801F020FA4FF40041F9
:1011E000014801F091FA1CBD000402402DE9F047CE
:1011F0007848466801F0FFF982467748476806F468
:10120000507030B175480068401C7449086002F0A5
:10121000D3FD7348007830B172496E48883000F0D1
:1012200005F9BDE8F08706F44060B0F5406F0CD1D9
:101230006D480068401C6C49086002F0BDFD6949BA
:101240006448883000F0F2F8EBE706F4406000B93B
:10125000E7E7012020EA96240CB1644800E06448E6
:1012600001465C48883000F0E1F85A48883000F0C8
:10127000B9F905465F480078844212D15E4800689B
:101280003221B0FBF1F05D490968791A884208D330
:101290003DB114B9B5F5007F03D854B1B5F5007F61
:1012A00007D851480068401C4F49086002F084FD8F
:1012B000B7E75348006853490968A0EB0108B8F143
:1012C000100F07D350480068401C4F49086002F0D7
:1012D00073FDA6E74D4A02EB4421494A126802F029
:1012E0000F024B4B03EB42204FF40072FEF7EEFF70
:1012F0003848883000F076F905468DB13E480068E0
:101300006421B0FBF1F034494968C91B884207D910
:1013100014B9B5F5007F03D854B1B5F5007F07D8EF
:1013200031480068401C3049086002F045FD78E70C
:1013300038480068A0F59C4020383149096801F020
:101340000F0101EB4101344A42F821002C480068AA
:1013500000F00F0000EB4000114601EB8000C0F8E8
:1013600004A02E4800682649096801F00F0101EB2E
:10137000410102EB81018860BFF35F8F2048006864
:10138000401C1F49086026480068401C244908602A
:1013900008F1010023490968B1EB402F02D2400255
:1013A000204908601348007880F001001149087056
:1013B0001848C0F800A01148076007484068A0EB33
:1013C000070919480068814502D91748C0F80090FC
:1013D00000BF26E700600240001000E090000020FF
:1013E0004C000020400F0020640000200008002076
:1013F000000400204D0000201800002054000020B0
:101400004400002048000020940000202C0200200E
:101410002C060020500000202C2600205800002020
:10142000600000205C000020680000200246094B9C
:101430009A4201D2084801E00648103801F00053F2
:101440001BB1064B0B40C36002E0044B0B408360B2
:101450007047000010640240006002407D0F7D0F65
:1014600021B1026842F00102026003E0026822F04A
:101470000102026070470000016821F00101016073
:101480000021016041608160C160016121214161F1
:101490004A49884204D13D21484A103A91608CE083
:1014A00046491831884205D14FF47461434A103AD5
:1014B000916082E041493031884205D14FF4741186
:1014C0003E4A103A916078E03C494831884205D163
:1014D0004FF07461394A103A91606EE037496031DB
:1014E000884204D13649354A103AD16065E0334923
:1014F0007831884204D13349304A103AD1605CE0F7
:101500002E499031884204D12F492C4A103AD1609B
:1015100053E02A49A831884205D14FF03D51274A6E
:10152000103AD16049E02949884204D13D21274A37
:10153000083A116041E025491831884205D14FF43D
:101540007461224A083A116037E0204930318842FC
:1015500005D14FF474111D4A083A11602DE01B4962
:101560004831884205D14FF07461184A083A116039
:1015700023E016496031884204D11149134A121FF1
:1015800011601AE011497831884204D10D490F4A9F
:10159000121F116011E00D499031884204D10A49AF
:1015A0000A4A121F116008E00849A831884204D194
:1015B0004FF03D51054A121F116070471060024004
:1015C0003D000020400F002000003D20106402403C
:1015D000014600200A6802F001020AB1012000E081
:1015E000002070470146486880B2704710B501F08E
:1015F00080034BB122B1436943F08003436103E0B0
:10160000436923F08003436180290BD02AB103682A
:1016100001F01E042343036004E0036801F01E048C
:10162000A343036010BD000010B500220268134BF5
:101630001A40CC680B6823434C6923438C692343CD
:10164000CC6923430C6A23434C6A23438C6A2343AB
:101650004C6B23438C6B23431A430260426922F094
:101660000702D1E90B3423431A4342610B694360FB
:101670004B6883608B68C36010BD00003F801CF026
:1016800000B591B00121480503F0F2FD2A48FFF7AB
:10169000F3FE02A800F06AF84FF0006002902748BD
:1016A000039027480490002005904FF48060069036
:1016B000089080100B9040020C9002A91E48FFF782
:1016C000B3FF01229E211C48FFF790FF10208DF8E8
:1016D000040000208DF805008DF8060001208DF82B
:1016E000070001A803F00AFD1648006840F080706A
:1016F000144908601448006840F00100124908606D
:101700000020124908601249086012490870124905
:10171000087000F070FF114908600B4840681049DC
:10172000086010490448FFF781FE01210248FFF7D5
:1017300097FE11B000BD00008860024004440040E4
:101740002C020020FCED00E0001000E0480000202A
:10175000440000204D0000204C00002050000020DC
:1017600054000020400F00204160704700210160BC
:1017700041608160C160016141618161C16101625B
:1017800041628162C1620163416381637047704756
:1017900070B504460D4600200B4908600B490860EF
:1017A00068210B48FEF7B9FD0A48046000F023FFEA
:1017B0000949086060210948FEF7AFFD402108484B
:1017C000FEF7ABFD70BD0000C0000020BC00002093
:1017D000B4270020B8000020B40000205C290020BD
:1017E000BC29002030B502460B464FF6FF7017E0CB
:1017F00012F8015B80EA052000210FE000F40044AC
:101800002CB141F2210484EA4004A4B203E04FF673
:10181000FF7404EA400420464C1CE1B20829EDDBC9
:101820001C1EA3F10105ABB2E2D130BD10B5B0B0C2
:10183000044656A12046FEF78CFD78B9012003210D
:1018400054A35AA2CDE900105D4902A805F086F81C
:1018500002A803F0FBFE012030B010BD59A12046C4
:10186000FEF777FD78B959480078032804D058A0CE
:1018700000F0BAFC0120EFE700F0FEF857A003F0FB
:10188000E5FE0120E8E7082257A12046FEF76FFD9C
:1018900020BB2FA904F1080007F0DAF808B12F984F
:1018A00020B954A000F0A0FC0120D5E7FFF7D0F844
:1018B00054492F98086007F0B9F800205249086091
:1018C000524908705249087052A102A82F9A05F097
:1018D00045F802A803F0BAFE0120BDE7052252A197
:1018E0002046FEF744FD10BB2FA9601D07F0B0F89D
:1018F00010B12F98032804D94DA000F075FC0120E9
:10190000AAE7FFF7A5F831492F98087007F08EF87D
:1019100000203F4908703D49087048A102A82F9A4D
:1019200005F01CF802A803F091FE012094E70522BF
:1019300046A12046FEF71BFD30BB2FA9601D07F016
:1019400087F838B12F9828B12F980A2802D82F4845
:10195000007820B13FA000F047FC01207CE740491F
:101960002F98087000202A4908703E480068401CE3
:101970003C4908603CA102A82F9A04F0EFFF02A89E
:1019800003F064FE012067E7002065E7696E666F7B
:10199000000000007368613235362D353164363011
:1019A0003936363131306236323138007263323690
:1019B0002D6D61736B33312D76322E3100000000B6
:1019C0000099000867657463666700007000002076
:1019D000455252206D6F64650D0A00004F4B206721
:1019E00065746366670D0A0073657373696F6E20B3
:1019F000000000004552522073657373696F6E0DCD
:101A00000A000000780000209C000020CC0000208C
:101A1000CB0000204F4B2073657373696F6E2025D8
:101A20006C750D0A0000000074656C6520000000F4
:101A30004552522074656C650D0A00004F4B2074AE
:101A4000656C6520256C750D0A0000007261746577
:101A50002000000045525220726174650D0A00009A
:101A600071000020740000204F4B207261746520CB
:101A7000256C750D0A00000038B5002408E00B48FD
:101A800000EB84026946204604F088FC601CC4B266
:101A9000102CF4DB0120064908700020054908706D
:101AA00005480068401C0449086038BD1C28002017
:101AB000CC000020CD000020D000002070B52DED1E
:101AC000088B0446B0EE408A0E4615469FED640A28
:101AD000F0EE408A0020307028701A2C0DDA9FED4D
:101AE000610AB4EEC08AF1EE10FA06D89FED5E0AE4
:101AF000B4EEC08AF1EE10FA03DA0020BDEC088BD8
:101B000070BD022C16D1B5EEC08AF1EE10FA0FD3DB
:101B1000B2EE020AB4EEC08AF1EE10FA08DCBDEEB5
:101B2000C80AB8EEC00AB4EE408AF1EE10FA01D04D
:101B30000020E3E7142C0DD1B5EEC08AF1EE10FAC7
:101B400008D0B7EE000AB4EE408AF1EE10FA01D0E8
:101B50000020D3E71CB99FED450AF0EE408A032C24
:101B600005D0052C03D0072C01D0082C03D1B3EEEF
:101B70000E0AF0EE408A042C01D0062C03D19FED12
:101B80003C0AF0EE408AF5EEC08AF1EE10FA08D178
:101B9000122C06D0B5EEC08AF1EE10FA01D2002068
:101BA000ACE701203070F5EEC08AF1EE10FA14D0E7
:101BB000B4EEE88AF1EE10FA02DDB0EE688A287021
:101BC000B1EE680AB4EEC08AF1EE10FA05D2B1EEB9
:101BD000680AB0EE408A01202870264830F81400C8
:101BE00000EE100AB8EE400A20EE089A9FED220A95
:101BF000B4EEC09AF1EE10FA04DD0120287047F629
:101C0000FF707BE79FED1D0AB4EEC09AF1EE10FA6B
:101C100003D2012028701A4870E719EE100AFEF767
:101C200022FD41EC1B0BB5EEC09AF1EE10FA02DB7F
:101C30009FED141B01E09FED151BB0EE410AF0EE85
:101C4000610A53EC102B51EC1B0BFEF7D7FB41EC58
:101C50001A0B51EC1A0BFEF7E7FC00B24EE700003E
:101C600000000000FFFF7F7FFFFF7FFF00001644A2
:101C70000060EA46208F000800FEFF46000000C713
:101C80000080FFFF000000000000E03F00000000B7
:101C90000000E0BF1A281BDA0E4A02EB800282ED38
:101CA000000A012282400C4B1B681A430A4B1A603F
:101CB00039B101228240094B1B681A43074B1A6055
:101CC00006E001228240054B1B689343034A1360E0
:101CD00070470000B4270020C0000020BC00002096
:101CE00070B504460D46102D1CDB2078AA2819D1AA
:101CF0006078552816D1A078022813D10A480168C7
:101D00000068401C084B1860A01D06F07DFF281FCE
:101D100081B2A01CFFF766FD06466119881E314698
:101D200006F06EFF70BD00009C00002070B50546F7
:101D30000E462C461E4885420FD1D4ED000AB0EE67
:101D4000600A31460320FFF7A5FFD4ED010AB0EE8B
:101D5000600A31460420FFF79DFF164885420FD1E7
:101D6000D4ED000AB0EE600A31460520FFF792FF7D
:101D7000D4ED010AB0EE600A31460620FFF78AFF73
:101D80000D48854207D1D4ED000AB0EE600A314615
:101D90000720FFF77FFF0948854207D1D4ED000AED
:101DA000B0EE600A31460820FFF774FF70BD0000F6
:101DB000380100205001002058010020600100205F
:101DC00030B50446F0EE400A0D462946B0EE600AF2
:101DD0002046FFF75FFF0120A040034909688143C7
:101DE0000148016030BD0000C000002008B501219D
:101DF000102003F04DFA0020104908805320088578
:101E000040F2E730C86201208882002008820C4935
:101E1000086001200949888136208DF800000020E3
:101E20008DF8010001208DF802008DF8030068464E
:101E300003F064F901200149088008BD001000404A
:101E4000980000202DE9F04105460E46174633481C
:101E50000068401C314908608046314800780328FA
:101E600002D13048006808B9BDE8F0812E4800680A
:101E70002E490968401A402805D32D480068401CA7
:101E80002B490860F0E72848006800F03F0000EBAD
:101E9000C000284901EB8004C4F80080264800688F
:101EA000606000F0A8FBA060A5814FF08040806BCF
:101EB000E081224890ED000A84ED040A204890ED6C
:101EC000000A84ED050A1F4890ED000A84ED060A19
:101ED0001D4890ED000A84ED070A0EB1012000E0D4
:101EE00000200FB1022100E00021084317490978C2
:101EF00009B1042100E0002108431549097809B11E
:101F0000082100E0002108432062BFF35F8F0648EC
:101F10000068401C0449086000BFA5E7E4000020F9
:101F20007000002078000020DC000020E00000208D
:101F3000E8000020FC29002074000020B8010020E7
:101F4000B4010020D4000020D8000020920100201D
:101F50009301002070B52DED028B05460C46B0EEC6
:101F6000408A1448007818B9FEF7A4FD022803DA65
:101F70000020BDEC028B70BD0F480078032808D10B
:101F8000D4ED000AB0EE600AF0EE480A284605F0EB
:101F900001FD04F0FBFC064672B684ED008A07489A
:101FA0000068401C05490860304604F053FD0120DC
:101FB000DFE70000CC00002070000020740000204B
:101FC0002DE9F043A1B000F00FFB05468024FEF799
:101FD00061FF00F0A5FB10B921B0BDE8F08305F06A
:101FE0003BFA06F03BFC284605F03EFD5E480078D3
:101FF00003282CD1FEF75EFD032828DB5B48007820
:102000005B49097888420ED05948027859A101A845
:1020100004F0A4FC01A9032006F036FE5448007821
:102020005249087013E059480068594909688842C4
:102030000DD05748026857A101A804F08FFC01A9F0
:10204000042006F021FE52480068504908604648C6
:10205000007803280BD154480068281A44490978AD
:1020600009B1C82101E04FF47A71884200D2B3E788
:102070004D48056004F08AFC814672B64B48D0F8A2
:1020800000804B480768484604F0E4FC3848007874
:1020900008B144F001044748007810B14648007880
:1020A00008B944F002043A48006808B144F0040456
:1020B0004248007808B144F0080444F010040FB11D
:1020C00044F020043B48007808B144F040041195E6
:1020D00017B1A5EB080000E0002012903548007809
:1020E00018B137480068281A00E0002013901497B0
:1020F00034480068159034480068169033480068EA
:1021000017903348006818903248C06A19903148D7
:10211000006B1A901E4800681B902F4800681C90A6
:102120002E4800681D902E4800681E901F940020C5
:1021300020905021022005F077FC002609E011AA2A
:1021400052F82610274A02EB860006F05DFD701C4F
:10215000C6B2102EF3DB0122502122480E38FEF7C2
:10216000E1FC00BF38E7000070000020F400002010
:10217000930100206D6F746F725F73746F705F6C8A
:102180006174636865643D2575000000F8000020F7
:102190000401002074785F64726F705F746F746103
:1021A0006C3D256C75000000C400002080000020FC
:1021B0007C000020C9000020CA000020CC000020C4
:1021C000AC000020A00000208C0000209000002027
:1021D0009400002028B20020B00000205C00002005
:1021E000740000206A28002010B5044607480078D3
:1021F000032807D1FEF75EFC022803DB21460220FC
:1022000006F042FD204603F021FA10BD70000020C8
:102210002DE9FF4F89B006468B46994600F0EBF951
:10222000074600F0E1F9824600200890D148056891
:10223000D148D0F8008000200690D0480068401CAB
:10224000CE490860CE4880F80090CE48007870B142
:10225000CD480068AAEB0000CC49884207D2CC48A0
:102260000068381A069045F0804548F08048C84814
:102270000760C548C0F800A00120C2490870B9F144
:10228000000F05D0C348C0F800A00120C249087063
:10229000C2480068381AC2490968884204D9BF4850
:1022A0000068381ABE490860092E01DC01200FE0E1
:1022B0000B2E01D105200BE00C2E08D1B948006887
:1022C000B0F5D76F01D1032002E0042000E0022026
:1022D0000390B448006800EE900AF8EE600AB0EE91
:1022E000600A01210846FFF7D5FC092E10DCAE4834
:1022F000D0ED0B0AB0EE600A01210020FFF7CAFC06
:10230000012100EE106AB8EE400A0220FFF7C2FC7D
:1023100004F03CFB079072B60121A44890ED000A3E
:102320001220FFF7B7FC0121A14890ED000A13200D
:10233000FFF7B0FC9F48007808B1032005E003F0E8
:1023400063F908B1022000E001200290079804F030
:1023500081FB994890ED000A984880ED030A964861
:1023600090ED010A954880ED040A954890ED000A29
:10237000924880ED050A924890ED010A8F4880ED61
:10238000060A904890ED000A8C4880ED070A8E48B6
:1023900090ED000A894880ED080A764800680543F8
:1023A0007548006848EA000845F0405548F0405834
:1023B000BBF1000F03D045F0406548F0406803983A
:1023C000022803D181480068401C00E000207F49BA
:1023D00008607F480078401CC0B27D4908707D4984
:1023E0000978884202DA0DB0BDE8F08F0020784904
:1023F000087079480078022800DAF4E76C2101209F
:1024000005F012FB00242FE06C4800EB8400D0EDB7
:10241000000AB0EE600A04AA05A92046FFF74EFBA9
:1024200001909DF8140010B90120A04085439DF84B
:10243000100040B10120A040284020B10120A04060
:102440000899084308900122A2402A4012B1019A3B
:1024500092B200E000221146604A022303FB0420EE
:1024600006F0CEFB601CC4B21A2CCDDB5A480078B3
:10247000022827D10020009034225849A1F10A00F7
:10248000FDF724FF012055490E3988703B4800783C
:10249000C870042408E051480E38015D00980844D3
:1024A000C0B20090601CC4B2382CF4DB4B490E392A
:1024B000009881F838000022392148480E38FEF78C
:1024C00031FB90E72D4801684448343006F09CFB0E
:1024D000434801684148383006F096FB51463F4872
:1024E0003C3006F091FB3D484030069906F08CFBED
:1024F00029463A48443006F087FB41463748483081
:1025000006F082FB35484C30089906F07DFB3349D4
:102510000E39039881F85E00029881F85F0003206D
:1025200081F8600081F861002E4801682B48543022
:1025300006F06AFB59462948583006F061FBBBF1AA
:10254000000F01D00B9800E00020014623485A30CC
:1025500006F056FB00226C2120480E38FEF7E2FA06
:102560000E490968781A4A46039905F0B7F900BF81
:1025700039E70000BC000020C0000020A0000020BF
:10258000CA000020C8000020A800002037894100B0
:10259000A4000020AC000020C9000020B4000020EE
:1025A000B00000203404004080B10020B8010020B9
:1025B000B40100209301002038010020B42700203E
:1025C000500100205801002060010020EC00002094
:1025D000CB00002071000020700000206A2800203D
:1025E000B8000020740000201CB5694601A804F062
:1025F00013FF01981CBD1CB5694601A804F00CFF2F
:10260000019800EB4001C1EBC010BDF8001001EBD8
:10261000C0001CBD10B503F057FA10BDF0B50A4656
:1026200000210023002400BF3DE0012505FA01F34D
:10263000156805EA03049C4234D105684F0003265F
:10264000BE40B543056015794E00B5400668354378
:1026500005601579012D02D01579022D16D18568F6
:102660004F000326BE40B543856055794E00B54006
:10267000866835438560456801268E40B5434560D0
:10268000456896798E40B6B235434560C5684F00BF
:102690000326BE40B543C560D5794E00B540C66837
:1026A0003543C560491C1029BFD3F0BDF0B50023E8
:1026B00000244D07ED0E02FA05F3CE1000F12005BF
:1026C00055F826504E07F70E0F26BE40B543CF10E3
:1026D00000F1200646F82750CE1000F1200555F8ED
:1026E000265045EA0304CE1000F1200545F82640A7
:1026F000F0BD0246002013690B400BB1012000E041
:102700000020704741837047018370474FF6FF7187
:1027100001600021017141718171C1717047000038
:1027200001480078704700006C00002070B52DED66
:10273000048B304803F004FB86B22F480088301A1F
:102740002E4908802C48068008460088B0F5004FC6
:1027500002DA0846008803E028480088A0F58030A7
:1027600005B200EE105AB8EEC00A254880ED000A06
:10277000002415E02349601C31F8100021F81400F2
:10278000084630F9140000EE100AB8EEC00A1C48E2
:10279000D0ED000A30EE200A80ED000A601C84B201
:1027A000042CE7DB174820F81450154890ED000A78
:1027B000F1EE040A80EE201A80ED001A90ED000A76
:1027C000DFED110A20EE200A10EE101A0846FDF780
:1027D0004AFF41EC190B9FED0D0B53EC102BFDF74D
:1027E000B4FE41EC180BFDF781FF0A490860BDEC0F
:1027F000048B70BD00080040C8010020C401002007
:10280000C00100201CB200200000C84200000000EF
:1028100000307140B801002000BFFEE72DE9F04113
:102820002DED0C8B05460E4600279FED770AB0EE86
:10283000409A9FED760AF0EE409A9FED750AB0EE51
:1028400040AA002438E005EBC40090ED000ADFED5B
:102850006E0AB4EEE00AF1EE10FA20D805EBC400DF
:1028600090ED000ADFED690AB4EEE00AF1EE10FA2D
:1028700015DB05EBC40090ED010ADFED630AB4EE51
:10288000E00AF1EE10FA0AD805EBC40090ED010A57
:10289000DFED5E0AB4EEE00AF1EE10FA00DA09E0CC
:1028A0003846791C8FB205EBC00005EBC40206CA9E
:1028B00006C000BF601C84B2B442C4DB3E46032E97
:1028C00004DA3046BDEC0C8BBDE8F08100241FE03B
:1028D00005EBC40090ED000AB4EEC90AF1EE10FA5F
:1028E00005D205EBC40090ED000AB0EE409A05EB6E
:1028F000C40090ED000AB4EEE90AF1EE10FA05DD2D
:1029000005EBC40090ED000AF0EE409A601C84B222
:10291000B442DDDB39EEC90AF1EE040A60EE200AAA
:1029200000EE106AB8EE400A80EE808AB3EE040A28
:10293000B4EEC08AF1EE10FA03D2B3EE040AB0EEA0
:10294000408A002400275BE005EBC400D0ED008A3C
:10295000ECB3601CB04246D018EE100AFDF783FEBF
:1029600041EC1B0B38EECA0A10EE101A0846FDF7B0
:102970007AFE41EC1D0BB0EE4D0AF0EE6D0A04F04C
:1029800008F8B0EE40CAF0EE60CA53EC1B2B51ECD5
:102990001C0BFDF77BFE26D918EE100AFDF763FE2F
:1029A00041EC1B0B601C05EBC00090ED000A38EEFB
:1029B000C00A10EE101A0846FDF755FE41EC1D0B3B
:1029C000B0EE4D0AF0EE6D0A03F0E3FF00E00AE01E
:1029D000B0EE40CAF0EE60CA53EC1B2B51EC1C0B5E
:1029E000FDF754FE08D83846791C8FB205EBC000BD
:1029F00005EBC40206CA06C0B0EE68AA601C84B229
:102A0000B442A1DB38465DE7FFFF7F7FFFFF7FFF1A
:102A10000000000030B503469FED2E0AB0EE402ABC
:102A20009FED2D0AB0EE401A9FED2C0AF0EE401AF1
:102A300000242B4D2C708A4205DD541A022C02DB37
:102A4000B2F5C87F02DD9FED250A30BD084628E0BB
:102A500003EBC004D4ED000A9FED1E0AF4EEC00A99
:102A6000F1EE10FA06D89FED1C0AF4EEC00AF1EE62
:102A700010FA02DA9FED190AE7E7F4EEC20AF1EE66
:102A800010FA01D2B0EE602AF4EEC10AF1EE10FAAB
:102A900001DDB0EE601A31EEA00AF0EE401A441CDF
:102AA000A0B29042D4DB31EE420AF2EE042AB4EE38
:102AB000E20AF1EE10FA0AD20124094D2C70541AE0
:102AC00000EE104AF8EEC02A81EEA20ABDE79FEDA3
:102AD000030ABAE7FFFF7F7FFFFF7FFF00000000D0
:102AE000340100202DE9F0412DED028B06460D4604
:102AF0001746002438E005EBC40090ED000ADFED36
:102B00001D0A20EE200ADFED1C0A80EE201AB0EE2E
:102B1000418AB0EE480AFDF753FB05EBC400D0ED47
:102B2000010A20EE200A06EBC40080ED000A05EB46
:102B3000C40090ED000ADFED0F0A20EE200ADFED61
:102B40000E0A80EE201AB0EE418AB0EE480AFDF778
:102B500073FB05EBC400D0ED010A20EE200A06EB62
:102B6000C40080ED010A641CBC42C4DBBDEC028BD6
:102B7000BDE8F081DB0F4940000034432DE9F04F00
:102B80002DED068B99B080460E46924600276421B3
:102B90006846FDF7C2FB9FEDA50AA54880ED000A37
:102BA000BAF5487F05DD002019B0BDEC068BBDE805
:102BB000F08F5146304604F011F99FED9C8A9FED4D
:102BC0009D9A04E1B0EE480A304604F051F90546FA
:102BD000B0EE490A304604F04BF90446002D01DB03
:102BE000002C00DAE7E04FEAE57C05EB5C7C4FEA7D
:102BF000EC0C1DF80CC04FEAE57B05EB5B7B4FEA64
:102C0000EB0BA5EBCB0E4FF0010B0BFA0EFB0CEA16
:102C10000B0CBCF1000F18D14FEAE47C04EB5C7C98
:102C20004FEAEC0C1DF80CC04FEAE47B04EB5B7B35
:102C30004FEAEB0BA4EBCB0E4FF0010B0BFA0EFBA4
:102C40000CEA0B0CBCF1000F00D0B4E006EBC500A1
:102C500090ED000ADFED780A20EE200ADFED750A1C
:102C600080EE201AB0EE41AAB0EE4A0AFDF7A8FAAB
:102C700006EBC500D0ED010A60EE20AA06EBC40009
:102C800090ED000ADFED6C0A20EE200ADFED690A04
:102C900080EE201AB0EE41AAB0EE4A0AFDF790FA93
:102CA00006EBC400D0ED010A40EE80AAB0EE000AA7
:102CB000CAEE809A06EBC50090ED000ADFED5E0AD1
:102CC00020EE200ADFED5B0A80EE201AB0EE41AA6A
:102CD000B0EE4A0AFDF7B0FA06EBC500D0ED010AE6
:102CE00060EE20AA06EBC40090ED000ADFED520A68
:102CF00020EE200ADFED4F0A80EE201AB0EE41AA46
:102D0000B0EE4A0AFDF798FA06EBC400D0ED010ACE
:102D100040EE80AAB0EE000ACAEE808AF5EEC08AC4
:102D2000F1EE10FA46DB9FED450AF4EEC08AF1EEB3
:102D300010FA3FD8B7F5C87F3CDAEA1705EB5272B4
:102D4000D2101DF802202946EB1705EB5373DB1058
:102D5000A5EBC30C012303FA0CF3DBB21A4328469C
:102D6000EB1705EB5373DB100DF80320E21704EBB0
:102D70005272D2101DF802202146E31704EB537360
:102D8000DB10A4EBC30C012303FA0CF3DBB21A43F0
:102D90002046E31704EB5373DB100DF8032008EB18
:102DA000C700C0ED009A3846791C8FB208EBC0000E
:102DB000C0ED018A00BF9FED220A38EE000AB0EE96
:102DC000408A9FED1F0A39EE400AB0EE409A9FED0F
:102DD0001D0AB4EEC08AF1EE10FA7FF6F3AE394662
:102DE0004046FFF71BFD07464FF000090EE008EBD9
:102DF000C90090ED000A0E48D0ED000A30EE200A1E
:102E000080ED000A09F101001FFA80F9B945EEDBF7
:102E100057B10748D0ED000A00EE107AB8EE400A2C
:102E200080EE801A80ED001A3846BDE600000000F2
:102E30001C01002000003443DB0F494000004844DF
:102E40009A99193F000096422DE9F04F2DED0E8B17
:102E500083B005460E4690460027002002909FED65
:102E6000FE0AB0EE408A824683469FEDFC0AF0EEF1
:102E7000408A9FEDFA0AF0EE40AA9FEDF80AB0EE04
:102E8000409A9FEDF70AF0EE409A9FEDF50AB0EEFA
:102E900040DA9FEDF30AB0EE40AA9FEDF20AF0EEA1
:102EA00040DAB8F1020F02DBB8F5487F05DD0020FB
:102EB00003B0BDEC0E8BBDE8F08F002468E006EB9C
:102EC000C40090ED000ADFEDE80A30EE600A10EE73
:102ED000101A0846FDF7C7FB41EC1C0BB0EE4C0A7C
:102EE000F0EE6C0A03F055FDB0EE40BAF0EE60BAB9
:102EF0009FEDDE0B53EC102B51EC1B0BFDF7C6FBCB
:102F000019D806EBC40090ED010ADFEDDA0AB4EE41
:102F1000E00AF1EE10FA0EDD06EBC40090ED010AB6
:102F2000DFEDCF0AB4EEE00AF1EE10FA03D80AF1B1
:102F300001001FFA80FA06EBC40090ED000ADFEDF5
:102F4000CA0A30EE600AB0EEC00AF1EE000AB4EE32
:102F5000E00AF1EE10FA19D806EBC40090ED010A70
:102F6000DFEDC50AB4EEE00AF1EE10FA0EDB06EB77
:102F7000C40090ED010ADFEDBF0AB4EEE00AF1EE05
:102F800010FA03D80BF101001FFA80FB601C84B219
:102F9000444594DBBAF10C0F04DBBBF1000F01D107
:102FA000002085E79FEDB50AB0EE408A96E0002448
:102FB0008AE006EBC40090ED000A30EE480A10EEFD
:102FC000101A0846FDF74FFB41EC1C0BB0EE4C0A03
:102FD000F0EE6C0A03F0DDFCB0EE40BAF0EE60BA41
:102FE0009FEDA70B53EC102B51EC1B0BFDF74EFB89
:102FF00068D806EBC40090ED000ADFEDA30A20EECE
:10300000200ADFEDA20A80EE201AB0EE41BAB0EE3F
:103010004B0AFDF711F906EBC400D0ED010A20EED2
:10302000200ADFED9B0AB4EEE00AF1EE10FA49D86F
:1030300006EBC40090ED010ADFED8F0AB4EEE00A62
:10304000F1EE10FA3EDBC82F01DB384630E706EB25
:10305000C40090ED000ADFED8C0A20EE200ADFEDBF
:103060008B0A80EE201AB0EE41BAB0EE4B0AFDF7A3
:10307000A7F806EBC400D0ED010A20EE200A05EB0C
:10308000C70080ED000A06EBC40090ED000ADFEDFA
:103090007E0A20EE200ADFED7D0A80EE201AB0EED7
:1030A00041BAB0EE4B0AFDF7C7F806EBC400D0ED0D
:1030B000010A20EE200A05EBC70080ED010A781C0A
:1030C00087B204E0601C84B24445FFF672AF00BFD3
:1030D000B7EE000A38EE000AB0EE408A9FED6D0AA6
:1030E000B4EEC08AF1EE10FA7FF661AF062F01DA76
:1030F0003846DDE67A1E6B460121284601F0F8FECF
:103100009DED000AB5EEC00AF1EE10FA03DD394676
:10311000284605F085FD00241FE005EBC40090ED76
:10312000010AB4EEE80AF1EE10FA05DD05EBC40081
:1031300090ED010AF0EE408A05EBC40090ED010A23
:10314000B4EEE90AF1EE10FA05D205EBC40090EDF9
:10315000010AF0EE409A601C84B2BC42DDDB002420
:1031600031E005EBC40090ED010AB4EEEA0AF1EE9D
:1031700010FA0EDD05EBC40090ED010AB4EE680A0A
:10318000F1EE10FA05D005EBC40090ED010AF0EE67
:1031900040AA05EBC40090ED010AB4EECD0AF1EEB1
:1031A00010FA0ED205EBC40090ED010AB4EE690AE4
:1031B000F1EE10FA05D005EBC40090ED010AB0EE77
:1031C00040DA601C84B2BC42CBDB002443E005EB58
:1031D000C40090ED010AB4EEC90AF1EE10FA17DD51
:1031E00005EBC40090ED010AB4EE680AF1EE10FAA6
:1031F0000ED005EBC40090ED010AB4EE6A0AF1EEC0
:1032000010FA05D005EBC40090ED010AB0EE409A2B
:1032100005EBC40090ED010AB4EECA0AF1EE10FA13
:1032200017D205EBC40090ED010AB4EE690AF1EE85
:1032300010FA0ED005EBC40090ED010AB4EE4D0A71
:10324000F1EE10FA05D005EBC40090ED010AB0EEE6
:1032500040AA601C84B21FE00000704200007AC5E2
:1032600000007A45000000000000B44200000000A9
:10327000000010400080BB440000C84200008C42A7
:10328000000000000000F03FDB0F49400000344325
:103290000000FA440000DC42BC4298DBB4EECA9A5B
:1032A000F1EE10FA01D8384602E679EE4A0A381FE4
:1032B00000EE100AB8EEC00A80EE801AF0EE41DA95
:1032C0000024A14643E0B1EE040A2DEE800A10EE80
:1032D000101A0846FDF7C7F941EC1B0B05EBC400BB
:1032E00090ED010A601C05EBC000D0ED010A30EE44
:1032F000600A10EE101A0846FDF7B5F941EC1C0BF8
:10330000B0EE4C0AF0EE6C0A03F043FBB0EE40EA7C
:10331000F0EE60EA53EC1B2B51EC1E0BFDF7B6F9F7
:1033200013D805EBC40090ED000A05EBC90080ED51
:10333000000A05EBC40090ED010A05EBC90080ED21
:10334000010A09F101001FFA80F9601C84B2781E9D
:10335000A042B8DC4846ABE52DE9F05F2DED0E8BC1
:1033600080460D461746B0EE408AF0EE608A002691
:10337000B146B246B3469FED6B0AB0EE40BA9FED40
:10338000690AF0EE40BA9FED670AB0EE40CA9FEDC1
:10339000660AF0EE40CA9FED640AB0EE40DA9FED97
:1033A000620AF0EE40DA9FED610AB0EE40EA022FC9
:1033B00013DBB7F5487F10DCB5EEC08AF1EE10FAEA
:1033C0000BD39FED5B0AF4EEC08AF1EE10FA04DC39
:1033D000B4EEE88AF1EE10FA04DD0020BDEC0E8BAD
:1033E000BDE8F09F96E000248AE005EBC40090ED74
:1033F000000A30EE480A10EE101A0846FDF733F9BD
:1034000041EC1A0BB0EE4A0AF0EE6A0A03F0C1FA78
:10341000B0EE409AF0EE609A9FED460B53EC102B05
:1034200051EC190BFDF732F968D805EBC40090EDAB
:10343000000ADFED420A20EE200ADFED3D0A80EEB1
:10344000201AB0EE419AB0EE490AFCF7F5FE05EB02
:10345000C400D0ED010A20EE200ADFED390AB4EEF7
:10346000E00AF1EE10FA49D805EBC40090ED010A2C
:10347000DFED340AB4EEE00AF1EE10FA3EDBC82EBE
:1034800001DB3046AAE705EBC40090ED000ADFED52
:103490002B0A20EE200ADFED260A80EE201AB0EE7D
:1034A000419AB0EE490AFCF78BFE05EBC400D0ED63
:1034B000010A20EE200A08EBC60080ED000A05EBA9
:1034C000C40090ED000ADFED1D0A20EE200ADFEDBA
:1034D000180A80EE201AB0EE419AB0EE490AFCF7C5
:1034E000ABFE05EBC400D0ED010A20EE200A08EB8C
:1034F000C60080ED010A701C86B204E0601C84B234
:10350000BC42FFF672AF00BFB7EE000A38EE000A09
:10351000B0EE408AB4EEE88AF1EE10FA7FF663AFBF
:1035200030465BE700007AC500007A4500000000E5
:1035300000003443000000000000F03FDB0F494072
:103540000000FA440000C84270B504460D46164615
:10355000012332462946204603F086FE70BD70B531
:1035600004460D461646002332462946204603F0FF
:103570007BFE70BD2DE9F0472DED088B05460E460C
:1035800000249FEDBC0AB0EE408A082E02DBB6F59F
:10359000C87F04DD0020BDEC088BBDE8F087032464
:1035A00062E14FF00108A01E87B220E0781C05EB15
:1035B000C000D0ED000A05EBC70090ED001A70EED8
:1035C000C10AF0EEE00AB0EE600AF5EE000AB4EED1
:1035D000E00AF1EE10FA06D3F0EE000AB4EEE00ACB
:1035E000F1EE10FA01DD4FF00008781C87B2E01C04
:1035F0008742DBDBB8F1000F00D133E105EBC400FB
:1036000090ED000ADFED9C0AB4EEE00AF1EE10FA4C
:103610007EDB601C05EBC00090ED011AF0EE410A64
:1036200005EBC40090ED011AB0EE410A03F0DFF99A
:10363000F5EE000A20EE200AF0EE408AF0EE680A6D
:103640009FED8E0A03F0AFF910EE109A4846FDF791
:103650000AF841EC190B05EBC40090ED010A601C5F
:1036600005EBC000D0ED010A30EE600A10EE101A32
:103670000846FCF7F8FF41EC1B0BB0EE4B0AF0EEEE
:103680006B0A03F086F9B0EE40AAF0EE60AA53ECA4
:10369000192B51EC1A0BFDF711F839D8601C05EB0A
:1036A000C00090ED011AF0EE410A05EBC40090ED68
:1036B000011AB0EE410A03F09AF9F5EE000A20EE85
:1036C000200AF0EE408AF0EE680A9FED6C0A03F0E3
:1036D0006AF910EE109A4846FCF7C5FF41EC1A0B48
:1036E000601E05EBC00090ED010AA01C05EBC000B8
:1036F000D0ED010A30EE600A10EE101A0846FCF711
:10370000B2FF41EC1B0BB0EE4B0AF0EE6B0A00E08F
:103710007DE003F03EF9B0EE409AF0EE609A53EC93
:103720001A2B51EC190BFCF7C9FF70D8601C05EB84
:10373000C00090ED011AF0EE410A05EBC40090EDD7
:10374000011AB0EE410A03F052F9F5EE000A20EE3C
:10375000200AF0EE408AF0EE680A9FED480A03F076
:1037600022F910EE109A4846FCF77DFF41EC1A0B47
:10377000A01E05EBC00090ED010AE01C05EBC000A7
:10378000D0ED010A30EE600A10EE101A0846FCF780
:103790006AFF41EC1B0BB0EE4B0AF0EE6B0A03F034
:1037A000F8F8B0EE409AF0EE609A53EC1A2B51EC18
:1037B000190BFCF783FF54D805EBC40090ED010A08
:1037C000A01C05EBC000D0ED010AB4EEE00AF1EE5A
:1037D00010FA1DDDA01C05EBC00090ED000ADFED26
:1037E000280A20EE200ADFED270A80EE201AF0EEEC
:1037F000418AB0EE680AFCF71FFDA01C05EBC00073
:10380000D0ED010A20EE200AB0EE408A1CE028E04C
:10381000601E05EBC00090ED000ADFED190A20EEF6
:10382000200ADFED180A80EE201AF0EE418AB0EE91
:10383000680AFCF701FD601E05EBC000D0ED010A2F
:1038400020EE200AB0EE408A9FED0F0AB4EEC08A47
:10385000F1EE10FA05D2BCEEC80A10EE100A80B2E2
:1038600099E600BF601C84B2201DB042FFF699AEFD
:10387000002090E6000000000000C8420000C8439D
:10388000DB0F49400000344300007A442DE9F04743
:103890002DED088B05460E4600249FEDBD0AB0EEC7
:1038A000408A082E02DBB6F5C87F04DD0020BDEC9F
:1038B000088BBDE8F087032463E14FF00108A01EE8
:1038C00087B220E0781C05EBC000D0ED000A05EBC4
:1038D000C70090ED001A70EEC10AF0EEE00AB0EEFB
:1038E000600AF5EE000AB4EEE00AF1EE10FA06D333
:1038F000F0EE000AB4EEE00AF1EE10FA01DD4FF04E
:103900000008781C87B2E01C8742DBDBB8F1000FAF
:1039100000D134E105EBC40090ED000ADFED9D0A13
:10392000B4EEE00AF1EE10FA7ED8601C05EBC000A0
:1039300090ED011AF0EE410A05EBC40090ED011A7A
:10394000B0EE410A03F053F8F5EE000A20EE200A2B
:10395000F0EE408AF0EE680A9FED8F0A03F023F83C
:1039600010EE109A4846FCF77EFE41EC1A0B05EB70
:10397000C40090ED010A601C05EBC000D0ED010A07
:1039800030EE600A10EE101A0846FCF76CFE41ECAF
:103990001B0BB0EE4B0AF0EE6B0A02F0FAFFB0EE32
:1039A000409AF0EE609A53EC1A2B51EC190BFCF78D
:1039B00085FE39D8601C05EBC00090ED011AF0EED1
:1039C000410A05EBC40090ED011AB0EE410A03F084
:1039D0000EF8F5EE000A20EE200AF0EE408AF0EE36
:1039E000680A9FED6D0A02F0DEFF10EE109A48465D
:1039F000FCF739FE41EC190B601E05EBC00090EDA1
:103A0000010AA01C05EBC000D0ED010A30EE600AEF
:103A100010EE101A0846FCF726FE41EC1B0BB0EE28
:103A20004B0AF0EE6B0A00E07EE002F0B2FFB0EE6F
:103A300040AAF0EE60AA53EC192B51EC1A0BFCF7DC
:103A40003DFE71D8601C05EBC00090ED011AF0EE50
:103A5000410A05EBC40090ED011AB0EE410A02F0F4
:103A6000C6FFF5EE000A20EE200AF0EE408AF0EEE6
:103A7000680A9FED490A02F096FF10EE109A484638
:103A8000FCF7F1FD41EC190BA01E05EBC00090ED19
:103A9000010AE01C05EBC000D0ED010A30EE600A1F
:103AA00010EE101A0846FCF7DEFD41EC1B0BB0EEE1
:103AB0004B0AF0EE6B0A02F06CFFB0EE40AAF0EE9B
:103AC00060AA53EC192B51EC1A0BFCF7F7FD55D8F3
:103AD000601E05EBC00090ED010AA01C05EBC000C4
:103AE000D0ED010AB4EEE00AF1EE10FA1DDDA01CE3
:103AF00005EBC00090ED000ADFED280A20EE200A59
:103B0000DFED270A80EE201AF0EE418AB0EE680A57
:103B1000FCF792FBA01C05EBC000D0ED010A20EEE3
:103B2000200AB0EE408A1CE028E0601E05EBC000D1
:103B300090ED000ADFED190A20EE200ADFED180AE9
:103B400080EE201AF0EE418AB0EE680AFCF774FBB2
:103B5000601E05EBC000D0ED010A20EE200AB0EE99
:103B6000408A9FED100AB4EEC08AF1EE10FA05D239
:103B7000BCEEC80A10EE100A80B298E600BF601CC6
:103B800084B2201DB042FFF698AE00208FE6000000
:103B9000000000000000A0420000C843DB0F4940C5
:103BA0000000344300007A442DE9F0472DED0A8BE4
:103BB000044688469FED790AB0EE40CA9FED770A29
:103BC000F0EE40AA9FED750AB0EE40AA9FED730A91
:103BD000B0EE409A9FED710AF0EE408A9FED6F0AB9
:103BE000B0EE40BAB8F5487F05DDB0EE4B0ABDEC4B
:103BF0000A8BBDE8F0874146204603F0EFF8002528
:103C0000C6E004EBC50090ED000ADFED650AB4EEF6
:103C1000E00AF1EE10FA72DB04EBC50090ED000A49
:103C2000DFED600AB4EEE00AF1EE10FA67D804EBBB
:103C3000C500D0ED00BA9FED5C0A3BEE800AF0EEC5
:103C4000409A9FED5A0AF4EEC09AF1EE10FA05DBA5
:103C50009FED560A39EEC00AF0EE409AB0EE000A27
:103C600029EE800ABDEEC00A10EE107AA7F1030912
:103C700088E009F534704FF4347190FBF1F201FBE8
:103C800012004B4931F9106078E004EBC600D0ED2A
:103C9000000A70EEE90AF0EEE00AB0EE600ADFED2D
:103CA000420AB4EEE00AF1EE10FA05DDDFED3F0A5C
:103CB00070EEC00AB0EE600AF7EE000AB4EEE00A59
:103CC000F1EE10FA57D804EBC500D0ED010A04EB71
:103CD000C60090ED011A30EE818AB4EECC8AF1EE86
:103CE00010FA0DD8B0EE68BAF0EE498AB0EE4A9AF2
:103CF000B0EE6AAAF0EE4CAAB0EE48CA3BE045E04E
:103D0000B4EEEA8AF1EE10FA0AD8B0EE68BAF0EE34
:103D1000498AB0EE4A9AB0EE6AAAF0EE48AA2AE0C2
:103D2000B4EECA8AF1EE10FA08D8B0EE68BAF0EE36
:103D3000498AB0EE4A9AB0EE48AA1CE0B4EEC98AAD
:103D4000F1EE10FA06D8B0EE68BAF0EE498AB0EE9D
:103D5000489A10E0B4EEE88AF1EE10FA04D8B0EE1A
:103D600068BAF0EE488A06E0B4EECB8AF1EE10FABB
:103D700001D8B0EE48BA0F4830F91660002E84DA48
:103D800009F10109F81C81457FF773AF681C85B202
:103D90004545FFF636AFB0EE4B0A28E700409C459C
:103DA0000000164300005243000034430000B443B7
:103DB00074910020149700200548007838B9054810
:103DC0000068401C034908600120014908707047E1
:103DD0004C000020580000202DE9F04107460D4618
:103DE00016461C4804681C48D0F800801B48007820
:103DF00030B9B5F5007F03D319480068844202D179
:103E00000020BDE8F081BFF35F8F04F00F0000EBEE
:103E10004000144901EB800207CA86E8070004F05D
:103E20000F00114A02EB40214FF400723846FCF7B4
:103E30004DFABFF35F8F601C0649086007480078A1
:103E400030B905480068804502D14FF40070D8E7CA
:103E50000020D6E748000020580000204C00002039
:103E6000440000202C2600202C06002070B51E489F
:103E7000007800B970BD00211C48FDF7F1FA1B481D
:103E8000FDF7A6FB00B1F5E700BFEFF31080044695
:103E900000BF72B6164800681649086016480588C3
:103EA000001D058815491148FDF7C0FA4FF48061DF
:103EB0000E48FDF759FC002011490870FEF79BFBE6
:103EC0001049086010484068104908600020064901
:103ED000087001210548FDF7C3FA00BF84F310887C
:103EE00000BF00BFC6E700004C0000208860024011
:103EF000440000204800002000440040400F002003
:103F00004D00002050000020001000E05400002070
:103F100010B54FF0FF3200211EE02148405C02281E
:103F200019D1002A16DB01EBC10000EB01301D4B5B
:103F300003EB800000F58040036802EBC20000EB59
:103F40000230184C04EB800000F580400068181A1D
:103F5000002800DD0A46491C0229DEDB002A01DABE
:103F6000002010BD00210EE091420BD00C48405CB7
:103F7000022807D100200A4B58540B48006B401C04
:103F8000094B1863491C0229EEDB0320044B9854AB
:103F900002EBC20000EB0230024B03EB8000E0E7D3
:103FA000CC01002060B2002028B20020024642F27C
:103FB0002830801A014648F6A04091FBF0F300FB40
:103FC0001311002900DA014488B270472DE9F74F38
:103FD0002DED048B054689464FF00008C346C246C6
:103FE0000020A3490880A3490880A34908809FEDC9
:103FF000A30AA34880ED000A0020A2490870A24944
:10400000088044F22000405DA049087044F214008A
:1040100040599F490968884201D1012000E00020F1
:104020009C490870FEF7E7FA44F210014959401A1A
:10403000994908604FF4804040599849086044F21B
:10404000100040599649086044F2140040599549BF
:1040500008609549284600F063F98C2412E09248E4
:1040600030F814004FF6FF71884207D10BF10100C0
:1040700080B28346504503DDDA4601E04FF0000B85
:10408000601C84B2DC2CEADD7F48A0F800A000248C
:1040900050E0854830F814004FF6FF71884247D051
:1040A000814830F8140005EBC0063088FFF77EFF2A
:1040B00000EE100AB8EE400ADFED7C0A80EE201A0E
:1040C000B0EE418A0698804504DB0020BDEC048BED
:1040D000BDE8FE8F09EBC80080ED008A708800EE15
:1040E000100AB8EE400A4046411C1FFA81F809EB5D
:1040F000C00080ED010A8C2C06DBDC2C04DC5E4861
:104100000088401C5C490880DC2C07DBB4F5AA7FE2
:1041100004DC58480088401C56490880142C06DBF3
:104120008C2C04DC52480088401C5149088000BF98
:10413000601C84B2B4F5347FABD300244BE005EBB4
:10414000C406708820B1708842F21071884200D98C
:104150003FE03088FFF72AFF074644F250618F4264
:1041600000D936E000EE107AB8EE400ADFED500AD2
:1041700060EE208AB0EE680AFCF722F8708800EE44
:10418000900AF8EE600A20EE209AB0EE680AFCF77A
:1041900053F8708800EE900AF8EE600A20EE208A4C
:1041A000B5EEC08AF1EE10FA12DDB0EEC90ADFED0D
:1041B000410AB4EEE00AF1EE10FA09D2304890ED6F
:1041C000000AB4EEC08AF1EE10FA01D280ED008A46
:1041D00000BF601C84B244F21800405BA042AEDC19
:1041E000FEF709FA44F210014959401A2A490860B9
:1041F00044F21400405926490968884201D101203F
:1042000000E000202349087044F22000405D50B3D4
:1042100019480088282826DBBAF10A0F23D8154848
:10422000008810281FDB1248008810281BDB44F28E
:104230001400405916490968884214D1FEF7DBF989
:1042400044F210014959401A1B4988420BD80C48C6
:1042500090ED000ADFED190AB4EEE00AF1EE10FA73
:1042600001DD012000E000200649087040462DE7EE
:1042700004020020020200200002002000401C4630
:10428000080200200C0200200E0200201402002070
:10429000580000201502002010020020F401002028
:1042A000F8010020FC010020A83401200000C842D1
:1042B000D402373900003443F04902000000AF4314
:1042C0002DE9F04105460E4617469846104800680D
:1042D00030440F490860002416E00E48008828B9D1
:1042E000285DA52800D00EE00B480760295D09482D
:1042F00002880088401C074B1880084881544046BB
:1043000004F0CCFB00BF641CB442E6D3BDE8F081EE
:1043100028B20020D4010020D8010020A8320120BA
:104320002DE9F04706460D464FF0000A002405E04F
:104330004FF6FF7025F81400601C84B2B4F5347F8A
:10434000F6D300242CE006EBC408B8F80200642879
:1043500005D3B8F8020042F21071884200D91DE07E
:10436000B8F80000FFF722FE3221B0FBF1F735F874
:1043700017904FF6FF70814506D125F817400AF1D6
:1043800001001FFA80FA08E0B8F8020006EBC90144
:104390004988884201DA25F8174000BF601C84B2C2
:1043A00044F21800805BA042CDDC5046BDE8F087A7
:1043B00010B538210648FBF7B0FF06480021018000
:1043C0000020054908800549086002F0EDFC10BD99
:1043D00028B20020CC010020D4010020E001002000
:1043E00010B5044600200549088002F0DDFC0448B1
:1043F0004463006A401C0249086210BDD4010020D9
:1044000028B200203EB502242C4800682C490968D7
:10441000884209D02A480068284908600846006890
:10442000FFF7DEFF01F03EF8FFF720FD22E0234911
:1044300002980968884208D0204902980860084616
:104440000068FFF7CDFF01F02DF8FEF7D4F80099D2
:10445000401A1C49884206D918480068FFF7C0FF77
:1044600001F020F806E029461748DDE90023FFF7B0
:1044700027FF00BF201EA4F1010407D06A464FF4B5
:1044800000711148FFF7A8FC051ED0D10F48006A43
:104490000F490968884205D10C48806A0D490968AE
:1044A000884209D00948006A094908600748806ABB
:1044B0000849086000F0F6FF3EBD0000E80100205A
:1044C00058000020F0490200483A012028B200209C
:1044D000EC010020F00100200146002010E000EB7C
:1044E000C00202EB0032084B03EB82028A4206D183
:1044F000064A125C032A02D10022044B1A54401CC3
:104500000228ECDB7047000060B20020CC010020E4
:1045100000BFFEE72DE9F04F2DED108B87B08246EE
:104520000D461746B0EE40AA9946DDE92084FEF715
:1045300062F80590FE4905980968401A04909FEDBD
:10454000FD0AF0EE408A9FEDFB0AF0EE40AA9FEDD7
:10455000FA0AB0EE40EA9FEDF70AB0EE40FA00200A
:10456000F6490870F6480088F64988610846C0F8A0
:104570001C90C0F82080C84502DDA8EB090000E0CF
:104580000020F049486295ED0A0AEF4880ED0D0AD7
:1045900097ED000A80ED0B0A97ED010A80ED0C0AF9
:1045A000092C04DCC84502DDB8F5C87F10DD012CFC
:1045B00001D0022C05D1E348006940F00800E14930
:1045C000086104F007FB07B0BDEC108BBDE8F08F6D
:1045D000002C7DD197ED000A10EE101A0846FCF76A
:1045E00042F841EC1C0BB0EE4C0AF0EE6C0A02F003
:1045F000D0F98DED020B9FEDD50B53EC102B9DEDFB
:10460000020B51EC100BFCF759F837D297ED000A6A
:1046100010EE101A0846FCF726F841EC1C0BB0EE21
:104620004C0AF0EE6C0A02F0B4F98DED020B9FED2E
:10463000C90B53EC102B9DED020B51EC100BFCF74A
:1046400025F81BD897ED010A10EE101A0846FCF762
:104650000AF841EC1C0BB0EE4C0AF0EE6C0A02F0CA
:1046600098F98DED020B9FEDBB0B53EC102B9DEDDC
:10467000020B51EC100BFCF709F802D904F0AAFA6E
:10468000A1E7B64890ED000AF7EE000AB4EE600A22
:10469000F1EE10FA03D1B24890ED000A05E0A8F15E
:1046A00001000AEBC00090ED010AF0EE40EA97ED40
:1046B000010A3EEEC00AD7ED000A80EE201A9FEDF7
:1046C000A90A31EE400AB1EE400AF0EE408A00E05D
:1046D00020E0A24890ED000AF7EE000AB4EE600A6E
:1046E000F1EE10FA15D09FEDA00AF4EEC08AF1EEBB
:1046F00010FA03DD9FED9C0AF0EE408A9FED9B0AC5
:10470000F4EEC08AF1EE10FA03D29FED980AF0EEB3
:10471000408AB2E1012C01D0022C76D1012C03D1C8
:10472000934890ED000A02E0924890ED000AF0EE06
:1047300040EA4E4659E00AEBC60090ED010A30EE21
:104740006E0A10EE101A0846FBF78DFF41EC1C0BA9
:10475000B0EE4C0AF0EE6C0A02F01BF98DED020B84
:104760009DED020B51EC100BFBF7C0FF0FEE900A12
:10477000F4EECEFAF1EE10FA35D20AEBC60090ED67
:10478000000A10EE101A0846FBF76DFFCDE9020192
:104790009DED020B02F0FDF8B0EE40CAF0EE60CAEB
:1047A0009FED6C0B53EC102B51EC1C0BFBF76EFFC9
:1047B00019D8B0EE6FEA0AEBC60090ED000AF0EEF1
:1047C00040AA6048006940F002005E4908615E4806
:1047D000C0ED08AA0AEBC60090ED010A5A4880ED28
:1047E000090AC0ED0AFA701C86B24645A3DB55489B
:1047F000007C00F0020048B95248006940F008000F
:104800005049086104F0E6F9DDE625E0012C10D1FD
:10481000594890ED000A5948D0ED000A60EE200A90
:104820009FED571A80EE810A30EE2A0AB1EE400A57
:104830000FE0514890ED000A5248D0ED000A60EEBA
:10484000200A9FED4F1A80EE810A3AEEC00AB1EEBF
:10485000400AF0EE408A10E1032C05D0042C03D06E
:10486000082C01D0092C61D197ED000A10EE101A26
:104870000846FBF7F8FECDE902019DED020B02F0C0
:1048800088F8B0EE40CAF0EE60CA9FED320B53ECF0
:10489000102B51EC1C0BFBF7F9FE02D904F09AF92E
:1048A00091E697ED000A10EE101A0846FBF7DBFEC2
:1048B00041EC1C0BB0EE4C0AF0EE6C0A02F069F809
:1048C0008DED000B9FED300B53EC102B9DED000B8D
:1048D00051EC100BFBF7DAFE02D29FED2D0B1CE022
:1048E00097ED000A10EE101A0846FBF7BCFE41ECEB
:1048F0001C0BB0EE4C0AF0EE6C0A02F04AF88DED9B
:10490000000B9DED000B53EC102B9FED230B51EC96
:10491000100BFBF71AFE41EC100B8DED020B9DED19
:10492000020B51EC100BFBF7E1FE39E046E0000012
:104930008801002000000000FFFF7F7F840100202D
:10494000860100205C290020BC290020000000A076
:104950009999B93F000000E0FFFFEF478001002078
:104960007C0100200000484200004843000048C38A
:104970007401002078010020040000206C01002058
:104980000000C84270010020000000606666D63F4B
:104990000000000000407F400000000000E0654093
:1049A0000DEE100A032C01D0082C02D1B1EE4D0AF5
:1049B00001E0B0EE4D0AF0EE408A5EE0052C0FD12A
:1049C000FE48007810B904F005F9FCE5FC4890EDCC
:1049D000000A5FED1C0A30EEC00AF0EE408A4CE09F
:1049E000A8EB0900022802DA04F0F4F8EBE54E46E1
:1049F00028E00AEBC60090ED000A10EE101A0846F7
:104A0000FBF731FECDE902019DED020B01F0C1FF84
:104A1000B0EE40CAF0EE60CA1FED320B53EC102B23
:104A200051EC1C0BFBF732FE02D904F0D3F8CAE5B7
:104A30000AEBC60090ED000A30EE2A0AF0EE40AA1A
:104A4000701C86B24645D4DBA8EB090000EE100AC4
:104A5000B8EEC00ACAEE800AF0EE60AA1FED3F0A67
:104A600030EE6A0AF0EE408AD648C0ED0EAAD6486B
:104A7000006940F48070D449086118EE900AFBF791
:104A8000F2FDCDE902019DED020B01F082FFB0EED7
:104A900040CAF0EE60CA1FED510B53EC102B51ECE5
:104AA0001C0BFBF7F3FD02D904F094F88BE59FEDA6
:104AB000C70AF4EEC08AF1EE10FA03DD9FEDC30AD7
:104AC000F0EE408A9FEDC20AF4EEC08AF1EE10FAD1
:104AD00003D29FEDBF0AF0EE408A012C01D0022CD8
:104AE00002D195ED020A09E01CB1052C04DB072C6C
:104AF00002DC95ED000A01E095ED010AF0EE40DAE6
:104B0000012C01D0022C02D195ED060A09E01CB15E
:104B1000052C04DB072C02DC95ED040A01E095ED81
:104B2000050AF0EE40BAAB48007848B1049838B1B5
:104B3000A9490498884203D8A8480088844208D02C
:104B4000C5ED0A8AA048006940F004009E4908614A
:104B50000BE09DED040AF8EE400A9FEDA11A81EEEC
:104B6000200A20EE2B0AF0EE40BAB2EE040A2DEE37
:104B7000800A20EE288AB2EE040A2BEE800AD5EDD8
:104B80000A0A78EEE00A60EE209AB0EE69BA9FED6C
:104B9000950AF4EEC09AF1EE10FA03DD9FED910A4A
:104BA000F0EE409A9FED900AF4EEC09AF1EE10FA02
:104BB00003D29FED8D0AF0EE409AB5EEC08AF1EE79
:104BC00010FA06DB38EE290AB5EEC00AF1EE10FA4B
:104BD0000BD3B5EEC08AF1EE10FA0AD838EE290AE6
:104BE000B5EEC00AF1EE10FA03DDB1EE480AF0EEC0
:104BF000409AF4EE4B9AF1EE10FA05D07248006933
:104C000040F4006070490861204604F079F8E0B390
:104C1000204604F075F883467048008804F070F868
:104C2000834509D1204604F07EF883466B4800880E
:104C300004F079F883454EDD204604F061F8012840
:104C400004D1B5EEC08AF1EE10FA09D3204604F083
:104C500057F802283FD1B5EEC08AF1EE10FA3ADDDE
:104C600018EE100AFBF7FFFCCDE900019DED000BEB
:104C700001F08FFEB0EE40CAF0EE60CA9FED5B0B14
:104C800053EC102B51EC1C0B00E024E0FBF7FEFC76
:104C90000CD218EE100AFBF7E6FC41EC1C0BB0EE50
:104CA0004C0AF0EE6C0A01F074FE01E09FED4F0B30
:104CB0008DED020B9DED020B51EC100BFBF716FD79
:104CC0000FEE100AB5EEC08AF1EE10FA03D2B1EE83
:104CD0004F0AB0EE40FAF2EE040AB0EE480A00EED7
:104CE0008A0A30EE290A30EE0F9A012C03D0032CE9
:104CF00001D0082C14D1B2EE040A2AEE000AB4EE58
:104D0000C90AF1EE10FA0BD2B2EE040A2AEE000A3A
:104D1000B0EE409A2C48006940F480602A4908614E
:104D2000022C03D0042C01D0092C14D1B2EE040AB9
:104D30002AEE000AB4EEC90AF1EE10FA0BDDB2EE6B
:104D4000040A2AEE000AB0EE409A1F48006940F4B7
:104D500080601D49086119EE100AFBF784FC41ECE4
:104D60001C0BB0EE4C0AF0EE6C0A01F012FE8DED59
:104D7000020B9FED200B53EC102B9DED020B51EC21
:104D8000100BFBF783FC02D903F024FF1BE40E4851
:104D9000006940F001000C49086195ED0A0A0948D4
:104DA00080ED000AC0ED018A80ED028AC0ED039A11
:104DB000C0ED04DAC0ED05BA20E0000034010020A7
:104DC00030010020BC2900205C2900200000FA43AB
:104DD0000000FAC38501002090D003008601002066
:104DE000009CE04700001643000016C300000000CE
:104DF00000C05240000000E0FFFFEF4780ED069A40
:104E0000B2EE040A2AEE000A80ED070A9FED1E0AA0
:104E1000B4EEC09AF1EE10FA06D39FED1C0AB4EE80
:104E2000C09AF1EE10FA05DD1948006940F0100053
:104E3000174908619FED140AB4EEC09AF1EE10FA1A
:104E400003D29FED110AB0EE409A9FED100AB4EE26
:104E5000C09AF1EE10FA03DD9FED0C0AB0EE409A15
:104E6000C5ED0A8AC5ED0B8A0A49059808600A480B
:104E7000048001200949087009490870BCEEC90A7C
:104E800010EE100A80B2BFE4004092440000D74404
:104E90005C29002088010020860100208501002077
:104EA0008401002000B5024600F018F89FED0A3A90
:104EB00082ED0B3A9FED083A82ED0A3A82ED000A44
:104EC000C2ED010A82ED021AC2ED041A82ED052A32
:104ED000C2ED062A00BD00000000000000200249CB
:104EE0000870024908707047850100208401002085
:104EF0002DE9F0472DED068B06460F4690461C46E1
:104F0000A8EB07099FED6E0AB0EE409A9FED6C0A80
:104F1000F0EE408A9FED6A0AB0EE40AA9FED680A63
:104F2000F0EE40AA9FED660A84ED010A84ED000AC6
:104F3000002F05DBB9F1020F02DBB8F5C87F08DDF1
:104F400000212046FCF7F2FE0020BDEC068BBDE8F8
:104F5000F0873D4632E006EBC50090ED008A06EB97
:104F6000C500D0ED019A9FED570AB4EEC08AF1EE6C
:104F700010FA14D89FED540AB4EEC08AF1EE10FA7C
:104F80000DDB9FED500AF4EEC09AF1EE10FA06D850
:104F90009FED4D0AF4EEC09AF1EE10FA05DA002109
:104FA0002046FCF7C3FE0020CFE739EE080AB0EE3A
:104FB000409A38EEA90AF0EE408A6D1C4545CADBDE
:104FC00000EE109AB8EEC00AC9EE000AB0EE609A80
:104FD00000EE109AB8EEC00AC8EE800AF0EE608AC1
:104FE0003D461AE006EBC50090ED000A30EE490A96
:104FF000B0EE408AB0EE4A0A08EE080AB0EE40AAC7
:1050000006EBC50090ED010A70EE680AB0EE6A0A80
:1050100008EE200AF0EE40AA6D1C4545E2DB9FED4C
:105020002B0AB4EEC0AAF1EE10FA07D8C4ED018A3B
:1050300000212046FCF77AFE002086E78AEE8A0AE5
:1050400084ED000AD4ED000AB0EE680A00EEC90A49
:1050500084ED010A94ED000ADFED1A0AB4EEE00ACD
:10506000F1EE10FA1AD894ED000ADFED170AB4EE4B
:10507000E00AF1EE10FA11DB94ED010ADFED110AFE
:10508000B4EEE00AF1EE10FA08D894ED010ADFED73
:105090000E0AB4EEE00AF1EE10FA0BDA9FED080A00
:1050A00084ED010A84ED000A00212046FCF73EFE53
:1050B00000204AE701212046FCF738FE012044E7A2
:1050C00000000000FFFF7F7FFFFF7FFFBD378635B9
:1050D00070B504460D461646FCF768F8691E601E5A
:1050E000324600F051FC70BD10B5044621464FF029
:1050F000804000F02CFF10BD7047000070B500210B
:1051000000230F22C4781CB3174C246804F4E06415
:10511000C4F5E064C4F30721C1F10404E3B20A4119
:1051200044789C40E1B28478144021430C07210E5E
:105130000E4C05786155047804F01F050124AC403D
:1051400005786D11AD0005F1E025C5F8004109E0D5
:10515000047804F01F050124AC40054D0678761153
:1051600045F8264070BD00000CED00E000E400E0D2
:1051700080E100E002490143024A116070470000EB
:105180000000FA050CED00E0B0EE401ADFED311A38
:10519000B0EE610A70EEC11AC0ED0B1AD0ED0C1A18
:1051A00090ED0B2A71EE821AC0ED0C1AD0ED0C1A9C
:1051B0009FED292AF4EEC21AF1EE10FA03DBDFEDBF
:1051C000261AC0ED0C1AD0ED0C1A9FED242AF4EE2D
:1051D000C21AF1EE10FA03D8DFED201AC0ED0C1A56
:1051E000D0ED001A90ED0B2A61EE821A90ED032AA1
:1051F000D0ED0C2A42EE221A90ED0B2AD0ED0A2AAD
:1052000032EE622AD0ED042A42EE821AB0EE610A32
:10521000D0ED0B1AC0ED0A1AD0ED0C1A1049C1EDF1
:10522000001A104981ED000ADFED0F1AB4EEE10A11
:10523000F1EE10FA03DBDFED0C1AB0EE610AB5EE09
:10524000C00AF1EE10FA03D8DFED021AB0EE610ADF
:10525000704700000000000000004843000048C301
:10526000D4000020D80000200000C8427047000091
:1052700029B1064A12680243044B1A6004E0034A4B
:1052800012688243014B1A607047000030380240B8
:1052900029B1064A12680243044B1A6004E0034A2B
:1052A00012688243014B1A60704700004038024088
:1052B00029B1064A12680243044B1A6004E0034A0B
:1052C00012688243014B1A60704700002038024088
:1052D00029B1064A12680243044B1A6004E0034AEB
:1052E00012688243014B1A60704700004438024044
:1052F00029B1064A12680243044B1A6004E0034ACB
:1053000012688243014B1A60704700002438024043
:10531000F0B5002100220024022500260223324F8E
:105320003F6807F00C0121B1042905D0082937D1C5
:1053300005E02E4F076036E02D4F076033E02A4F1F
:105340003F1F3F68C7F38056274F3F1F3F6807F056
:105350003F036EB1264FB7FBF3F7DFF88CC0ACF11B
:10536000040CDCF800C0CCF3881C07FB0CF40CE048
:105370001E4FB7FBF3F7DFF870C0ACF1040CDCF89C
:1053800000C0CCF3881C07FB0CF4174F3F1F3F688D
:10539000C7F301477F1C7D00B4FBF5F7076002E00F
:1053A000124F076000BF00BF0F4F3F6807F0F001CA
:1053B0000909104F7A5C0768D74047600A4F3F6879
:1053C00007F4E051890A0B4F7A5C4768D740876041
:1053D000054F3F6807F46041490B064F7A5C476808
:1053E000D740C760F0BD0000083802400024F40038
:1053F00000127A002C00002010B50648006828B181
:10540000FDF7F9F804490968401A10BD4FF0FF3064
:10541000FBE70000A4010020A8010020014800686B
:1054200070470000AC01002010B517480078B8B1F3
:1054300016480078A0B916480088322804D21448CB
:105440000088401C1249088011480088322807D380
:1054500001200E4908700F480068401C0D49086083
:105460000D48007878B1FDF7C6F8044600F02EF834
:1054700048B90A480068401C0849086000200849EB
:1054800008700549087010BD9201002093010020AA
:105490009001002094010020B1010020AC01002007
:1054A000B001002000BFEFF31081084672B6002162
:1054B000044A1170044A1170014681F3108800BF3C
:1054C00070470000B0010020B101002001460B48E8
:1054D00000680B4A126890420DD10A480068081A09
:1054E000094A904207D809480068081A084A9042B9
:1054F00001D8012070470020FCE70000A001002037
:1055000058000020A8010020E02202009C01002099
:10551000B01E04002DE9F04704460D4617461E460E
:1055200000BFEFF310808146FDF765F8804672B644
:1055300029480078A8B929480068874211D1A8EB0A
:105540000500274988420CD8A8EB06002549884267
:1055500007D8701B2249884203D823480068844238
:1055600005D1002021490870214908702EE01E480D
:105570000068401C844203D14046FFF7A7FF10B9E2
:1055800000201B490870184804601A4805601A4832
:1055900007601A48066016480078032804DA1448A1
:1055A0000078401C1249087011480078032801DB7C
:1055B000012000E000200D4908700846007828B15D
:1055C00000200F49088001200E49087000BF89F3B0
:1055D000108800BFBDE8F08793010020580000202C
:1055E000F0490200E0220200A4010020B0010020E6
:1055F000B10100209C010020A0010020A801002092
:10560000900100209201002010B50948007868B18F
:105610000848007850B90848007838B1FCF7EBFF2B
:105620000446FFF753FF08B1012010BD0020FCE73E
:105630009201002093010020B00100200148007871
:1056400070470000B10100207047000010B504460B
:10565000FBF778FD03480078012802D12046FBF7CC
:105660009FFC10BD6C00002010B504462146024886
:1056700000F06BFC10BD00000004004070B5044653
:105680000D461646691E601E324600F0CDF970BD0B
:105690000CB50020019000903448006840F4803040
:1056A0003249086000BF3148006800F400300090C3
:1056B0000198401C0190009818B90198B0F5A04FCE
:1056C000F1D12A48006800F4003010B101200090A8
:1056D00001E0002000900098012846D12348403086
:1056E000006840F08050214940310860204800683F
:1056F00040F440401E4908601C48083000681B49BF
:10570000083108600846006840F400400860084618
:10571000006840F4A05008601648091F0860081F80
:10572000006840F08070091F086000BF0F480068E3
:1057300000F000700028F9D040F205700E490860B2
:105740000A480830006820F0030008490831086062
:105750000846006840F00200086000BF03480830B7
:10576000006800F00C000828F8D10CBD0038024099
:105770000070004008544007003C0240DFED071A6B
:10578000C0ED0B1ADFED051AC0ED0A1A80ED000A14
:10579000C0ED030A80ED041A70470000000000000D
:1057A0009FED080A80ED0A0A80ED0B0A80ED0C0AD5
:1057B0009FED040A044981ED000A044981ED000AC5
:1057C0007047000000000000D8000020D400002036
:1057D000042808D14FF0E021096941F004014FF09D
:1057E000E022116107E04FF0E021096921F0040196
:1057F0004FF0E022116170477047000010B5154866
:10580000006840F47000134908601348006840F0D5
:1058100001001149086000200F49083108600E4856
:1058200000680E4908400C4908600D48091D0860D1
:10583000081F006820F48020091F08600020064926
:105840000C310860FFF724FF4FF0006001498039F8
:10585000086010BD88ED00E000380240FFFFF6FE52
:1058600010300024F0B50C46154600210022068CAD
:105870004FF6FE773E400684018B028C4FF60C7685
:1058800031407E1C06EA03162E4331434FF6F5766F
:10589000324044F00106324301830284F0BDF0B58A
:1058A0000C461546002100220026078C4FF6EF7C9F
:1058B00007EA0C070784018B028C4FF6FF7707EA93
:1058C000041640F6FF4739404FF6FF7707EA0337E3
:1058D00039434FF6FF7707EA052739434FF65F77DD
:1058E0003A4046F010073A4301830284F0BDF0B518
:1058F0000C461546002100220026078C4FF6FF6C4F
:1059000007EA0C070784818B028C4FF6FF7707EAC2
:1059100004264FF60C7739404FF6FF7707EA031756
:105920002F4339434FF2FF573A4046F480773A43CA
:1059300081830284F0BDF0B50C461546002100229B
:105940000026078C4EF6FF7C07EA0C070784818B44
:10595000028C4FF6FF7707EA043640F6FF473940DE
:105960004FF6FF7707EA052739434FF6FF7707EA37
:105970000337394345F6FF773A4046F480573A43B8
:1059800081830284F0BD000070B58AB006460C46E3
:10599000154601210846FFF77BFC01210846FFF769
:1059A00067FC012211461F48FCF780FE0220089088
:1059B0008DF8240003208DF8250000208DF82600A6
:1059C0008DF8270008A91748FCF728FEB0B2ADF8FB
:1059D00014000020ADF816000694ADF81C0005A9CF
:1059E0004FF0804000F0E4FA6020ADF800000120A4
:1059F000ADF802000020ADF80C00029569464FF0AA
:105A0000804000F043FA0821C80600F091FA012115
:105A1000880700F059F90121880700F064F90AB0FD
:105A200070BD00000000024070B58AB006460C460A
:105A3000154601210220FFF72BFC01210846FFF744
:105A400017FC022206211E48FCF730FE4020089079
:105A500002208DF8240003208DF8250000208DF809
:105A600026008DF8270008A91548FCF7D7FDB0B22D
:105A7000ADF814000020ADF816000694ADF81C0037
:105A8000029505A90F4800F093FA6020ADF80000D8
:105A90000120ADF802000020ADF80C00694609486D
:105AA00000F0ACF90821074800F0E6F901210548AB
:105AB00000F00AF90121034800F015F90AB070BDA1
:105AC000000002400004004000B589B0012104201C
:105AD000FFF7DEFB01210820FFF7CAFB02208DF84B
