:020000040800F2
:10000000800101209D010008D1370008E127000888
:10001000A5370008D9120008C15A000800000000E6
:100020000000000000000000000000008145000802
:10003000D318000800000000A9430008854A000802
:10004000B7010008B7010008B7010008B7010008B0
:10005000B7010008B7010008B7010008B7010008A0
:10006000B7010008B7010008B7010008B701000890
:10007000B7010008B7010008B7010008B701000880
:1000800031130008B7010008B7010008B7010008E4
:10009000B7010008B7010008B7010008B701000860
:1000A000B7010008B7010008B7010008B701000850
:1000B000B7010008B7010008B7010008B701000840
:1000C000B7010008B7010008B7010008B701000830
:1000D000B7010008B701000829570008B701000858
:1000E000B7010008B7010008B7010008B701000810
:1000F000B7010008B7010008B7010008B701000800
:10010000B7010008B70100080D4E0008B70100084C
:10011000B7010008B7010008E14E0008B701000868
:10012000B7010008B7010008B7010008B7010008CF
:10013000B7010008B7010008B7010008B7010008BF
:10014000B7010008B7010008B7010008B7010008AF
:10015000B7010008B7010008B701000859570008A7
:10016000B7010008B7010008B7010008B70100088F
:10017000B7010008B7010008B7010008B70100087F
:10018000B7010008B7010008DFF80CD000F0B6FC9A
:100190000048004745780008800101200648804754
:1001A00006480047FEE7FEE7FEE7FEE7FEE7FEE75C
:1001B000FEE7FEE7FEE7FEE7894A0008890100083E
:1001C0009FED1A1AF5EE000A40EE010ABDEEE00AB4
:1001D000F5EEC00A10EE100AF1EE10FA38BF401E1C
:1001E00000EE100A1349F7EE001AB8EEC00A30EE1E
:1001F000C00ADFED0F0A20EE200AFCEEC00A10EE66
:10020000900AC0F3080000EE900A01EB8000F8EEBF
:10021000600A90ED011A70EE600A90ED000A71EE2E
:10022000E01A21EE800A00EE810A704783F9223E2F
:1002300000000044E4810008B5EEC00AF1EE10FAB7
:1002400007D2DFED1E0AB4EEE00AF1EE10FAA8BF05
:100250007047DFED1B0AB5EEC00A60EE200ABDEE66
:10026000E01A11EE100AF1EE10FA38BF401E00EE4F
:10027000100A1549F7EE001AB8EEC00A30EEC00AAF
:10028000DFED100A60EE200ABCEEE00A10EE100A64
:10029000C0F3080000EE100A01EB8000B8EE400A3F
:1002A00090ED011A70EEC00A90ED000A71EEE01AAE
:1002B00021EE800A00EE810A70470000CD024CB4A6
:1002C00083F9223E00000044E481000810B5431A7F
:1002D000934209D28318881803E010F8011D03F82F
:1002E000011D521EF9D210BD40EA01039B0703D045
:1002F00009E008C9121F08C0042AFAD203E011F865
:10030000013B00F8013B521EF9D210BDD2B201E010
:1003100000F8012B491EFBD270470022F6E710B50A
:1003200013460A4604461946FFF7F0FF204610BD63
:10033000CAB2401E10F8011F8A4202D00029F9D12A
:1003400000207047421C10F8011B0029FBD1801AC5
:10035000704710B5002200E0521C835C8C5CA34205
:1003600001D1002BF8D1D8B2E1B2401A10BD30B59E
:1003700005460020034600E05B1C934205D2EC5C7E
:10038000C85C201A01D1002CF6D130BD2DE9F04710
:1003900091460F4680460446002614F8015B2DB1B5
:1003A00000F020FA0068405DC007F6D12B2D02D086
:1003B0002D2D18D0641E4A463946204600F016FA04
:1003C00027B13968A14201D1C7F8008071054FF00B
:1003D00002040BD54042002803DD05F097FB0460C2
:1003E000A007BDE8F08746F48066E4E70028F8DA65
:1003F00005F08CFB04606FF00040F2E72DE9FE4F42
:10040000804681EA0300C00F0C46009021F00041B5
:1004100023F00045B8EB0200A94105D24046214631
:1004200090461C460B46024623F00040104347D03E
:10043000270DC7F30A00C3F30A510290401A019036
:1004400040286BDAC3F3130040F4801B00989246F7
:1004500020B10023D2EB030A63EB0B0B0198594642
:10046000C0F14002504600F08CF906460D46504659
:100470005946019A00F0A4F910EB080061410024EC
:1004800087EA115284EAE7731A4340D0009A62B3B4
:10049000019A012A4FEA075215DC001B61EB0201A9
:1004A0004FF0004202EA0752CDE90042001C41F53C
:1004B000801132462B4600F02EFA03B0BDE8F08FD3
:1004C00040462146F9E7001B61EB0201001C41F5A3
:1004D000801300185B412018A2F5001747EB0301B9
:1004E00040EAD570B6196D4111E06D084FEA360645
:1004F00045EAC0754FEA0752001B61EB0201001C80
:1005000041F5801149084FEA300000195141324647
:100510002B4603B0BDE8F04F00F0EEB90098012281
:1005200040000023D0EB020263EBE0730098214609
:100530004FEAE074B8EB000061EB0401E9E783F0F7
:1005400000435BE781F0004158E72DE9F04D81EA77
:10055000030404F0004B21F0004514464FF0000A5C
:1005600023F0004150EA050220D054EA01021DD0D8
:10057000C5F30A570246C5F31303C1F31300C1F3D1
:100580000A5640F4801543F48013A7EB0608101BAD
:10059000D64608F2FD3873EB050002D308F10108D6
:1005A00001E092185B41B8F1000F03DA0020014628
:1005B000BDE8F08D00204FF48011064684460EE021
:1005C000171B73EB050705D3121B63EB05030643EB
:1005D0004CEA010C49084FEA300092185B4150EA9E
:1005E0000107EDD152EA030012D082EA040083EA47
:1005F0000501084305D0101BAB4106D201220023A0
:1006000006E000224FF0004302E06FF001025310B9
:100610001AEB06004CEB085110EB0A0041EB0B0102
:10062000BDE8F04D00F068B970B5C1F30A5201F0B1
:1006300000450024C1F3130140F2FF3341F480115F
:100640009A4201DA002070BD40F233439A42A2F28E
:10065000334203DC524200F0A3F800E090402C4308
:10066000F1D0404270BD00F0004230F000400AD0AE
:10067000C10D01F56071C0F3160042EA0151C208D4
:1006800040071143704700200146704730B5041EF3
:1006900071F1000404DB4FF00044404264EB0101BF
:1006A000141E73F1000405DB1C464FF00043524258
:1006B00063EB0403994208BF904230BD01F0004350
:1006C00030B421F0004150EA010206D00A0DA2F533
:1006D0006072C1F31301002A02DC30BC00207047B5
:1006E000440F44EAC104C100E01830BC00EBC25022
:1006F00000F0CBB830B50B46014600202022012483
:1007000009E021FA02F59D4205D303FA02F5491BDF
:1007100004FA02F52844151EA2F10102F1DC30BDF5
:100720002DE9F05F0546002092469B468846064626
:10073000814640241BE0284641464746224600F0B9
:100740002FF853465A46C01A914110D31146184605
:10075000224600F016F82D1A67EB01084F46224694
:100760000120002100F00DF817EB00094E41201E7A
:10077000A4F10104DFDC484631462A464346BDE881
:10078000F09F202A04DB203A00FA02F10020704793
:100790009140C2F1200320FA03F3194390407047BF
:1007A000202A04DB203A21FA02F00021704721FAC6
:1007B00002F3D040C2F1200291400843194670472D
:1007C000202A06DBCB17203A41FA02F043EAE07315
:1007D00006E041FA02F3D040C2F120029140084302
:1007E00019467047004870476C8A00082DE9F05F91
:1007F00082460078002715468B460AF10104B94667
:10080000302801D09DB113E014F8010B012778289E
:1008100003D0582801D045B10AE00DB1102D07D101
:100820000027102514F8010B02E0082500E00A2536
:100830000026B0460EE005FB080005FB06F1012787
:1008400001EB10461FFA80F8B6F5803F00D3B94699
:1008500014F8010B294600F063F90028EBDABBF12C
:10086000000F05D00FB1641E00E05446CBF80040E5
:10087000B9F1000F06D005F049F902210160C81E48
:10088000BDE8F09F48EA0640FAE70029A8BF704794
:10089000401C490008BF20F00100704710B4B0FAB6
:1008A00080FC00FA0CF050EA010404BF10BC704751
:1008B00049B1CCF1200421FA04F411FA0CF118BF6B
:1008C000012121430843A3EB0C01CB1D4FEA00613A
:1008D0004FEA102042BF002010BC704700EBC3500D
:1008E00010440029A4BF10BC7047401C490008BF39
:1008F00020F0010010BC704710B5141E73F1000405
:1009000008DA401C41F1000192185B411A4301D101
:1009100020F0010010BD2DE9F04D92469B4611B12B
:10092000B1FA81F202E0B0FA80F220329046FFF78D
:1009300028FF04460F4640EA0A0041EA0B015346ED
:100940005A46084313D0114653EA010019D0C8F1A2
:1009500040025046FFF724FF05460E4650465946D2
:100960004246FFF70EFF084305D0012004E0204671
:100970003946BDE8F08D0020054346EAE0762C4379
:1009800037430A986305E40AA0EB08000022FD0A39
:1009900044EA47540A3002D500200146E9E7010540
:1009A00010196941DDE9084500196941BDE8F04DBC
:1009B000A2E72DE9FE4F81EA030404F0004421F090
:1009C000004100944FF0000B23F0004350EA010473
:1009D0005ED052EA03045BD0C3F30A54C1F30A5554
:1009E0002C44A4F2F3340194A0FB0254C1F313018C
:1009F00041F48011C3F3130343F4801301FB024459
:100A000000FB034E840A970A44EA815447EA83575D
:100A1000A4FB076802958D0A05FB07854FEA932C16
:100A200004FB0C542705029D4FEA065847EA163787
:100A3000B5EB08056EEB070C870E920E47EA81179F
:100A400042EA8312A7FB0201B6EB0B0164EB000440
:100A50002B0D43EA0C335E1844EB1C50DA4651462A
:100A6000E7FB0201C5F313044FEA0B3343EA1453C7
:100A70004FEA0432019C43EA0603A4F10C040294F9
:100A8000009CCDE900B4FFF746FF03B0BDE8F08F4E
:100A900000200146F9E7C1F30A52C1F3130140F205
:100AA000FF3341F480119A4202DA00200146704778
:100AB00040F233439A42A2F2334202DC5242FFF741
:100AC0006FBEFFF75EBE002801DBC0F100400029C9
:100AD00001DBC1F10041814202D24FF0004004E04D
:100AE0004FF0005001D14FF0C0404FEA2062EFF3C9
:100AF000008162F31F6181F300887047064C074D47
:100B000006E0E06840F0010394E8070098471034DD
:100B1000AC42F6D3FFF73CFBA08D0008C08D000867
:100B20003A2800D2303820F02002412A01D3A2F125
:100B30003700884201D34FF0FF30704770B58C18F2
:100B400010F8015B15F0070301D110F8013B2A11E1
:100B500006D110F8012B03E010F8016B01F8016BCE
:100B60005B1EF9D12B0705D40023521E0DD401F8CA
:100B7000013BFAE710F8013BCB1A921C03E013F893
:100B8000015B01F8015B521EF9D5A142D8D30020C8
:100B900070BD000010B500BFEFF31082114672B6B1
:100BA00000201BE0114A92F90020904214D000EB83
:100BB00040120F4B03EBC20292F8032162B10022F4
:100BC00000EB40130A4C04EBC30383F80321094AEA
:100BD0001268521C074B1A60421CD0B20628E1DB97
:100BE00000BF81F3108800BF10BD0000E0000020AE
:100BF00094320020E80000200020002110E001EBEA
:100C00004112094B03EBC20292F8032132B9074AA1
:100C100092F900208A4201D0421CD0B24A1CD1B2C3
:100C20000629ECDB7047000094320020E000002031
:100C3000002110E001EB4110094A02EBC00090F8DE
:100C4000030130B9074890F90000884201D0012023
:100C50007047481CC1B20429ECDB0020F8E7000013
:100C600094320020E00000202DE9F04107460D46B7
:100C70001646022E01D1062000E00420804600F036
:100C800003FB01F031FD10B90020BDE8F08115B182
:100C9000B5F5807F06DD28480068401C26490860BD
:100CA0000020F2E700243DE004EB4410234901EB6F
:100CB000C00090F8030190BB214890F90000A042C9
:100CC0002ED004EB44111D4A02EBC1002A463946DE
:100CD000FFF7FCFA04EB4410184901EBC000A0F840
:100CE000005104EB441001EBC00080F8026115488C
:100CF000006804EB4411114A02EBC101C1F8040180
:100D000010480068401C0F490860BFF35F8F012046
:100D100004EB441102EBC10181F80301B5E7FFE7E1
:100D2000601CC4B24445BFDB03480068401C024954
:100D300008600020A9E70000E800002094320020AD
:100D4000E0000020E4000020F0B5B3B004F08EFC19
:100D50004248007808B933B0F0BD00BFEFF310800F
:100D6000054672B63E4806783C480078022801D114
:100D7000012000E00020074632463A4901A8FFF76B
:100D8000A5FA00F0ABFA00BF85F3108800BF2FB1C1
:100D9000002035490870012034490870002458E0CB
:100DA00001A8005D0A2826D130480078D0B92E4825
:100DB000007858B12C480078401E2D49085C0D2859
:100DC00004D129480078401E27490870002028498E
:100DD000254A127888542448007830B1084604F037
:100DE00047FA02E023A001F01BFA00201E49087018
:100DF0001E4908702BE01D48007840BB01A8005D2B
:100E000020280ADA01A8005D0D2806D00120174924
:100E1000087000201449087019E013480078C728AA
:100E20000AD201A8015D104802780078401C0E4BE0
:100E300018700F4881540AE001200C490870002006
:100E4000094908700F480068401C0E490860601C82
:100E5000C4B2B442A4DB00BF7DE70000550000200F
:100E60005600002048260020EE000020EF00002061
:100E7000C4380020455252206F766572666C6F77D9
:100E80000D0A00007C00002030B52DED028B91B0E2
:100E9000B0EE408AF0EE608A0446244D2448007883
:100EA000012803D011B0BDEC028B30BD8DED008A5E
:100EB0000A2C00DB0095CDED018A1E4890ED000A5A
:100EC0008DED020A90ED040A8DED030A00EE104A42
:100ED000B8EE400A8DED040A174890ED000A8DED3A
:100EE000050A164890ED000A8DED060A14480088A0
:100EF00000EE100AB8EE400A8DED070A202269467E
:100F000008A8FFF7E3F900208DF840008DF84100B4
:100F100080208DF842007F208DF84300002224219C
:100F200008A8FFF7A1FE00BFBCE700000000C07FDB
:100F30005800002020660020280100202C010020FD
:100F4000F200002010B5204890F90000002806DAD1
:100F5000002240F227711D4804F012FD10BD1C480C
:100F60000488601C1A4A1080174890F9000000EBB2
:100F70004010184A02EBC000015D144804F090FDD7
:100F8000114890F9000000EB4010124901EBC0003D
:100F9000B0F800010E490988884213DC00200A4994
:100FA00091F9001001EB41110A4A02EBC10181F8ED
:100FB0000301FF2004490870002240F22771034812
:100FC00004F0DEFC00BFC9E7E0000020001401408F
:100FD000E20000209432002070B54FF0FF3500F0A1
:100FE00053F901F081FB58B93848007820B1FFF778
:100FF000D1FD00203649086000203449087070BDDA
:10100000012032490870334890F90000002800DBC5
:10101000F5E7002439E004EB44102F4901EBC00050
:1010200090F8030178B3002D2CDB04EB441001EBA6
:10103000C00090F8020105EB4511274A02EBC101FF
:1010400091F8021188421DDC04EB4410114601EBBB
:10105000C00090F8020105EB451102EBC10191F8C7
:10106000021188420FD104EB4410114601EBC0007D
:10107000D0F8040105EB451102EBC101D1F80411D0
:10108000401A00D565B2601CC4B2062CC3DB002D2B
:1010900000DAB4E705EB45120F4B03EBC202B2F8DE
:1010A000001105EB451203EBC20000F0BFFE00206B
:1010B0000A49088007480570BFF35F8F012240F29C
:1010C0002771074804F05CFC00BF98E7EC000020A3
:1010D00060000020E000002094320020E2000020A8
:1010E0000014014070B5044644B12046FFF72AF9C8
:1010F00085B2022229462046FFF7B6FD70BD0000EA
:1011000010B588B004460121042003F04FF90121F5
:10111000042003F04BF9082206213B4801F0AAFA0B
:1011200008220721384801F0A5FA06A801F0D2FAF2
:101130004020069002208DF81C0003208DF81D0031
:1011400000208DF81E0001208DF81F0006A92E48F2
:1011500001F048FA06A801F0BDFA802006900220AE
:101160008DF81C0003208DF81D0000208DF81E0056
:1011700001208DF81F0006A9234801F033FA012150
:10118000202003F043F9214804F058FB02A804F0A2
:101190008BFC02940020ADF80C00ADF80E00ADF809
:1011A00010000C20ADF812000020ADF8140002A9C8
:1011B000164804F00BFC012240F22551134804F0BC
:1011C000DFFB012240F22441104804F0D9FB20212A
:1011D0000E4804F015FB40F224410C4804F010FBCB
:1011E00001210A4804F015FB47208DF80400012076
:1011F0008DF805008DF806008DF8070001A802F0B3
:10120000E9FA08B010BD00000008024000140140D7
:1012100010B54FF4E130FFF773FF00F013F802A0B0
:1012200004F050FC10BD0000426C7565746F6F7463
:10123000685F496E69742073756363656564210D29
:101240000A0000001CB50121042003F0AFF8684635
:1012500001F040FA0420009000208DF804000320E3
:101260008DF8050000208DF8060001208DF807009C
:101270006946044801F0B6F90421024801F026FA53
:101280001CBD00000008024010B504210F4801F009
:1012900014FA50B900200E4908700E480078012851
:1012A00002D100200B49087010BD0421074801F04D
:1012B00004FA012807D1064908700648007810B9D9
:1012C00001200449087000BFEEE70000000802405A
:1012D000540000205700002000BFFEE70020024914
:1012E0000870024908707047560000205500002021
:1012F0001CB50121022003F059F801208DF80400EB
:1013000000208DF806004FF40040009002208DF878
:10131000050000208DF807006946044801F062F9D5
:101320004FF40041014801F0D3F91CBD0004024014
:101330002DE9F0477848466801F041F98246774840
:10134000476806F4507030B175480068401C744915
:10135000086001F037FE7348007830B172496E487A
:10136000883000F005F9BDE8F08706F44060B0F57C
:10137000406F0CD16D480068401C6C49086001F05A
:1013800021FE69496448883000F0F2F8EBE706F482
:10139000406000B9E7E7012020EA96240CB16448D8
:1013A00000E0644801465C48883000F0E1F85A48A3
:1013B000883000F0B9F905465F480078844212D1C0
:1013C0005E4800683221B0FBF1F05D490968791A86
:1013D000884208D33DB114B9B5F5007F03D854B1A4
:1013E000B5F5007F07D851480068401C4F49086098
:1013F00001F0E8FDB7E75348006853490968A0EBDE
:101400000108B8F1100F07D350480068401C4F493D
:10141000086001F0D7FDA6E74D4A02EB4421494A96
:10142000126802F00F024B4B03EB42204FF40072A4
:10143000FEF74CFF3848883000F076F905468DB14C
:101440003E4800686421B0FBF1F034494968C91B8B
:10145000884207D914B9B5F5007F03D854B1B5F562
:10146000007F07D831480068401C3049086001F00F
:10147000A9FD78E738480068A0F59C40203831493C
:10148000096801F00F0101EB4101344A42F82100E3
:101490002C48006800F00F0000EB4000114601EB03
:1014A0008000C0F804A02E4800682649096801F0B1
:1014B0000F0101EB410102EB81018860BFF35F8FF7
:1014C00020480068401C1F49086026480068401CEE
:1014D0002449086008F1010023490968B1EB402F55
:1014E00002D24002204908601348007880F00100D1
:1014F000114908701848C0F800A011480760074853
:101500004068A0EB070919480068814502D91748CF
:10151000C0F8009000BF26E700600240001000E025
:101520007800002034000020400F00204C000020F4
:1015300000080020000400203500002000000020EA
:101540003C0000202C000020300000207C00002007
:101550008801002088050020380000208825002010
:1015600040000020480000204400002050000020DF
:101570000246094B9A4201D2084801E00648103859
:1015800001F000531BB1064B0B40C36002E0044B5B
:101590000B4083607047000010640240006002400E
:1015A0007D0F7D0F21B1026842F00102026003E06D
:1015B000026822F00102026070470000016821F019
:1015C000010101600021016041608160C160016131
:1015D000212141614A49884204D13D21484A103ABB
:1015E00091608CE046491831884205D14FF474610E
:1015F000434A103A916082E041493031884205D136
:101600004FF474113E4A103A916078E03C494831F9
:10161000884205D14FF07461394A103A91606EE00A
:1016200037496031884204D13649354A103AD16091
:1016300065E033497831884204D13349304A103A61
:10164000D1605CE02E499031884204D12F492C4A68
:10165000103AD16053E02A49A831884205D14FF0B1
:101660003D51274A103AD16049E02949884204D1C6
:101670003D21274A083A116041E025491831884246
:1016800005D14FF47461224A083A116037E02049CD
:101690003031884205D14FF474111D4A083A116067
:1016A0002DE01B494831884205D14FF07461184A3A
:1016B000083A116023E016496031884204D111498B
:1016C000134A121F11601AE011497831884204D17F
:1016D0000D490F4A121F116011E00D4990318842E7
:1016E00004D10A490A4A121F116008E00849A831CA
:1016F000884204D14FF03D51054A121F11607047D6
:10170000106002403D000020400F002000003D20FE
:1017100010640240014600200A6802F001020AB18A
:10172000012000E0002070470146486880B2704701
:1017300010B501F080034BB122B1436943F080033F
:10174000436103E0436923F08003436180290BD0A8
:101750002AB1036801F01E042343036004E0036818
:1017600001F01E04A343036010BD000010B5002269
:101770000268134B1A40CC680B6823434C6923431F
:101780008C692343CC6923430C6A23434C6A23436B
:101790008C6A23434C6B23438C6B23431A430260B4
:1017A000426922F00702D1E90B3423431A43426114
:1017B0000B6943604B6883608B68C36010BD000099
:1017C0003F801CF000B591B00121480502F0EEFD0C
:1017D0002A48FFF7F3FE02A800F06AF84FF0006015
:1017E00002902748039027480490002005904FF46A
:1017F00080600690089080100B9040020C9002A927
:101800001E48FFF7B3FF01229E211C48FFF790FFFF
:1018100010208DF8040000208DF805008DF80600DA
:1018200001208DF8070001A801F0D4FF16480068D8
:1018300040F08070144908601448006840F00100CE
:1018400012490860002012490860124908601249D4
:1018500008701249087000F0B2FE114908600B4888
:1018600040681049086010490448FFF781FE0121D3
:101870000248FFF797FE11B000BD000088600240EB
:101880000444004088010020FCED00E0001000E06E
:10189000300000202C000020350000203400002003
:1018A000380000203C000020400F002041607047BD
:1018B0000021016041608160C1600161416181611D
:1018C000C161016241628162C162016341638163FE
:1018D0007047704770B504460D4600200B490860FC
:1018E0000B49086068210B48FEF717FD0A480460A1
:1018F00000F065FE0949086060210948FEF70DFD0A
:1019000060210848FEF709FD70BD0000A800002016
:10191000A400002010270020A00000209C00002030
:10192000D42800203429002030B502460B464FF65B
:10193000FF7017E012F8015B80EA052000210FE03C
:1019400000F400442CB141F2210484EA4004A4B222
:1019500003E04FF6FF7404EA400420464C1CE1B259
:101960000829EDDB1C1EA3F10105ABB2E2D130BDAD
:1019700010B5B0B0044656A12046FEF7EAFC78B98F
:101980000120032154A35AA2CDE900105D4902A809
:1019900004F0A8F802A802F0F5FD012030B010BD57
:1019A00059A12046FEF7D5FC78B95948007803289C
:1019B00004D058A000F034FC0120EFE700F0FEF85E
:1019C00057A002F0DFFD0120E8E7082257A12046DA
:1019D000FEF7CDFC20BB2FA904F1080006F052F958
:1019E00008B12F9820B954A000F01AFC0120D5E7C7
:1019F000FFF7D0F854492F98086006F031F900201D
:101A000052490860524908705249087052A102A810
:101A10002F9A04F067F802A802F0B4FD0120BDE798
:101A2000052252A12046FEF7A2FC10BB2FA9601D83
:101A300006F028F910B12F98032804D94DA000F022
:101A4000EFFB0120AAE7FFF7A5F831492F980870AE
:101A500006F006F900203F4908703D49087048A18A
:101A600002A82F9A04F03EF802A802F08BFD012094
:101A700094E7052246A12046FEF779FC30BB2FA94A
:101A8000601D06F0FFF838B12F9828B12F980A286A
:101A900002D82F48007820B13FA000F0C1FB012000
:101AA0007CE740492F98087000202A4908703E487A
:101AB0000068401C3C4908603CA102A82F9A04F031
:101AC00011F802A802F05EFD012067E7002065E73B
:101AD000696E666F000000007368613235362D62F2
:101AE00061316362373630616138396331653500A1
:101AF000726332362D6D61736B33312D76322E3138
:101B000000000000708A0008676574636667000063
:101B100058000020455252206D6F64650D0A000088
:101B20004F4B206765746366670D0A0073657373B6
:101B3000696F6E2000000000455252207365737378
:101B4000696F6E0D0A000000600000208400002014
:101B5000B4000020B30000204F4B207365737369FD
:101B60006F6E20256C750D0A0000000074656C65B1
:101B7000200000004552522074656C650D0A00007B
:101B80004F4B2074656C6520256C750D0A000000B4
:101B900072617465200000004552522072617465C4
:101BA0000D0A0000590000205C0000204F4B2072FD
:101BB00061746520256C750D0A00000010B50024C5
:101BC0000AE00C4800EB84020B4800EB440120467D
:101BD00003F036FD601CC4B20F2CF2DB0120074974
:101BE000087000200649087006480068401C054936
:101BF000086010BD78270020B4270020B400002022
:101C0000B5000020B800002070B52DED088B04460B
:101C1000B0EE408A0E4615469FED640AF0EE408A0B
:101C20000020307028701A2C0DDA9FED610AB4EE96
:101C3000C08AF1EE10FA06D89FED5E0AB4EEC08AB3
:101C4000F1EE10FA03DA0020BDEC088B70BD022C17
:101C500016D1B5EEC08AF1EE10FA0FD3B2EE020A39
:101C6000B4EEC08AF1EE10FA08DCBDEEC80AB8EE98
:101C7000C00AB4EE408AF1EE10FA01D00020E3E78A
:101C8000142C0DD1B5EEC08AF1EE10FA08D0B7EEE3
:101C9000000AB4EE408AF1EE10FA01D00020D3E73A
:101CA0001CB99FED450AF0EE408A032C05D0052CA7
:101CB00003D0072C01D0082C03D1B3EE0E0AF0EEAE
:101CC000408A042C01D0062C03D19FED3C0AF0EE93
:101CD000408AF5EEC08AF1EE10FA08D1122C06D037
:101CE000B5EEC08AF1EE10FA01D20020ACE7012077
:101CF0003070F5EEC08AF1EE10FA14D0B4EEE88A36
:101D0000F1EE10FA02DDB0EE688A2870B1EE680AD2
:101D1000B4EEC08AF1EE10FA05D2B1EE680AB0EE68
:101D2000408A01202870264830F8140000EE100A7E
:101D3000B8EE400A20EE089A9FED220AB4EEC09A4F
:101D4000F1EE10FA04DD0120287047F6FF707BE702
:101D50009FED1D0AB4EEC09AF1EE10FA03D20120F5
:101D600028701A4870E719EE100AFEF77CFC41EC67
:101D70001B0BB5EEC09AF1EE10FA02DB9FED141BBF
:101D800001E09FED151BB0EE410AF0EE610A53EC45
:101D9000102B51EC1B0BFEF731FB41EC1A0B51ECF5
:101DA0001A0BFEF741FC00B24EE7000000000000F5
:101DB000FFFF7F7FFFFF7FFF000016440060EA46C1
:101DC000A080000800FEFF46000000C70080FFFF63
:101DD000000000000000E03F000000000000E0BF45
:101DE0001A281BDA0E4A02EB800282ED000A012259
:101DF00082400C4B1B681A430A4B1A6039B101220E
:101E00008240094B1B681A43074B1A6006E0012207
:101E10008240054B1B689343034A136070470000E0
:101E200010270020A8000020A400002070B5044660
:101E30000D46102D1CDB2078AA2819D16078552872
:101E400016D1A078022813D10A4801680068401C06
:101E5000084B1860A01D05F0DBFF281F81B2A01CF5
:101E6000FFF762FD06466119881E314605F0CCFF7A
:101E700070BD00008400002030B50446F0EE400A3A
:101E80000D462946B0EE600A2046FFF7A9FF012063
:101E9000A0400349096881430148016030BD00004A
:101EA000A800002008B50121102002F08FFA0020C0
:101EB000104908805320088540F2E730C8620120AD
:101EC0008882002008820C49086001200949888125
:101ED00036208DF8000000208DF8010001208DF8DB
:101EE00002008DF80300684601F074FC01200149EE
:101EF000088008BD00100040800000202DE9F0415E
:101F000005460E4617462D480068401C2B490860C0
:101F100080462B480078032802D12A48006808B977
:101F2000BDE8F0812848006828490968401A40281F
:101F300005D327480068401C25490860F0E722487F
:101F4000006800F03F0000EBC000224901EB800474
:101F5000C4F8008020480068606000F030FBA0609A
:101F6000A5814FF08040806BE0811C4890ED000A15
:101F700084ED040A1A4890ED000A84ED050A194818
:101F800090ED000A84ED060A174890ED000A84EDF2
:101F9000070A0EB1012000E000200FB1022100E08D
:101FA00000210843001D2062BFF35F8F06480068D0
:101FB000401C0549086000BFB2E70000CC000020CB
:101FC0005800002060000020C4000020C80000204D
:101FD000D0000020942900205C000020280100206F
:101FE0001C010020BC000020C000002070B52DEDB9
:101FF000028B05460C46B0EE408A1448007818B9AA
:10200000FEF7FAFD022803DA0020BDEC028B70BD5A
:102010000F480078032808D1D4ED000AB0EE600A1A
:10202000F0EE480A284605F071F903F073FD064604
:1020300072B684ED008A07480068401C05490860B4
:10204000304603F0E8FD0120DFE70000B400002087
:10205000580000205C0000202DE9F043A1B000F002
:10206000A7FA05468024FEF7B7FF00F03DFB10B944
:1020700021B0BDE8F08304F095FE05F009FD284687
:1020800005F02EFB4E480078032817D1FEF7B4FD6B
:10209000032813DB4B4800684B49096888420DD080
:1020A0004948026849A101A803F01CFD01A90420C8
:1020B00005F0CCFE4448006842490860404800787A
:1020C000032805D146480068281AB0F57A7F00D267
:1020D000CEE74348056003F01DFD814672B64148D6
:1020E000D0F8008040480768484603F094FD3F4818
:1020F000007810B13E48007808B944F00204324834
:10210000006808B144F004043A48007808B144F08B
:10211000080444F010040FB144F020043348007860
:1021200008B144F04004119517B1A5EB080000E098
:10213000002012902D48007818B12F480068281A06
:1021400000E00020139014972C48006815902C484C
:10215000006816902B48006817902B48006818906C
:102160002A48C06A19902948006B1A9016480068DE
:102170001B90274800681C90264800681D90264840
:1021800000681E901F94002020905021022005F02E
:1021900087FA002609E011AA52F826101F4A02EB1E
:1021A000860005F035FE701CC6B2102EF3DB01224E
:1021B00050211A480E38FEF757FD00BF58E70000BF
:1021C00058000020DC000020E800002074785F64E4
:1021D000726F705F746F74616C3D256C75000000E8
:1021E000AC0000206800002064000020B100002046
:1021F000B2000020B40000209400002088000020DD
:1022000074000020780000207C000020606700201F
:1022100098000020440000205C000020E0270020FF
:1022200010B5044607480078032807D1FEF7E4FC00
:10223000022803DB2146022005F008FE204602F0BA
:10224000A1F910BD580000202DE9FF4F89B00646C6
:102250008B46994600F0B3F9074600F0A9F982468B
:1022600000200890BA480568BA48D0F800800020DD
:102270000690B9480068401CB7490860B74880F824
:102280000090B748007870B1B6480068AAEB00002B
:10229000B549884207D2B5480068381A069045F01B
:1022A000804548F08048B1480760AE48C0F800A0BB
:1022B0000120AB490870B9F1000F05D0AC48C0F857
:1022C00000A00120AB490870AB480068381AAB4940
:1022D0000968884204D9A8480068381AA7490860E4
:1022E000092E01DC01200FE00B2E01D105200BE0AF
:1022F0000C2E08D1A2480068B0F5D76F01D1032099
:1023000002E0042000E0022003909D48006800EEF7
:10231000900AF8EE600AB0EE600A01210846FFF765
:102320005FFD092E10DC9748D0ED070AB0EE600A79
:1023300001210020FFF754FD012100EE106AB8EEE4
:10234000400A0220FFF74CFD03F0E4FB079072B651
:1023500001218D4890ED000A1220FFF741FD012177
:102360008A4890ED000A1320FFF73AFD0220029000
:10237000079803F050FC76480068054375480068EC
:1023800048EA000845F0405548F04058BBF1000FBE
:1023900003D045F0406548F040680398022803D117
:1023A0007B480068401C00E00020794908607948BB
:1023B0000078401CC0B27749087077490978884294
:1023C00002DA0DB0BDE8F08F002072490870734842
:1023D0000078022800DAF4E76C21012005F060F9AA
:1023E00000242FE06E4800EB8400D0ED000AB0EE30
:1023F000600A04AA05A92046FFF706FC01909DF893
:10240000140010B90120A04085439DF8100040B190
:102410000120A040284020B10120A0400899084395
:1024200008900122A2402A4012B1019A92B200E023
:10243000002211465B4A022303FB042005F0E4FC62
:10244000601CC4B21A2CCDDB54480078022827D176
:102450000020009034225349A1F10A00FDF736FF15
:10246000012050490E3988703B480078C870042418
:1024700008E04C480E38015D00980844C0B2009056
:10248000601CC4B2382CF4DB46490E39009881F840
:1024900038000022392143480E38FEF7E5FB90E76B
:1024A0002D4801683F48343005F0B2FC3E480168D1
:1024B0003C48383005F0ACFC51463A483C3005F019
:1024C000A7FC38484030069905F0A2FC294635485B
:1024D000443005F09DFC41463248483005F098FCF8
:1024E00030484C30089905F093FC2E490E3903987A
:1024F00081F85E00029881F85F00032081F8600097
:10250000042081F86100294801682648543005F00C
:102510007FFC59462348583005F076FCBBF1000F8C
:1025200001D00B9800E0002001461E485A3005F00B
:102530006BFC00226C211B480E38FEF795FB0E4900
:102540000968781A4A46039904F072FE00BF38E71A
:10255000A4000020A800002088000020B200002075
:10256000B000002090000020378941008C0000203E
:1025700094000020B10000209C0000209800002062
:102580003404004020660020280100201C010020A7
:10259000D4000020B3000020590000205800002083
:1025A00010270020E0270020A00000205C00002071
:1025B0001CB5694601A804F0D5FB01981CBD1CB5EB
:1025C000694601A804F0CEFB019800EB4001C1EB85
:1025D000C010BDF8001001EBC0001CBD10B502F02A
:1025E000B9FB10BDF0B50A4600210023002400BF4E
:1025F0003DE0012505FA01F3156805EA03049C4254
:1026000034D105684F000326BE40B54305601579F7
:102610004E00B5400668354305601579012D02D09E
:102620001579022D16D185684F000326BE40B543AB
:10263000856055794E00B5408668354385604568AC
:1026400001268E40B5434560456896798E40B6B206
:1026500035434560C5684F000326BE40B543C5609D
:10266000D5794E00B540C6683543C560491C102970
:10267000BFD3F0BDF0B5002300244D07ED0E02FAE4
:1026800005F3CE1000F1200555F826504E07F70E41
:102690000F26BE40B543CF1000F1200646F8275064
:1026A000CE1000F1200555F8265045EA0304CE105F
:1026B00000F1200545F82640F0BD024600201369D0
:1026C0000B400BB1012000E00020704741837047B0
:1026D000018370474FF6FF71016000210171417164
:1026E0008171C17170470000014800787047000097
:1026F0005400002070B52DED048B304802F03EFCF4
:1027000086B22F480088301A2E4908802C4806804F
:1027100008460088B0F5004F02DA0846008803E05A
:1027200028480088A0F5803005B200EE105AB8EEB7
:10273000C00A254880ED000A002415E02349601CEA
:1027400031F8100021F81400084630F9140000EEAA
:10275000100AB8EEC00A1C48D0ED000A30EE200A7C
:1027600080ED000A601C84B2042CE7DB174820F8D7
:102770001450154890ED000AF1EE040A80EE201A7C
:1027800080ED001A90ED000ADFED110A20EE200A1C
:1027900010EE101A0846FDF766FF41EC190B9FED8D
:1027A0000D0B53EC102BFDF7D0FE41EC180BFDF791
:1027B00085FF0A490860BDEC048B70BD000800402D
:1027C000380100203401002030010020546700202F
:1027D0000000C842000000000030714028010020C5
:1027E00000BFFEE770B504460D461646012332468B
:1027F0002946204604F06AF970BD70B504460D46BE
:102800001646002332462946204604F05FF970BD83
:102810002DE9F0472DED088B05460E4600249FED6F
:10282000C00AB0EE408A082E02DBB6F5C87F04DD90
:102830000020BDEC088BBDE8F08703246AE14FF06F
:102840000108A01E87B220E0781C05EBC000D0ED87
:10285000000A05EBC70090ED001A70EEC10AF0EE19
:10286000E00AB0EE600AF5EE000AB4EEE00AF1EE1E
:1028700010FA06D3F0EE000AB4EEE00AF1EE10FA18
:1028800001DD4FF00008781C87B2E01C8742DBDBDB
:10289000B8F1000F00D13BE105EBC40090ED000A58
:1028A000DFEDA00AB4EEE00AF1EE10FA7EDB601C68
:1028B00005EBC00090ED011AF0EE410A05EBC400F3
:1028C00090ED011AB0EE410A03F055F9F5EE000A59
:1028D00020EE200AF0EE408AF0EE680A9FED920AA0
:1028E00003F025F910EE109A4846FDF7BCFE41ECC6
:1028F0001A0B05EBC40090ED010A601C05EBC0004B
:10290000D0ED010A30EE600A10EE101A0846FDF70D
:10291000AAFE41EC1B0BB0EE4B0AF0EE6B0A03F083
:10292000FCF8B0EE409AF0EE609A53EC1A2B51ECA2
:10293000190BFDF7ABFE39D8601C05EBC00090ED1C
:10294000011AF0EE410A05EBC40090ED011AB0EE59
:10295000410A03F010F9F5EE000A20EE200AF0EE2D
:10296000408AF0EE680A9FED700A03F0E0F810EE7E
:10297000109A4846FDF777FE41EC1A0B601E05EBF6
:10298000C00090ED010AA01C05EBC000D0ED010ACB
:1029900030EE600A10EE101A0846FDF764FE41ECB6
:1029A0001B0BB0EE4B0AF0EE6B0A00E07DE003F08B
:1029B000B4F8B0EE409AF0EE609A53EC1A2B51EC5A
:1029C000190BFDF763FE70D8601C05EBC00090ED9D
:1029D000011AF0EE410A05EBC40090ED011AB0EEC9
:1029E000410A03F0C8F8F5EE000A20EE200AF0EEE6
:1029F000408AF0EE680A9FED4C0A03F098F810EE5A
:102A0000109A4846FDF72FFE41EC1A0BA01E05EB6D
:102A1000C00090ED010AE01C05EBC000D0ED010AFA
:102A200030EE600A10EE101A0846FDF71CFE41EC6D
:102A30001B0BB0EE4B0AF0EE6B0A03F06EF8B0EE33
:102A4000409AF0EE609A53EC1A2B51EC190BFDF7FB
:102A50001DFE5CD805EBC40090ED010AA01C05EB3F
:102A6000C000D0ED010AB4EEE00AF1EE10FA1DDD6F
:102A7000A01C05EBC00090ED000ADFED2C0A20EE53
:102A8000200ADFED2B0A80EE201AF0EE418AB0EE2C
:102A9000680AFDF7D1FBA01C05EBC000D0ED010AD0
:102AA00020EE200AB0EE408A1CE030E0601E05EB0C
:102AB000C00090ED000ADFED1D0A20EE200ADFEDD8
:102AC0001C0A80EE201AF0EE418AB0EE680AFDF78B
:102AD000B3FB601E05EBC000D0ED010A20EE200A1A
:102AE000B0EE408A134890ED000AB4EEC08AF1EED1
:102AF00010FA0CDB9FED100AB4EEC08AF1EE10FA6A
:102B000005D2BCEEC80A10EE100A80B291E600BFF2
:102B1000601C84B2201DB042FFF691AE002088E612
:102B2000000000000000C8420000C843DB0F49401D
:102B300000003443FC00002000007A442DE9F047F7
:102B40002DED088B05460E4600249FEDC10AB0EE20
:102B5000408A082E02DBB6F5C87F04DD0020BDECFC
:102B6000088BBDE8F08703246BE14FF00108A01E3D
:102B700087B220E0781C05EBC000D0ED000A05EB21
:102B8000C70090ED001A70EEC10AF0EEE00AB0EE58
:102B9000600AF5EE000AB4EEE00AF1EE10FA06D390
:102BA000F0EE000AB4EEE00AF1EE10FA01DD4FF0AB
:102BB0000008781C87B2E01C8742DBDBB8F1000F0D
:102BC00000D13CE105EBC40090ED000ADFEDA10A65
:102BD000B4EEE00AF1EE10FA7ED8601C05EBC000FE
:102BE00090ED011AF0EE410A05EBC40090ED011AD8
:102BF000B0EE410A02F0BFFFF5EE000A20EE200A17
:102C0000F0EE408AF0EE680A9FED930A02F08FFF23
:102C100010EE109A4846FDF726FD41EC190B05EB26
:102C2000C40090ED010A601C05EBC000D0ED010A64
:102C300030EE600A10EE101A0846FDF714FD41EC64
:102C40001B0BB0EE4B0AF0EE6B0A02F066FFB0EE23
:102C500040AAF0EE60AA53EC192B51EC1A0BFDF7C9
:102C600015FDB9D8601C05EBC00090ED011AF0EE1F
:102C7000410A05EBC40090ED011AB0EE410A02F0E2
:102C80007AFFF5EE000A20EE200AF0EE408AF0EE20
:102C9000680A9FED710A02F04AFF10EE109A48464A
:102CA000FDF7E1FC41EC190B601E05EBC00090ED57
:102CB000010AA01C05EBC000D0ED010A30EE600A4D
:102CC00010EE101A0846FDF7CEFC41EC1B0BB0EEDF
:102CD0004B0AF0EE6B0A00E07EE002F01EFFB0EE61
:102CE00040AAF0EE60AA53EC192B51EC1A0BFDF739
:102CF000CDFC71D8601C05EBC00090ED011AF0EE20
:102D0000410A05EBC40090ED011AB0EE410A02F051
:102D100032FFF5EE000A20EE200AF0EE408AF0EED7
:102D2000680A9FED4D0A02F002FF10EE109A484625
:102D3000FDF799FC41EC1A0BA01E05EBC00090EDCD
:102D4000010AE01C05EBC000D0ED010A30EE600A7C
:102D500010EE101A0846FDF786FC41EC1B0BB0EE96
:102D60004B0AF0EE6B0A02F0D8FEB0EE409AF0EE9D
:102D7000609A53EC1A2B51EC190BFDF787FC5DD8C8
:102D8000601E05EBC00090ED010AA01C05EBC00021
:102D9000D0ED010AB4EEE00AF1EE10FA1DDDA01C40
:102DA00005EBC00090ED000ADFED2C0A20EE200AB2
:102DB000DFED2B0A80EE201AF0EE418AB0EE680AB1
:102DC000FDF73AFAA01C05EBC000D0ED010A20EE99
:102DD000200AB0EE408A1CE030E0601E05EBC00027
:102DE00090ED000ADFED1D0A20EE200ADFED1C0A3F
:102DF00080EE201AF0EE418AB0EE680AFDF71CFA68
:102E0000601E05EBC000D0ED010A20EE200AB0EEF6
:102E1000408A144890ED000AB4EEC08AF1EE10FA30
:102E20000CDB9FED110AB4EEC08AF1EE10FA05D268
:102E3000BCEEC80A10EE100A80B290E600BF601C1B
:102E400084B2201DB042FFF690AE002087E600005D
:102E5000000000000000A0420000C843DB0F494012
:102E600000003443FC00002000007A442DE9F041CA
:102E70002DED068B06460F460025B7F5487F04DD8D
:102E80000020BDEC068BBDE8F081002469E006EB74
:102E9000C40090ED000AB0EE408A06EBC40090ED4D
:102EA000010AF0EE408AB5EEC08AF1EE10FA14DBAA
:102EB0009FED2E0AB4EEC08AF1EE10FA0DD89FED08
:102EC0002C0AF4EEC08AF1EE10FA06DB9FED290A17
:102ED000F4EEC08AF1EE10FA00D940E09FED260A28
:102EE00028EE000ADFED210A80EE201AB0EE41AA9A
:102EF000B0EE4A0AFDF764F960EE289A9FED1E0ACB
:102F000028EE000ADFED190A80EE201AB0EE41AA81
:102F1000B0EE4A0AFDF790F920EE289A9FED140AC8
:102F2000B4EEC09AF1EE10FA06DB9FED140AB4EE8F
:102F3000C09AF1EE10FA00D311E0B5F5C87F01D1C7
:102F400000209EE70E4800EBC500C0ED009A0C483B
:102F500000EBC50080ED019A681C85B200BF601CC3
:102F600084B2BC4293DB28468BE700000000344368
:102F70000000C84200802245DB0F49400080A24487
:102F80008C5200202DE9F04104460D4616461F469E
:102F90002A4621460A48FFF725FC80464146084854
:102FA000FFF736FC30802A4621460548FFF725FC0E
:102FB000804641460248FFF7C1FD3880BDE8F081F8
:102FC000786000200548007838B905480068401C42
:102FD000034908600120014908707047340000204F
:102FE000400000202DE9F04107460D4616461C48DA
:102FF00004681C48D0F800801B48007830B9B5F54B
:10300000007F03D319480068844202D10020BDE844
:10301000F081BFF35F8F04F00F0000EB4000144914
:1030200001EB800207CA86E8070004F00F00114A8E
:1030300002EB40214FF400723846FDF747F9BFF329
:103040005F8F601C064908600748007830B9054862
:103050000068804502D14FF40070D8E70020D6E721
:103060003000002040000020340000202C00002010
:10307000882500208805002070B51E48007800B91A
:1030800070BD00211C48FEF78DFA1B48FEF742FB7D
:1030900000B1F5E700BFEFF31080044600BF72B641
:1030A000164800681649086016480588001D0588FE
:1030B00015491148FEF75CFA4FF480610E48FEF79F
:1030C000F5FB002011490870FFF779FA10490860F4
:1030D0001048406810490860002006490870012126
:1030E0000548FEF75FFA00BF84F3108800BF00BFF9
:1030F000C6E7000034000020886002402C00002059
:103100003000002000440040400F00203500002027
:1031100038000020001000E03C00002010B54FF007
:10312000FF3200211EE02148405C022819D1002A0C
:1031300016DB01EBC10000EB01301D4B03EB8000FF
:1031400000F58040036802EBC20000EB0230184C2F
:1031500004EB800000F580400068181A002800DDAC
:103160000A46491C0229DEDB002A01DA002010BDD4
:1031700000210EE091420BD00C48405C022807D1A0
:1031800000200A4B58540B48006B401C094B186335
:10319000491C0229EEDB0320044B985402EBC200C9
:1031A00000EB0230024B03EB8000E0E73C01002023
:1031B0009867002060670020024642F22830801A9B
:1031C000014648F6A04091FBF0F300FB13110029E3
:1031D00000DA014488B270472DE9F74F2DED048BDA
:1031E000044689460027BA46B8460020C0490880F0
:1031F000C0490880C04908809FEDC00AC04880EDE2
:10320000000A0020BF490870BF490880BF49087004
:10321000BF490870BF4908708020BF49087044F258
:103220002000005DBD49087044F214000059BC49FB
:103230000968884201D1012000E00020B9490870E6
:10324000FFF7BDF9014644F22000005D18B144F2D9
:103250001000005902E044F204000059081AB24973
:1032600008604FF480400059B049086044F21000F3
:103270000059AF49086044F214000059AD49086094
:10328000AD49204600F092F98C2512E0AA4830F8AA
:1032900015004FF6FF71884207D10AF1010080B294
:1032A0008246404503DDD04601E04FF0000A681C2D
:1032B00085B2DC2DEADD9448A0F8008000254FE0BF
:1032C0009D4830F815004FF6FF71884246D09A4865
:1032D00030F8150004EBC0063088FFF76DFF00EEF4
:1032E000100AB8EE400ADFED950A80EE201AB0EE23
:1032F000418A0698874204DB0020BDEC048BBDE8C0
:10330000FE8F09EBC70080ED008A708800EE100A7E
:10331000B8EE400A3846791C8FB209EBC00080ED48
:10332000010A8C2D06DBDC2D04DC73480088401C70
:1033300071490880DC2D07DBB5F5AA7F04DC6D48F8
:103340000088401C6B490880142D06DB8C2D04DCA2
:1033500067480088401C6649088000BF681C85B229
:10336000B5F5347FACD300254BE004EBC50670887F
:1033700020B1708842F21071884200D93FE0308855
:10338000FFF71AFF834644F250618B4500D936E0BF
:1033900000EE10BAB8EE400ADFED690A60EE208A4E
:1033A000B0EE680AFCF70CFF708800EE900AF8EEA9
:1033B000600A20EE209AB0EE680AFCF73DFF7088A4
:1033C00000EE900AF8EE600A20EE208AB5EEC08A80
:1033D000F1EE10FA12DDB0EEC90ADFED5A0AB4EED2
:1033E000E00AF1EE10FA09D2454890ED000AB4EE79
:1033F000C08AF1EE10FA01D280ED008A00BF681C8D
:1034000085B244F21800005BA842AEDCFFF7D7F8A3
:10341000014644F22000005D18B144F2100000594A
:1034200002E044F204000059081A3F49086044F2DF
:10343000140000593A490968884201D1012000E08E
:103440000020384908702C4800880C2804D3B8F1B3
:10345000140F01D8012000E000202E4908702548F3
:103460000088042801D3012000E0002028490870CA
:103470001F480088042801D3012000E000202349D0
:103480000870002044F22001095D09B940F00100F4
:10349000194909880C2901D240F00200B8F1140F33
:1034A00001D940F004001A49097809B940F0080030
:1034B0001649097809B940F0100044F2140109597D
:1034C000174A1268914201D040F02000164909685D
:1034D0001D4A914201D940F040000F49087008B9D7
:1034E000012100E00021074A1170384605E700007D
:1034F0006C0100206A0100206801002000401C4689
:10350000700100207401002076010020800100205D
:103510007F0100207E010020810100207C0100202D
:10352000400000207D010020780100205C01002087
:103530006001002064010020E0E900200000C84292
:10354000D402373900000243605B03002DE9F041EB
:1035500005460E46174698461048006830440F4905
:103560000860002416E00E48008828B9285DA528C8
:1035700000D00EE00B480760295D094802880088EA
:10358000401C074B188008488154404604F0A0FBBB
:1035900000BF641CB442E6D3BDE8F0816067002040
:1035A0004401002048010020E0E700202DE9F04719
:1035B00006460D464FF0000A002405E04FF6FF7066
:1035C00025F81400601C84B2B4F5347FF6D30024CF
:1035D0002CE006EBC408B8F80200642805D3B8F85C
:1035E000020042F21071884200D91DE0B8F80000D4
:1035F000FFF7E2FD3221B0FBF1F735F817904FF6F7
:10360000FF70814506D125F817400AF101001FFA25
:1036100080FA08E0B8F8020006EBC9014988884240
:1036200001DA25F8174000BF601C84B244F218008C
:10363000805BA042CDDC5046BDE8F08710B5382154
:103640000648FCF76AFE0648002101800020054973
:1036500008800549086002F045FF10BD6067002042
:103660003C010020440100205001002010B5044618
:1036700000200549088002F035FF04484463006AD1
:10368000401C0249086210BD440100206067002010
:103690003EB502241E4800681E490968884207D0CA
:1036A0001C4800681A49086008460068FFF7DEFFFA
:1036B000FFF7E2FC1EE0164902980968884206D02E
:1036C00013490298086008460068FFF7CFFFFEF72D
:1036D00076FF0099401A1049884204D90C480068C6
:1036E000FFF7C4FF06E029460C48DDE90023FFF799
:1036F0002DFF00BF201EA4F1010407D06A464FF43D
:1037000000710648FFF76EFC051ED4D13EBD0000D7
:103710005801002040000020605B030080EF002083
:103720000146002010E000EBC00202EB0032084B23
:1037300003EB82028A4206D1064A125C032A02D1B6
:103740000022044B1A54401C0228ECDB7047000096
:10375000986700203C0100200246EAB144F22100B3
:10376000805CC8B944F22200805CA8B944F2180019
:10377000805AB0F5006F0FD844F214008058074B00
:103780001B68984208D144F204008058081A044B80
:10379000984201D8012070470020FCE7400000203B
:1037A000605B030000BFFEE770B504460D46164699
:1037B000FDF79EFD691E601E324601F02BFA70BDBA
:1037C00010B5044621464FF0804001F0DEFC10BDEC
:1037D0007047000070B5002100230F22C4781CB38D
:1037E000174C246804F4E064C4F5E064C4F30721D2
:1037F000C1F10404E3B20A4144789C40E1B2847808
:10380000144021430C07210E0E4C057861550478B5
:1038100004F01F050124AC4005786D11AD0005F1E1
:10382000E025C5F8004109E0047804F01F050124F3
:10383000AC40054D0678761145F8264070BD000075
:103840000CED00E000E400E080E100E0024901430B
:10385000024A1160704700000000FA050CED00E01C
:10386000B0EE401ADFED311AB0EE610A70EEC11A07
:10387000C0ED071AD0ED091A90ED072A71EE821AF1
:10388000C0ED091AD0ED091A9FED292AF4EEC21AEB
:10389000F1EE10FA03DBDFED261AC0ED091AD0EDC8
:1038A000091A9FED242AF4EEC21AF1EE10FA03D899
:1038B000DFED201AC0ED091AD0ED001A90ED072AAD
:1038C00061EE821A90ED032AD0ED092A42EE221A07
:1038D00090ED072AD0ED082A32EE622AD0ED042AB4
:1038E00042EE821AB0EE610AD0ED071AC0ED081A56
:1038F000D0ED091A1049C1ED001A104981ED000AF6
:10390000DFED0F1AB4EEE10AF1EE10FA03DBDFEDA2
:103910000C1AB0EE610AB5EEC00AF1EE10FA03D847
:10392000DFED021AB0EE610A7047000000000000EF
:1039300000004843000048C3BC000020C000002035
:103940000000C8422DE9F04F2DED0A8BA1B00746CB
:103950008A469346F0EE408AB0EE60AAB0EE41CAC5
:103960001C469FEDFE0AF0EE40BA98212046FCF777
:10397000D4FC032084F892009FEDF80AF4EEC08A8C
:10398000F1EE10FA1DDB9FEDF60AF4EEC08AF1EEBF
:1039900010FA16D89FEDF30AB4EEC0AAF1EE10FAB1
:1039A0000FDB9FEDF10AB4EEC0AAF1EE10FA08D8D1
:1039B000B0EECC0ADFEDED0AB4EEE00AF1EE10FA5B
:1039C00004D921B0BDEC0A8BBDE8F08F97ED010A58
:1039D000B4EE680AF1EE10FA05D0C7ED018AC7ED22
:1039E000008A0020387297ED000A84ED220ABAF1AD
:1039F000000F02D0BBF5C87F00DDE2E74FF0000802
:103A00003BE0D7ED000AB0EE600AB8F1000F01D03C
:103A1000012001E04FF0FF30024609ABF0EE4C0A06
:103A20005946504602F07AFE0890DFEDD10A9FED2C
:103A3000D10A09A901A8089A03F0A4FCC8EBC8019F
:103A400004EB81001C2201A9FCF740FCDFEDCA0A4F
:103A50009FEDCA0A09A901A8089A03F093FCC8EBD4
:103A6000C80204F1380101EB82001C2201A9FCF715
:103A70002DFC08F1010000F0FF08B8F1020FC0DBD7
:103A8000254604F138062C46A87E18B93620405D3C
:103A900000B996E7A87E08B1012000E00220814627
:103AA000A87EE0B33620405DC8B395ED000AD5EDA1
:103AB000070A30EE200AF6EE000A20EE20BAB0EE39
:103AC0006B0A05F11C0002F09DFDF0EE40CAB0EE5D
:103AD0006B0A284602F096FD7CEEC0CAF7EE000A9B
:103AE0004BEE0B0AB0EE600A02F069F88CEE808AA9
:103AF00084ED238A9FED990AB4EEC08AF1EE10FAA4
:103B00001ADB9FED970AB4EEC08AF1EE10FA13D8D3
:103B100095ED000AD5ED070A30EE600A00E02CE0D2
:103B2000B0EEC00ADFED960AB4EEE00AF1EE10FA4C
:103B300002D84FF0000920E095ED040AF3EE040AE4
:103B400030EE200AD5ED0B0AB4EEE00AF1EE10FAE1
:103B500002D24FF0010910E095ED0B0AF3EE040AD2
:103B600030EE200AD5ED040AB4EEE00AF1EE10FAC8
:103B700002D24FF0020900E023E797ED000A84ED3E
:103B8000220AB9F1020F01D1012000E00020804695
:103B9000C8EBC80005EB800090ED029AC8EBC800A6
:103BA00005EB8000D0ED039AB9F1000F15D195ED2A
:103BB000090AB4EEC90AF1EE10FA03DD95ED090A1F
:103BC000B0EE409A95ED0A0AB4EEE90AF1EE10FA69
:103BD00003D295ED0A0AF0EE409AF4EEC9BAF1EE7E
:103BE00010FA04D3F4EEE9BAF1EE10FA00DDE8E6DB
:103BF000B9F1000F1CD194ED230AB0EE408A387A57
:103C000050B197ED000AF6EE080A20EE200AF5EE14
:103C1000000A00EE880A01E0B0EE480A87ED000ACB
:103C20000120387284F8930097ED000A84ED220A8F
:103C300084F89290012084F89000D7ED000AB0EE4D
:103C4000600AF0EE6B0A4A4605F11C01284603F0B3
:103C50002AF884ED1C0A4A4605F11C01284603F0A7
:103C600041FB84ED1E0AB9F1000F08D1B07E20B1EE
:103C70003620805D08B1012006E0002004E0C8EB9A
:103C8000C80006EB8000807E84F8910094F89100D3
:103C9000002862D0C8EBC80006EB800090ED020A55
:103CA000B0EE409AC8EBC80006EB800090ED030A26
:103CB000F0EE409AB9F1000F70D196ED090AB4EE1A
:103CC000C90AF1EE10FA03DD96ED090AB0EE409A4A
:103CD00096ED0A0AB4EEE90AF1EE10FA03D296ED77
:103CE0000A0AF0EE409AB0EE4A0A06F11C0002F011
:103CF00089FCF0EE40CAB0EE4A0A304602F082FC7F
:103D00003CEEC00AB0EE408A4A4606F11C0130463D
:103D100003F0E8FAB0EE40BAF7EE000A4BEE0B0AF9
:103D2000B0EE600A01F04BFFC8EE000AB0EE608A08
:103D30009FED0A0AB4EEC08AF1EE10FA2BD39FED84
:103D4000080AB4EEC08AF1EE10FA24DC96ED000AFF
:103D5000D6ED070A30EE600A14E05DE00000C843CB
:103D6000000061440000164400808944000096432E
:103D700000803B440000C8420080A2440080094407
:103D80003333B33EB0EEC00AF6EE000AB4EEE00AFA
:103D9000F1EE10FA02DD002084F89100B0EE691A0D
:103DA000F0EE490AB0EE4A0A02F068FFF0EE40AACF
:103DB000B0EE6A0A30EE4A0AB0EEC00A5FED130AAE
:103DC000B4EEE00AF1EE10FA04DCF4EEC99AF1EE7A
:103DD00010FA02D2002084F8910094F89100D8B132
:103DE000D7ED000AB0EE600AF0EE6A0A4A4606F124
:103DF0001C01304602F057FF84ED1D0A4A4606F1C9
:103E00001C01304603F06EFA84ED1F0AC4ED20AAAF
:103E100094ED1D0A84ED210A94F89100A8BBC8EB2B
:103E2000C80005EB800090ED030AB0EE401AC8EB25
:103E3000C80005EB800090ED020AF0EE400AB0EEFB
:103E40004A0A02F01BFF84ED200AB9F1000F0CD1E1
:103E500094ED200AD5ED0A0AB4EEE00AF1EE10FA6C
:103E600003DD95ED0A0A84ED200A94ED201AF0EEA8
:103E7000410A97ED001AB0EE410A4A4605F11C01CD
:103E8000284602F010FF84ED210A94F89100A8B3AF
:103E900094ED1E0AB0EEC00ADFED1B0AB4EEE00A94
:103EA000F1EE10FA2BD294ED1F0AB0EEC00ADFED4E
:103EB000160AB4EEE00AF1EE10FA20D294ED1E0AD2
:103EC000D4ED1F0A30EE600AB0EEC00ADFED0F0A33
:103ED000B4EEE00AF1EE10FA11D294ED1D0AD4ED21
:103EE0001C0A30EE600AB0EEC00ADFED090AB4EE3B
:103EF000E00AF1EE10FA02D2012001E0FFE7002013
:103F000084F8940000BF5CE58FC2F53DCDCCCC3D7C
:103F1000000070422DE9F04F2DED048B81B0044676
:103F20000E4617469B46DDF83890109D0020009005
:103F300024212846FCF7F1F90F982883688396F826
:103F40009200E877E07D85F82000207D85F822004A
:103F5000A068A9EB0000FD49884201D900206076E5
:103F6000C4F80890BBF1000F02D096F8900070B929
:103F7000BBF1000F01D0012000E00620A87700204F
:103F8000A075607601B0BDEC048BBDE8F08F96EDB6
:103F90001E0AB0EEC00ADFEDEE0AB4EEE00AF1EE62
:103FA00010FA1CDC96F89100D8B196ED1F0AB0EE1D
:103FB000C00ADFEDE70AB4EEE00AF1EE10FA0EDC1B
:103FC00096ED1D0AD6ED1C0A30EE600AB0EEC00A6E
:103FD000DFEDE00AB4EEE00AF1EE10FA01DD0120B7
:103FE00000E00020824697ED060AD6ED210A30EE69
:103FF000600A85ED000AD5ED000AB0EE600A03F014
:1040000013FF8046207D30B396F8940018B3607E8D
:1040100008B1607D18B1C4F80490002060760020DB
:104020006075607EFF2802DA607E401C6076607EEC
:1040300002280BDB6068A9EB00004EF66021884285
:1040400004D3002020750420A87792E0012000907E
:104050000220A8778DE0207D002867D094F9140015
:10406000404563D095ED000AB0EEC00AF3EE0E0AAB
:10407000B4EEE00AF1EE10FA58DD96F89100E8B1DE
:10408000BAF1000F1AD0D6ED1F0AF1EE600AB0EEB9
:10409000600A03F0C9FE404510D1D6ED1E0AF1EECC
:1040A000600AB0EE600A03F0BFFE404506D184F816
:1040B0001480002060760520A8775AE0607E18B151
:1040C00094F91500404503D000206076C4F80490B0
:1040D00084F81580BAF1000F10D0D6ED1E0AF1EE6B
:1040E000600AB0EE600A03F09FFE404506D1607E94
:1040F000FF2805DA607E401C607601E000206076D3
:10410000607E02280DDB6068A9EB00004EF660219E
:10411000884206D384F81480002060760520A877B2
:1041200027E0012000900320A87722E0002060769D
:10413000BAF1000F0CD095ED000AB0EEC00AF3EE14
:104140000E0AB4EEE00AF1EE10FA01DD84F81480F4
:10415000207D70B195ED000AB0EEC00AF3EE0E0AB4
:10416000B4EEE00AF1EE10FA03D80120009002202C
:10417000A877BAF1000F01D1207D10B19FED760A2A
:1041800001E097ED070AF0EE408AD5ED000AB0EEA7
:10419000600AB0EE681AF1EE680A02F06FFD85ED74
:1041A000000A96F8920010B197ED040A09E0BAF1FE
:1041B000000F01D1207D10B197ED020A01E097EDCB
:1041C000000A85ED030A96F8920010B197ED050AF2
:1041D00009E0BAF1000F01D1207D10B197ED030A7B
:1041E00001E097ED010A85ED040A2068A9EB0000C3
:1041F00000EE100AB8EE408AA07D48B396F892000F
:10420000E17D884224D196F89100217E88421FD119
:1042100096ED200AD4ED040A30EE600AB0EEC00A32
:10422000DFED4E0AB4EEE00AF1EE10FA10DC9FED7D
:104230004C0AB4EEC08AF1EE10FA09D39FED490A98
:10424000B4EEC08AF1EE10FA02DCA87F052801D195
:10425000012000E0002085F8210095ED030AF2EE30
:10426000040A20EE200AD5ED000A20EE200A85ED92
:10427000010A95F8210010B19FED3B0A13E095ED7E
:10428000000AD4ED030A30EE600AD5ED040AB2EE5E
:10429000041A60EE810A20EE200ADFED340A60EE97
:1042A000200A80EE880AB0EE409A9FED311ADFEDC9
:1042B000310AB0EE490A02F0E1FC85ED020A95ED03
:1042C000010AD5ED020A30EE200AD5ED010A20EEF2
:1042D000200AB5EEC00AF1EE10FA05D295ED010AFA
:1042E000B1EE400A85ED020A788C00EE100AB8EEB5
:1042F000400AD5ED010A30EE200AD5ED020A30EE73
:10430000200A85ED050AB88C01EE900AF8EE611AD4
:10431000B0EE611A388C01EE900AF8EE611AF0EEF8
:10432000610AD5ED051AB0EE610A02F0A7FCBCEEF9
:10433000C00A10EE100A288301202877207D85F816
:1043400022000098C0B10020A0751BE690D00300A9
:10435000EC51383E0000B4420000FA430000C8426D
:1043600000409C460024744800000000009CE04788
:1043700000001643000016C301206877288B68836D
:104380000120A07595ED000A84ED030A96F89200CD
:10439000E075C4F8009096ED200A84ED040A96F8C2
:1043A0009100207600BFEDE57047000029B1064A74
:1043B00012680243044B1A6004E0034A1268824305
:1043C000014B1A60704700003038024029B1064A9C
:1043D00012680243044B1A6004E0034A12688243E5
:1043E000014B1A60704700004038024029B1064A6C
:1043F00012680243044B1A6004E0034A12688243C5
:10440000014B1A60704700002038024029B1064A6B
:1044100012680243044B1A6004E0034A12688243A4
:10442000014B1A60704700004438024029B1064A27
:1044300012680243044B1A6004E0034A1268824384
:10444000014B1A607047000024380240F0B500218B
:1044500000220024022500260223324F3F6807F085
:104460000C0121B1042905D0082937D105E02E4FD0
:10447000076036E02D4F076033E02A4F3F1F3F684B
:10448000C7F38056274F3F1F3F6807F03F036EB1C9
:10449000264FB7FBF3F7DFF88CC0ACF1040CDCF867
:1044A00000C0CCF3881C07FB0CF40CE01E4FB7FBDC
:1044B000F3F7DFF870C0ACF1040CDCF800C0CCF30B
:1044C000881C07FB0CF4174F3F1F3F68C7F30147D9
:1044D0007F1C7D00B4FBF5F7076002E0124F076018
:1044E00000BF00BF0F4F3F6807F0F0010909104FF0
:1044F0007A5C0768D74047600A4F3F6807F4E0518D
:10450000890A0B4F7A5C4768D7408760054F3F6840
:1045100007F46041490B064F7A5C4768D740C76093
:10452000F0BD0000083802400024F40000127A00B8
:104530001400002010B50648007828B1FEF73FF8B7
:1045400004490968401A10BD4FF0FF30FBE7000036
:10455000240100202001002000BFEFF3108211464B
:1045600072B6054A10600122044B1A700A4682F3A3
:10457000108800BF704700002001002024010020A7
:104580007047000010B50446FCF77EFE0348007833
:10459000012802D12046FCF7A5FD10BD54000020E3
:1045A00010B504462146024800F0EDFD10BD0000A4
:1045B0000004004070B504460D461646691E601E94
:1045C000324600F077FB70BD0CB5002001900090E2
:1045D0003448006840F480303249086000BF3148F8
:1045E000006800F4003000900198401C0190009891
:1045F00018B90198B0F5A04FF1D12A48006800F42D
:10460000003010B10120009001E0002000900098DF
:10461000012846D123484030006840F080502149AD
:10462000403108602048006840F440401E4908605E
:104630001C48083000681B490831086008460068BB
:1046400040F4004008600846006840F4A05008604C
:104650001648091F0860081F006840F08070091F95
:10466000086000BF0F48006800F000700028F9D013
:1046700040F205700E4908600A480830006820F0D2
:1046800003000849083108600846006840F002004D
:10469000086000BF03480830006800F00C000828DC
:1046A000F8D10CBD003802400070004008544007AB
:1046B000003C024010B52DED048B0446B0EE409A4C
:1046C000B0EE608AF0EE418A28212046FBF725FEF5
:1046D00084ED009A84ED038AC4ED048ABDEC048B5A
:1046E00010BD000010B51C211248FBF716FE124841
:1046F000002101604160816028211048FBF70DFE18
:104700009FED0F0A0D4880ED000A9FED0D0A80ED28
:10471000040A9FED0C0A80ED010A9FED0B0A80ED63
:10472000050A9FED0A0A80ED020A9FED090A80ED55
:10473000060A10BD386700202C6700202066002084
:10474000295C0F3D0AD7233D5839B43CC1CA213DED
:104750000AD7A33C2DE9F04F91B081468A4617460F
:10476000AC4A07CA04AB07C3AB4CAC4DFDF727FFFF
:10477000834659464846FEF7EFFF00B90027234617
:10478000A74890ED001AA748D0ED000AA64890ED82
:10479000000A3A4651469F48FFF7D4F8FDF70FFF4D
:1047A000064631464846FEF7D7FF30B19F480078AD
:1047B00000F0800008B9012000E000208046B8F138
:1047C000000F10D1934804A90EC90EC000208834F0
:1047D000E072607220720320A0728E4890ED000A91
:1047E00084ED000A883C9248006892490968884232
:1047F00006D00020904988758E4800688C49086072
:104800008E4890ED000A8DED070A90ED040A8DEDBB
:10481000080A90ED010A8DED090A90ED050A8DED6B
:104820000A0A90ED020A8DED0B0A90ED060A8DED55
:104830000C0A7B4890ED000A8DED0D0A804890ED42
:10484000000A8DED0E0A40F29240ADF83C0040F2B5
:10485000A550ADF83E004FF4D760ADF84000794860
:10486000006880B2434607AA2146CDE90060029560
:104870007148FFF74FFB687F73490870687F10B17C
:1048800094F8920000E0042070490870287F20B15D
:1048900095ED000A694880ED070A687F10B1688BC2
:1048A000FFF77EFE287F08B1012000E0002095F888
:1048B000211009B1042100E0002108436449086186
:1048C00095F82000886194F89200C861A87F08627A
:1048D000687F486294F891008862208B0863A08EFC
:1048E00048635020005B8863B4F86C00C86394F898
:1048F000930008B1022005E04648007A08B1012083
:1049000000E000205249086495F92200401C4864E8
:1049100008468764288BC864688B0865474890ED13
:10492000080A4C4880ED000A95ED000A80ED010A66
:1049300095ED010A80ED020A95ED020A80ED030A69
:1049400095ED030A80ED040A95ED040A80ED050A51
:1049500095ED050A80ED060A9FED3F0A80ED070AF6
:1049600094ED1C0A80ED080A94ED1D0A80ED090AF9
:1049700094ED200A80ED0A0A94ED1E0A80ED0B0AE0
:1049800094ED1F0A80ED0C0A94ED220A80ED0D0AC9
:1049900094ED040A80ED0E0A94ED0B0A80ED0F0AE7
:1049A00094ED030AD4ED020A30EE600A80ED100A9D
:1049B00094ED0A0AD4ED090A30EE600A80ED110A7E
:1049C00094ED050A80ED120A94ED0C0A80ED130AAD
:1049D00094ED120A80ED140A94ED190A80ED150A7F
:1049E00094ED110AD4ED100A30EE600A80ED160A3B
:1049F00094ED180AD4ED170A30EE600A80ED170A1C
:104A0000687F20B195ED000A0C4880ED080A11B0CE
:104A1000BDE8F08F2C67002070660020086700203A
:104A2000040100200C010020100100208101002061
:104A3000140100205C000020386700202066002060
:104A40000801002034040040000100208201002001
:104A5000D42800203429002000A0B444042808D120
:104A60004FF0E021096941F004014FF0E0221161AB
:104A700007E04FF0E021096921F004014FF0E02246
:104A8000116170477047000010B51548006840F488
:104A90007000134908601348006840F00100114994
:104AA000086000200F49083108600E4800680E4970
:104AB00008400C4908600D48091D0860081F00687F
:104AC00020F48020091F0860002006490C3108608E
:104AD000FFF77AFD4FF0006001498039086010BD92
:104AE00088ED00E000380240FFFFF6FE10300024A1
:104AF000F0B50C46154600210022068C4FF6FE77D5
:104B00003E400684018B028C4FF60C7631407E1CB1
:104B100006EA03162E4331434FF6F576324044F051
:104B20000106324301830284F0BDF0B50C46154600
:104B3000002100220026078C4FF6EF7C07EA0C07C5
:104B40000784018B028C4FF6FF7707EA041640F6C4
:104B5000FF4739404FF6FF7707EA033739434FF6EF
:104B6000FF7707EA052739434FF65F773A4046F06B
:104B700010073A4301830284F0BDF0B50C46154698
:104B8000002100220026078C4FF6FF6C07EA0C0775
:104B90000784818B028C4FF6FF7707EA04264FF6D5
:104BA0000C7739404FF6FF7707EA03172F43394355
:104BB0004FF2FF573A4046F480773A4381830284AC
:104BC000F0BDF0B50C461546002100220026078CEA
:104BD0004EF6FF7C07EA0C070784818B028C4FF6A8
:104BE000FF7707EA043640F6FF4739404FF6FF7774
:104BF00007EA052739434FF6FF7707EA03373943BA
:104C000045F6FF773A4046F480573A438183028461
:104C1000F0BD000070B58AB006460C46154601216D
:104C20000846FFF7D3FB01210846FFF7BFFB01222F
:104C300011461F48FDF71EFD022008908DF8240044
:104C400003208DF8250000208DF826008DF8270020
:104C500008A91748FDF7C6FCB0B2ADF81400002053
:104C6000ADF816000694ADF81C0005A94FF0804081
:104C700000F0BCFA6020ADF800000120ADF80200A1
:104C80000020ADF80C00029569464FF0804000F01E
:104C90001BFA0821C80600F069FA0121880700F014
:104CA00031F90121880700F03CF90AB070BD00001D
:104CB0000000024070B58AB006460C461546012138
:104CC0000220FFF783FB01210846FFF76FFB02225A
:104CD00006211E48FDF7CEFC4020089002208DF8EA
:104CE000240003208DF8250000208DF826008DF883
:104CF000270008A91548FDF775FCB0B2ADF81400FF
:104D00000020ADF816000694ADF81C00029505A928
:104D10000F4800F06BFA6020ADF800000120ADF8FC
:104D200002000020ADF80C006946094800F084F943
:104D30000821074800F0BEF90121054800F0E2F81B
:104D40000121034800F0EDF80AB070BD00000240F8
:104D50000004004000B589B001210420FFF736FBB4
:104D600001210820FFF722FB02208DF80800012016
:104D70008DF80A0003208DF8090000208DF80B0043
:104D80004FF44050019001A91E48FDF72BFC022270
:104D90000C211C48FDF76EFC02220D211948FDF77D
:104DA00069FC0020ADF81800ADF81A004FF6FF704E
:104DB00007900020ADF8200006A9134800F016FA6D
:104DC00003A800F026F90F20ADF8140003A90E483F
:104DD00000F0E8F80420ADF80C0003A90A4800F040
:104DE000E1F800231A460321074800F0A6F8002145
:104DF000054800F0CCF90121034800F092F809B011
:104E000000BD0000000C02400008004010B5012168
:104E1000154800F0B6F8012824D10121124800F00D
:104E20007DF8FDF767FC114890ED000A104880ED11
:104E3000000A10480E49D1ED000A0F4991ED000A11
:104E4000FEF70EFDBCEEC00A10EE100A0B490880FA
:104E500008460088FEF7B4FC012211460848008885
:104E6000FDF74CF810BD0000000C00402C010020A4
:104E70001C01002048660020280100203601002087
:104E8000340100207FB505460C4601210820FFF7BC
:104E90009DFA0295ADF804400020ADF80600ADF88B
:104EA0000C0001A90D4800F0A1F9012211460B48A0
:104EB00000F0B8F80121094800F033F832208DF8ED
:104EC000000001208DF8010003208DF80200012070
:104ED0008DF803006846FEF77DFC7FBD000C0040A6
:104EE0000648008A00F0010038B10020034908821A
:104EF00003480068401C02490860704700100040E9
:104F00008000002021B1028842F08002028004E08B
:104F100002884FF67F731A4002807047CA430282AC
:104F2000704721B1028842F00102028004E0028849
:104F30004FF6FE731A4002807047F0B50C461546D6
:104F40001E460021002200230189028B038C4FF6AC
:104F5000F877394021434FF6FC473A4040F20117B9
:104F60003A434FF6DD773B404FF6FF7707EA0617E7
:104F70002F433B43018102830384F0BD0146486A0D
:104F8000704730B50246002000230024158A05EA48
:104F90000103958905EA010413B10CB1012000E079
:104FA000002030BD70B505460C46208850B92389D5
:104FB000A28861882846FFF79BFDE188284600F01B
:104FC000E8F825E0208804280AD12389A28861888E
:104FD0002846FFF7AAFDE188284600F0E3F817E02D
:104FE000208808280AD12389A28861882846FFF7EB
:104FF000C4FDE188284600F0E2F809E02389A28890
:1050000061882846FFF7DDFDE188284600F0E0F8DA
:1050100070BD002101804180012181800021C1807B
:10502000018170471AB183890B43838102E0838930
:105030008B4383817047000070B500240022002359
:10504000058C4FF6FE7635400584028C8388048BF0
:105050004FF68F752C40B51E2C400D882C43751EC5
:105060002A408D892A434D882A43104DA84202D0F8
:105070000F4DA84213D14FF6F7752A40CD892A4328
:105080004FF6FB752A408D882A434FF6FF652B406B
:105090004FF6FF552B400D8A2B434D8A2B438380BF
:1050A00004838D684563028470BD000000000140E8
:1050B000000401400A460021018B4FF6F7731940A6
:1050C000114301837047000070B5002400220023C3
:1050D000058C4FF6EF7635400584028C8388048B6F
:1050E00048F6FF752C404FF6FF452C400D884FF6D3
:1050F000FF7606EA05252C434FF6DF752A408D8999
:1051000006EA05152A434D8806EA05152A43154D7A
:10511000A84202D0144DA8421DD14FF67F752A40F7
:10512000CD894FF6FF7606EA05152A434FF6BF757F
:105130002A408D8806EA05152A434FF6FF352B4095
:105140004FF2FF752B400D8A06EA85052B434D8AE9
:1051500006EA85052B43838004838D68856302847A
:1051600070BD000000000140000401400A4600211B
:10517000018B4FF2FF7319404FF6FF7303EA0223CE
:1051800019430183704741637047816370474162EF
:105190007047028B4FF6F3731A400283028B0A4367
:1051A00002837047028B4FF2FF331A400283028B57
:1051B0004FF6FF7303EA01231A4302837047828B81
:1051C0004FF6F3731A408283828B0A4382837047BF
:1051D000828B4FF2FF331A408283828B4FF6FF732C
:1051E00003EA01231A4382837047000000220288E9
:1051F000184B98420ED0184B98420BD0B0F1804F0C
:1052000008D0164B984205D0154B984202D0154B4A
:10521000984204D14FF68F731A404B881A43124BB1
:10522000984207D0114B984204D04FF6FF431A40E2
:105230000B891A4302804B68C3620B880385054BB8
:10524000984202D0044B984201D18B7A0386012305
:1052500083827047000001400004014000040040C8
:1052600000080040000C0040001000400014004006
:105270002DE9F0472DED028BEEB08246FBF7BCFC2A
:10528000022804DA6EB0BDEC028BBDE8F087504610
:10529000FCF76EFB18B10F20BD490870F2E7BDA105
:1052A0005046FBF756F800287ED1BD48407F48B1F4
:1052B000BC4890F8940028B1BA4890F8920008B918
:1052C000012000E000208146B9F1000F03D0B5486D
:1052D00090ED1C0A01E09FEDB40A10EE101A08468A
:1052E000FBF7C1F9CDE92001AE4890ED220A10EE9E
:1052F000101A0846FBF7B7F9CDE91E01A94890ED51
:105300001D0A10EE101A0846FBF7ADF9CDE91C0195
:10531000A44890ED1C0A10EE101A0846FBF7A3F9FA
:10532000CDE91A019F4890ED200A10EE101A0846A8
:10533000FBF799F9CDE91801994890ED000A10EEB4
:10534000101A0846FBF78FF9CDE91601DDE92001B7
:10535000CDF84890CDE91401DDE91E01CDE9100139
:10536000DDE91C01CDE90E01DDE91A01CDE90C01F1
:10537000DDE91801CDE90A01DDE91601CDE90801F1
:105380008A480368864890F922008549897F844AC3
:10539000527FCDE90503CDE903218148007F814992
:1053A00091F892107F4A00E010E092F89020CDE949
:1053B000002102907E4803787E487F49026822A837
:1053C00000F090FB22A8FFF7DDF85BE77BA15046D9
:1053D000FAF7BFFF28BBFFF7ADF88146794890ED9B
:1053E000000ADFED790A20EE200ABDEEC00A8DED3D
:1053F000000A7648CDF8049090ED000ADFED720ABD
:1054000020EE200ABDEEC00A10EE103A4FF08040A8
:10541000826B6F492EA800F065FB2EA8FFF7B2F84B
:1054200030E76CA15046FAF794FFB0B96B480268B8
:105430006B4803886B48C06A6A49896ACDE90232C1
:10544000CDE900106748036A674942682EA800F05A
:1054500049FB2EA8FFF796F814E764A15046FAF727
:1054600078FF10B900F05AF90CE720215046FAF7FE
:105470005FFF06463A215046FAF75AFF804626B1AA
:10548000B8F1000F02D0B04500D246461EB958A070
:10549000FCF7C6FEF6E600203070751C00E06D1CBF
:1054A00028782028FBD028783A28F8D0287818B90E
:1054B0004FA0FCF7B5FEE5E60A225DA92846FAF7FB
:1054C00065FF81465D98A84208D05D98007828B9AC
:1054D00019F5004F02DBB9F5004F03DB47A0FCF7DD
:1054E0009FFECFE64F4600244AE0474800EB0410F9
:1054F00001685046FAF72DFF00B13FE0424800EB4B
:105500000410B0F90800B84206DC3F4800EB041074
:10551000B0F90A00B84203DA3CA0FCF781FEB1E61C
:10552000394800EB0410807B3B4951F8200000EE25
:10553000100AF8EEC00A00EE107AB8EEC00A80EE4B
:10554000201AB0EE418A304A02EB041251682E4A0A
:1055500002EB04129089B0EE480AFCF747FD18B937
:105560002EA0FCF75DFE8DE63B4652462EA15EA8BE
:1055700000F0B8FA5EA8FFF705F883E6601CC4B235
:105580000F2CB2D32BA0FCF74BFE00BF7AE6000035
:10559000ED00002070657263657074696F6E0000C5
:1055A00008670020706600200000000078010020DD
:1055B000740100205C010020108C00086D6F746F76
:1055C00072000000280100200000C8421C010020D9
:1055D000048D0008726164617200000018010020EF
:1055E000F400002060670020AC8C00086765740040
:1055F00045525220666D740D0A000000455252203B
:1056000076616C75650D0A00D48000084552522001
:1056100072616E67650D0A00D48100084552522000
:10562000627573790D0A00004F4B2025733D256488
:105630000D0A0000455252206E616D650D0A000092
:1056400003460F2B01D300207047074800EB0310DF
:1056500080890880044800EB0310406890ED000A40
:1056600082ED000A0120EFE7D480000810B52DED8F
:10567000028B8AB0244800780F2803D2FBF7BCFACB
:10568000032803DA0AB0BDEC028B10BD1F481E4987
:10569000097800EB01104068D0ED000A1B481A4958
:1056A000097800EB0110807B194951F8200000EEC9
:1056B000100AB8EEC00A20EE808AB5EEC08AF1EE7C
:1056C00010FA04DBB6EE000A38EE000A03E0B6EE8C
:1056D000000A38EE400ABDEEC00A10EE104A0B4830
:1056E0000949097800EB011023460AA102686846BF
:1056F00000F0F8F96846FEF745FF03480078401CC3
:105700000149087000BFBDE7ED000020D48000080B
:10571000C481000825733D25640D0A00002001495D
:1057200008707047ED00002008B509480088009017
:10573000009800F00E0050B10548001D0088009050
:1057400004480068401C03490860FDF73BFC08BDA5
:10575000004400407400002010B52448048804F080
:105760003E0060B32149091D0988C8B204F00E014A
:1057700041B11F490968491C1D4A116002211D4A97
:1057800011701BE004F02001C1B11B490978C72941
:105790000CDA19490A780978491C174B197017490E
:1057A00088540021154A1B78D15407E01049096834
:1057B000491C0F4A116002210E4A117000BF04F00B
:1057C000100048B10C48007830B10A48007802282F
:1057D00002D001200749087040F22771034800F009
:1057E000A5F8012801D1FBF7ADFB10BD0014014065
:1057F0007C00002055000020560000204826002094
:1058000001F40072B2F5007F00D100BFCA430280EC
:10581000704721B1828942F40052828104E082897A
:105820004DF6FF731A40828170471AB1838A0B4389
:10583000838202E0838A8B438382704710B50446DB
:105840003248844208D101211020FEF7EFFD0021EB
:105850001020FEF7EBFD57E02D48844209D10121CD
:105860004804FEF7C3FD00214FF40030FEF7BEFDF3
:105870004AE02848844209D101218804FEF7B6FD98
:1058800000214FF48020FEF7B1FD3DE02248844224
:1058900009D10121C804FEF7A9FD00214FF4002021
:1058A000FEF7A4FD30E01D48844209D1012108051E
:1058B000FEF79CFD00214FF48010FEF797FD23E0DA
:1058C0001748844208D101212020FEF7AFFD0021B6
:1058D0002020FEF7ABFD17E01248844209D10121D8
:1058E0008807FEF783FD00214FF08040FEF77EFD24
:1058F0000AE00D48844207D101214005FEF776FDFC
:1059000000216005FEF772FD10BD0000001001408F
:105910000044004000480040004C0040005000405F
:105920000014014000780040007C004070B5024641
:10593000002400230025002040F66A16B14200D161
:1059400000BFC1F3421501F01F03012606FA03F35D
:10595000012D02D19689334006E0022D02D1168A2C
:10596000334001E0968A33400C12012606FA04F413
:105970001688344013B10CB1012000E0002070BD46
:10598000F0B50346002400260025002040F66A17E3
:10599000B94200D100BF1846C1F3421401F01F06FE
:1059A000012707FA06F5012C01D10C3004E0022C86
:1059B00001D1103000E014301AB107682F4307609E
:1059C00002E00768AF430760F0BD00002DE9FF4724
:1059D00005460E460024A14600BFA046B08900B18E
:1059E00000BF2C8A24F44054F08804432C82AC89F4
:1059F00041F20C608443B0883189084371890843BF
:105A00000443AC81AC8A24F44074B0890443AC8272
:105A10006846FEF71BFD2048854202D01F4885429C
:105A200002D1DDF80C9001E0DDF80890A88900F4BF
:105A3000004040B109EBC90000EB09103168490092
:105A4000B0FBF1F707E009EBC90000EB0910316882
:105A50008900B0FBF1F76420B7FBF0F004012009E6
:105A6000642101FB1078A88900F4004040B1322085
:105A700000EBC800B0FBF1F000F00700044308E0C1
:105A8000322000EB08106421B0FBF1F000F00F00B1
:105A900004432C81BDE8FF87001001400014014041
:105AA000C1F30802828070474FF416510160002153
:105AB0008180C18001810C21418100218181704759
:105AC00000BFFEE70FB4054B10B503A9044A0298C6
:105AD00000F06CF910BC5DF814FB0000857600083E
