:020000040800F2
:10000000481B01209D010008393B0008492B0008CE
:100010000D3B0008D9120008E16200080000000052
:10002000000000000000000000000000754C000807
:10003000D3180008000000009D4A00081152000873
:10004000B7010008B7010008B7010008B7010008B0
:10005000B7010008B7010008B7010008B7010008A0
:10006000B7010008B7010008B7010008B701000890
:10007000B7010008B7010008B7010008B701000880
:1000800031130008B7010008B7010008B7010008E4
:10009000B7010008B7010008B7010008B701000860
:1000A000B7010008B7010008B7010008B701000850
:1000B000B7010008B7010008B7010008B701000840
:1000C000B7010008B7010008B7010008B701000830
:1000D000B7010008B7010008495F0008B701000830
:1000E000B7010008B7010008B7010008B701000810
:1000F000B7010008B7010008B7010008B701000800
:10010000B7010008B701000899550008B7010008B9
:10011000B7010008B70100086D560008B7010008D4
:10012000B7010008B7010008B7010008B7010008CF
:10013000B7010008B7010008B7010008B7010008BF
:10014000B7010008B7010008B7010008B7010008AF
:10015000B7010008B7010008B7010008795F00087F
:10016000B7010008B7010008B7010008B70100088F
:10017000B7010008B7010008B7010008B70100087F
:10018000B7010008B7010008DFF80CD000F0B6FC9A
:1001900000480047DD880008481B012006488047CA
:1001A00006480047FEE7FEE7FEE7FEE7FEE7FEE75C
:1001B000FEE7FEE7FEE7FEE71552000889010008AA
:1001C0009FED1A1AF5EE000A40EE010ABDEEE00AB4
:1001D000F5EEC00A10EE100AF1EE10FA38BF401E1C
:1001E00000EE100A1349F7EE001AB8EEC00A30EE1E
:1001F000C00ADFED0F0A20EE200AFCEEC00A10EE66
:10020000900AC0F3080000EE900A01EB8000F8EEBF
:10021000600A90ED011A70EE600A90ED000A71EE2E
:10022000E01A21EE800A00EE810A704783F9223E2F
:1002300000000044AC940008B5EEC00AF1EE10FADC
:1002400007D2DFED1E0AB4EEE00AF1EE10FAA8BF05
:100250007047DFED1B0AB5EEC00A60EE200ABDEE66
:10026000E01A11EE100AF1EE10FA38BF401E00EE4F
:10027000100A1549F7EE001AB8EEC00A30EEC00AAF
:10028000DFED100A60EE200ABCEEE00A10EE100A64
:10029000C0F3080000EE100A01EB8000B8EE400A3F
:1002A00090ED011A70EEC00A90ED000A71EEE01AAE
:1002B00021EE800A00EE810A70470000CD024CB4A6
:1002C00083F9223E00000044AC94000810B5431AA4
:1002D000934209D28318881803E010F8011D03F82F
:1002E000011D521EF9D210BD40EA01039B0703D045
:1002F00009E008C9121F08C0042AFAD203E011F865
:10030000013B00F8013B521EF9D210BDD2B201E010
:1003100000F8012B491EFBD270470022F6E710B50A
:1003200013460A4604461946FFF7F0FF204610BD63
:10033000CAB2401E10F8011F8A4202D00029F9D12A
:1003400000207047421C10F8011B0029FBD1801AC5
:10035000704710B5002200E0521C835C8C5CA34205
:1003600001D1002BF8D1D8B2E1B2401A10BD30B59E
:1003700005460020034600E05B1C934205D2EC5C7E
:10038000C85C201A01D1002CF6D130BD2DE9F04710
:1003900091460F4680460446002614F8015B2DB1B5
:1003A00000F020FA0068405DC007F6D12B2D02D086
:1003B0002D2D18D0641E4A463946204600F016FA04
:1003C00027B13968A14201D1C7F8008071054FF00B
:1003D00002040BD54042002803DD05F0A7FF0460AE
:1003E000A007BDE8F08746F48066E4E70028F8DA65
:1003F00005F09CFF04606FF00040F2E72DE9FE4F2E
:10040000804681EA0300C00F0C46009021F00041B5
:1004100023F00045B8EB0200A94105D24046214631
:1004200090461C460B46024623F00040104347D03E
:10043000270DC7F30A00C3F30A510290401A019036
:1004400040286BDAC3F3130040F4801B00989246F7
:1004500020B10023D2EB030A63EB0B0B0198594642
:10046000C0F14002504600F08CF906460D46504659
:100470005946019A00F0A4F910EB080061410024EC
:1004800087EA115284EAE7731A4340D0009A62B3B4
:10049000019A012A4FEA075215DC001B61EB0201A9
:1004A0004FF0004202EA0752CDE90042001C41F53C
:1004B000801132462B4600F02EFA03B0BDE8F08FD3
:1004C00040462146F9E7001B61EB0201001C41F5A3
:1004D000801300185B412018A2F5001747EB0301B9
:1004E00040EAD570B6196D4111E06D084FEA360645
:1004F00045EAC0754FEA0752001B61EB0201001C80
:1005000041F5801149084FEA300000195141324647
:100510002B4603B0BDE8F04F00F0EEB90098012281
:1005200040000023D0EB020263EBE0730098214609
:100530004FEAE074B8EB000061EB0401E9E783F0F7
:1005400000435BE781F0004158E72DE9F04D81EA77
:10055000030404F0004B21F0004514464FF0000A5C
:1005600023F0004150EA050220D054EA01021DD0D8
:10057000C5F30A570246C5F31303C1F31300C1F3D1
:100580000A5640F4801543F48013A7EB0608101BAD
:10059000D64608F2FD3873EB050002D308F10108D6
:1005A00001E092185B41B8F1000F03DA0020014628
:1005B000BDE8F08D00204FF48011064684460EE021
:1005C000171B73EB050705D3121B63EB05030643EB
:1005D0004CEA010C49084FEA300092185B4150EA9E
:1005E0000107EDD152EA030012D082EA040083EA47
:1005F0000501084305D0101BAB4106D201220023A0
:1006000006E000224FF0004302E06FF001025310B9
:100610001AEB06004CEB085110EB0A0041EB0B0102
:10062000BDE8F04D00F068B970B5C1F30A5201F0B1
:1006300000450024C1F3130140F2FF3341F480115F
:100640009A4201DA002070BD40F233439A42A2F28E
:10065000334203DC524200F0A3F800E090402C4308
:10066000F1D0404270BD00F0004230F000400AD0AE
:10067000C10D01F56071C0F3160042EA0151C208D4
:1006800040071143704700200146704730B5041EF3
:1006900071F1000404DB4FF00044404264EB0101BF
:1006A000141E73F1000405DB1C464FF00043524258
:1006B00063EB0403994208BF904230BD01F0004350
:1006C00030B421F0004150EA010206D00A0DA2F533
:1006D0006072C1F31301002A02DC30BC00207047B5
:1006E000440F44EAC104C100E01830BC00EBC25022
:1006F00000F0CBB830B50B46014600202022012483
:1007000009E021FA02F59D4205D303FA02F5491BDF
:1007100004FA02F52844151EA2F10102F1DC30BDF5
:100720002DE9F05F0546002092469B468846064626
:10073000814640241BE0284641464746224600F0B9
:100740002FF853465A46C01A914110D31146184605
:10075000224600F016F82D1A67EB01084F46224694
:100760000120002100F00DF817EB00094E41201E7A
:10077000A4F10104DFDC484631462A464346BDE881
:10078000F09F202A04DB203A00FA02F10020704793
:100790009140C2F1200320FA03F3194390407047BF
:1007A000202A04DB203A21FA02F00021704721FAC6
:1007B00002F3D040C2F1200291400843194670472D
:1007C000202A06DBCB17203A41FA02F043EAE07315
:1007D00006E041FA02F3D040C2F120029140084302
:1007E0001946704700487047349D00082DE9F05FB6
:1007F00082460078002715468B460AF10104B94667
:10080000302801D09DB113E014F8010B012778289E
:1008100003D0582801D045B10AE00DB1102D07D101
:100820000027102514F8010B02E0082500E00A2536
:100830000026B0460EE005FB080005FB06F1012787
:1008400001EB10461FFA80F8B6F5803F00D3B94699
:1008500014F8010B294600F063F90028EBDABBF12C
:10086000000F05D00FB1641E00E05446CBF80040E5
:10087000B9F1000F06D005F059FD02210160C81E34
:10088000BDE8F09F48EA0640FAE70029A8BF704794
:10089000401C490008BF20F00100704710B4B0FAB6
:1008A00080FC00FA0CF050EA010404BF10BC704751
:1008B00049B1CCF1200421FA04F411FA0CF118BF6B
:1008C000012121430843A3EB0C01CB1D4FEA00613A
:1008D0004FEA102042BF002010BC704700EBC3500D
:1008E00010440029A4BF10BC7047401C490008BF39
:1008F00020F0010010BC704710B5141E73F1000405
:1009000008DA401C41F1000192185B411A4301D101
:1009100020F0010010BD2DE9F04D92469B4611B12B
:10092000B1FA81F202E0B0FA80F220329046FFF78D
:1009300028FF04460F4640EA0A0041EA0B015346ED
:100940005A46084313D0114653EA010019D0C8F1A2
:1009500040025046FFF724FF05460E4650465946D2
:100960004246FFF70EFF084305D0012004E0204671
:100970003946BDE8F08D0020054346EAE0762C4379
:1009800037430A986305E40AA0EB08000022FD0A39
:1009900044EA47540A3002D500200146E9E7010540
:1009A00010196941DDE9084500196941BDE8F04DBC
:1009B000A2E72DE9FE4F81EA030404F0004421F090
:1009C000004100944FF0000B23F0004350EA010473
:1009D0005ED052EA03045BD0C3F30A54C1F30A5554
:1009E0002C44A4F2F3340194A0FB0254C1F313018C
:1009F00041F48011C3F3130343F4801301FB024459
:100A000000FB034E840A970A44EA815447EA83575D
:100A1000A4FB076802958D0A05FB07854FEA932C16
:100A200004FB0C542705029D4FEA065847EA163787
:100A3000B5EB08056EEB070C870E920E47EA81179F
:100A400042EA8312A7FB0201B6EB0B0164EB000440
:100A50002B0D43EA0C335E1844EB1C50DA4651462A
:100A6000E7FB0201C5F313044FEA0B3343EA1453C7
:100A70004FEA0432019C43EA0603A4F10C040294F9
:100A8000009CCDE900B4FFF746FF03B0BDE8F08F4E
:100A900000200146F9E7C1F30A52C1F3130140F205
:100AA000FF3341F480119A4202DA00200146704778
:100AB00040F233439A42A2F2334202DC5242FFF741
:100AC0006FBEFFF75EBE002801DBC0F100400029C9
:100AD00001DBC1F10041814202D24FF0004004E04D
:100AE0004FF0005001D14FF0C0404FEA2062EFF3C9
:100AF000008162F31F6181F300887047064C074D47
:100B000006E0E06840F0010394E8070098471034DD
:100B1000AC42F6D3FFF73CFBC0A00008E0A0000801
:100B20003A2800D2303820F02002412A01D3A2F125
:100B30003700884201D34FF0FF30704770B58C18F2
:100B400010F8015B15F0070301D110F8013B2A11E1
:100B500006D110F8012B03E010F8016B01F8016BCE
:100B60005B1EF9D12B0705D40023521E0DD401F8CA
:100B7000013BFAE710F8013BCB1A921C03E013F893
:100B8000015B01F8015B521EF9D5A142D8D30020C8
:100B900070BD000010B500BFEFF31082114672B6B1
:100BA00000201BE0114A92F90020904214D000EB83
:100BB00040120F4B03EBC20292F8032162B10022F4
:100BC00000EB40130A4C04EBC30383F80321094AEA
:100BD0001268521C074B1A60421CD0B20628E1DB97
:100BE00000BF81F3108800BF10BD0000F40000209A
:100BF0001C4C0020FC0000200020002110E001EB34
:100C00004112094B03EBC20292F8032132B9074AA1
:100C100092F900208A4201D0421CD0B24A1CD1B2C3
:100C20000629ECDB704700001C4C0020F40000207B
:100C3000002110E001EB4110094A02EBC00090F8DE
:100C4000030130B9074890F90000884201D0012023
:100C50007047481CC1B20429ECDB0020F8E7000013
:100C60001C4C0020F40000202DE9F04107460D4601
:100C70001646022E01D1062000E00420804600F036
:100C800003FB01F0E5FE10B90020BDE8F08115B1CD
:100C9000B5F5807F06DD28480068401C26490860BD
:100CA0000020F2E700243DE004EB4410234901EB6F
:100CB000C00090F8030190BB214890F90000A042C9
:100CC0002ED004EB44111D4A02EBC1002A463946DE
:100CD000FFF7FCFA04EB4410184901EBC000A0F840
:100CE000005104EB441001EBC00080F8026115488C
:100CF000006804EB4411114A02EBC101C1F8040180
:100D000010480068401C0F490860BFF35F8F012046
:100D100004EB441102EBC10181F80301B5E7FFE7E1
:100D2000601CC4B24445BFDB03480068401C024954
:100D300008600020A9E70000FC0000201C4C0020F7
:100D4000F4000020F8000020F0B5B3B005F09EF8E4
:100D50004248007808B933B0F0BD00BFEFF310800F
:100D6000054672B63E4806783C480078022801D114
:100D7000012000E00020074632463A4901A8FFF76B
:100D8000A5FA00F0ABFA00BF85F3108800BF2FB1C1
:100D9000002035490870012034490870002458E0CB
:100DA00001A8005D0A2826D130480078D0B92E4825
:100DB000007858B12C480078401E2D49085C0D2859
:100DC00004D129480078401E27490870002028498E
:100DD000254A127888542448007830B1084604F037
:100DE0000DFE02E023A001F0CDFB00201E4908709B
:100DF0001E4908702BE01D48007840BB01A8005D2B
:100E000020280ADA01A8005D0D2806D00120174924
:100E1000087000201449087019E013480078C728AA
:100E20000AD201A8015D104802780078401C0E4BE0
:100E300018700F4881540AE001200C490870002006
:100E4000094908700F480068401C0E490860601C82
:100E5000C4B2B442A4DB00BF7DE70000550000200F
:100E6000560000206026002002010020030100201F
:100E70004C520020455252206F766572666C6F7737
:100E80000D0A00007C00002030B52DED028B91B0E2
:100E9000B0EE408AF0EE608A0446244D2448007883
:100EA000012803D011B0BDEC028B30BD8DED008A5E
:100EB0000A2C00DB0095CDED018A1E4890ED000A5A
:100EC0008DED020A90ED040A8DED030A00EE104A42
:100ED000B8EE400A8DED040A174890ED000A8DED3A
:100EE000050A164890ED000A8DED060A14480088A0
:100EF00000EE100AB8EE400A8DED070A202269467E
:100F000008A8FFF7E3F900208DF840008DF84100B4
:100F100080208DF842007F208DF84300002224219C
:100F200008A8FFF7A1FE00BFBCE700000000C07FDB
:100F300058000020A87F002040010020440100202C
:100F40000601002010B5204890F90000002806DABC
:100F5000002240F227711D4805F022F910BD1C48FF
:100F60000488601C1A4A1080174890F9000000EBB2
:100F70004010184A02EBC000015D144805F0A0F9CA
:100F8000114890F9000000EB4010124901EBC0003D
:100F9000B0F800010E490988884213DC00200A4994
:100FA00091F9001001EB41110A4A02EBC10181F8ED
:100FB0000301FF2004490870002240F22771034812
:100FC00005F0EEF800BFC9E7F4000020001401406E
:100FD000F60000201C4C002070B54FF0FF3500F0EB
:100FE00053F901F035FD58B93848007820B1FFF7C2
:100FF000D1FD00203649086000203449087070BDDA
:10100000012032490870334890F90000002800DBC5
:10101000F5E7002439E004EB44102F4901EBC00050
:1010200090F8030178B3002D2CDB04EB441001EBA6
:10103000C00090F8020105EB4511274A02EBC101FF
:1010400091F8021188421DDC04EB4410114601EBBB
:10105000C00090F8020105EB451102EBC10191F8C7
:10106000021188420FD104EB4410114601EBC0007D
:10107000D0F8040105EB451102EBC101D1F80411D0
:10108000401A00D565B2601CC4B2062CC3DB002D2B
:1010900000DAB4E705EB45120F4B03EBC202B2F8DE
:1010A000001105EB451203EBC20001F06FF80020C0
:1010B0000A49088007480570BFF35F8F012240F29C
:1010C0002771074805F06CF800BF98E70001002081
:1010D00060000020F40000201C4C0020F6000020DE
:1010E0000014014070B5044644B12046FFF72AF9C8
:1010F00085B2022229462046FFF7B6FD70BD0000EA
:1011000010B588B004460121042003F0C9FC012178
:10111000042003F0C5FC082206213B4801F05EFCD8
:1011200008220721384801F059FC06A801F086FC86
:101130004020069002208DF81C0003208DF81D0031
:1011400000208DF81E0001208DF81F0006A92E48F2
:1011500001F0FCFB06A801F071FC80200690022043
:101160008DF81C0003208DF81D0000208DF81E0056
:1011700001208DF81F0006A9234801F0E7FB01219B
:10118000202003F0BDFC214804F068FF02A805F010
:101190009BF802940020ADF80C00ADF80E00ADF8FD
:1011A00010000C20ADF812000020ADF8140002A9C8
:1011B000164805F01BF8012240F22551134804F0AF
:1011C000EFFF012240F22441104804F0E9FF202102
:1011D0000E4804F025FF40F224410C4804F020FFA3
:1011E00001210A4804F025FF47208DF80400012062
:1011F0008DF805008DF806008DF8070001A802F0B3
:101200009DFC08B010BD0000000802400014014021
:1012100010B54FF4E130FFF773FF00F013F802A0B0
:1012200005F060F810BD0000426C7565746F6F7456
:10123000685F496E69742073756363656564210D29
:101240000A0000001CB50121042003F029FC6846B7
:1012500001F0F4FB0420009000208DF8040003202E
:101260008DF8050000208DF8060001208DF807009C
:101270006946044801F06AFB0421024801F0DAFBE8
:101280001CBD00000008024010B504210F4801F009
:10129000C8FB50B900200E4908700E48007801289C
:1012A00002D100200B49087010BD0421074801F04D
:1012B000B8FB012807D1064908700648007810B924
:1012C00001200449087000BFEEE70000000802405A
:1012D000540000205700002000BFFEE70020024914
:1012E0000870024908707047560000205500002021
:1012F0001CB50121022003F0D3FB01208DF804006E
:1013000000208DF806004FF40040009002208DF878
:10131000050000208DF807006946044801F016FB1F
:101320004FF40041014801F087FB1CBD000402405E
:101330002DE9F0477848466801F0F5FA824677488B
:10134000476806F4507030B175480068401C744915
:10135000086001F0EBFF7348007830B172496E48C5
:10136000883000F005F9BDE8F08706F44060B0F57C
:10137000406F0CD16D480068401C6C49086001F05A
:10138000D5FF69496448883000F0F2F8EBE706F4CD
:10139000406000B9E7E7012020EA96240CB16448D8
:1013A00000E0644801465C48883000F0E1F85A48A3
:1013B000883000F0B9F905465F480078844212D1C0
:1013C0005E4800683221B0FBF1F05D490968791A86
:1013D000884208D33DB114B9B5F5007F03D854B1A4
:1013E000B5F5007F07D851480068401C4F49086098
:1013F00001F09CFFB7E75348006853490968A0EB28
:101400000108B8F1100F07D350480068401C4F493D
:10141000086001F08BFFA6E74D4A02EB4421494AE0
:10142000126802F00F024B4B03EB42204FF40072A4
:10143000FEF74CFF3848883000F076F905468DB14C
:101440003E4800686421B0FBF1F034494968C91B8B
:10145000884207D914B9B5F5007F03D854B1B5F562
:10146000007F07D831480068401C3049086001F00F
:101470005DFF78E738480068A0F59C402038314986
:10148000096801F00F0101EB4101344A42F82100E3
:101490002C48006800F00F0000EB4000114601EB03
:1014A0008000C0F804A02E4800682649096801F0B1
:1014B0000F0101EB410102EB81018860BFF35F8FF7
:1014C00020480068401C1F49086026480068401CEE
:1014D0002449086008F1010023490968B1EB402F55
:1014E00002D24002204908601348007880F00100D1
:1014F000114908701848C0F800A011480760074853
:101500004068A0EB070919480068814502D91748CF
:10151000C0F8009000BF26E700600240001000E025
:101520007800002034000020400F00204C000020F4
:1015300000080020000400203500002000000020EA
:101540003C0000202C000020300000207C00002007
:10155000A0010020A005002038000020A0250020C8
:1015600040000020480000204400002050000020DF
:101570000246094B9A4201D2084801E00648103859
:1015800001F000531BB1064B0B40C36002E0044B5B
:101590000B4083607047000010640240006002400E
:1015A0007D0F7D0F21B1026842F00102026003E06D
:1015B000026822F00102026070470000016821F019
:1015C000010101600021016041608160C160016131
:1015D000212141614A49884204D13D21484A103ABB
:1015E00091608CE046491831884205D14FF474610E
:1015F000434A103A916082E041493031884205D136
:101600004FF474113E4A103A916078E03C494831F9
:10161000884205D14FF07461394A103A91606EE00A
:1016200037496031884204D13649354A103AD16091
:1016300065E033497831884204D13349304A103A61
:10164000D1605CE02E499031884204D12F492C4A68
:10165000103AD16053E02A49A831884205D14FF0B1
:101660003D51274A103AD16049E02949884204D1C6
:101670003D21274A083A116041E025491831884246
:1016800005D14FF47461224A083A116037E02049CD
:101690003031884205D14FF474111D4A083A116067
:1016A0002DE01B494831884205D14FF07461184A3A
:1016B000083A116023E016496031884204D111498B
:1016C000134A121F11601AE011497831884204D17F
:1016D0000D490F4A121F116011E00D4990318842E7
:1016E00004D10A490A4A121F116008E00849A831CA
:1016F000884204D14FF03D51054A121F11607047D6
:10170000106002403D000020400F002000003D20FE
:1017100010640240014600200A6802F001020AB18A
:10172000012000E0002070470146486880B2704701
:1017300010B501F080034BB122B1436943F080033F
:10174000436103E0436923F08003436180290BD0A8
:101750002AB1036801F01E042343036004E0036818
:1017600001F01E04A343036010BD000010B5002269
:101770000268134B1A40CC680B6823434C6923431F
:101780008C692343CC6923430C6A23434C6A23436B
:101790008C6A23434C6B23438C6B23431A430260B4
:1017A000426922F00702D1E90B3423431A43426114
:1017B0000B6943604B6883608B68C36010BD000099
:1017C0003F801CF000B591B00121480503F068F995
:1017D0002A48FFF7F3FE02A800F06AF84FF0006015
:1017E00002902748039027480490002005904FF46A
:1017F00080600690089080100B9040020C9002A927
:101800001E48FFF7B3FF01229E211C48FFF790FFFF
:1018100010208DF8040000208DF805008DF80600DA
:1018200001208DF8070001A802F088F91648006829
:1018300040F08070144908601448006840F00100CE
:1018400012490860002012490860124908601249D4
:1018500008701249087001F066F8114908600B48D9
:1018600040681049086010490448FFF781FE0121D3
:101870000248FFF797FE11B000BD000088600240EB
:1018800004440040A0010020FCED00E0001000E056
:10189000300000202C000020350000203400002003
:1018A000380000203C000020400F002041607047BD
:1018B0000021016041608160C1600161416181611D
:1018C000C161016241628162C162016341638163FE
:1018D0007047704770B504460D4600200B490860FC
:1018E0000B49086068210B48FEF717FD0A480460A1
:1018F00001F019F80949086060210948FEF70DFD5B
:1019000060210848FEF709FD70BD0000A800002016
:10191000A400002028270020A00000209C00002018
:10192000EC2800204C29002030B502460B464FF62B
:10193000FF7017E012F8015B80EA052000210FE03C
:1019400000F400442CB141F2210484EA4004A4B222
:1019500003E04FF6FF7404EA400420464C1CE1B259
:101960000829EDDB1C1EA3F10105ABB2E2D130BDAD
:10197000F0B503460C461546694E3678032E0AD15B
:10198000684E36683EB1684E3678012E03D113B1E9
:10199000B4F5C87F00DDF0BD00202EE003EBC006EB
:1019A00096ED000ADFED610AB4EEE00AF1EE10FAFE
:1019B00020DB03EBC00696ED000ADFED5D0AB4EE16
:1019C000E00AF1EE10FA15D803EBC00696ED010A15
:1019D000DFED560AB4EEE00AF1EE10FA0ADB03EB93
:1019E000C00696ED010ADFED520AB4EEE00AF1EE10
:1019F00010FA00D9CFE7461CB0B2A042CEDB4D4E64
:101A000096F8B6600EB9012600E00026494F97F817
:101A1000B370022F00D100E000273E43464F97F8F5
:101A200022702FB1444F97F823700FB9042700E0BC
:101A300000273E43404F97F82470062F01D110270E
:101A400000E0002746EA07023C4E367840F297173E
:101A500016FB07F63A4F07EB86013A4E36680E60E2
:101A6000394E36684E60394E36688E60384E36686C
:101A7000CE600D614A610C8300201CE003EBC006C0
:101A800096ED000ABDEEC00A10EE106A37B201F101
:101A90001A0626F8207003EBC00696ED010ABDEE8B
:101AA000C00A10EE106A37B201F11A0606EB800682
:101AB0007780461CB0B2A042E0DB204E3678761C20
:101AC00006F003061D4F3E70224E3678042E04DACF
:101AD000204E3678761C1F4F3E701F4E367836B13A
:101AE0000226114F3E7000261B4F3E7009E01B4E30
:101AF0003678032E05DB02F0030616B10126164FD9
:101B00003E700C4E96F8B66046B1144E3678032EF1
:101B100004DA124E3678761C104F3E7000BF3AE75A
:101B20005800002060000020E000002000FEFFC6FA
:101B300000FEFF46F87F0020B4800020E100002076
:101B4000AC320020880000205C00002064000020EF
:101B50006C000020E2000020E3000020E4000020F0
:101B600010B5B0B0044606228FA12046FEF7FFFB59
:101B700000286AD18EA1A01DFEF7EBFB10B905F07D
:101B800047FF4FE08BA1A01DFEF7E3FB38BB8B485E
:101B90000078002846D08A480078012842D1894838
:101BA0000078C01C00F0030040F2971110FB01F018
:101BB000854901EB8000406940F0080181480078C8
:101BC000C01C00F0030040F2971210FB02F07E4AA6
:101BD00002EB8000416102207949087022E07BA17C
:101BE000A01DFEF7B6FB90B975480078022819D100
:101BF00072480078B0B17748007898B900207649EB
:101C00000870764908800120724908700AE074A1C2
:101C1000A01DFEF79EFB28B173A000F0B3FC0120CD
:101C200030B010BD6B48007864490978CDE90010E8
:101C300063480378714872A1026802A804F062FB4D
:101C400002A803F019F80120EAE779A12046FEF77F
:101C500080FB70B90120032177A37DA2CDE900109C
:101C6000804902A804F04EFB02A803F005F8012009
:101C7000D6E77DA12046FEF76CFB78B97C4800785A
:101C8000032804D07BA000F07DFC0120C8E700F011
:101C900045F97BA002F0F0FF0120C1E708227BA1FB
:101CA0002046FEF764FB30BB2FA904F1080007F0C3
:101CB0003FF808B12F9820B977A000F063FC01200D
:101CC000AEE7FEF767FF78492F98086005F0A0FEA1
:101CD00007F01CF8002075490860754908707549BF
:101CE000087075A102A82F9A04F00CFB02A802F05C
:101CF000C3FF012094E7052274A12046FEF737FBBD
:101D000010BB2FA9601D07F013F810B12F980328FE
:101D100004D970A000F036FC012081E7FEF73AFFFD
:101D200053492F98087006F0F1FF002061490870B0
:101D30005F4908706AA102A82F9A04F0E3FA02A88A
:101D400002F09AFF01206BE7052269A12046FEF709
:101D50000EFB30BB2FA9601D06F0EAFF38B12F98AB
:101D600028B12F980A2802D85148007820B162A0E3
:101D700000F008FC012053E762492F98087000200A
:101D80004C49087060480068401C5F4908605FA1CA
:101D900002A82F9A04F0B6FA02A802F06DFF012003
:101DA0003EE700203CE70000636C6F756420000094
:101DB00061726D00667265657A650000E200002060
:101DC000E0000020E1000020AC32002064756D705E
:101DD00000000000E5000020E6000020E8000020F0
:101DE000737461747573000045525220636C6F7593
:101DF0006420636F6D6D616E640D0A00D800002071
:101E0000434C4F55442069643D256C7520737461C3
:101E100074653D2575206672616D65733D2575207D
:101E200073656E64696E673D25750D0A00000000DC
:101E3000696E666F000000007368613235362D638D
:101E400064383639373166646265613665643000FE
:101E5000726332362D6D61736B33312D76322E31D4
:101E600000000000389D0008676574636667000025
:101E700058000020455252206D6F64650D0A000025
:101E80004F4B206765746366670D0A007365737353
:101E9000696F6E2000000000455252207365737315
:101EA000696F6E0D0A0000006000002084000020B1
:101EB000B4000020B30000204F4B2073657373699A
:101EC0006F6E20256C750D0A0000000074656C654E
:101ED000200000004552522074656C650D0A000018
:101EE0004F4B2074656C6520256C750D0A00000051
:101EF0007261746520000000455252207261746561
:101F00000D0A0000590000205C0000204F4B207299
:101F100061746520256C750D0A00000010B5002461
:101F20000AE00C4800EB84020B4800EB4401204619
:101F300003F096FF601CC4B20F2CF2DB01200749AE
:101F4000087000200649087006480068401C0549D2
:101F5000086010BD90270020CC270020B40000208E
:101F6000B5000020B800002070B52DED088B0446A8
:101F7000B0EE408A0E4615469FED640AF0EE408AA8
:101F80000020307028701A2C0DDA9FED610AB4EE33
:101F9000C08AF1EE10FA06D89FED5E0AB4EEC08A50
:101FA000F1EE10FA03DA0020BDEC088B70BD022CB4
:101FB00016D1B5EEC08AF1EE10FA0FD3B2EE020AD6
:101FC000B4EEC08AF1EE10FA08DCBDEEC80AB8EE35
:101FD000C00AB4EE408AF1EE10FA01D00020E3E727
:101FE000142C0DD1B5EEC08AF1EE10FA08D0B7EE80
:101FF000000AB4EE408AF1EE10FA01D00020D3E7D7
:102000001CB99FED450AF0EE408A032C05D0052C43
:1020100003D0072C01D0082C03D1B3EE0E0AF0EE4A
:10202000408A042C01D0062C03D19FED3C0AF0EE2F
:10203000408AF5EEC08AF1EE10FA08D1122C06D0D3
:10204000B5EEC08AF1EE10FA01D20020ACE7012013
:102050003070F5EEC08AF1EE10FA14D0B4EEE88AD2
:10206000F1EE10FA02DDB0EE688A2870B1EE680A6F
:10207000B4EEC08AF1EE10FA05D2B1EE680AB0EE05
:10208000408A01202870264830F8140000EE100A1B
:10209000B8EE400A20EE089A9FED220AB4EEC09AEC
:1020A000F1EE10FA04DD0120287047F6FF707BE79F
:1020B0009FED1D0AB4EEC09AF1EE10FA03D2012092
:1020C00028701A4870E719EE100AFEF7CCFA41ECB6
:1020D0001B0BB5EEC09AF1EE10FA02DB9FED141B5C
:1020E00001E09FED151BB0EE410AF0EE610A53ECE2
:1020F000102B51EC1B0BFEF781F941EC1A0B51EC44
:102100001A0BFEF791FA00B24EE700000000000043
:10211000FFFF7F7FFFFF7FFF000016440060EA465D
:102120006893000800FEFF46000000C70080FFFF24
:10213000000000000000E03F000000000000E0BFE1
:102140001A281BDA0E4A02EB800282ED000A0122F5
:1021500082400C4B1B681A430A4B1A6039B10122AA
:102160008240094B1B681A43074B1A6006E00122A4
:102170008240054B1B689343034A1360704700007D
:1021800028270020A8000020A400002070B50446E5
:102190000D46102D1CDB2078AA2819D1607855280F
:1021A00016D1A078022813D10A4801680068401CA3
:1021B000084B1860A01D06F047FF281F81B2A01C25
:1021C000FFF7B2FB06466119881E314606F038FF5C
:1021D00070BD00008400002030B50446F0EE400AD7
:1021E0000D462946B0EE600A2046FFF7A9FF012000
:1021F000A0400349096881430148016030BD0000E7
:10220000A800002008B50121102002F059FC002090
:10221000104908805320088540F2E730C862012049
:102220008882002008820C490860012009498881C1
:1022300036208DF8000000208DF8010001208DF877
:1022400002008DF80300684601F078FC0120014986
:10225000088008BD00100040800000202DE9F041FA
:1022600005460E4617462D480068401C2B4908605D
:1022700080462B480078032802D12A48006808B914
:10228000BDE8F0812848006828490968401A4028BC
:1022900005D327480068401C25490860F0E722481C
:1022A000006800F03F0000EBC000224901EB800411
:1022B000C4F8008020480068606000F034FBA06033
:1022C000A5814FF08040806BE0811C4890ED000AB2
:1022D00084ED040A1A4890ED000A84ED050A1948B5
:1022E00090ED000A84ED060A174890ED000A84ED8F
:1022F000070A0EB1012000E000200FB1022100E02A
:1023000000210843001D2062BFF35F8F064800686C
:10231000401C0549086000BFB2E70000CC00002067
:102320005800002060000020C4000020C8000020E9
:10233000D0000020AC2900205C00002040010020DB
:1023400034010020BC000020C000002070B52DED3D
:10235000028B05460C46B0EE408A1448007818B946
:10236000FEF74AFC022803DA0020BDEC028B70BDA8
:102370000F480078032808D1D4ED000AB0EE600AB7
:10238000F0EE480A284605F0EBFF03F0D3FF0646BF
:1023900072B684ED008A07480068401C0549086051
:1023A000304604F048F80120DFE70000B4000020C8
:1023B000580000205C0000202DE9F043A1B000F09F
:1023C000ABFA05468024FEF707FE00F041FB10B98A
:1023D00021B0BDE8F08305F00FFD06F0AFFB284605
:1023E00006F0CAF9284605F035FB4E480078032868
:1023F00017D1FEF701FC032813DB4B4800684B495B
:10240000096888420DD04948026849A101A803F033
:1024100079FF01A9042006F07DFE44480068424986
:10242000086040480078032805D146480068281A0B
:10243000B0F57A7F00D2CBE74248056003F07AFF1F
:10244000814672B64048D0F8008040480768484648
:1024500003F0F1FF3E48007810B13E48007808B91B
:1024600044F002043148006808B144F004043A48DA
:10247000007808B144F0080444F010040FB144F0AF
:1024800020043348007808B144F04004119517B196
:10249000A5EB080000E0002012902D48007818B14C
:1024A0002E480068281A00E00020139014972C484A
:1024B000006815902B48006816902B48006817900C
:1024C0002A48006818902A48C06A19902848006B6A
:1024D0001A90164800681B90264800681C902648F1
:1024E00000681D90254800681E901F9400202090D1
:1024F0005021022006F020F9002609E011AA52F826
:1025000026101F4A02EB860006F09EFD701CC6B224
:10251000102EF3DB0122502119480E38FEF7A4FBE0
:1025200000BF55E758000020F0000020FC0000200C
:1025300074785F64726F705F746F74616C3D256C4A
:1025400075000000AC00002068000020640000203E
:10255000B1000020B2000020B40000209400002050
:102560008800002074000020780000207C000020FB
:102570002881002098000020440000205C000020FA
:10258000F827002010B5044607480078032807D133
:10259000FEF732FB022803DB2146022006F0BAFDDB
:1025A000204602F069FB10BD580000202DE9FF4FC6
:1025B00089B006468B46994600F0B5F9074600F00B
:1025C000ABF9824600200890BB480568BB48D0F8AC
:1025D000008000200690BA480068401CB849086096
:1025E000B84880F80090B848007870B1B7480068E3
:1025F000AAEB0000B649884207D2B6480068381AEC
:10260000069045F0804548F08048B2480760AF48E2
:10261000C0F800A00120AC490870B9F1000F05D046
:10262000AD48C0F800A00120AC490870AC48006873
:10263000381AAC490968884204D9A9480068381A90
:10264000A8490860092E01DC01200FE00B2E01D102
:1026500005200BE00C2E08D1A3480068B0F5D76F19
:1026600001D1032002E0042000E0022003909E48F4
:10267000006800EE900AF8EE600AB0EE600A0121F0
:102680000846FFF75DFD092E10DC9848D0ED070ADB
:10269000B0EE600A01210020FFF752FD012100EE9B
:1026A000106AB8EE400A0220FFF74AFD03F042FE2E
:1026B000079072B601218E4890ED000A1220FFF7B4
:1026C0003FFD01218B4890ED000A1320FFF738FDF4
:1026D00002200290079803F0AEFE77480068054399
:1026E0007648006848EA000845F0405548F04058F0
:1026F000BBF1000F03D045F0406548F040680398F7
:10270000022803D17C480068401C00E000207A4980
:1027100008607A480078401CC0B27849087078494F
:102720000978884202DA0DB0BDE8F08F00207349C5
:10273000087074480078022800DAF4E76C21012060
:1027400005F0FAFF00242FE06F4800EB8400D0ED85
:10275000000AB0EE600A04AA05A92046FFF704FCAF
:1027600001909DF8140010B90120A04085439DF808
:10277000100040B10120A040284020B10120A0401D
:102780000899084308900122A2402A4012B1019AF8
:1027900092B200E0002211465C4A022303FB0420AF
:1027A00006F04EFC601CC4B21A2CCDDB55480078F4
:1027B000022827D10020009034225449A1F10A00B8
:1027C000FDF784FD012051490E3988703C4800789E
:1027D000C870042408E04D480E38015D0098084494
:1027E000C0B20090601CC4B2382CF4DB47490E39EB
:1027F000009881F838000022392144480E38FEF74D
:1028000033FA90E72E4801684048343006F01CFC4B
:102810003F4801683D48383006F016FC51463B48B9
:102820003C3006F011FC39484030069906F00CFCAB
:1028300029463648443006F007FC414633484830C4
:1028400006F002FC31484C30089906F0FDFB2F4998
:102850000E39039881F85E00029881F85F0003202A
:1028600081F86000042081F861002A480168274847
:10287000543006F0E9FB59462448583006F0E0FB96
:10288000BBF1000F01D00B9800E0002001461F486B
:102890005A3006F0D5FB00226C211C480E38FEF79A
:1028A000E3F90F490968781A4A46039905F0EAFCEA
:1028B00006F000FB00BF36E7A4000020A8000020BF
:1028C00088000020B2000020B0000020900000200E
:1028D000378941008C00002094000020B1000020C6
:1028E0009C0000209800002034040040A87F0020B5
:1028F0004001002034010020D4000020B30000205B
:10290000590000205800002028270020F827002028
:10291000A00000205C0000201CB5694601A805F05D
:1029200057F801981CBD1CB5694601A805F050F880
:10293000019800EB4001C1EBC010BDF8001001EBA5
:10294000C0001CBD10B502F0CBFD10BDF0B50A46AD
:1029500000210023002400BF3DE0012505FA01F31A
:10296000156805EA03049C4234D105684F0003262C
:10297000BE40B543056015794E00B5400668354345
:1029800005601579012D02D01579022D16D18568C3
:102990004F000326BE40B543856055794E00B540D3
:1029A000866835438560456801268E40B54345609D
:1029B000456896798E40B6B235434560C5684F008C
:1029C0000326BE40B543C560D5794E00B540C66804
:1029D0003543C560491C1029BFD3F0BDF0B50023B5
:1029E00000244D07ED0E02FA05F3CE1000F120058C
:1029F00055F826504E07F70E0F26BE40B543CF10B0
:102A000000F1200646F82750CE1000F1200555F8B9
:102A1000265045EA0304CE1000F1200545F8264073
:102A2000F0BD0246002013690B400BB1012000E00D
:102A30000020704741837047018370474FF6FF7154
:102A400001600021017141718171C1717047000005
:102A500001480078704700005400002070B52DED4B
:102A6000048B304802F050FE86B22F480088301A9E
:102A70002E4908802C48068008460088B0F5004F93
:102A800002DA0846008803E028480088A0F5803074
:102A900005B200EE105AB8EEC00A254880ED000AD3
:102AA000002415E02349601C31F8100021F81400BF
:102AB000084630F9140000EE100AB8EEC00A1C48AF
:102AC000D0ED000A30EE200A80ED000A601C84B2CE
:102AD000042CE7DB174820F81450154890ED000A45
:102AE000F1EE040A80EE201A80ED001A90ED000A43
:102AF000DFED110A20EE200A10EE101A0846FDF74D
:102B0000B2FD41EC190B9FED0D0B53EC102BFDF7B3
:102B10001CFD41EC180BFDF7D1FD0A490860BDEC26
:102B2000048B70BD00080040500100204C010020C3
:102B3000480100201C8100200000C8420000000065
:102B4000003071404001002000BFFEE770B5044630
:102B50000D461646012332462946204604F0ECFD78
:102B600070BD70B504460D46164600233246294610
:102B7000204604F0E1FD70BD2DE9F0472DED088BF6
:102B800005460E4600249FEDC00AB0EE408A082E8E
:102B900002DBB6F5C87F04DD0020BDEC088BBDE884
:102BA000F08703246AE14FF00108A01E87B220E0FD
:102BB000781C05EBC000D0ED000A05EBC70090EDD6
:102BC000001A70EEC10AF0EEE00AB0EE600AF5EE0F
:102BD000000AB4EEE00AF1EE10FA06D3F0EE000AB5
:102BE000B4EEE00AF1EE10FA01DD4FF00008781CB7
:102BF00087B2E01C8742DBDBB8F1000F00D13BE17C
:102C000005EBC40090ED000ADFEDA00AB4EEE00A87
:102C1000F1EE10FA7EDB601C05EBC00090ED011AAE
:102C2000F0EE410A05EBC40090ED011AB0EE410A46
:102C300003F0B1FBF5EE000A20EE200AF0EE408A28
:102C4000F0EE680A9FED920A03F081FB10EE109AF5
:102C50004846FDF708FD41EC1A0B05EBC40090ED6A
:102C6000010A601C05EBC000D0ED010A30EE600ADD
:102C700010EE101A0846FDF7F6FC41EC1B0BB0EE07
:102C80004B0AF0EE6B0A03F058FBB0EE409AF0EE00
:102C9000609A53EC1A2B51EC190BFDF7F7FC39D85D
:102CA000601C05EBC00090ED011AF0EE410A05EB47
:102CB000C40090ED011AB0EE410A03F06CFBF5EE92
:102CC000000A20EE200AF0EE408AF0EE680A9FED3E
:102CD000700A03F03CFB10EE109A4846FDF7C3FC67
:102CE00041EC1A0B601E05EBC00090ED010AA01C20
:102CF00005EBC000D0ED010A30EE600A10EE101AAC
:102D00000846FDF7B0FC41EC1B0BB0EE4B0AF0EEB1
:102D10006B0A00E07DE003F010FBB0EE409AF0EEAD
:102D2000609A53EC1A2B51EC190BFDF7AFFC70D8DD
:102D3000601C05EBC00090ED011AF0EE410A05EBB6
:102D4000C40090ED011AB0EE410A03F024FBF5EE49
:102D5000000A20EE200AF0EE408AF0EE680A9FEDAD
:102D60004C0A03F0F4FA10EE109A4846FDF77BFC8B
:102D700041EC1A0BA01E05EBC00090ED010AE01C0F
:102D800005EBC000D0ED010A30EE600A10EE101A1B
:102D90000846FDF768FC41EC1B0BB0EE4B0AF0EE69
:102DA0006B0A03F0CAFAB0EE409AF0EE609A53EC68
:102DB0001A2B51EC190BFDF769FC5CD805EBC4002C
:102DC00090ED010AA01C05EBC000D0ED010AB4EEA5
:102DD000E00AF1EE10FA1DDDA01C05EBC00090ED3D
:102DE000000ADFED2C0A20EE200ADFED2B0A80EE30
:102DF000201AF0EE418AB0EE680AFDF71DFAA01C19
:102E000005EBC000D0ED010A20EE200AB0EE408AAA
:102E10001CE030E0601E05EBC00090ED000ADFED25
:102E20001D0A20EE200ADFED1C0A80EE201AF0EECB
:102E3000418AB0EE680AFDF7FFF9601E05EBC0009D
:102E4000D0ED010A20EE200AB0EE408A134890ED42
:102E5000000AB4EEC08AF1EE10FA0CDB9FED100A06
:102E6000B4EEC08AF1EE10FA05D2BCEEC80A10EE3C
:102E7000100A80B291E600BF601C84B2201DB042EF
:102E8000FFF691AE002088E6000000000000C84276
:102E90000000C843DB0F494000003443100100200C
:102EA00000007A442DE9F0472DED088B05460E46CB
:102EB00000249FEDC10AB0EE408A082E02DBB6F571
:102EC000C87F04DD0020BDEC088BBDE8F08703243B
:102ED0006BE14FF00108A01E87B220E0781C05EBE3
:102EE000C000D0ED000A05EBC70090ED001A70EEAF
:102EF000C10AF0EEE00AB0EE600AF5EE000AB4EEA8
:102F0000E00AF1EE10FA06D3F0EE000AB4EEE00AA1
:102F1000F1EE10FA01DD4FF00008781C87B2E01CDA
:102F20008742DBDBB8F1000F00D13CE105EBC400C8
:102F300090ED000ADFEDA10AB4EEE00AF1EE10FA1E
:102F40007ED8601C05EBC00090ED011AF0EE410A3E
:102F500005EBC40090ED011AB0EE410A03F01BFA34
:102F6000F5EE000A20EE200AF0EE408AF0EE680A44
:102F70009FED930A03F0EBF910EE109A4846FDF727
:102F800072FB41EC190B05EBC40090ED010A601CCB
:102F900005EBC000D0ED010A30EE600A10EE101A09
:102FA0000846FDF760FB41EC1B0BB0EE4B0AF0EE60
:102FB0006B0A03F0C2F9B0EE40AAF0EE60AA53EC3F
:102FC000192B51EC1A0BFDF761FBB9D8601C05EB0E
:102FD000C00090ED011AF0EE410A05EBC40090ED3F
:102FE000011AB0EE410A03F0D6F9F5EE000A20EE20
:102FF000200AF0EE408AF0EE680A9FED710A03F0B5
:10300000A6F910EE109A4846FDF72DFB41EC190B7E
:10301000601E05EBC00090ED010AA01C05EBC0008E
:10302000D0ED010A30EE600A10EE101A0846FDF7E6
:103030001AFB41EC1B0BB0EE4B0AF0EE6B0A00E002
:103040007EE003F07AF9B0EE40AAF0EE60AA53EC0D
:10305000192B51EC1A0BFDF719FB71D8601C05EB0D
:10306000C00090ED011AF0EE410A05EBC40090EDAE
:10307000011AB0EE410A03F08EF9F5EE000A20EED7
:10308000200AF0EE408AF0EE680A9FED4D0A03F048
:103090005EF910EE109A4846FDF7E5FA41EC1A0B7E
:1030A000A01E05EBC00090ED010AE01C05EBC0007E
:1030B000D0ED010A30EE600A10EE101A0846FDF756
:1030C000D2FA41EC1B0BB0EE4B0AF0EE6B0A03F0A8
:1030D00034F9B0EE409AF0EE609A53EC1A2B51ECB2
:1030E000190BFDF7D3FA5DD8601E05EBC00090ED1B
:1030F000010AA01C05EBC000D0ED010AB4EEE00A05
:10310000F1EE10FA1DDDA01C05EBC00090ED000AE9
:10311000DFED2C0A20EE200ADFED2B0A80EE201ACC
:10312000F0EE418AB0EE680AFDF786F8A01C05EBC8
:10313000C000D0ED010A20EE200AB0EE408A1CE06B
:1031400030E0601E05EBC00090ED000ADFED1D0AC7
:1031500020EE200ADFED1C0A80EE201AF0EE418AF4
:10316000B0EE680AFDF768F8601E05EBC000D0ED10
:10317000010A20EE200AB0EE408A144890ED000AC1
:10318000B4EEC08AF1EE10FA0CDB9FED110AB4EE3A
:10319000C08AF1EE10FA05D2BCEEC80A10EE100A91
:1031A00080B290E600BF601C84B2201DB042FFF6E2
:1031B00090AE002087E60000000000000000A04262
:1031C0000000C843DB0F49400000344310010020D9
:1031D00000007A442DE9F0412DED068B06460F469E
:1031E0000025B7F5487F04DD0020BDEC068BBDE867
:1031F000F081002469E006EBC40090ED000AB0EE17
:10320000408A06EBC40090ED010AF0EE408AB5EE6C
:10321000C08AF1EE10FA14DB9FED2E0AB4EEC08ADC
:10322000F1EE10FA0DD89FED2C0AF4EEC08AF1EE03
:1032300010FA06DB9FED290AF4EEC08AF1EE10FACF
:1032400000D940E09FED260A28EE000ADFED210AB2
:1032500080EE201AB0EE41AAB0EE4A0AFCF7B0FFA9
:1032600060EE289A9FED1E0A28EE000ADFED190A8B
:1032700080EE201AB0EE41AAB0EE4A0AFCF7DCFF5D
:1032800020EE289A9FED140AB4EEC09AF1EE10FADF
:1032900006DB9FED140AB4EEC09AF1EE10FA00D3EB
:1032A00011E0B5F5C87F01D100209EE70E4800EB84
:1032B000C500C0ED009A0C4800EBC50080ED019AF6
:1032C000681C85B200BF601C84B2BC4293DB2846F8
:1032D0008BE70000000034430000C8420080224514
:1032E000DB0F49400080A244146C00202DE9F0411E
:1032F00004460D4616461F462A4621460A48FFF751
:1033000025FC804641460848FFF736FC30802A46B7
:1033100021460548FFF725FC804641460248FFF755
:10332000C1FD3880BDE8F081007A002005480078B2
:1033300038B905480068401C03490860012001496C
:103340000870704734000020400000202DE9F04153
:1033500007460D4616461C4804681C48D0F80080F5
:103360001B48007830B9B5F5007F03D319480068D1
:10337000844202D10020BDE8F081BFF35F8F04F0EA
:103380000F0000EB4000144901EB800207CA86E8F9
:10339000070004F00F00114A02EB40214FF40072C5
:1033A0003846FCF793FFBFF35F8F601C0649086047
:1033B0000748007830B905480068804502D14FF4CD
:1033C0000070D8E70020D6E7300000204000002041
:1033D000340000202C000020A0250020A0050020A3
:1033E00070B51E48007800B970BD00211C48FEF77A
:1033F000D9F81B48FEF78EF900B1F5E700BFEFF3EF
:103400001080044600BF72B616480068164908606E
:1034100016480588001D058815491148FEF7A8F8CB
:103420004FF480610E48FEF741FA00201149087000
:10343000FFF779FA104908601048406810490860A1
:1034400000200649087001210548FEF7ABF800BFCF
:1034500084F3108800BF00BFC6E7000034000020DE
:10346000886002402C000020300000200044004012
:10347000400F00203500002038000020001000E040
:103480003C00002010B54FF0FF3200211EE0214823
:10349000405C022819D1002A16DB01EBC10000EBC9
:1034A00001301D4B03EB800000F58040036802EB08
:1034B000C20000EB0230184C04EB800000F58040A5
:1034C0000068181A002800DD0A46491C0229DEDBC4
:1034D000002A01DA002010BD00210EE091420BD03D
:1034E0000C48405C022807D100200A4B58540B4876
:1034F000006B401C094B1863491C0229EEDB0320BA
:10350000044B985402EBC20000EB0230024B03EB79
:103510008000E0E754010020608100202881002025
:10352000024642F22830801A014648F6A04091FB3C
:10353000F0F300FB1311002900DA014488B2704750
:103540002DE9F74F2DED048B044689460027BA4636
:10355000B8460020C0490880C0490880C04908809A
:103560009FEDC00AC04880ED000A0020BF490870E6
:10357000BF490880BF490870BF490870BF4908703B
:103580008020BF49087044F22000005DBD490870EA
:1035900044F214000059BC490968884201D1012055
:1035A00000E00020B9490870FFF7BDF9014644F278
:1035B0002000005D18B144F21000005902E044F20E
:1035C00004000059081AB24908604FF480400059BD
:1035D000B049086044F210000059AF49086044F255
:1035E00014000059AD490860AD49204600F092F939
:1035F0008C2512E0AA4830F815004FF6FF7188427A
:1036000007D10AF1010080B28246404503DDD04671
:1036100001E04FF0000A681C85B2DC2DEADD944819
:10362000A0F8008000254FE09D4830F815004FF6C7
:10363000FF71884246D09A4830F8150004EBC00666
:103640003088FFF76DFF00EE100AB8EE400ADFED9C
:10365000950A80EE201AB0EE418A0698874204DB74
:103660000020BDEC048BBDE8FE8F09EBC70080EDA8
:10367000008A708800EE100AB8EE400A3846791CBD
:103680008FB209EBC00080ED010A8C2D06DBDC2D2A
:1036900004DC73480088401C71490880DC2D07DB7E
:1036A000B5F5AA7F04DC6D480088401C6B49088092
:1036B000142D06DB8C2D04DC67480088401C66490D
:1036C000088000BF681C85B2B5F5347FACD30025F7
:1036D0004BE004EBC506708820B1708842F210718F
:1036E000884200D93FE03088FFF71AFF834644F252
:1036F00050618B4500D936E000EE10BAB8EE400AB2
:10370000DFED690A60EE208AB0EE680AFCF758FD2A
:10371000708800EE900AF8EE600A20EE209AB0EE73
:10372000680AFCF789FD708800EE900AF8EE600ADE
:1037300020EE208AB5EEC08AF1EE10FA12DDB0EE6E
:10374000C90ADFED5A0AB4EEE00AF1EE10FA09D226
:10375000454890ED000AB4EEC08AF1EE10FA01D2AD
:1037600080ED008A00BF681C85B244F21800005B3F
:10377000A842AEDCFFF7D7F8014644F22000005D16
:1037800018B144F21000005902E044F2040000595C
:10379000081A3F49086044F2140000593A49096880
:1037A000884201D1012000E00020384908702C48EF
:1037B00000880C2804D3B8F1140F01D8012000E0D0
:1037C00000202E49087025480088042801D30120D4
:1037D00000E00020284908701F480088042801D311
:1037E000012000E0002023490870002044F220015D
:1037F000095D09B940F00100194909880C2901D275
:1038000040F00200B8F1140F01D940F004001A4949
:10381000097809B940F008001649097809B940F05B
:10382000100044F214010959174A1268914201D05C
:1038300040F02000164909681D4A914201D940F024
:1038400040000F49087008B9012100E00021074A33
:103850001170384605E70000840100208201002035
:103860008001002000401C46880100208C010020BF
:103870008E01002098010020970100209601002071
:1038800099010020940100204000002095010020B3
:103890009001002074010020780100207C010020AC
:1038A000A80301200000C842D402373900000243B7
:1038B000605B03002DE9F04105460E461746984629
:1038C0001048006830440F490860002416E00E4894
:1038D000008828B9285DA52800D00EE00B480760B5
:1038E000295D094802880088401C074B1880084859
:1038F0008154404605F042FA00BF641CB442E6D34E
:10390000BDE8F081288100205C01002060010020DA
:10391000A80101202DE9F04706460D464FF0000AA8
:10392000002405E04FF6FF7025F81400601C84B2F7
:10393000B4F5347FF6D300242CE006EBC408B8F8C5
:103940000200642805D3B8F8020042F210718842E0
:1039500000D91DE0B8F80000FFF7E2FD3221B0FB0E
:10396000F1F735F817904FF6FF70814506D125F82D
:1039700017400AF101001FFA80FA08E0B8F80200C7
:1039800006EBC9014988884201DA25F8174000BFD3
:10399000601C84B244F21800805BA042CDDC50462B
:1039A000BDE8F08710B538210648FCF7B6FC06489C
:1039B000002101800020054908800549086003F0C6
:1039C000A1F910BD28810020540100205C010020D5
:1039D0006801002010B5044600200549088003F066
:1039E00091F904484463006A401C0249086210BD12
:1039F0005C010020288100203EB502241E4800689A
:103A00001E490968884207D01C4800681A490860A6
:103A100008460068FFF7DEFFFFF7E2FC1EE01649EC
:103A200002980968884206D013490298086008463F
:103A30000068FFF7CFFFFEF776FF0099401A1049A4
:103A4000884204D90C480068FFF7C4FF06E0294605
:103A50000C48DDE90023FFF72DFF00BF201EA4F175
:103A6000010407D06A464FF400710648FFF76EFC68
:103A7000051ED4D13EBD0000700100204000002092
:103A8000605B0300480901200146002010E000EBC4
:103A9000C00202EB0032084B03EB82028A4206D1DD
:103AA000064A125C032A02D10022044B1A54401C1D
:103AB0000228ECDB704700006081002054010020E8
:103AC0000246EAB144F22100805CC8B944F2220007
:103AD000805CA8B944F21800805AB0F5006F0FD886
:103AE00044F214008058074B1B68984208D144F2F6
:103AF00004008058081A044B984201D801207047EE
:103B00000020FCE740000020605B030000BFFEE7F0
:103B100070B504460D461646FDF7EAFB691E601EA9
:103B2000324601F03DFC70BD10B5044621464FF011
:103B3000804001F0F0FE10BD7047000070B500211C
:103B400000230F22C4781CB3174C246804F4E064EB
:103B5000C4F5E064C4F30721C1F10404E3B20A41EF
:103B600044789C40E1B28478144021430C07210E34
:103B70000E4C05786155047804F01F050124AC4013
:103B800005786D11AD0005F1E025C5F8004109E0AB
:103B9000047804F01F050124AC40054D0678761129
:103BA00045F8264070BD00000CED00E000E400E0A8
:103BB00080E100E002490143024A116070470000C1
:103BC0000000FA050CED00E0B0EE401ADFED311A0E
:103BD000B0EE610A70EEC11AC0ED071AD0ED091AF5
:103BE00090ED072A71EE821AC0ED091AD0ED091A7C
:103BF0009FED292AF4EEC21AF1EE10FA03DBDFED95
:103C0000261AC0ED091AD0ED091A9FED242AF4EE08
:103C1000C21AF1EE10FA03D8DFED201AC0ED091A2E
:103C2000D0ED001A90ED072A61EE821A90ED032A7A
:103C3000D0ED092A42EE221A90ED072AD0ED082A8B
:103C400032EE622AD0ED042A42EE821AB0EE610A08
:103C5000D0ED071AC0ED081AD0ED091A1049C1EDD0
:103C6000001A104981ED000ADFED0F1AB4EEE10AE7
:103C7000F1EE10FA03DBDFED0C1AB0EE610AB5EEDF
:103C8000C00AF1EE10FA03D8DFED021AB0EE610AB5
:103C9000704700000000000000004843000048C3D7
:103CA000BC000020C00000200000C8422DE9FF4FEA
:103CB0002DED040B2DED0C8BA1B007468B46B0EE1D
:103CC000409AF0EE608AF0EE41BA1C469FEDFB0A86
:103CD000B0EE40CABC212046FCF71FFB0320B234E3
:103CE000A07101202070E070B23C9FEDF40AB4EEA8
:103CF000C09AF1EE10FA1DDB9FEDF10AB4EEC09A06
:103D0000F1EE10FA16D89FEDEF0AF4EEC08AF1EE4C
:103D100010FA0FDB9FEDEC0AF4EEC08AF1EE10FA18
:103D200008D8B0EEEB0ADFEDE90AB4EEE00AF1EEF6
:103D300010FA05D921B0BDEC0C8B08B0BDE8F08FAE
:103D400097ED010AB4EE490AF1EE10FA0BD087EDB7
:103D5000019A87ED009A002078739FEDDD0A87EDC8
:103D6000020A3873387697ED000A84ED220ABBF117
:103D7000000F03D03398B0F5C87F00DDDAE74FF0CD
:103D800000083BE0D7ED000AB0EE600AB8F1000F82
:103D900001D0012001E04FF0FF30024609ABF0EE08
:103DA0006B0A5846339903F0EFFA0890DFEDC90A21
:103DB0009FEDC90A09A901A8089A04F00DFBC8EBF8
:103DC000C80104EB81001C2201A9FCF77FFADFED9A
:103DD000C30A9FEDC30A09A901A8089A04F0FCFAD6
:103DE000C8EBC80204F1380101EB82001C2201A9D2
:103DF000FCF76CFA08F1010000F0FF08B8F1020FBF
:103E0000C0DB254604F13806022084F8B2002C46B7
:103E1000A87E50B93620405D38B900203876387316
:103E20009FEDAB0A87ED020A84E7A87E08B1012066
:103E300000E002208146A87EF0B33620405DD8B372
:103E400095ED000AD5ED070A30EE200AF6EE000ADD
:103E500020EE20BAB0EE4C0A05F11C0002F0E2FFA1
:103E6000F0EE40CAB0EE4C0A284602F0DBFF7CEED2
:103E7000C0CAF7EE000A4BEE0B0AB0EE600A02F081
:103E8000AEFA8CEE808A84ED238A9FED8C0AB4EE24
:103E9000C08AF1EE10FA1ADB9FED890AB4EEC08AEF
:103EA000F1EE10FA13D895ED000AD5ED070A30EEC1
:103EB000600AB0EEC00A00E02FE0DFED8A0AB4EE3F
:103EC000E00AF1EE10FA02D84FF0000925E095ED76
:103ED000040AF3EE040A30EE200AD5ED0B0AB4EE24
:103EE000E00AF1EE10FA02D24FF0010915E095ED6B
:103EF0000B0AF3EE040A30EE200AD5ED040AB4EE04
:103F0000E00AF1EE10FA02D24FF0020905E00320B8
:103F100084F8B200002038760CE797ED000A84EDB3
:103F2000220AB9F1020F01D1012000E000208046F1
:103F3000C8EBC80005EB8000D0ED029AC8EBC800C2
:103F400005EB800090ED03AAB9F1000F15D195EDB6
:103F5000090AB4EEE90AF1EE10FA03DD95ED090A5B
:103F6000F0EE409A95ED0A0AB4EECA0AF1EE10FAA4
:103F700003D295ED0A0AB0EE40AADFED5B0AB0EE7F
:103F80004A0A02F008FAF0EE40CADFED580AB0EE35
:103F9000690A02F0DCF9B0EE40DAB0EE6C1AF0EE2D
:103FA0004D0AB0EE4C0A03F09FFCB0EE40CADFEDC4
:103FB0004F0AB0EE690A02F0CAF9F0EE40CADFED2E
:103FC0004A0AB0EE4A0A02F0E6F9F4EEC0CAF1EE8F
:103FD00010FA05DD042084F8B20000203876A9E646
:103FE00084ED26CAB9F1000F06D194ED230A84EDC1
:103FF000220A012084F8B900B9F1000F56D195EDDD
:10400000000AB0EEC00ADFED3A0AB4EEE00AF1EEC3
:1040100010FA7DD295ED070AB0EEC00ADFED340A42
:10402000B4EEE00AF1EE10FA72D2B07EF0B33620B0
:10403000805DD8B396ED000AB0EEC00ADFED2C0A21
:10404000B4EEE00AF1EE10FA62D296ED070AB0EE95
:10405000C00ADFED270AB4EEE00AF1EE10FA57D2FB
:1040600095ED040AF3EE0E0AB4EEE00AF1EE10FA52
:104070004ED295ED0B0AF3EE0E0AB4EEE00AF1EE25
:1040800010FA45D297ED020AB5EEC00AF1EE10FA29
:104090003ED1387E50B994ED230AB0EE408A787B49
:1040A00040B397ED000AF6EE080A00E030E020EE9B
:1040B000200AF5EE000A00EE880A1EE00000C84360
:1040C00000006144000016440080894400009643CB
:1040D0000000000000803B440000C8420080A24471
:1040E000008009443333B33E0000E14300007A43CB
:1040F000CDCCCC3DFFE7B0EE480A87ED000A0120A9
:104100007873002084F8B50097ED000A84ED220A48
:10411000B9F1000F7CD1B17E3620805D814277D02D
:104120003620805D08B1012000E000208246CAEB05
:10413000CA0006EB8000D0ED02CACAEBCA0005EB4C
:10414000800090ED030ADFEDE30A7CEEE00AB4EEB6
:10415000E00AF1EE10FA5ADBCAEBCA0006EB800067
:1041600090ED020A5FED240A78EEA00AB4EEE00AB0
:10417000F1EE10FA4BD8CAEBCA0006EB800090EDC6
:10418000030A5FED2B0A78EEE00AB4EEE00AF1EEE6
:1041900010FA3CDBCAEBCA0105EB8100B0EE6C0AF9
:1041A00002F040FEB0EE40DACAEBCA0106EB810035
:1041B000B0EE6C0A02F036FE3DEE400AB0EEC00AE8
:1041C000DFEDC50AB4EEE00AF1EE10FA1FD8CAEB33
:1041D000CA0005EB800090ED000ACAEBCA0006EBAE
:1041E0008000D0ED000A30EE600AB0EEC00ADFEDCC
:1041F000BB0AB4EEE00AF1EE10FA08D8BAF1000FEB
:1042000002D0022001E003E001208146D04600BF39
:1042100084F8B890012084F8B600002084F8B20039
:10422000D4ED220AB0EE600AF0EE4C0A4A4605F1DF
:104230001C01284603F06DFB84ED1C0A4A4605F17B
:104240001C01284604F078F884ED1E0AB9F1000F2D
:1042500008D1B07E20B13620805D08B1012006E093
:10426000002004E0C8EBC80006EB8000807E84F8E4
:10427000B70094F8B700E8B3C8EBC80006EB8000BD
:1042800090ED020AF0EE409AC8EBC80006EB800001
:1042900090ED030AB0EE40AAB9F1000F5CD196EDA3
:1042A000090AB4EEE90AF1EE10FA03DD96ED090A07
:1042B000F0EE409A96ED0A0AB4EECA0AF1EE10FA50
:1042C00003D296ED0A0AB0EE40AAB0EE680A06F1F3
:1042D0001C0002F0A7FDF0EE40CAB0EE680A3046BE
:1042E00002F0A0FD3CEEC00AB0EE408A4A4606F15C
:1042F0001C0100E06EE0304604F01EF8B0EE40BA5B
:10430000F7EE000A4BEE0B0AB0EE600A02F067F817
:10431000C8EE000AB0EE608A1FED980AB4EEC08ABB
:10432000F1EE10FA15D31FED9A0AB4EEC08AF1EE41
:1043300010FA0EDC96ED000AD6ED070A30EE600AA0
:10434000B0EEC00AF6EE000AB4EEE00AF1EE10FAA2
:1043500002DD002084F8B700B0EE4A1AF0EE690AD8
:10436000B0EE680A03F0C0FAF0EE40AAB0EE6A0AB6
:1043700030EE680AB0EEC00A5FEDA90AB4EEE00ABA
:10438000F1EE10FA04DCB4EEE9AAF1EE10FA02D272
:10439000002084F8B70094F8B700D8B1D4ED220A11
:1043A000B0EE600AF0EE6A0A4A4606F11C01304699
:1043B00003F0AFFA84ED1D0A4A4606F11C013046AF
:1043C00003F0BAFF84ED1F0AC4ED20AA94ED1D0A84
:1043D00084ED210A94F8B700A8BBC8EBC80005EB30
:1043E000800090ED030AB0EE401AC8EBC80005EB60
:1043F000800090ED020AF0EE400AB0EE680A03F089
:1044000073FA84ED200AB9F1000F0CD194ED200A63
:10441000D5ED0A0AB4EEE00AF1EE10FA03DD95EDEF
:104420000A0A84ED200A94ED201AF0EE410A94ED78
:10443000221AB0EE410A4A4605F11C01284603F053
:1044400068FA84ED210A94F8B700A8B394ED1E0A27
:10445000B0EEC00A5FEDDA0AB4EEE00AF1EE10FA4F
:104460002BD294ED1F0AB0EEC00A5FEDDF0AB4EE66
:10447000E00AF1EE10FA20D294ED1E0AD4ED1F0AE4
:1044800030EE600AB0EEC00A5FEDE70AB4EEE00A73
:10449000F1EE10FA11D294ED1D0AD4ED1C0A30EEA3
:1044A000600AB0EEC00ADFED0E0AB4EEE00AF1EEEB
:1044B00010FA02D2012001E0FFE7002084F8BA00E0
:1044C0002346B0EE6B0A59463846339A02F0B4FCE4
:1044D00000BF2FE4000048420000A042CDCC4C3F7A
:1044E000000070422DE9F04F2DED048B81B00446A1
:1044F0000E4617469B46DDF83890109D0020009030
:104500002C212846FBF709FF0F9825F81E0F68801D
:1045100096F8B800E871E07E2872207EA8721E3DF1
:10452000A068A9EB0000FD49884201D9002060770E
:10453000C4F80890BBF1000F02D096F8B60078B925
:10454000BBF1000F01D0012000E0062085F8240017
:104550000020A076607701B0BDEC048BBDE8F08F41
:1045600096ED1E0AB0EEC00ADFEDED0AB4EEE00AE9
:10457000F1EE10FA1CDC96F8B700D8B196ED1F0AE0
:10458000B0EEC00ADFEDE60AB4EEE00AF1EE10FA92
:104590000EDC96ED1D0AD6ED1C0A30EE600AB0EE78
:1045A000C00ADFEDE00AB4EEE00AF1EE10FA01DD38
:1045B000012000E00020824696ED210AD6ED240A73
:1045C00030EE600AD7ED060A30EEC00A85ED060A25
:1045D00095ED060A85ED000AD5ED000AB0EE600AF9
:1045E00004F03EFD8046207E40B396F8BA0028B322
:1045F000607F08B1607E18B1C4F804900020607735
:1046000000206076607FFF2802DA607F401C6077C0
:10461000607F02280CDB6068A9EB00004EF6602189
:10462000884205D300202076042085F82400B5E0D8
:1046300001200090022085F82400AFE0207E0028B1
:104640007ED094F9180040457AD095ED000AB0EE7E
:10465000C00AF3EE0E0AB4EEE00AF1EE10FA79DDCC
:1046600096F8B70088B396ED1F0AB0EEC00ADFEDEA
:10467000AC0AB4EEE00AF1EE10FA27DDD6ED1F0A1F
:10468000F1EE600AB0EE600A04F0EAFC40451DD18C
:10469000D6ED1E0AF1EE600AB0EE600A04F0E0FC0E
:1046A00040450AD096ED1E0AB0EEC00ADFED9E0A24
:1046B000B4EEE00AF1EE10FA08D284F81880002077
:1046C0006077052085F8240068E0FFE7607F18B177
:1046D00094F91900404503D000206077C4F8049095
:1046E00084F8198096ED1E0AB0EEC00ADFED8E0A3E
:1046F000B4EEE00AF1EE10FA10DDD6ED1E0AF1EE8E
:10470000600AB0EE600A04F0ABFC404506D1607F61
:10471000FF2805DA607F401C607701E000206077A9
:10472000607F022810DB6068A9EB00004EF6602174
:10473000884209D384F8188000206077052000E0C3
:1047400008E085F8240029E001200090032085F886
:10475000240023E000206077BAF1000F0CD095ED23
:10476000000AB0EEC00AF3EE0E0AB4EEE00AF1EE73
:1047700010FA01DD84F81880207E78B195ED000AEA
:10478000B0EEC00AF3EE0E0AB4EEE00AF1EE10FA53
:1047900004D801200090022085F8240095F8240018
:1047A000287796F8B30002280FD196ED240AB5EECB
:1047B000C00AF1EE10FA08D0009830B10020009045
:1047C00001206877002085F8240095ED000AD6EDD9
:1047D000240A30EE600A85ED000ABAF1000F01D11B
:1047E000207E10B19FED510A01E097ED070AF0EE2F
:1047F000408AD5ED000AB0EE600AB0EE681AF1EE1C
:10480000680A03F071F885ED000A96F8B80010B157
:1048100097ED040A09E0BAF1000F01D1207E10B132
:1048200097ED020A01E097ED000A85ED030A96F87C
:10483000B80010B197ED050A09E0BAF1000F01D1F7
:10484000207E10B197ED030A01E097ED010A85ED96
:10485000040ABAF1000F01D1207E08B395ED000AD9
:10486000B0EEC00ADFED320A30EE600ADFED300A4A
:1048700080EE201AF0EE419AB7EE001ADFED2D0A15
:10488000B0EE690A03F030F89FED2B1AF7EE000A3C
:1048900041EE000A95ED030A20EE800A85ED030A39
:1048A0002068A9EB000000EE100AB8EE408AA07E56
:1048B00098B396F8B800E17E88424CD196F8B700DC
:1048C000217F884247D196ED200AD4ED040A30EECC
:1048D000600AB0EEC00ADFED190AB4EEE00AF1EEAC
:1048E00010FA38DC9FED160AB4EEC08AF1EE10FA29
:1048F00031D39FED140AB4EEC08AF1EE10FA2ADC2F
:1049000096ED240AD4ED050A30EE600AB0EEC00A36
:10491000F3EE0E0AB4EEE00A16E01CE090D00300BD
:10492000295C0F3E00008C42CDCCCC3D0000FA4308
:1049300000007A43000000003333B33E0000C84259
:1049400000409C4600247448F1EE10FA03DC95F810
:104950002400052801D1012000E0002085F827006F
:1049600095ED030AF2EE040A20EE200AD5ED000AC6
:1049700020EE200A85ED010A95F8270010B11FED01
:10498000130A13E095ED000AD4ED030A30EE600A35
:10499000D5ED040AB2EE041A60EE810A20EE200A78
:1049A000DFED3B0A60EE200A80EE880AB0EE409A06
:1049B0009FED381ADFED380AB0EE490A02F094FF95
:1049C00085ED020A95ED010AD5ED020A30EE200AC6
:1049D000D5ED010A20EE200AB5EEC00AF1EE10FA7C
:1049E00005D295ED010AB1EE400A85ED020A788CF8
:1049F00000EE100AB8EE400AD5ED010A30EE200AAA
:104A0000D5ED020A30EE200A85ED050AB88C01EEDC
:104A1000900AF8EE611AB0EE611A388C01EE900A35
:104A2000F8EE611AF0EE610AD5ED051AB0EE610AF2
:104A300002F05AFFBCEEC00A10EE100AE883012013
:104A400085F82200207E85F82800009810B100200B
:104A5000A07680E5012085F82300E88B28840120DA
:104A6000A07695ED000A84ED030A96F8B800E0768A
:104A7000C4F8009096ED200A84ED040A96F8B70079
:104A8000207796ED240A84ED050A00BF63E5000057
:104A9000009CE04700001643000016C3704700006A
:104AA00029B1064A12680243044B1A6004E0034A23
:104AB00012688243014B1A60704700003038024090
:104AC00029B1064A12680243044B1A6004E0034A03
:104AD00012688243014B1A60704700004038024060
:104AE00029B1064A12680243044B1A6004E0034AE3
:104AF00012688243014B1A60704700002038024060
:104B000029B1064A12680243044B1A6004E0034AC2
:104B100012688243014B1A6070470000443802401B
:104B200029B1064A12680243044B1A6004E0034AA2
:104B300012688243014B1A6070470000243802401B
:104B4000F0B5002100220024022500260223324F66
:104B50003F6807F00C0121B1042905D0082937D19D
:104B600005E02E4F076036E02D4F076033E02A4FF7
:104B70003F1F3F68C7F38056274F3F1F3F6807F02E
:104B80003F036EB1264FB7FBF3F7DFF88CC0ACF1F3
:104B9000040CDCF800C0CCF3881C07FB0CF40CE020
:104BA0001E4FB7FBF3F7DFF870C0ACF1040CDCF874
:104BB00000C0CCF3881C07FB0CF4174F3F1F3F6865
:104BC000C7F301477F1C7D00B4FBF5F7076002E0E7
:104BD000124F076000BF00BF0F4F3F6807F0F001A2
:104BE0000909104F7A5C0768D74047600A4F3F6851
:104BF00007F4E051890A0B4F7A5C4768D740876019
:104C0000054F3F6807F46041490B064F7A5C4768DF
:104C1000D740C760F0BD0000083802400024F4000F
:104C200000127A001400002010B50648007828B160
:104C3000FDF779FE04490968401A10BD4FF0FF30B6
:104C4000FBE700003C0100203801002000BFEFF32B
:104C50001082114672B6054A10600122044B1A7088
:104C60000A4682F3108800BF704700003801002018
:104C70003C0100207047000010B50446FCF704FB1F
:104C800003480078012802D12046FCF72BFA10BD1A
:104C90005400002010B504462146024800F039FEB9
:104CA00010BD00000004004070B504460D461646D5
:104CB000691E601E324600F0C3FB70BD0CB50020BB
:104CC000019000903448006840F480303249086018
:104CD00000BF3148006800F4003000900198401C8B
:104CE0000190009818B90198B0F5A04FF1D12A4869
:104CF000006800F4003010B10120009001E00020B5
:104D000000900098012846D123484030006840F0C8
:104D100080502149403108602048006840F44040FC
:104D20001E4908601C48083000681B4908310860AB
:104D30000846006840F4004008600846006840F4F7
:104D4000A05008601648091F0860081F006840F05E
:104D50008070091F086000BF0F48006800F00070F5
:104D60000028F9D040F205700E4908600A48083062
:104D7000006820F003000849083108600846006810
:104D800040F00200086000BF03480830006800F0EF
:104D90000C000828F8D10CBD00380240007000401B
:104DA00008544007003C024010B52DED048B04462A
:104DB000B0EE409AB0EE608AF0EE418A282120469B
:104DC000FBF7ABFA84ED009A84ED038AC4ED048A04
:104DD000BDEC048B10BD000010B520211348FBF77B
:104DE0009CFA1C211248FBF798FA00201149086030
:104DF00028211148FBF791FA9FED100A0E4880ED2B
:104E0000000A9FED0E0A80ED040A9FED0D0A80ED69
:104E1000010A9FED0C0A80ED050A9FED0B0A80ED5B
:104E2000020A9FED0A0A80ED060A10BDFC800020F0
:104E3000E08000202C010020A87F0020295C0F3D8D
:104E40000AD7233D5839B43CC1CA213D0AD7A33CF7
:104E50002DE9F04F95B006468A4690461C22CD4972
:104E600004A8FBF733FACC4CCC4D46B144F2080011
:104E70008059CB490968401ACA49884208D900209C
:104E8000C449087308769FEDC80A084680ED020AF7
:104E90001EB144F20800805900E00020C0490860BB
:104EA000FDF741FD834659463046FEF709FE08B935
:104EB0004FF000082346BD4890ED001ABC48D0EDE5
:104EC000000ABC4890ED000A42465146B148FEF740
:104ED000EDFEFDF728FD074639463046FEF7F0FDAA
:104EE00030B1B548007800F0800008B9012000E03A
:104EF00000208146B9F1000F21D11C2204A9A54848
:104F0000FBF7E4F90020A349087308769FEDA60A91
:104F1000084680ED020A00209C346077E076A07697
:104F20009FEDA10A04ED020A04ED030AE0750320D7
:104F30002077084690ED000A04ED050A9C3C94F8A1
:104F4000B60040B900209349087308769FED960A91
:104F5000084680ED020A9948006899490968884224
:104F600006D00020974988769548006893490860E4
:104F7000954890ED000A8DED0B0A90ED040A8DED39
:104F80000C0A90ED010A8DED0D0A90ED050A8DEDEC
:104F90000E0A90ED020A8DED0F0A90ED060A8DEDD6
:104FA000100A824890ED000A8DED110A874890EDB5
:104FB000000A8DED120A40F29240ADF84C0040F22A
:104FC000A550ADF84E004FF4D760ADF850008048C2
:104FD000006880B24B460BAA2146CDE900700295CD
:104FE0007848FFF77FFA95F823007A49087095F81A
:104FF000230010B194F8B80000E00420764908704E
:1050000095F8220020B195ED000A6F4880ED070A5F
:1050100095F8230010B1288CFFF73CFE95F822008C
:1050200008B1012000E0002095F8271009B1042103
:1050300000E000210843694908612335E878886168
:1050400094F8B800C8616878086215F823094862C6
:1050500094F8B7008862208B0863A08E48635020C4
:10506000005B8863B4F86C00C86394F8B90008B1B9
:10507000022005E04748407B08B1012000E0002005
:105080005649086495F92800401C48640846C0F851
:105090004880E88BC864288C08654B4890ED080A66
:1050A0004F4880ED000A95ED000A80ED010A95ED6C
:1050B000010A80ED020A95ED020A80ED030A95EDE2
:1050C000030A80ED040A95ED040A80ED050A95EDCA
:1050D000050A80ED060A9FED430A80ED070A94ED6C
:1050E0001C0A80ED080A94ED1D0A80ED090A94ED72
:1050F000200A80ED0A0A94ED1E0A80ED0B0A94ED59
:105100001F0A80ED0C0A94ED220A80ED0D0A94ED41
:10511000040A80ED0E0A94ED0B0A80ED0F0A94ED5F
:10512000030AD4ED020A30EE600A80ED100A94ED15
:105130000A0AD4ED090A30EE600A80ED110A94EDF6
:10514000050A80ED120A94ED0C0A80ED130A94ED25
:10515000120A80ED140A94ED190A80ED150A94EDF7
:10516000110AD4ED100A30EE600A80ED160A94EDB3
:10517000180AD4ED170A30EE600A80ED170A95F888
:10518000230020B195ED000A0F4880ED080A15B004
:10519000BDE8F08FE0800020F87F0020B480002080
:1051A0002C01002090D00300000000001801002016
:1051B0002001002024010020990100202801002066
:1051C0005C000020FC800020A87F00201C01002043
:1051D00034040040140100209A010020EC28002033
:1051E0004C29002000A0B444042808D14FF0E0214D
:1051F000096941F004014FF0E022116107E04FF02E
:10520000E021096921F004014FF0E02211617047AB
:105210007047000010B51548006840F4700013494D
:1052200008601348006840F0010011490860002040
:105230000F49083108600E4800680E4908400C49C3
:1052400008600D48091D0860081F006820F48020D0
:10525000091F0860002006490C310860FFF72EFD89
:105260004FF0006001498039086010BD88ED00E012
:1052700000380240FFFFF6FE10300024F0B50C4667
:10528000154600210022068C4FF6FE773E4006842C
:10529000018B028C4FF60C7631407E1C06EA031619
:1052A0002E4331434FF6F576324044F00106324347
:1052B00001830284F0BDF0B50C46154600210022A2
:1052C0000026078C4FF6EF7C07EA0C070784018B5A
:1052D000028C4FF6FF7707EA041640F6FF47394085
:1052E0004FF6FF7707EA033739434FF6FF7707EAB0
:1052F000052739434FF65F773A4046F010073A43A7
:1053000001830284F0BDF0B50C4615460021002251
:105310000026078C4FF6FF6C07EA0C070784818B89
:10532000028C4FF6FF7707EA04264FF60C773940D8
:105330004FF6FF7707EA03172F4339434FF2FF5722
:105340003A4046F480773A4381830284F0BDF0B559
:105350000C461546002100220026078C4EF6FF7CE5
:1053600007EA0C070784818B028C4FF6FF7707EA68
:10537000043640F6FF4739404FF6FF7707EA052726
:1053800039434FF6FF7707EA0337394345F6FF778E
:105390003A4046F480573A4381830284F0BD0000CE
:1053A00070B58AB006460C46154601210846FFF73F
:1053B00087FB01210846FFF773FB012211461F48B6
:1053C000FDF70CFB022008908DF8240003208DF8D7
:1053D000250000208DF826008DF8270008A9174821
:1053E000FDF7B4FAB0B2ADF814000020ADF8160025
:1053F0000694ADF81C0005A94FF0804000F0BCFAFF
:105400006020ADF800000120ADF802000020ADF8EA
:105410000C00029569464FF0804000F01BFA08210D
:10542000C80600F069FA0121880700F031F901216E
:10543000880700F03CF90AB070BD0000000002408F
:1054400070B58AB006460C46154601210220FFF7CA
:1054500037FB01210846FFF723FB022206211E48E5
:10546000FDF7BCFA4020089002208DF824000320AC
:105470008DF8250000208DF826008DF8270008A95A
:105480001548FDF763FAB0B2ADF814000020ADF88E
:1054900016000694ADF81C00029505A90F4800F00F
:1054A0006BFA6020ADF800000120ADF8020000208A
:1054B000ADF80C006946094800F084F90821074856
:1054C00000F0BEF90121054800F0E2F8012103488F
:1054D00000F0EDF80AB070BD00000240000400408A
:1054E00000B589B001210420FFF7EAFA0121082064
:1054F000FFF7D6FA02208DF8080001208DF80A0087
:1055000003208DF8090000208DF80B004FF4405067
:10551000019001A91E48FDF719FA02220C211C482E
:10552000FDF75CFA02220D211948FDF757FA002019
:10553000ADF81800ADF81A004FF6FF700790002084
:10554000ADF8200006A9134800F016FA03A800F0F1
:1055500026F90F20ADF8140003A90E4800F0E8F872
:105560000420ADF80C0003A90A4800F0E1F800237C
:105570001A460321074800F0A6F80021054800F06C
:10558000CCF90121034800F092F809B000BD0000F9
:10559000000C02400008004010B50121154800F041
:1055A000B6F8012824D10121124800F07DF8FDF75A
:1055B00055FA114890ED000A104880ED000A104895
:1055C0000E49D1ED000A0F4991ED000AFEF7FCFAF1
:1055D000BCEEC00A10EE100A0B490880084600888D
:1055E000FEF7A2FA0122114608480088FCF736FEB1
:1055F00010BD0000000C00404401002034010020D8
:10560000D07F0020400100204E0100204C010020EE
:105610007FB505460C4601210820FFF751FA029597
:10562000ADF804400020ADF80600ADF80C0001A96B
:105630000D4800F0A1F9012211460B4800F0B8F81E
:105640000121094800F033F832208DF800000120D4
:105650008DF8010003208DF8020001208DF8030071
:105660006846FEF76BFA7FBD000C00400648008AD2
:1056700000F0010038B100200349088203480068A7
:10568000401C024908607047001000408000002064
:1056900021B1028842F08002028004E002884FF6C5
:1056A0007F731A4002807047CA430282704721B15B
:1056B000028842F00102028004E002884FF6FE7385
:1056C0001A4002807047F0B50C4615461E46002170
:1056D000002200230189028B038C4FF6F8773940B2
:1056E00021434FF6FC473A4040F201173A434FF648
:1056F000DD773B404FF6FF7707EA06172F433B4322
:10570000018102830384F0BD0146486A704730B5C9
:105710000246002000230024158A05EA010395892A
:1057200005EA010413B10CB1012000E0002030BDF6
:1057300070B505460C46208850B92389A288618837
:105740002846FFF79BFDE188284600F0E8F825E0B1
:10575000208804280AD12389A28861882846FFF777
:10576000AAFDE188284600F0E3F817E02088082821
:105770000AD12389A28861882846FFF7C4FDE18801
:10578000284600F0E2F809E02389A28861882846CB
:10579000FFF7DDFDE188284600F0E0F870BD00214C
:1057A00001804180012181800021C18001817047F9
:1057B0001AB183890B43838102E083898B43838100
:1057C0007047000070B5002400220023058C4FF6BE
:1057D000FE7635400584028C8388048B4FF68F75E6
:1057E0002C40B51E2C400D882C43751E2A408D89F7
:1057F0002A434D882A43104DA84202D00F4DA8429B
:1058000013D14FF6F7752A40CD892A434FF6FB7521
:105810002A408D882A434FF6FF652B404FF6FF55EF
:105820002B400D8A2B434D8A2B43838004838D6844
:105830004563028470BD0000000001400004014087
:105840000A460021018B4FF6F7731940114301837B
:105850007047000070B5002400220023058C4FF62D
:10586000EF7635400584028C8388048B48F6FF75FB
:105870002C404FF6FF452C400D884FF6FF7606EA88
:1058800005252C434FF6DF752A408D8906EA05155C
:105890002A434D8806EA05152A43154DA84202D031
:1058A000144DA8421DD14FF67F752A40CD894FF681
:1058B000FF7606EA05152A434FF6BF752A408D8804
:1058C00006EA05152A434FF6FF352B404FF2FF75C8
:1058D0002B400D8A06EA85052B434D8A06EA85058D
:1058E0002B43838004838D688563028470BD000030
:1058F00000000140000401400A460021018B4FF2E4
:10590000FF7319404FF6FF7303EA02231943018323
:105910007047416370478163704741627047028BF3
:105920004FF6F3731A400283028B0A4302837047D7
:10593000028B4FF2FF331A400283028B4FF6FF7344
:1059400003EA01231A4302837047828B4FF6F373F5
:105950001A408283828B0A4382837047828B4FF284
:10596000FF331A408283828B4FF6FF7303EA0123D1
:105970001A4382837047000000220288184B984225
:105980000ED0184B98420BD0B0F1804F08D0164B78
:10599000984205D0154B984202D0154B984204D13D
:1059A0004FF68F731A404B881A43124B984207D018
:1059B000114B984204D04FF6FF431A400B891A430B
:1059C00002804B68C3620B880385054B984202D066
:1059D000044B984201D18B7A03860123838270475E
:1059E00000000140000401400004004000080040A5
:1059F000000C004000100040001400402DE9F0476A
:105A00002DED068BEEB08246FBF7F6F8022804DA9D
:105A10006EB0BDEC068BBDE8F0875046FCF7A0F8F1
:105A200018B10F20DF490870F2E7DFA15046FAF7FE
:105A300090FC00287DD1DF4890F8230088B1DE4833
:105A400090F8BA0068B1DC4890F8B80048B9DA4874
:105A500090ED240AB5EEC00AF1EE10FA01D1012052
:105A600000E000208146B9F1000F03D0D24890ED4C
:105A70001C0A01E09FEDD10A10EE101A0846FAF751
:105A8000F2FDCDE92001CC4890ED220A10EE101A6B
:105A90000846FAF7E8FDCDE91E01C74890ED1D0A5A
:105AA00010EE101A0846FAF7DEFDCDE91C01C248D7
:105AB00090ED1C0A10EE101A0846FAF7D4FDCDE955
:105AC0001A01BD4890ED200A10EE101A0846FAF7A8
:105AD000CAFDCDE91801B74890ED000A10EE101A82
